{
  "_format": "hh-sol-artifact-1",
  "contractName": "BallotStorage",
  "sourceName": "contracts/storage/BallotStorage.sol",
  "abi": [
    {
      "inputs": [
        {
          "internalType": "address",
          "name": "_registry",
          "type": "address"
        }
      ],
      "stateMutability": "nonpayable",
      "type": "constructor"
    },
    {
      "anonymous": false,
      "inputs": [
        {
          "indexed": true,
          "internalType": "uint256",
          "name": "ballotId",
          "type": "uint256"
        }
      ],
      "name": "BallotCanceled",
      "type": "event"
    },
    {
      "anonymous": false,
      "inputs": [
        {
          "indexed": true,
          "internalType": "uint256",
          "name": "ballotId",
          "type": "uint256"
        },
        {
          "indexed": true,
          "internalType": "uint256",
          "name": "ballotType",
          "type": "uint256"
        },
        {
          "indexed": true,
          "internalType": "address",
          "name": "creator",
          "type": "address"
        }
      ],
      "name": "BallotCreated",
      "type": "event"
    },
    {
      "anonymous": false,
      "inputs": [
        {
          "indexed": true,
          "internalType": "uint256",
          "name": "ballotId",
          "type": "uint256"
        },
        {
          "indexed": false,
          "internalType": "uint256",
          "name": "state",
          "type": "uint256"
        }
      ],
      "name": "BallotFinalized",
      "type": "event"
    },
    {
      "anonymous": false,
      "inputs": [
        {
          "indexed": true,
          "internalType": "uint256",
          "name": "ballotId",
          "type": "uint256"
        },
        {
          "indexed": true,
          "internalType": "uint256",
          "name": "startTime",
          "type": "uint256"
        },
        {
          "indexed": true,
          "internalType": "uint256",
          "name": "endTime",
          "type": "uint256"
        }
      ],
      "name": "BallotStarted",
      "type": "event"
    },
    {
      "anonymous": false,
      "inputs": [
        {
          "indexed": true,
          "internalType": "uint256",
          "name": "ballotId",
          "type": "uint256"
        },
        {
          "indexed": true,
          "internalType": "address",
          "name": "updatedBy",
          "type": "address"
        }
      ],
      "name": "BallotUpdated",
      "type": "event"
    },
    {
      "anonymous": false,
      "inputs": [
        {
          "indexed": true,
          "internalType": "address",
          "name": "previousOwner",
          "type": "address"
        },
        {
          "indexed": true,
          "internalType": "address",
          "name": "newOwner",
          "type": "address"
        }
      ],
      "name": "OwnershipTransferred",
      "type": "event"
    },
    {
      "anonymous": false,
      "inputs": [
        {
          "indexed": true,
          "internalType": "uint256",
          "name": "voteid",
          "type": "uint256"
        },
        {
          "indexed": true,
          "internalType": "uint256",
          "name": "ballotId",
          "type": "uint256"
        },
        {
          "indexed": true,
          "internalType": "address",
          "name": "voter",
          "type": "address"
        },
        {
          "indexed": false,
          "internalType": "uint256",
          "name": "decision",
          "type": "uint256"
        }
      ],
      "name": "Voted",
      "type": "event"
    },
    {
      "inputs": [],
      "name": "BALLOT_STORAGE_NAME",
      "outputs": [
        {
          "internalType": "bytes32",
          "name": "",
          "type": "bytes32"
        }
      ],
      "stateMutability": "view",
      "type": "function"
    },
    {
      "inputs": [],
      "name": "ENV_STORAGE_NAME",
      "outputs": [
        {
          "internalType": "bytes32",
          "name": "",
          "type": "bytes32"
        }
      ],
      "stateMutability": "view",
      "type": "function"
    },
    {
      "inputs": [],
      "name": "GOV_NAME",
      "outputs": [
        {
          "internalType": "bytes32",
          "name": "",
          "type": "bytes32"
        }
      ],
      "stateMutability": "view",
      "type": "function"
    },
    {
      "inputs": [],
      "name": "MAINTENANCE_NAME",
      "outputs": [
        {
          "internalType": "bytes32",
          "name": "",
          "type": "bytes32"
        }
      ],
      "stateMutability": "view",
      "type": "function"
    },
    {
      "inputs": [],
      "name": "REWARD_POOL_NAME",
      "outputs": [
        {
          "internalType": "bytes32",
          "name": "",
          "type": "bytes32"
        }
      ],
      "stateMutability": "view",
      "type": "function"
    },
    {
      "inputs": [],
      "name": "STAKING_NAME",
      "outputs": [
        {
          "internalType": "bytes32",
          "name": "",
          "type": "bytes32"
        }
      ],
      "stateMutability": "view",
      "type": "function"
    },
    {
      "inputs": [
        {
          "internalType": "uint256",
          "name": "_ballotId",
          "type": "uint256"
        }
      ],
      "name": "cancelBallot",
      "outputs": [],
      "stateMutability": "nonpayable",
      "type": "function"
    },
    {
      "inputs": [
        {
          "internalType": "uint256",
          "name": "_id",
          "type": "uint256"
        },
        {
          "internalType": "uint256",
          "name": "_ballotType",
          "type": "uint256"
        },
        {
          "internalType": "uint256",
          "name": "_duration",
          "type": "uint256"
        },
        {
          "internalType": "address",
          "name": "_creator",
          "type": "address"
        },
        {
          "internalType": "address",
          "name": "_newGovernanceAddress",
          "type": "address"
        }
      ],
      "name": "createBallotForAddress",
      "outputs": [
        {
          "internalType": "uint256",
          "name": "",
          "type": "uint256"
        }
      ],
      "stateMutability": "nonpayable",
      "type": "function"
    },
    {
      "inputs": [
        {
          "internalType": "uint256",
          "name": "_id",
          "type": "uint256"
        },
        {
          "internalType": "uint256",
          "name": "_ballotType",
          "type": "uint256"
        },
        {
          "internalType": "uint256",
          "name": "_duration",
          "type": "uint256"
        },
        {
          "internalType": "address",
          "name": "_creator",
          "type": "address"
        },
        {
          "internalType": "address",
          "name": "_oldStakerAddress",
          "type": "address"
        },
        {
          "internalType": "address",
          "name": "_newStakerAddress",
          "type": "address"
        },
        {
          "internalType": "address",
          "name": "_newVoterAddress",
          "type": "address"
        },
        {
          "internalType": "address",
          "name": "_newRewardAddress",
          "type": "address"
        },
        {
          "internalType": "bytes",
          "name": "_newNodeName",
          "type": "bytes"
        },
        {
          "internalType": "bytes",
          "name": "_newNodeId",
          "type": "bytes"
        },
        {
          "internalType": "bytes",
          "name": "_newNodeIp",
          "type": "bytes"
        },
        {
          "internalType": "uint256",
          "name": "_newNodePort",
          "type": "uint256"
        }
      ],
      "name": "createBallotForMember",
      "outputs": [],
      "stateMutability": "nonpayable",
      "type": "function"
    },
    {
      "inputs": [
        {
          "internalType": "uint256",
          "name": "_id",
          "type": "uint256"
        },
        {
          "internalType": "uint256",
          "name": "_ballotType",
          "type": "uint256"
        },
        {
          "internalType": "uint256",
          "name": "_duration",
          "type": "uint256"
        },
        {
          "internalType": "address",
          "name": "_creator",
          "type": "address"
        },
        {
          "internalType": "bytes32",
          "name": "_envVariableName",
          "type": "bytes32"
        },
        {
          "internalType": "uint256",
          "name": "_envVariableType",
          "type": "uint256"
        },
        {
          "internalType": "bytes",
          "name": "_envVariableValue",
          "type": "bytes"
        }
      ],
      "name": "createBallotForVariable",
      "outputs": [
        {
          "internalType": "uint256",
          "name": "",
          "type": "uint256"
        }
      ],
      "stateMutability": "nonpayable",
      "type": "function"
    },
    {
      "inputs": [
        {
          "internalType": "uint256",
          "name": "_voteId",
          "type": "uint256"
        },
        {
          "internalType": "uint256",
          "name": "_ballotId",
          "type": "uint256"
        },
        {
          "internalType": "address",
          "name": "_voter",
          "type": "address"
        },
        {
          "internalType": "uint256",
          "name": "_decision",
          "type": "uint256"
        },
        {
          "internalType": "uint256",
          "name": "_power",
          "type": "uint256"
        }
      ],
      "name": "createVote",
      "outputs": [],
      "stateMutability": "nonpayable",
      "type": "function"
    },
    {
      "inputs": [
        {
          "internalType": "uint256",
          "name": "_ballotId",
          "type": "uint256"
        },
        {
          "internalType": "uint256",
          "name": "_ballotState",
          "type": "uint256"
        }
      ],
      "name": "finalizeBallot",
      "outputs": [],
      "stateMutability": "nonpayable",
      "type": "function"
    },
    {
      "inputs": [
        {
          "internalType": "uint256",
          "name": "_id",
          "type": "uint256"
        }
      ],
      "name": "getBallotAddress",
      "outputs": [
        {
          "internalType": "address",
          "name": "newGovernanceAddress",
          "type": "address"
        }
      ],
      "stateMutability": "view",
      "type": "function"
    },
    {
      "inputs": [
        {
          "internalType": "uint256",
          "name": "_id",
          "type": "uint256"
        }
      ],
      "name": "getBallotBasic",
      "outputs": [
        {
          "internalType": "uint256",
          "name": "startTime",
          "type": "uint256"
        },
        {
          "internalType": "uint256",
          "name": "endTime",
          "type": "uint256"
        },
        {
          "internalType": "uint256",
          "name": "ballotType",
          "type": "uint256"
        },
        {
          "internalType": "address",
          "name": "creator",
          "type": "address"
        },
        {
          "internalType": "bytes",
          "name": "memo",
          "type": "bytes"
        },
        {
          "internalType": "uint256",
          "name": "totalVoters",
          "type": "uint256"
        },
        {
          "internalType": "uint256",
          "name": "powerOfAccepts",
          "type": "uint256"
        },
        {
          "internalType": "uint256",
          "name": "powerOfRejects",
          "type": "uint256"
        },
        {
          "internalType": "uint256",
          "name": "state",
          "type": "uint256"
        },
        {
          "internalType": "bool",
          "name": "isFinalized",
          "type": "bool"
        },
        {
          "internalType": "uint256",
          "name": "duration",
          "type": "uint256"
        }
      ],
      "stateMutability": "view",
      "type": "function"
    },
    {
      "inputs": [],
      "name": "getBallotCount",
      "outputs": [
        {
          "internalType": "uint256",
          "name": "",
          "type": "uint256"
        }
      ],
      "stateMutability": "view",
      "type": "function"
    },
    {
      "inputs": [
        {
          "internalType": "uint256",
          "name": "_id",
          "type": "uint256"
        }
      ],
      "name": "getBallotMember",
      "outputs": [
        {
          "internalType": "address",
          "name": "oldStakerAddress",
          "type": "address"
        },
        {
          "internalType": "address",
          "name": "newStakerAddress",
          "type": "address"
        },
        {
          "internalType": "address",
          "name": "newVoterAddress",
          "type": "address"
        },
        {
          "internalType": "address",
          "name": "newRewardAddress",
          "type": "address"
        },
        {
          "internalType": "bytes",
          "name": "newNodeName",
          "type": "bytes"
        },
        {
          "internalType": "bytes",
          "name": "newNodeId",
          "type": "bytes"
        },
        {
          "internalType": "bytes",
          "name": "newNodeIp",
          "type": "bytes"
        },
        {
          "internalType": "uint256",
          "name": "newNodePort",
          "type": "uint256"
        },
        {
          "internalType": "uint256",
          "name": "lockAmount",
          "type": "uint256"
        }
      ],
      "stateMutability": "view",
      "type": "function"
    },
    {
      "inputs": [
        {
          "internalType": "uint256",
          "name": "_id",
          "type": "uint256"
        }
      ],
      "name": "getBallotPeriod",
      "outputs": [
        {
          "internalType": "uint256",
          "name": "startTime",
          "type": "uint256"
        },
        {
          "internalType": "uint256",
          "name": "endTime",
          "type": "uint256"
        },
        {
          "internalType": "uint256",
          "name": "duration",
          "type": "uint256"
        }
      ],
      "stateMutability": "view",
      "type": "function"
    },
    {
      "inputs": [
        {
          "internalType": "uint256",
          "name": "_id",
          "type": "uint256"
        }
      ],
      "name": "getBallotState",
      "outputs": [
        {
          "internalType": "uint256",
          "name": "ballotType",
          "type": "uint256"
        },
        {
          "internalType": "uint256",
          "name": "state",
          "type": "uint256"
        },
        {
          "internalType": "bool",
          "name": "isFinalized",
          "type": "bool"
        }
      ],
      "stateMutability": "view",
      "type": "function"
    },
    {
      "inputs": [
        {
          "internalType": "uint256",
          "name": "_id",
          "type": "uint256"
        }
      ],
      "name": "getBallotVariable",
      "outputs": [
        {
          "internalType": "bytes32",
          "name": "envVariableName",
          "type": "bytes32"
        },
        {
          "internalType": "uint256",
          "name": "envVariableType",
          "type": "uint256"
        },
        {
          "internalType": "bytes",
          "name": "envVariableValue",
          "type": "bytes"
        }
      ],
      "stateMutability": "view",
      "type": "function"
    },
    {
      "inputs": [
        {
          "internalType": "uint256",
          "name": "_id",
          "type": "uint256"
        }
      ],
      "name": "getBallotVotingInfo",
      "outputs": [
        {
          "internalType": "uint256",
          "name": "totalVoters",
          "type": "uint256"
        },
        {
          "internalType": "uint256",
          "name": "powerOfAccepts",
          "type": "uint256"
        },
        {
          "internalType": "uint256",
          "name": "powerOfRejects",
          "type": "uint256"
        }
      ],
      "stateMutability": "view",
      "type": "function"
    },
    {
      "inputs": [],
      "name": "getMaxVotingDuration",
      "outputs": [
        {
          "internalType": "uint256",
          "name": "",
          "type": "uint256"
        }
      ],
      "stateMutability": "view",
      "type": "function"
    },
    {
      "inputs": [],
      "name": "getMinVotingDuration",
      "outputs": [
        {
          "internalType": "uint256",
          "name": "",
          "type": "uint256"
        }
      ],
      "stateMutability": "view",
      "type": "function"
    },
    {
      "inputs": [],
      "name": "getPreviousBallotStorage",
      "outputs": [
        {
          "internalType": "address",
          "name": "",
          "type": "address"
        }
      ],
      "stateMutability": "view",
      "type": "function"
    },
    {
      "inputs": [],
      "name": "getTime",
      "outputs": [
        {
          "internalType": "uint256",
          "name": "",
          "type": "uint256"
        }
      ],
      "stateMutability": "view",
      "type": "function"
    },
    {
      "inputs": [
        {
          "internalType": "uint256",
          "name": "_voteId",
          "type": "uint256"
        }
      ],
      "name": "getVote",
      "outputs": [
        {
          "internalType": "uint256",
          "name": "voteId",
          "type": "uint256"
        },
        {
          "internalType": "uint256",
          "name": "ballotId",
          "type": "uint256"
        },
        {
          "internalType": "address",
          "name": "voter",
          "type": "address"
        },
        {
          "internalType": "uint256",
          "name": "decision",
          "type": "uint256"
        },
        {
          "internalType": "uint256",
          "name": "power",
          "type": "uint256"
        },
        {
          "internalType": "uint256",
          "name": "time",
          "type": "uint256"
        }
      ],
      "stateMutability": "view",
      "type": "function"
    },
    {
      "inputs": [
        {
          "internalType": "uint56",
          "name": "_ballotId",
          "type": "uint56"
        },
        {
          "internalType": "address",
          "name": "_voter",
          "type": "address"
        }
      ],
      "name": "hasAlreadyVoted",
      "outputs": [
        {
          "internalType": "bool",
          "name": "",
          "type": "bool"
        }
      ],
      "stateMutability": "view",
      "type": "function"
    },
    {
      "inputs": [],
      "name": "isDisabled",
      "outputs": [
        {
          "internalType": "bool",
          "name": "",
          "type": "bool"
        }
      ],
      "stateMutability": "view",
      "type": "function"
    },
    {
      "inputs": [],
      "name": "owner",
      "outputs": [
        {
          "internalType": "address",
          "name": "",
          "type": "address"
        }
      ],
      "stateMutability": "view",
      "type": "function"
    },
    {
      "inputs": [],
      "name": "reg",
      "outputs": [
        {
          "internalType": "contract IRegistry",
          "name": "",
          "type": "address"
        }
      ],
      "stateMutability": "view",
      "type": "function"
    },
    {
      "inputs": [],
      "name": "renounceOwnership",
      "outputs": [],
      "stateMutability": "nonpayable",
      "type": "function"
    },
    {
      "inputs": [
        {
          "internalType": "address",
          "name": "_address",
          "type": "address"
        }
      ],
      "name": "setPreviousBallotStorage",
      "outputs": [],
      "stateMutability": "nonpayable",
      "type": "function"
    },
    {
      "inputs": [
        {
          "internalType": "address",
          "name": "_addr",
          "type": "address"
        }
      ],
      "name": "setRegistry",
      "outputs": [],
      "stateMutability": "nonpayable",
      "type": "function"
    },
    {
      "inputs": [
        {
          "internalType": "uint256",
          "name": "_ballotId",
          "type": "uint256"
        },
        {
          "internalType": "uint256",
          "name": "_startTime",
          "type": "uint256"
        },
        {
          "internalType": "uint256",
          "name": "_endTime",
          "type": "uint256"
        }
      ],
      "name": "startBallot",
      "outputs": [],
      "stateMutability": "nonpayable",
      "type": "function"
    },
    {
      "inputs": [
        {
          "internalType": "address",
          "name": "newOwner",
          "type": "address"
        }
      ],
      "name": "transferOwnership",
      "outputs": [],
      "stateMutability": "nonpayable",
      "type": "function"
    },
    {
      "inputs": [
        {
          "internalType": "uint256",
          "name": "_ballotId",
          "type": "uint256"
        },
        {
          "internalType": "uint256",
          "name": "_duration",
          "type": "uint256"
        }
      ],
      "name": "updateBallotDuration",
      "outputs": [],
      "stateMutability": "nonpayable",
      "type": "function"
    },
    {
      "inputs": [
        {
          "internalType": "uint256",
          "name": "_ballotId",
          "type": "uint256"
        },
        {
          "internalType": "uint256",
          "name": "_lockAmount",
          "type": "uint256"
        }
      ],
      "name": "updateBallotMemberLockAmount",
      "outputs": [],
      "stateMutability": "nonpayable",
      "type": "function"
    },
    {
      "inputs": [
        {
          "internalType": "uint256",
          "name": "_ballotId",
          "type": "uint256"
        },
        {
          "internalType": "bytes",
          "name": "_memo",
          "type": "bytes"
        }
      ],
      "name": "updateBallotMemo",
      "outputs": [],
      "stateMutability": "nonpayable",
      "type": "function"
    }
  ],
  "bytecode": "0x608060405260006009553480156200001657600080fd5b506040516200397138038062003971833981016040819052620000399162000180565b620000443362000056565b6200004f81620000a6565b50620001b2565b600080546001600160a01b038381166001600160a01b0319831681178455604051919092169283917f8be0079c531659141344cd1fd0a4f28419497f9722a3daafe3b4186f6b6457e09190a35050565b6000546001600160a01b03163314620001065760405162461bcd60e51b815260206004820181905260248201527f4f776e61626c653a2063616c6c6572206973206e6f7420746865206f776e657260448201526064015b60405180910390fd5b6001600160a01b0381166200015e5760405162461bcd60e51b815260206004820152601a60248201527f416464726573732073686f756c64206265206e6f6e2d7a65726f0000000000006044820152606401620000fd565b600180546001600160a01b0319166001600160a01b0392909216919091179055565b6000602082840312156200019357600080fd5b81516001600160a01b0381168114620001ab57600080fd5b9392505050565b6137af80620001c26000396000f3fe608060405234801561001057600080fd5b50600436106102275760003560e01c8063715018a611610130578063a91e59ba116100b8578063c0b6f1861161007c578063c0b6f18614610566578063ce04b9d414610579578063daacbb9514610581578063f2fde38b14610594578063f680e555146105a757600080fd5b8063a91e59ba14610514578063a91ee0dc14610527578063b23c676c1461053a578063b47414951461054b578063bce0dbc11461055357600080fd5b80637bf46530116100ff5780637bf46530146104995780637efa9ae3146104ad5780638da5cb5b146104d957806396462b9c146104ea5780639986e4b9146104fd57600080fd5b8063715018a61461042b57806372d0ec9214610433578063738fdd1a1461044657806373df4e011461047157600080fd5b80634a57823e116101b35780635a55c1f0116101825780635a55c1f014610366578063656bc633146103b4578063688ca5b2146103c75780636c57f5a9146103f75780636c78d2cf1461040f57600080fd5b80634a57823e146103255780634bd1ed7614610338578063557ed1ba1461034d57806356ba988e1461035357600080fd5b80631c150171116101fa5780631c150171146102c35780631d940da2146102cb5780631e0cba0d146102ed5780632a74f38c146102fe5780632f40992e1461031157600080fd5b806302b385fb1461022c578063099706881461025f5780630a3a63fe1461028d578063155ca224146102ae575b600080fd5b61023f61023a366004613010565b6105eb565b6040516102569b9a9998979695949392919061367e565b60405180910390f35b61027261026d366004613010565b6107b6565b60408051938452602084019290925290820152606001610256565b6102a061029b366004613120565b610911565b604051908152602001610256565b6102c16102bc366004613010565b610a29565b005b6102a0610b8a565b6102de6102d9366004613010565b610c09565b60405161025693929190613421565b6102a0665374616b696e6760c81b81565b6102c161030c366004612fd6565b610cc1565b6102a06914995dd85c99141bdbdb60b21b81565b6102a0610333366004613290565b610d55565b6102a06a4d61696e74656e616e636560a81b81565b426102a0565b610272610361366004613010565b610e5d565b610379610374366004613010565b610fa9565b6040805196875260208701959095526001600160a01b03909316938501939093526060840152608083019190915260a082015260c001610256565b6102c16103c2366004613089565b611077565b6103da6103d5366004613010565b61128a565b604080519384526020840192909252151590820152606001610256565b6103ff6113db565b6040519015158152602001610256565b6102a07111dbdd995c9b985b98d950dbdb9d1c9858dd60721b81565b6102c16113ff565b6102c1610441366004613089565b611435565b600154610459906001600160a01b031681565b6040516001600160a01b039091168152602001610256565b61048461047f366004613010565b6115cf565b604051610256999897969594939291906133a2565b6102a069456e7653746f7261676560b01b81565b6104596104bb366004613010565b6000908152600460205260409020600101546001600160a01b031690565b6000546001600160a01b0316610459565b6102c16104f83660046130ab565b6117e0565b6102a06c42616c6c6f7453746f7261676560981b81565b6102c1610522366004613089565b611acb565b6102c1610535366004612fd6565b611c49565b6008546001600160a01b0316610459565b6009546102a0565b6102c1610561366004613042565b611ceb565b6102c16105743660046130f4565b611e30565b6102a0612012565b6102c161058f366004613176565b612054565b6102c16105a2366004612fd6565b612364565b6103ff6105b5366004613310565b66ffffffffffffff821660009081526007602090815260408083206001600160a01b038516845290915290205460ff1692915050565b60008060008060606000806000806000806000600260008e815260200190815260200160002060405180610180016040529081600082015481526020016001820154815260200160028201548152602001600382015481526020016004820160009054906101000a90046001600160a01b03166001600160a01b03166001600160a01b0316815260200160058201805461068490613713565b80601f01602080910402602001604051908101604052809291908181526020018280546106b090613713565b80156106fd5780601f106106d2576101008083540402835291602001916106fd565b820191906000526020600020905b8154815290600101906020018083116106e057829003601f168201915b5050505050815260200160068201548152602001600782015481526020016008820154815260200160098201548152602001600a820160009054906101000a900460ff16151515158152602001600b82015481525050905080602001519b5080604001519a5080606001519950806080015198508060a0015197508060c0015196508060e00151955080610100015194508061012001519350806101400151925080610160015191505091939597999b90929496989a50565b60008181526002602081815260408084208151610180810183528154815260018201549381019390935292830154908201526003820154606082015260048201546001600160a01b03166080820152600582018054849384938493909260a08401919061082290613713565b80601f016020809104026020016040519081016040528092919081815260200182805461084e90613713565b801561089b5780601f106108705761010080835404028352916020019161089b565b820191906000526020600020905b81548152906001019060200180831161087e57829003601f168201915b5050505050815260200160068201548152602001600782015481526020016008820154815260200160098201548152602001600a820160009054906101000a900460ff16151515158152602001600b82015481525050905080602001519350806040015192508061016001519150509193909250565b60003361091c6123ff565b6001600160a01b03161461094b5760405162461bcd60e51b8152600401610942906134ac565b60405180910390fd5b61095361241f565b6001600160a01b0316306001600160a01b0316146109835760405162461bcd60e51b8152600401610942906135f7565b600485146109a35760405162461bcd60e51b81526004016109429061353f565b6001600160a01b0382166109c95760405162461bcd60e51b81526004016109429061361c565b6109d58686868661243a565b506040805180820182528681526001600160a01b0392831660208083019182526000898152600490915292909220905181559051600190910180546001600160a01b03191691909216179055509192915050565b8033610a336123ff565b6001600160a01b03161480610a6157506000818152600260205260409020600401546001600160a01b031633145b610a7d5760405162461bcd60e51b8152600401610942906134ac565b610a8561241f565b6001600160a01b0316306001600160a01b031614610ab55760405162461bcd60e51b8152600401610942906135f7565b6000828152600260205260409020548214610ae25760405162461bcd60e51b815260040161094290613449565b6000828152600260205260409020600a015460ff1615610b145760405162461bcd60e51b81526004016109429061356c565b600160008381526002602052604090206009015414610b455760405162461bcd60e51b8152600401610942906135ce565b60008281526002602052604090206005600982015560405183907fd5e541d004c50564e5e05fcbc6be2916c68d817507693dc3774c69dde4ce13dc90600090a2505050565b6000610b946126f9565b6001600160a01b03166333be496e6040518163ffffffff1660e01b815260040160206040518083038186803b158015610bcc57600080fd5b505afa158015610be0573d6000803e3d6000fd5b505050506040513d601f19601f82011682018060405250810190610c049190613029565b905090565b600081815260056020526040902060018101546002820154600383018054929391926060929190610c3990613713565b80601f0160208091040260200160405190810160405280929190818152602001828054610c6590613713565b8015610cb25780601f10610c8757610100808354040283529160200191610cb2565b820191906000526020600020905b815481529060010190602001808311610c9557829003601f168201915b50505050509150509193909250565b6000546001600160a01b03163314610ceb5760405162461bcd60e51b8152600401610942906134d3565b6001600160a01b038116610d335760405162461bcd60e51b815260206004820152600f60248201526e496e76616c6964206164647265737360881b6044820152606401610942565b600880546001600160a01b0319166001600160a01b0392909216919091179055565b600033610d606123ff565b6001600160a01b031614610d865760405162461bcd60e51b8152600401610942906134ac565b610d8e61241f565b6001600160a01b0316306001600160a01b031614610dbe5760405162461bcd60e51b8152600401610942906135f7565b610dca87858585612711565b610de65760405162461bcd60e51b81526004016109429061361c565b610df28888888861243a565b6040805160808101825289815260208082018781528284018781526060840187815260008e81526005855295909520845181559151600183015551600282015592518051929384939092610e4d926003850192910190612ea0565b50999a9950505050505050505050565b60008181526002602081815260408084208151610180810183528154815260018201549381019390935292830154908201526003820154606082015260048201546001600160a01b03166080820152600582018054849384938493909260a084019190610ec990613713565b80601f0160208091040260200160405190810160405280929190818152602001828054610ef590613713565b8015610f425780601f10610f1757610100808354040283529160200191610f42565b820191906000526020600020905b815481529060010190602001808311610f2557829003601f168201915b505050918352505060068201546020820152600782015460408201526008820154606082015260098201546080820152600a82015460ff16151560a0820152600b9091015460c09182015281015160e0820151610100909201519097919650945092505050565b6000818152600660205260408120548190819081908190819087146110055760405162461bcd60e51b81526020600482015260126024820152711b9bdd08195e1a5cdd1959081d9bdd19525960721b6044820152606401610942565b5050506000938452505060066020908152604092839020835160c0810185528154808252600183015493820184905260028301546001600160a01b031695820186905260038301546060830181905260048401546080840181905260059094015460a090930183905290969395945092565b81336110816123ff565b6001600160a01b031614806110af57506000818152600260205260409020600401546001600160a01b031633145b6110cb5760405162461bcd60e51b8152600401610942906134ac565b6110d361241f565b6001600160a01b0316306001600160a01b0316146111035760405162461bcd60e51b8152600401610942906135f7565b818061110d610b8a565b111561115b5760405162461bcd60e51b815260206004820152601c60248201527f556e646572206d696e2076616c7565206f6620206475726174696f6e000000006044820152606401610942565b611163612012565b8111156111b25760405162461bcd60e51b815260206004820152601a60248201527f4f766572206d61782076616c7565206f66206475726174696f6e0000000000006044820152606401610942565b60008481526002602052604090205484146111df5760405162461bcd60e51b815260040161094290613449565b6000848152600260205260409020600a015460ff16156112115760405162461bcd60e51b81526004016109429061356c565b6001600085815260026020526040902060090154146112425760405162461bcd60e51b8152600401610942906135ce565b600084815260026020526040808220600b810186905590519091339187917ff0855c0e0ad9b8a162b87f2e4e07d4b2a3f0a45126b15ff4a78b217ad19a901a91a35050505050565b60008181526002602081815260408084208151610180810183528154815260018201549381019390935292830154908201526003820154606082015260048201546001600160a01b03166080820152600582018054849384938493909260a0840191906112f690613713565b80601f016020809104026020016040519081016040528092919081815260200182805461132290613713565b801561136f5780601f106113445761010080835404028352916020019161136f565b820191906000526020600020905b81548152906001019060200180831161135257829003601f168201915b50505091835250506006820154602082015260078201546040820152600882015460608083019190915260098301546080830152600a83015460ff16151560a0830152600b9092015460c090910152810151610120820151610140909201519097919650945092505050565b60006113e561241f565b6001600160a01b0316306001600160a01b03161415905090565b6000546001600160a01b031633146114295760405162461bcd60e51b8152600401610942906134d3565b61143360006127f1565b565b3361143e6123ff565b6001600160a01b0316146114645760405162461bcd60e51b8152600401610942906134ac565b61146c61241f565b6001600160a01b0316306001600160a01b03161461149c5760405162461bcd60e51b8152600401610942906135f7565b60008281526002602052604090205482146114c95760405162461bcd60e51b815260040161094290613449565b60008281526003602052604090205482146115265760405162461bcd60e51b815260206004820152601860248201527f6e6f7420657869737465642042616c6c6f744d656d62657200000000000000006044820152606401610942565b6000828152600260205260409020600a015460ff16156115585760405162461bcd60e51b81526004016109429061356c565b6001600083815260026020526040902060090154146115895760405162461bcd60e51b8152600401610942906135ce565b6000828152600360205260408082206009810184905590519091339185917ff0855c0e0ad9b8a162b87f2e4e07d4b2a3f0a45126b15ff4a78b217ad19a901a91a3505050565b60008181526003602081905260408220600181015460028201549282015460048301546005840180546001600160a01b03948516979685169693851695929094169360609384938493919283929061162690613713565b80601f016020809104026020016040519081016040528092919081815260200182805461165290613713565b801561169f5780601f106116745761010080835404028352916020019161169f565b820191906000526020600020905b81548152906001019060200180831161168257829003601f168201915b505050505095508060060180546116b590613713565b80601f01602080910402602001604051908101604052809291908181526020018280546116e190613713565b801561172e5780601f106117035761010080835404028352916020019161172e565b820191906000526020600020905b81548152906001019060200180831161171157829003601f168201915b5050505050945080600701805461174490613713565b80601f016020809104026020016040519081016040528092919081815260200182805461177090613713565b80156117bd5780601f10611792576101008083540402835291602001916117bd565b820191906000526020600020905b8154815290600101906020018083116117a057829003601f168201915b505050505093508060080154925080600901549150509193959799909294969850565b336117e96123ff565b6001600160a01b03161461180f5760405162461bcd60e51b8152600401610942906134ac565b61181761241f565b6001600160a01b0316306001600160a01b0316146118475760405162461bcd60e51b8152600401610942906135f7565b60018214806118565750600282145b6118955760405162461bcd60e51b815260206004820152601060248201526f24b73b30b634b2103232b1b4b9b4b7b760811b6044820152606401610942565b60008481526002602052604090205484146118c25760405162461bcd60e51b815260040161094290613449565b6000858152600660205260409020548514156119195760405162461bcd60e51b8152602060048201526016602482015275185b1c9958591e48195e1a5cdd1959081d9bdd19525960521b6044820152606401610942565b60008481526007602090815260408083206001600160a01b038716845290915290205460ff161561197c5760405162461bcd60e51b815260206004820152600d60248201526c185b1c9958591e481d9bdd1959609a1b6044820152606401610942565b6002600085815260026020526040902060090154146119d45760405162461bcd60e51b81526020600482015260146024820152734e6f7420496e50726f677265737320537461746560601b6044820152606401610942565b6040518060c00160405280868152602001858152602001846001600160a01b03168152602001838152602001828152602001611a0d4290565b905260008681526006602090815260409182902083518155908301516001820155908201516002820180546001600160a01b0319166001600160a01b03909216919091179055606082015160038201556080820151600482015560a090910151600590910155611a7f84848484612841565b826001600160a01b031684867f41df84b3b467b06744e40c92613c666324e7c640ce0a41ec06efdf602d36760685604051611abc91815260200190565b60405180910390a45050505050565b33611ad46123ff565b6001600160a01b031614611afa5760405162461bcd60e51b8152600401610942906134ac565b611b0261241f565b6001600160a01b0316306001600160a01b031614611b325760405162461bcd60e51b8152600401610942906135f7565b6000828152600260205260409020548214611b5f5760405162461bcd60e51b815260040161094290613449565b6000828152600260205260409020600a015460ff1615611b915760405162461bcd60e51b81526004016109429061356c565b6003811480611ba05750600481145b611be35760405162461bcd60e51b8152602060048201526014602482015273496e76616c69642042616c6c6f7420537461746560601b6044820152606401610942565b6000828152600260205260409081902060098101839055600a8101805460ff19166001179055905183907fdc921f027328d7238b58d77649ebcbd0c8b1c494c66ba53dfe53e0de65f6dd9f90611c3c9085815260200190565b60405180910390a2505050565b6000546001600160a01b03163314611c735760405162461bcd60e51b8152600401610942906134d3565b6001600160a01b038116611cc95760405162461bcd60e51b815260206004820152601a60248201527f416464726573732073686f756c64206265206e6f6e2d7a65726f0000000000006044820152606401610942565b600180546001600160a01b0319166001600160a01b0392909216919091179055565b8133611cf56123ff565b6001600160a01b03161480611d2357506000818152600260205260409020600401546001600160a01b031633145b611d3f5760405162461bcd60e51b8152600401610942906134ac565b611d4761241f565b6001600160a01b0316306001600160a01b031614611d775760405162461bcd60e51b8152600401610942906135f7565b6000838152600260205260409020548314611da45760405162461bcd60e51b815260040161094290613449565b6000838152600260205260409020600a015460ff1615611dd65760405162461bcd60e51b81526004016109429061356c565b600083815260026020908152604090912083519091611dfc916005840191860190612ea0565b50604051339085907ff0855c0e0ad9b8a162b87f2e4e07d4b2a3f0a45126b15ff4a78b217ad19a901a90600090a350505050565b33611e396123ff565b6001600160a01b031614611e5f5760405162461bcd60e51b8152600401610942906134ac565b611e6761241f565b6001600160a01b0316306001600160a01b031614611e975760405162461bcd60e51b8152600401610942906135f7565b8181600082118015611ea95750600081115b611ee95760405162461bcd60e51b815260206004820152601160248201527007374617274206f7220656e64206973203607c1b6044820152606401610942565b818111611f275760405162461bcd60e51b815260206004820152600c60248201526b1cdd185c9d080f8f48195b9960a21b6044820152606401610942565b6000858152600260205260409020548514611f545760405162461bcd60e51b815260040161094290613449565b6000858152600260205260409020600a015460ff1615611f865760405162461bcd60e51b81526004016109429061356c565b600160008681526002602052604090206009015414611fb75760405162461bcd60e51b8152600401610942906135ce565b6000858152600260208190526040909120600181018690558082018590559060098201556040518490869088907fd9938a514dab5cdce149a77493f694bd70c24a4833a278fd4d86fbdf859099c590600090a4505050505050565b600061201c6126f9565b6001600160a01b0316631b27e01b6040518163ffffffff1660e01b815260040160206040518083038186803b158015610bcc57600080fd5b3361205d6123ff565b6001600160a01b0316146120835760405162461bcd60e51b8152600401610942906134ac565b61208b61241f565b6001600160a01b0316306001600160a01b0316146120bb5760405162461bcd60e51b8152600401610942906135f7565b6120cc8b89898989898989896129a8565b6120e85760405162461bcd60e51b81526004016109429061361c565b6120f48c8c8c8c61243a565b61216e6040518061014001604052806000815260200160006001600160a01b0316815260200160006001600160a01b0316815260200160006001600160a01b0316815260200160006001600160a01b0316815260200160608152602001606081526020016060815260200160008152602001600081525090565b8c8160000181815250508881602001906001600160a01b031690816001600160a01b0316815250508781604001906001600160a01b031690816001600160a01b0316815250508681606001906001600160a01b031690816001600160a01b0316815250508581608001906001600160a01b031690816001600160a01b031681525050848160a00181905250838160c00181905250828160e00181905250818161010001818152505080600360008f81526020019081526020016000206000820151816000015560208201518160010160006101000a8154816001600160a01b0302191690836001600160a01b0316021790555060408201518160020160006101000a8154816001600160a01b0302191690836001600160a01b0316021790555060608201518160030160006101000a8154816001600160a01b0302191690836001600160a01b0316021790555060808201518160040160006101000a8154816001600160a01b0302191690836001600160a01b0316021790555060a0820151816005019080519060200190612304929190612ea0565b5060c08201518051612320916006840191602090910190612ea0565b5060e0820151805161233c916007840191602090910190612ea0565b5061010082015160088201556101209091015160099091015550505050505050505050505050565b6000546001600160a01b0316331461238e5760405162461bcd60e51b8152600401610942906134d3565b6001600160a01b0381166123f35760405162461bcd60e51b815260206004820152602660248201527f4f776e61626c653a206e6577206f776e657220697320746865207a65726f206160448201526564647265737360d01b6064820152608401610942565b6123fc816127f1565b50565b6000610c047111dbdd995c9b985b98d950dbdb9d1c9858dd60721b612e0a565b6000610c046c42616c6c6f7453746f7261676560981b612e0a565b8180612444610b8a565b11156124925760405162461bcd60e51b815260206004820152601c60248201527f556e646572206d696e2076616c7565206f6620206475726174696f6e000000006044820152606401610942565b61249a612012565b8111156124e95760405162461bcd60e51b815260206004820152601a60248201527f4f766572206d61782076616c7565206f66206475726174696f6e0000000000006044820152606401610942565b6000858152600260205260409020548514156125405760405162461bcd60e51b8152602060048201526016602482015275105b1c9958591e48195e1a5cdd19590818985b1b1bdd60521b6044820152606401610942565b6125af6040518061018001604052806000815260200160008152602001600081526020016000815260200160006001600160a01b031681526020016060815260200160008152602001600081526020016000815260200160008152602001600015158152602001600081525090565b858152606081018590526001600160a01b03831660808201526001610120820152600061014082018190526101608201859052868152600260208181526040928390208451815581850151600182015592840151918301919091556060830151600383015560808301516004830180546001600160a01b0319166001600160a01b0390921691909117905560a08301518051849392612655926005850192910190612ea0565b5060c0820151600682015560e082015160078201556101008201516008820155610120820151600980830191909155610140830151600a8301805460ff191691151591909117905561016090920151600b90910155546126b6906001612e8d565b6009556040516001600160a01b03841690869088907fd1ba591c76ef71222e2d30b8277758713cc6eef1de29efaf98a716744ac2420b90600090a4505050505050565b6000610c0469456e7653746f7261676560b01b612e0a565b6000600585146127335760405162461bcd60e51b81526004016109429061353f565b8361278a5760405162461bcd60e51b815260206004820152602160248201527f496e76616c696420656e7669726f6e6d656e74207661726961626c65206e616d6044820152606560f81b6064820152608401610942565b60008251116127e65760405162461bcd60e51b815260206004820152602260248201527f496e76616c696420656e7669726f6e6d656e74207661726961626c652076616c604482015261756560f01b6064820152608401610942565b506001949350505050565b600080546001600160a01b038381166001600160a01b0319831681178455604051919092169283917f8be0079c531659141344cd1fd0a4f28419497f9722a3daafe3b4186f6b6457e09190a35050565b60018214806128505750600282145b61288f5760405162461bcd60e51b815260206004820152601060248201526f24b73b30b634b2103232b1b4b9b4b7b760811b6044820152606401610942565b60008481526002602052604090205484146128bc5760405162461bcd60e51b815260040161094290613449565b60008481526007602090815260408083206001600160a01b038716845290915290205460ff161561291f5760405162461bcd60e51b815260206004820152600d60248201526c185b1c9958591e481d9bdd1959609a1b6044820152606401610942565b6000848152600260209081526040808320600783528184206001600160a01b0388168552909252909120805460ff19166001908117909155600682015461296591612e8d565b6006820155600183141561298c5760078101546129829083612e8d565b60078201556129a1565b600881015461299b9083612e8d565b60088201555b5050505050565b600060018a101580156129bc575060038a11155b6129d85760405162461bcd60e51b81526004016109429061353f565b60028a1415612b98576001600160a01b038916612a075760405162461bcd60e51b815260040161094290613597565b6001600160a01b03881615612a2e5760405162461bcd60e51b815260040161094290613508565b6001600160a01b03871615612a555760405162461bcd60e51b815260040161094290613647565b6001600160a01b03861615612a7c5760405162461bcd60e51b815260040161094290613475565b845115612ac35760405162461bcd60e51b8152602060048201526015602482015274496e76616c6964206e6577206e6f6465206e616d6560581b6044820152606401610942565b835115612b085760405162461bcd60e51b8152602060048201526013602482015272125b9d985b1a59081b995dc81b9bd919481a59606a1b6044820152606401610942565b825115612b4d5760405162461bcd60e51b81526020600482015260136024820152720496e76616c6964206e6577206e6f646520495606c1b6044820152606401610942565b8115612b935760405162461bcd60e51b8152602060048201526015602482015274125b9d985b1a59081b995dc81b9bd91948141bdc9d605a1b6044820152606401610942565b612dfa565b6000855111612be15760405162461bcd60e51b8152602060048201526015602482015274496e76616c6964206e6577206e6f6465206e616d6560581b6044820152606401610942565b8351604014612c285760405162461bcd60e51b8152602060048201526013602482015272125b9d985b1a59081b995dc81b9bd919481a59606a1b6044820152606401610942565b6000835111612c6f5760405162461bcd60e51b81526020600482015260136024820152720496e76616c6964206e6577206e6f646520495606c1b6044820152606401610942565b60008211612cb75760405162461bcd60e51b8152602060048201526015602482015274125b9d985b1a59081b995dc81b9bd91948141bdc9d605a1b6044820152606401610942565b60018a1415612d59576001600160a01b03891615612ce75760405162461bcd60e51b815260040161094290613597565b6001600160a01b038816612d0d5760405162461bcd60e51b815260040161094290613508565b6001600160a01b038716612d335760405162461bcd60e51b815260040161094290613647565b6001600160a01b038616612b935760405162461bcd60e51b815260040161094290613475565b60038a1415612dfa576001600160a01b038916612d885760405162461bcd60e51b815260040161094290613597565b6001600160a01b038816612dae5760405162461bcd60e51b815260040161094290613508565b6001600160a01b038716612dd45760405162461bcd60e51b815260040161094290613647565b6001600160a01b038616612dfa5760405162461bcd60e51b815260040161094290613475565b5060019998505050505050505050565b600154604051630d2020dd60e01b8152600481018390526000916001600160a01b031690630d2020dd9060240160206040518083038186803b158015612e4f57600080fd5b505afa158015612e63573d6000803e3d6000fd5b505050506040513d601f19601f82011682018060405250810190612e879190612ff3565b92915050565b6000612e9982846136ed565b9392505050565b828054612eac90613713565b90600052602060002090601f016020900481019282612ece5760008555612f14565b82601f10612ee757805160ff1916838001178555612f14565b82800160010185558215612f14579182015b82811115612f14578251825591602001919060010190612ef9565b50612f20929150612f24565b5090565b5b80821115612f205760008155600101612f25565b8035612f4481613764565b919050565b600082601f830112612f5a57600080fd5b813567ffffffffffffffff80821115612f7557612f7561374e565b604051601f8301601f19908116603f01168101908282118183101715612f9d57612f9d61374e565b81604052838152866020858801011115612fb657600080fd5b836020870160208301376000602085830101528094505050505092915050565b600060208284031215612fe857600080fd5b8135612e9981613764565b60006020828403121561300557600080fd5b8151612e9981613764565b60006020828403121561302257600080fd5b5035919050565b60006020828403121561303b57600080fd5b5051919050565b6000806040838503121561305557600080fd5b82359150602083013567ffffffffffffffff81111561307357600080fd5b61307f85828601612f49565b9150509250929050565b6000806040838503121561309c57600080fd5b50508035926020909101359150565b600080600080600060a086880312156130c357600080fd5b853594506020860135935060408601356130dc81613764565b94979396509394606081013594506080013592915050565b60008060006060848603121561310957600080fd5b505081359360208301359350604090920135919050565b600080600080600060a0868803121561313857600080fd5b853594506020860135935060408601359250606086013561315881613764565b9150608086013561316881613764565b809150509295509295909350565b6000806000806000806000806000806000806101808d8f03121561319957600080fd5b8c359b5060208d01359a5060408d013599506131b760608e01612f39565b98506131c560808e01612f39565b97506131d360a08e01612f39565b96506131e160c08e01612f39565b95506131ef60e08e01612f39565b945067ffffffffffffffff6101008e0135111561320b57600080fd5b61321c8e6101008f01358f01612f49565b935067ffffffffffffffff6101208e0135111561323857600080fd5b6132498e6101208f01358f01612f49565b925067ffffffffffffffff6101408e0135111561326557600080fd5b6132768e6101408f01358f01612f49565b91506101608d013590509295989b509295989b509295989b565b600080600080600080600060e0888a0312156132ab57600080fd5b87359650602088013595506040880135945060608801356132cb81613764565b93506080880135925060a0880135915060c088013567ffffffffffffffff8111156132f557600080fd5b6133018a828b01612f49565b91505092959891949750929550565b6000806040838503121561332357600080fd5b823566ffffffffffffff8116811461333a57600080fd5b9150602083013561334a81613764565b809150509250929050565b6000815180845260005b8181101561337b5760208185018101518683018201520161335f565b8181111561338d576000602083870101525b50601f01601f19169290920160200192915050565b6001600160a01b038a811682528981166020830152888116604083015287166060820152610120608082018190526000906133df83820189613355565b905082810360a08401526133f38188613355565b905082810360c08401526134078187613355565b60e084019590955250506101000152979650505050505050565b8381528260208201526060604082015260006134406060830184613355565b95945050505050565b6020808252601290820152711b9bdd08195e1a5cdd19590810985b1b1bdd60721b604082015260600190565b6020808252601a908201527f496e76616c6964206e6577207265776172642061646472657373000000000000604082015260600190565b6020808252600d908201526c2737902832b936b4b9b9b4b7b760991b604082015260600190565b6020808252818101527f4f776e61626c653a2063616c6c6572206973206e6f7420746865206f776e6572604082015260600190565b6020808252601a908201527f496e76616c6964206e6577207374616b65722061646472657373000000000000604082015260600190565b602080825260139082015272496e76616c69642042616c6c6f74205479706560681b604082015260600190565b602080825260119082015270185b1c9958591e48199a5b985b1a5e9959607a1b604082015260600190565b6020808252601a908201527f496e76616c6964206f6c64207374616b65722061646472657373000000000000604082015260600190565b6020808252600f908201526e4e6f7420526561647920537461746560881b604082015260600190565b6020808252600b908201526a125cc8111a5cd8589b195960aa1b604082015260600190565b60208082526011908201527024b73b30b634b2102830b930b6b2ba32b960791b604082015260600190565b60208082526019908201527f496e76616c6964206e657720766f746572206164647265737300000000000000604082015260600190565b60006101608d83528c60208401528b604084015260018060a01b038b1660608401528060808401526136b28184018b613355565b60a0840199909952505060c081019590955260e085019390935261010084019190915215156101208301526101409091015295945050505050565b6000821982111561370e57634e487b7160e01b600052601160045260246000fd5b500190565b600181811c9082168061372757607f821691505b6020821081141561374857634e487b7160e01b600052602260045260246000fd5b50919050565b634e487b7160e01b600052604160045260246000fd5b6001600160a01b03811681146123fc57600080fdfea26469706673582212204c68b8f34c21f8344429ea7cf0505de2afdd8129aabb70b0f6a7bc5fb8e8f21c64736f6c63430008060033",
  "linkReferences": {},
  "deployedLinkReferences": {}
}