{
  "_format": "hh-sol-artifact-1",
  "contractName": "BallotStorage",
  "sourceName": "contracts/storage/BallotStorage.sol",
  "abi": [
    {
      "inputs": [
        {
          "internalType": "address",
          "name": "_registry",
          "type": "address"
        }
      ],
      "stateMutability": "nonpayable",
      "type": "constructor"
    },
    {
      "anonymous": false,
      "inputs": [
        {
          "indexed": true,
          "internalType": "uint256",
          "name": "ballotId",
          "type": "uint256"
        }
      ],
      "name": "BallotCanceled",
      "type": "event"
    },
    {
      "anonymous": false,
      "inputs": [
        {
          "indexed": true,
          "internalType": "uint256",
          "name": "ballotId",
          "type": "uint256"
        },
        {
          "indexed": true,
          "internalType": "uint256",
          "name": "ballotType",
          "type": "uint256"
        },
        {
          "indexed": true,
          "internalType": "address",
          "name": "creator",
          "type": "address"
        }
      ],
      "name": "BallotCreated",
      "type": "event"
    },
    {
      "anonymous": false,
      "inputs": [
        {
          "indexed": true,
          "internalType": "uint256",
          "name": "ballotId",
          "type": "uint256"
        },
        {
          "indexed": false,
          "internalType": "uint256",
          "name": "state",
          "type": "uint256"
        }
      ],
      "name": "BallotFinalized",
      "type": "event"
    },
    {
      "anonymous": false,
      "inputs": [
        {
          "indexed": true,
          "internalType": "uint256",
          "name": "ballotId",
          "type": "uint256"
        },
        {
          "indexed": true,
          "internalType": "uint256",
          "name": "startTime",
          "type": "uint256"
        },
        {
          "indexed": true,
          "internalType": "uint256",
          "name": "endTime",
          "type": "uint256"
        }
      ],
      "name": "BallotStarted",
      "type": "event"
    },
    {
      "anonymous": false,
      "inputs": [
        {
          "indexed": true,
          "internalType": "uint256",
          "name": "ballotId",
          "type": "uint256"
        },
        {
          "indexed": true,
          "internalType": "address",
          "name": "updatedBy",
          "type": "address"
        }
      ],
      "name": "BallotUpdated",
      "type": "event"
    },
    {
      "anonymous": false,
      "inputs": [
        {
          "indexed": true,
          "internalType": "address",
          "name": "previousOwner",
          "type": "address"
        },
        {
          "indexed": true,
          "internalType": "address",
          "name": "newOwner",
          "type": "address"
        }
      ],
      "name": "OwnershipTransferred",
      "type": "event"
    },
    {
      "anonymous": false,
      "inputs": [
        {
          "indexed": true,
          "internalType": "uint256",
          "name": "voteid",
          "type": "uint256"
        },
        {
          "indexed": true,
          "internalType": "uint256",
          "name": "ballotId",
          "type": "uint256"
        },
        {
          "indexed": true,
          "internalType": "address",
          "name": "voter",
          "type": "address"
        },
        {
          "indexed": false,
          "internalType": "uint256",
          "name": "decision",
          "type": "uint256"
        }
      ],
      "name": "Voted",
      "type": "event"
    },
    {
      "inputs": [],
      "name": "BALLOT_DURATION_MAX_NAME",
      "outputs": [
        {
          "internalType": "bytes32",
          "name": "",
          "type": "bytes32"
        }
      ],
      "stateMutability": "view",
      "type": "function"
    },
    {
      "inputs": [],
      "name": "BALLOT_DURATION_MIN_MAX_NAME",
      "outputs": [
        {
          "internalType": "bytes32",
          "name": "",
          "type": "bytes32"
        }
      ],
      "stateMutability": "view",
      "type": "function"
    },
    {
      "inputs": [],
      "name": "BALLOT_DURATION_MIN_NAME",
      "outputs": [
        {
          "internalType": "bytes32",
          "name": "",
          "type": "bytes32"
        }
      ],
      "stateMutability": "view",
      "type": "function"
    },
    {
      "inputs": [],
      "name": "BALLOT_STORAGE_NAME",
      "outputs": [
        {
          "internalType": "bytes32",
          "name": "",
          "type": "bytes32"
        }
      ],
      "stateMutability": "view",
      "type": "function"
    },
    {
      "inputs": [],
      "name": "BASE_FEE_MAX_CHANGE_DENOMINATOR_NAME",
      "outputs": [
        {
          "internalType": "bytes32",
          "name": "",
          "type": "bytes32"
        }
      ],
      "stateMutability": "view",
      "type": "function"
    },
    {
      "inputs": [],
      "name": "BLOCKS_PER_NAME",
      "outputs": [
        {
          "internalType": "bytes32",
          "name": "",
          "type": "bytes32"
        }
      ],
      "stateMutability": "view",
      "type": "function"
    },
    {
      "inputs": [],
      "name": "BLOCK_CREATION_TIME_NAME",
      "outputs": [
        {
          "internalType": "bytes32",
          "name": "",
          "type": "bytes32"
        }
      ],
      "stateMutability": "view",
      "type": "function"
    },
    {
      "inputs": [],
      "name": "BLOCK_GASLIMIT_NAME",
      "outputs": [
        {
          "internalType": "bytes32",
          "name": "",
          "type": "bytes32"
        }
      ],
      "stateMutability": "view",
      "type": "function"
    },
    {
      "inputs": [],
      "name": "BLOCK_REWARD_AMOUNT_NAME",
      "outputs": [
        {
          "internalType": "bytes32",
          "name": "",
          "type": "bytes32"
        }
      ],
      "stateMutability": "view",
      "type": "function"
    },
    {
      "inputs": [],
      "name": "BLOCK_REWARD_DISTRIBUTION_BLOCK_PRODUCER_NAME",
      "outputs": [
        {
          "internalType": "bytes32",
          "name": "",
          "type": "bytes32"
        }
      ],
      "stateMutability": "view",
      "type": "function"
    },
    {
      "inputs": [],
      "name": "BLOCK_REWARD_DISTRIBUTION_ECOSYSTEM_NAME",
      "outputs": [
        {
          "internalType": "bytes32",
          "name": "",
          "type": "bytes32"
        }
      ],
      "stateMutability": "view",
      "type": "function"
    },
    {
      "inputs": [],
      "name": "BLOCK_REWARD_DISTRIBUTION_MAINTANANCE_NAME",
      "outputs": [
        {
          "internalType": "bytes32",
          "name": "",
          "type": "bytes32"
        }
      ],
      "stateMutability": "view",
      "type": "function"
    },
    {
      "inputs": [],
      "name": "BLOCK_REWARD_DISTRIBUTION_METHOD_NAME",
      "outputs": [
        {
          "internalType": "bytes32",
          "name": "",
          "type": "bytes32"
        }
      ],
      "stateMutability": "view",
      "type": "function"
    },
    {
      "inputs": [],
      "name": "BLOCK_REWARD_DISTRIBUTION_STAKING_REWARD_NAME",
      "outputs": [
        {
          "internalType": "bytes32",
          "name": "",
          "type": "bytes32"
        }
      ],
      "stateMutability": "view",
      "type": "function"
    },
    {
      "inputs": [],
      "name": "DENOMINATOR",
      "outputs": [
        {
          "internalType": "uint256",
          "name": "",
          "type": "uint256"
        }
      ],
      "stateMutability": "view",
      "type": "function"
    },
    {
      "inputs": [],
      "name": "ECOFUND_ADDRESS_NAME",
      "outputs": [
        {
          "internalType": "bytes32",
          "name": "",
          "type": "bytes32"
        }
      ],
      "stateMutability": "view",
      "type": "function"
    },
    {
      "inputs": [],
      "name": "ELASTICITY_MULTIPLIER_NAME",
      "outputs": [
        {
          "internalType": "bytes32",
          "name": "",
          "type": "bytes32"
        }
      ],
      "stateMutability": "view",
      "type": "function"
    },
    {
      "inputs": [],
      "name": "ENV_STORAGE_NAME",
      "outputs": [
        {
          "internalType": "bytes32",
          "name": "",
          "type": "bytes32"
        }
      ],
      "stateMutability": "view",
      "type": "function"
    },
    {
      "inputs": [],
      "name": "GASLIMIT_AND_BASE_FEE_NAME",
      "outputs": [
        {
          "internalType": "bytes32",
          "name": "",
          "type": "bytes32"
        }
      ],
      "stateMutability": "view",
      "type": "function"
    },
    {
      "inputs": [],
      "name": "GAS_PRICE_NAME",
      "outputs": [
        {
          "internalType": "bytes32",
          "name": "",
          "type": "bytes32"
        }
      ],
      "stateMutability": "view",
      "type": "function"
    },
    {
      "inputs": [],
      "name": "GOV_NAME",
      "outputs": [
        {
          "internalType": "bytes32",
          "name": "",
          "type": "bytes32"
        }
      ],
      "stateMutability": "view",
      "type": "function"
    },
    {
      "inputs": [],
      "name": "MAINTANANCE_ADDRESS_NAME",
      "outputs": [
        {
          "internalType": "bytes32",
          "name": "",
          "type": "bytes32"
        }
      ],
      "stateMutability": "view",
      "type": "function"
    },
    {
      "inputs": [],
      "name": "MAINTENANCE_NAME",
      "outputs": [
        {
          "internalType": "bytes32",
          "name": "",
          "type": "bytes32"
        }
      ],
      "stateMutability": "view",
      "type": "function"
    },
    {
      "inputs": [],
      "name": "MAX_IDLE_BLOCK_INTERVAL_NAME",
      "outputs": [
        {
          "internalType": "bytes32",
          "name": "",
          "type": "bytes32"
        }
      ],
      "stateMutability": "view",
      "type": "function"
    },
    {
      "inputs": [],
      "name": "MAX_PRIORITY_FEE_PER_GAS_NAME",
      "outputs": [
        {
          "internalType": "bytes32",
          "name": "",
          "type": "bytes32"
        }
      ],
      "stateMutability": "view",
      "type": "function"
    },
    {
      "inputs": [],
      "name": "REWARD_POOL_NAME",
      "outputs": [
        {
          "internalType": "bytes32",
          "name": "",
          "type": "bytes32"
        }
      ],
      "stateMutability": "view",
      "type": "function"
    },
    {
      "inputs": [],
      "name": "STAKING_MAX_NAME",
      "outputs": [
        {
          "internalType": "bytes32",
          "name": "",
          "type": "bytes32"
        }
      ],
      "stateMutability": "view",
      "type": "function"
    },
    {
      "inputs": [],
      "name": "STAKING_MIN_MAX_NAME",
      "outputs": [
        {
          "internalType": "bytes32",
          "name": "",
          "type": "bytes32"
        }
      ],
      "stateMutability": "view",
      "type": "function"
    },
    {
      "inputs": [],
      "name": "STAKING_MIN_NAME",
      "outputs": [
        {
          "internalType": "bytes32",
          "name": "",
          "type": "bytes32"
        }
      ],
      "stateMutability": "view",
      "type": "function"
    },
    {
      "inputs": [],
      "name": "STAKING_NAME",
      "outputs": [
        {
          "internalType": "bytes32",
          "name": "",
          "type": "bytes32"
        }
      ],
      "stateMutability": "view",
      "type": "function"
    },
    {
      "inputs": [],
      "name": "STAKING_REWARD_ADDRESS_NAME",
      "outputs": [
        {
          "internalType": "bytes32",
          "name": "",
          "type": "bytes32"
        }
      ],
      "stateMutability": "view",
      "type": "function"
    },
    {
      "inputs": [
        {
          "internalType": "uint256",
          "name": "_ballotId",
          "type": "uint256"
        }
      ],
      "name": "cancelBallot",
      "outputs": [],
      "stateMutability": "nonpayable",
      "type": "function"
    },
    {
      "inputs": [
        {
          "internalType": "uint256",
          "name": "_id",
          "type": "uint256"
        },
        {
          "internalType": "uint256",
          "name": "_ballotType",
          "type": "uint256"
        },
        {
          "internalType": "uint256",
          "name": "_duration",
          "type": "uint256"
        },
        {
          "internalType": "address",
          "name": "_creator",
          "type": "address"
        },
        {
          "internalType": "address",
          "name": "_newGovernanceAddress",
          "type": "address"
        }
      ],
      "name": "createBallotForAddress",
      "outputs": [
        {
          "internalType": "uint256",
          "name": "",
          "type": "uint256"
        }
      ],
      "stateMutability": "nonpayable",
      "type": "function"
    },
    {
      "inputs": [
        {
          "internalType": "uint256",
          "name": "_id",
          "type": "uint256"
        },
        {
          "internalType": "uint256",
          "name": "_ballotType",
          "type": "uint256"
        },
        {
          "internalType": "uint256",
          "name": "_duration",
          "type": "uint256"
        },
        {
          "internalType": "address",
          "name": "_creator",
          "type": "address"
        },
        {
          "internalType": "address",
          "name": "_oldMemberAddress",
          "type": "address"
        },
        {
          "internalType": "address",
          "name": "_newMemberAddress",
          "type": "address"
        },
        {
          "internalType": "address",
          "name": "_oldStakerAddress",
          "type": "address"
        },
        {
          "internalType": "address",
          "name": "_newStakerAddress",
          "type": "address"
        },
        {
          "internalType": "bytes",
          "name": "_newNodeName",
          "type": "bytes"
        },
        {
          "internalType": "bytes",
          "name": "_newNodeId",
          "type": "bytes"
        },
        {
          "internalType": "bytes",
          "name": "_newNodeIp",
          "type": "bytes"
        },
        {
          "internalType": "uint256",
          "name": "_newNodePort",
          "type": "uint256"
        }
      ],
      "name": "createBallotForMember",
      "outputs": [],
      "stateMutability": "nonpayable",
      "type": "function"
    },
    {
      "inputs": [
        {
          "internalType": "uint256",
          "name": "_id",
          "type": "uint256"
        },
        {
          "internalType": "uint256",
          "name": "_ballotType",
          "type": "uint256"
        },
        {
          "internalType": "uint256",
          "name": "_duration",
          "type": "uint256"
        },
        {
          "internalType": "address",
          "name": "_creator",
          "type": "address"
        },
        {
          "internalType": "bytes32",
          "name": "_envVariableName",
          "type": "bytes32"
        },
        {
          "internalType": "uint256",
          "name": "_envVariableType",
          "type": "uint256"
        },
        {
          "internalType": "bytes",
          "name": "_envVariableValue",
          "type": "bytes"
        }
      ],
      "name": "createBallotForVariable",
      "outputs": [
        {
          "internalType": "uint256",
          "name": "",
          "type": "uint256"
        }
      ],
      "stateMutability": "nonpayable",
      "type": "function"
    },
    {
      "inputs": [
        {
          "internalType": "uint256",
          "name": "_voteId",
          "type": "uint256"
        },
        {
          "internalType": "uint256",
          "name": "_ballotId",
          "type": "uint256"
        },
        {
          "internalType": "address",
          "name": "_voter",
          "type": "address"
        },
        {
          "internalType": "uint256",
          "name": "_decision",
          "type": "uint256"
        },
        {
          "internalType": "uint256",
          "name": "_power",
          "type": "uint256"
        }
      ],
      "name": "createVote",
      "outputs": [
        {
          "internalType": "uint256",
          "name": "",
          "type": "uint256"
        }
      ],
      "stateMutability": "nonpayable",
      "type": "function"
    },
    {
      "inputs": [
        {
          "internalType": "uint256",
          "name": "_ballotId",
          "type": "uint256"
        },
        {
          "internalType": "uint256",
          "name": "_ballotState",
          "type": "uint256"
        }
      ],
      "name": "finalizeBallot",
      "outputs": [],
      "stateMutability": "nonpayable",
      "type": "function"
    },
    {
      "inputs": [
        {
          "internalType": "uint256",
          "name": "_id",
          "type": "uint256"
        }
      ],
      "name": "getBallotAddress",
      "outputs": [
        {
          "internalType": "address",
          "name": "newGovernanceAddress",
          "type": "address"
        }
      ],
      "stateMutability": "view",
      "type": "function"
    },
    {
      "inputs": [
        {
          "internalType": "uint256",
          "name": "_id",
          "type": "uint256"
        }
      ],
      "name": "getBallotBasic",
      "outputs": [
        {
          "internalType": "uint256",
          "name": "startTime",
          "type": "uint256"
        },
        {
          "internalType": "uint256",
          "name": "endTime",
          "type": "uint256"
        },
        {
          "internalType": "uint256",
          "name": "ballotType",
          "type": "uint256"
        },
        {
          "internalType": "address",
          "name": "creator",
          "type": "address"
        },
        {
          "internalType": "bytes",
          "name": "memo",
          "type": "bytes"
        },
        {
          "internalType": "uint256",
          "name": "totalVoters",
          "type": "uint256"
        },
        {
          "internalType": "uint256",
          "name": "powerOfAccepts",
          "type": "uint256"
        },
        {
          "internalType": "uint256",
          "name": "powerOfRejects",
          "type": "uint256"
        },
        {
          "internalType": "uint256",
          "name": "state",
          "type": "uint256"
        },
        {
          "internalType": "bool",
          "name": "isFinalized",
          "type": "bool"
        },
        {
          "internalType": "uint256",
          "name": "duration",
          "type": "uint256"
        }
      ],
      "stateMutability": "view",
      "type": "function"
    },
    {
      "inputs": [],
      "name": "getBallotCount",
      "outputs": [
        {
          "internalType": "uint256",
          "name": "",
          "type": "uint256"
        }
      ],
      "stateMutability": "view",
      "type": "function"
    },
    {
      "inputs": [
        {
          "internalType": "uint256",
          "name": "_id",
          "type": "uint256"
        }
      ],
      "name": "getBallotMember",
      "outputs": [
        {
          "internalType": "address",
          "name": "oldMemberAddress",
          "type": "address"
        },
        {
          "internalType": "address",
          "name": "newMemberAddress",
          "type": "address"
        },
        {
          "internalType": "address",
          "name": "newStakerAddress",
          "type": "address"
        },
        {
          "internalType": "bytes",
          "name": "newNodeName",
          "type": "bytes"
        },
        {
          "internalType": "bytes",
          "name": "newNodeId",
          "type": "bytes"
        },
        {
          "internalType": "bytes",
          "name": "newNodeIp",
          "type": "bytes"
        },
        {
          "internalType": "uint256",
          "name": "newNodePort",
          "type": "uint256"
        },
        {
          "internalType": "uint256",
          "name": "lockAmount",
          "type": "uint256"
        }
      ],
      "stateMutability": "view",
      "type": "function"
    },
    {
      "inputs": [
        {
          "internalType": "uint256",
          "name": "_id",
          "type": "uint256"
        }
      ],
      "name": "getBallotPeriod",
      "outputs": [
        {
          "internalType": "uint256",
          "name": "startTime",
          "type": "uint256"
        },
        {
          "internalType": "uint256",
          "name": "endTime",
          "type": "uint256"
        },
        {
          "internalType": "uint256",
          "name": "duration",
          "type": "uint256"
        }
      ],
      "stateMutability": "view",
      "type": "function"
    },
    {
      "inputs": [
        {
          "internalType": "uint256",
          "name": "_id",
          "type": "uint256"
        }
      ],
      "name": "getBallotState",
      "outputs": [
        {
          "internalType": "uint256",
          "name": "ballotType",
          "type": "uint256"
        },
        {
          "internalType": "uint256",
          "name": "state",
          "type": "uint256"
        },
        {
          "internalType": "bool",
          "name": "isFinalized",
          "type": "bool"
        }
      ],
      "stateMutability": "view",
      "type": "function"
    },
    {
      "inputs": [
        {
          "internalType": "uint256",
          "name": "_id",
          "type": "uint256"
        }
      ],
      "name": "getBallotVariable",
      "outputs": [
        {
          "internalType": "bytes32",
          "name": "envVariableName",
          "type": "bytes32"
        },
        {
          "internalType": "uint256",
          "name": "envVariableType",
          "type": "uint256"
        },
        {
          "internalType": "bytes",
          "name": "envVariableValue",
          "type": "bytes"
        }
      ],
      "stateMutability": "view",
      "type": "function"
    },
    {
      "inputs": [
        {
          "internalType": "uint256",
          "name": "_id",
          "type": "uint256"
        }
      ],
      "name": "getBallotVotingInfo",
      "outputs": [
        {
          "internalType": "uint256",
          "name": "totalVoters",
          "type": "uint256"
        },
        {
          "internalType": "uint256",
          "name": "powerOfAccepts",
          "type": "uint256"
        },
        {
          "internalType": "uint256",
          "name": "powerOfRejects",
          "type": "uint256"
        }
      ],
      "stateMutability": "view",
      "type": "function"
    },
    {
      "inputs": [],
      "name": "getMaxVotingDuration",
      "outputs": [
        {
          "internalType": "uint256",
          "name": "",
          "type": "uint256"
        }
      ],
      "stateMutability": "view",
      "type": "function"
    },
    {
      "inputs": [],
      "name": "getMinVotingDuration",
      "outputs": [
        {
          "internalType": "uint256",
          "name": "",
          "type": "uint256"
        }
      ],
      "stateMutability": "view",
      "type": "function"
    },
    {
      "inputs": [],
      "name": "getPreviousBallotStorage",
      "outputs": [
        {
          "internalType": "address",
          "name": "",
          "type": "address"
        }
      ],
      "stateMutability": "view",
      "type": "function"
    },
    {
      "inputs": [],
      "name": "getTime",
      "outputs": [
        {
          "internalType": "uint256",
          "name": "",
          "type": "uint256"
        }
      ],
      "stateMutability": "view",
      "type": "function"
    },
    {
      "inputs": [
        {
          "internalType": "uint256",
          "name": "_voteId",
          "type": "uint256"
        }
      ],
      "name": "getVote",
      "outputs": [
        {
          "internalType": "uint256",
          "name": "voteId",
          "type": "uint256"
        },
        {
          "internalType": "uint256",
          "name": "ballotId",
          "type": "uint256"
        },
        {
          "internalType": "address",
          "name": "voter",
          "type": "address"
        },
        {
          "internalType": "uint256",
          "name": "decision",
          "type": "uint256"
        },
        {
          "internalType": "uint256",
          "name": "power",
          "type": "uint256"
        },
        {
          "internalType": "uint256",
          "name": "time",
          "type": "uint256"
        }
      ],
      "stateMutability": "view",
      "type": "function"
    },
    {
      "inputs": [
        {
          "internalType": "uint56",
          "name": "_ballotId",
          "type": "uint56"
        },
        {
          "internalType": "address",
          "name": "_voter",
          "type": "address"
        }
      ],
      "name": "hasAlreadyVoted",
      "outputs": [
        {
          "internalType": "bool",
          "name": "",
          "type": "bool"
        }
      ],
      "stateMutability": "view",
      "type": "function"
    },
    {
      "inputs": [],
      "name": "isDisabled",
      "outputs": [
        {
          "internalType": "bool",
          "name": "",
          "type": "bool"
        }
      ],
      "stateMutability": "view",
      "type": "function"
    },
    {
      "inputs": [],
      "name": "owner",
      "outputs": [
        {
          "internalType": "address",
          "name": "",
          "type": "address"
        }
      ],
      "stateMutability": "view",
      "type": "function"
    },
    {
      "inputs": [],
      "name": "reg",
      "outputs": [
        {
          "internalType": "contract IRegistry",
          "name": "",
          "type": "address"
        }
      ],
      "stateMutability": "view",
      "type": "function"
    },
    {
      "inputs": [],
      "name": "renounceOwnership",
      "outputs": [],
      "stateMutability": "nonpayable",
      "type": "function"
    },
    {
      "inputs": [
        {
          "internalType": "address",
          "name": "_address",
          "type": "address"
        }
      ],
      "name": "setPreviousBallotStorage",
      "outputs": [],
      "stateMutability": "nonpayable",
      "type": "function"
    },
    {
      "inputs": [
        {
          "internalType": "address",
          "name": "_addr",
          "type": "address"
        }
      ],
      "name": "setRegistry",
      "outputs": [],
      "stateMutability": "nonpayable",
      "type": "function"
    },
    {
      "inputs": [
        {
          "internalType": "uint256",
          "name": "_ballotId",
          "type": "uint256"
        },
        {
          "internalType": "uint256",
          "name": "_startTime",
          "type": "uint256"
        },
        {
          "internalType": "uint256",
          "name": "_endTime",
          "type": "uint256"
        }
      ],
      "name": "startBallot",
      "outputs": [],
      "stateMutability": "nonpayable",
      "type": "function"
    },
    {
      "inputs": [
        {
          "internalType": "address",
          "name": "newOwner",
          "type": "address"
        }
      ],
      "name": "transferOwnership",
      "outputs": [],
      "stateMutability": "nonpayable",
      "type": "function"
    },
    {
      "inputs": [
        {
          "internalType": "uint256",
          "name": "_ballotId",
          "type": "uint256"
        },
        {
          "internalType": "uint256",
          "name": "_duration",
          "type": "uint256"
        }
      ],
      "name": "updateBallotDuration",
      "outputs": [],
      "stateMutability": "nonpayable",
      "type": "function"
    },
    {
      "inputs": [
        {
          "internalType": "uint256",
          "name": "_ballotId",
          "type": "uint256"
        },
        {
          "internalType": "uint256",
          "name": "_lockAmount",
          "type": "uint256"
        }
      ],
      "name": "updateBallotMemberLockAmount",
      "outputs": [],
      "stateMutability": "nonpayable",
      "type": "function"
    },
    {
      "inputs": [
        {
          "internalType": "uint256",
          "name": "_ballotId",
          "type": "uint256"
        },
        {
          "internalType": "bytes",
          "name": "_memo",
          "type": "bytes"
        }
      ],
      "name": "updateBallotMemo",
      "outputs": [],
      "stateMutability": "nonpayable",
      "type": "function"
    }
  ],
  "bytecode": "0x608060405260006009553480156200001657600080fd5b5060405162003dc838038062003dc8833981016040819052620000399162000180565b620000443362000056565b6200004f81620000a6565b50620001b2565b600080546001600160a01b038381166001600160a01b0319831681178455604051919092169283917f8be0079c531659141344cd1fd0a4f28419497f9722a3daafe3b4186f6b6457e09190a35050565b6000546001600160a01b03163314620001065760405162461bcd60e51b815260206004820181905260248201527f4f776e61626c653a2063616c6c6572206973206e6f7420746865206f776e657260448201526064015b60405180910390fd5b6001600160a01b0381166200015e5760405162461bcd60e51b815260206004820152601a60248201527f416464726573732073686f756c64206265206e6f6e2d7a65726f0000000000006044820152606401620000fd565b600180546001600160a01b0319166001600160a01b0392909216919091179055565b6000602082840312156200019357600080fd5b81516001600160a01b0381168114620001ab57600080fd5b9392505050565b613c0680620001c26000396000f3fe608060405234801561001057600080fd5b50600436106103b95760003560e01c8063715018a6116101f4578063b128f8801161011a578063c7d3da34116100ad578063dd65d3f91161007c578063dd65d3f914610a84578063e80c4eaf14610aab578063f2fde38b14610ad2578063f680e55514610ae557600080fd5b8063c7d3da3414610a1b578063ce04b9d414610a42578063d95deb0914610a4a578063daacbb9514610a7157600080fd5b8063c00ace6c116100e9578063c00ace6c14610993578063c0b4fe15146109ba578063c0b6f186146109e1578063c6713baf146109f457600080fd5b8063b128f88014610940578063b23c676c14610967578063b474149514610978578063bce0dbc11461098057600080fd5b80638da5cb5b11610192578063a6868b7d11610161578063a6868b7d146108cc578063a91e59ba146108f3578063a91ee0dc14610906578063a9b629b21461091957600080fd5b80638da5cb5b14610888578063918f86741461089957806396462b9c146108a25780639986e4b9146108b557600080fd5b806373df4e01116101ce57806373df4e01146107fa5780637b2bfb01146108215780637bf46530146108485780637efa9ae31461085c57600080fd5b8063715018a6146107b457806372d0ec92146107bc578063738fdd1a146107cf57600080fd5b8063320f2bed116102e45780636167eb45116102775780636c57f5a9116102465780636c57f5a9146107325780636c78d2cf1461074a5780636d583ca7146107665780636fde207a1461078d57600080fd5b80636167eb45146106a1578063656bc633146106c8578063656e3052146106db578063688ca5b21461070257600080fd5b80634bd1ed76116102b35780634bd1ed7614610625578063557ed1ba1461063a57806356ba988e146106405780635a55c1f01461065357600080fd5b8063320f2bed1461059d57806338294419146105c45780633f35c8fe146105eb5780634a57823e1461061257600080fd5b80631c1501711161035c578063238737b61161032b578063238737b614610528578063278bb12a1461054f5780632a74f38c146105765780632f40992e1461058957600080fd5b80631c150171146104c65780631d940da2146104ce5780631daad67b146104f05780631e0cba0d1461051757600080fd5b80630a3a63fe116103985780630a3a63fe146104505780630b1d39b8146104635780630f36c0a81461048a578063155ca224146104b157600080fd5b806215a73b146103be57806302b385fb146103f85780630997068814610422575b600080fd5b6103e57f0c4fbe9dc9de15dd7c0d064975ee1a2f2f9b954fa0e65d4f6cddba94884bdc3e81565b6040519081526020015b60405180910390f35b61040b61040636600461349e565b610b29565b6040516103ef9b9a99989796959493929190613ad5565b61043561043036600461349e565b610cf4565b604080519384526020840192909252908201526060016103ef565b6103e561045e3660046135ae565b610e4f565b6103e57f9251c159f02011bbf45dee7be257fcbb2aecba050ea7ce7c9f8561b82858d6e081565b6103e57f55b3774520b5993024893d303890baa4e84b1244a43c60034d1ced2d3cf2b04b81565b6104c46104bf36600461349e565b610f67565b005b6103e56110c8565b6104e16104dc36600461349e565b611147565b6040516103ef939291906138a5565b6103e57f6d0d53fb98dc9bce1459687cbe14a4d9d9314793382025604e41d0832dabfab281565b6103e5665374616b696e6760c81b81565b6103e57f1d36f8ce53f59e624857e1d8dc7932d19981a2ea1b8faa4eb8ff843fc3e5a27881565b6103e57f3a9129cf69b4fa0fbe5d48e0d50863014e21ae09ffabcd72cebe10b1835251b981565b6104c4610584366004613464565b6111ff565b6103e56914995dd85c99141bdbdb60b21b81565b6103e57f22977776155fc4e820722e2555cf883ac48d3db58e8302ad8a8304789cce21e681565b6103e57fbe90e461bbdb9a95a694f7796912ea04244caf7f5b60ad7ded17e16821d3e44c81565b6103e57f2a268972a70c8c688b62366bdfdd9bb09cf19d3e5b6e7e7bb158e671ffdcedd281565b6103e561062036600461371e565b611293565b6103e56a4d61696e74656e616e636560a81b81565b426103e5565b61043561064e36600461349e565b61139b565b61066661066136600461349e565b6114e7565b6040805196875260208701959095526001600160a01b03909316938501939093526060840152608083019190915260a082015260c0016103ef565b6103e57f8e6c2112cf42a3c3439bb3778561081e8f613478ae194d83342262c47476aa6381565b6104c46106d6366004613517565b6115b5565b6103e57fe10074dceffb75f13bf0ce50145afd35182d63796823f1280ce40e01c19109e781565b61071561071036600461349e565b6117c8565b6040805193845260208401929092521515908201526060016103ef565b61073a611919565b60405190151581526020016103ef565b6103e57111dbdd995c9b985b98d950dbdb9d1c9858dd60721b81565b6103e57fc69fc6b7d0efc934fd5a3581c7253a7107a952526bb6dbcd814ef8d8dae1f44a81565b6103e57f0b09c9badbbeb6c813a598ee910770a39ccda797a1940439bb6e47fc6c87548b81565b6104c461193d565b6104c46107ca366004613517565b611973565b6001546107e2906001600160a01b031681565b6040516001600160a01b0390911681526020016103ef565b61080d61080836600461349e565b611b0d565b6040516103ef989796959493929190613830565b6103e57f9c50bf546a3eb3ddc62018a4800f49d81aad4ea32c0be59072d1ad5ca5cacaad81565b6103e569456e7653746f7261676560b01b81565b6107e261086a36600461349e565b6000908152600460205260409020600101546001600160a01b031690565b6000546001600160a01b03166107e2565b6103e561271081565b6103e56108b0366004613539565b611d12565b6103e56c42616c6c6f7453746f7261676560981b81565b6103e57f6c6f69f426081752a5d3e73746599acd2a4cb145d5de4203ca1e3473b281680b81565b6104c4610901366004613517565b612001565b6104c4610914366004613464565b61217f565b6103e57f89dd490ecaf395283ed4ff2fd9557ca767fc425dce063451a9b0da6d72f600c381565b6103e57f829561ab7af084b7efc6600518d2df79b8d95f3f4c3a550f54f8f7ec7d2b805781565b6008546001600160a01b03166107e2565b6009546103e5565b6104c461098e3660046134d0565b612221565b6103e57f18ad4415ef4a621ce1a136395c51ab6c3712bb2e24b79d526059925cea58dcb881565b6103e57f8086da5becff4dfac91a3105821b361078d2d4abba0ccc2401b974cf0dcf05c181565b6104c46109ef366004613582565b612366565b6103e57fa5495b55db4a16d67920c831291cb521e7d2e42866df23674e9d512cbe24d91581565b6103e57f04f7b94450bbcad85f37ea47cd1062728f884bb2040e357738f8fd53056134bc81565b6103e5612548565b6103e57f343c5ed9508182ab8261b3c26ad6005b023d08d7ebda78905998bf972da5a5ef81565b6104c4610a7f366004613604565b61258a565b6103e57fdefa546c11b044f1166f68848d05922f56215584ecaaf1f134abd7253991e49c81565b6103e57fc1fef5416a26208ec09d5877fd503bcf881c208c4b0f620ea0f63841134b6bf081565b6104c4610ae0366004613464565b612898565b61073a610af336600461379e565b66ffffffffffffff821660009081526007602090815260408083206001600160a01b038516845290915290205460ff1692915050565b60008060008060606000806000806000806000600260008e815260200190815260200160002060405180610180016040529081600082015481526020016001820154815260200160028201548152602001600382015481526020016004820160009054906101000a90046001600160a01b03166001600160a01b03166001600160a01b03168152602001600582018054610bc290613b6a565b80601f0160208091040260200160405190810160405280929190818152602001828054610bee90613b6a565b8015610c3b5780601f10610c1057610100808354040283529160200191610c3b565b820191906000526020600020905b815481529060010190602001808311610c1e57829003601f168201915b5050505050815260200160068201548152602001600782015481526020016008820154815260200160098201548152602001600a820160009054906101000a900460ff16151515158152602001600b82015481525050905080602001519b5080604001519a5080606001519950806080015198508060a0015197508060c0015196508060e00151955080610100015194508061012001519350806101400151925080610160015191505091939597999b90929496989a50565b60008181526002602081815260408084208151610180810183528154815260018201549381019390935292830154908201526003820154606082015260048201546001600160a01b03166080820152600582018054849384938493909260a084019190610d6090613b6a565b80601f0160208091040260200160405190810160405280929190818152602001828054610d8c90613b6a565b8015610dd95780601f10610dae57610100808354040283529160200191610dd9565b820191906000526020600020905b815481529060010190602001808311610dbc57829003601f168201915b5050505050815260200160068201548152602001600782015481526020016008820154815260200160098201548152602001600a820160009054906101000a900460ff16151515158152602001600b82015481525050905080602001519350806040015192508061016001519150509193909250565b600033610e5a612933565b6001600160a01b031614610e895760405162461bcd60e51b8152600401610e809061393a565b60405180910390fd5b610e91612953565b6001600160a01b0316306001600160a01b031614610ec15760405162461bcd60e51b8152600401610e8090613a85565b60048514610ee15760405162461bcd60e51b8152600401610e80906139cd565b6001600160a01b038216610f075760405162461bcd60e51b8152600401610e8090613aaa565b610f138686868661296e565b506040805180820182528681526001600160a01b0392831660208083019182526000898152600490915292909220905181559051600190910180546001600160a01b03191691909216179055509192915050565b8033610f71612933565b6001600160a01b03161480610f9f57506000818152600260205260409020600401546001600160a01b031633145b610fbb5760405162461bcd60e51b8152600401610e809061393a565b610fc3612953565b6001600160a01b0316306001600160a01b031614610ff35760405162461bcd60e51b8152600401610e8090613a85565b60008281526002602052604090205482146110205760405162461bcd60e51b8152600401610e809061390e565b6000828152600260205260409020600a015460ff16156110525760405162461bcd60e51b8152600401610e80906139fa565b6001600083815260026020526040902060090154146110835760405162461bcd60e51b8152600401610e8090613a25565b60008281526002602052604090206005600982015560405183907fd5e541d004c50564e5e05fcbc6be2916c68d817507693dc3774c69dde4ce13dc90600090a2505050565b60006110d2612c2d565b6001600160a01b03166333be496e6040518163ffffffff1660e01b815260040160206040518083038186803b15801561110a57600080fd5b505afa15801561111e573d6000803e3d6000fd5b505050506040513d601f19601f8201168201806040525081019061114291906134b7565b905090565b60008181526005602052604090206001810154600282015460038301805492939192606092919061117790613b6a565b80601f01602080910402602001604051908101604052809291908181526020018280546111a390613b6a565b80156111f05780601f106111c5576101008083540402835291602001916111f0565b820191906000526020600020905b8154815290600101906020018083116111d357829003601f168201915b50505050509150509193909250565b6000546001600160a01b031633146112295760405162461bcd60e51b8152600401610e8090613998565b6001600160a01b0381166112715760405162461bcd60e51b815260206004820152600f60248201526e496e76616c6964206164647265737360881b6044820152606401610e80565b600880546001600160a01b0319166001600160a01b0392909216919091179055565b60003361129e612933565b6001600160a01b0316146112c45760405162461bcd60e51b8152600401610e809061393a565b6112cc612953565b6001600160a01b0316306001600160a01b0316146112fc5760405162461bcd60e51b8152600401610e8090613a85565b61130887858585612c45565b6113245760405162461bcd60e51b8152600401610e8090613aaa565b6113308888888861296e565b6040805160808101825289815260208082018781528284018781526060840187815260008e8152600585529590952084518155915160018301555160028201559251805192938493909261138b92600385019291019061332e565b50999a9950505050505050505050565b60008181526002602081815260408084208151610180810183528154815260018201549381019390935292830154908201526003820154606082015260048201546001600160a01b03166080820152600582018054849384938493909260a08401919061140790613b6a565b80601f016020809104026020016040519081016040528092919081815260200182805461143390613b6a565b80156114805780601f1061145557610100808354040283529160200191611480565b820191906000526020600020905b81548152906001019060200180831161146357829003601f168201915b505050918352505060068201546020820152600782015460408201526008820154606082015260098201546080820152600a82015460ff16151560a0820152600b9091015460c09182015281015160e0820151610100909201519097919650945092505050565b6000818152600660205260408120548190819081908190819087146115435760405162461bcd60e51b81526020600482015260126024820152711b9bdd08195e1a5cdd1959081d9bdd19525960721b6044820152606401610e80565b5050506000938452505060066020908152604092839020835160c0810185528154808252600183015493820184905260028301546001600160a01b031695820186905260038301546060830181905260048401546080840181905260059094015460a090930183905290969395945092565b81336115bf612933565b6001600160a01b031614806115ed57506000818152600260205260409020600401546001600160a01b031633145b6116095760405162461bcd60e51b8152600401610e809061393a565b611611612953565b6001600160a01b0316306001600160a01b0316146116415760405162461bcd60e51b8152600401610e8090613a85565b818061164b6110c8565b11156116995760405162461bcd60e51b815260206004820152601c60248201527f556e646572206d696e2076616c7565206f6620206475726174696f6e000000006044820152606401610e80565b6116a1612548565b8111156116f05760405162461bcd60e51b815260206004820152601a60248201527f4f766572206d61782076616c7565206f66206475726174696f6e0000000000006044820152606401610e80565b600084815260026020526040902054841461171d5760405162461bcd60e51b8152600401610e809061390e565b6000848152600260205260409020600a015460ff161561174f5760405162461bcd60e51b8152600401610e80906139fa565b6001600085815260026020526040902060090154146117805760405162461bcd60e51b8152600401610e8090613a25565b600084815260026020526040808220600b810186905590519091339187917ff0855c0e0ad9b8a162b87f2e4e07d4b2a3f0a45126b15ff4a78b217ad19a901a91a35050505050565b60008181526002602081815260408084208151610180810183528154815260018201549381019390935292830154908201526003820154606082015260048201546001600160a01b03166080820152600582018054849384938493909260a08401919061183490613b6a565b80601f016020809104026020016040519081016040528092919081815260200182805461186090613b6a565b80156118ad5780601f10611882576101008083540402835291602001916118ad565b820191906000526020600020905b81548152906001019060200180831161189057829003601f168201915b50505091835250506006820154602082015260078201546040820152600882015460608083019190915260098301546080830152600a83015460ff16151560a0830152600b9092015460c090910152810151610120820151610140909201519097919650945092505050565b6000611923612953565b6001600160a01b0316306001600160a01b03161415905090565b6000546001600160a01b031633146119675760405162461bcd60e51b8152600401610e8090613998565b6119716000612d67565b565b3361197c612933565b6001600160a01b0316146119a25760405162461bcd60e51b8152600401610e809061393a565b6119aa612953565b6001600160a01b0316306001600160a01b0316146119da5760405162461bcd60e51b8152600401610e8090613a85565b6000828152600260205260409020548214611a075760405162461bcd60e51b8152600401610e809061390e565b6000828152600360205260409020548214611a645760405162461bcd60e51b815260206004820152601860248201527f6e6f7420657869737465642042616c6c6f744d656d62657200000000000000006044820152606401610e80565b6000828152600260205260409020600a015460ff1615611a965760405162461bcd60e51b8152600401610e80906139fa565b600160008381526002602052604090206009015414611ac75760405162461bcd60e51b8152600401610e8090613a25565b6000828152600360205260408082206009810184905590519091339185917ff0855c0e0ad9b8a162b87f2e4e07d4b2a3f0a45126b15ff4a78b217ad19a901a91a3505050565b60008181526003602052604081206001810154600282015460048301546005840180546001600160a01b0394851696938516959290941693606093849384939192839290611b5a90613b6a565b80601f0160208091040260200160405190810160405280929190818152602001828054611b8690613b6a565b8015611bd35780601f10611ba857610100808354040283529160200191611bd3565b820191906000526020600020905b815481529060010190602001808311611bb657829003601f168201915b50505050509550806006018054611be990613b6a565b80601f0160208091040260200160405190810160405280929190818152602001828054611c1590613b6a565b8015611c625780601f10611c3757610100808354040283529160200191611c62565b820191906000526020600020905b815481529060010190602001808311611c4557829003601f168201915b50505050509450806007018054611c7890613b6a565b80601f0160208091040260200160405190810160405280929190818152602001828054611ca490613b6a565b8015611cf15780601f10611cc657610100808354040283529160200191611cf1565b820191906000526020600020905b815481529060010190602001808311611cd457829003601f168201915b50505050509350806008015492508060090154915050919395975091939597565b600033611d1d612933565b6001600160a01b031614611d435760405162461bcd60e51b8152600401610e809061393a565b611d4b612953565b6001600160a01b0316306001600160a01b031614611d7b5760405162461bcd60e51b8152600401610e8090613a85565b6001831480611d8a5750600283145b611dc95760405162461bcd60e51b815260206004820152601060248201526f24b73b30b634b2103232b1b4b9b4b7b760811b6044820152606401610e80565b6000858152600260205260409020548514611df65760405162461bcd60e51b8152600401610e809061390e565b600086815260066020526040902054861415611e4d5760405162461bcd60e51b8152602060048201526016602482015275185b1c9958591e48195e1a5cdd1959081d9bdd19525960521b6044820152606401610e80565b60008581526007602090815260408083206001600160a01b038816845290915290205460ff1615611eb05760405162461bcd60e51b815260206004820152600d60248201526c185b1c9958591e481d9bdd1959609a1b6044820152606401610e80565b600260008681526002602052604090206009015414611f085760405162461bcd60e51b81526020600482015260146024820152734e6f7420496e50726f677265737320537461746560601b6044820152606401610e80565b6040518060c00160405280878152602001868152602001856001600160a01b03168152602001848152602001838152602001611f414290565b905260008781526006602090815260409182902083518155908301516001820155908201516002820180546001600160a01b0319166001600160a01b03909216919091179055606082015160038201556080820151600482015560a090910151600590910155611fb385858585612db7565b836001600160a01b031685877f41df84b3b467b06744e40c92613c666324e7c640ce0a41ec06efdf602d36760686604051611ff091815260200190565b60405180910390a495945050505050565b3361200a612933565b6001600160a01b0316146120305760405162461bcd60e51b8152600401610e809061393a565b612038612953565b6001600160a01b0316306001600160a01b0316146120685760405162461bcd60e51b8152600401610e8090613a85565b60008281526002602052604090205482146120955760405162461bcd60e51b8152600401610e809061390e565b6000828152600260205260409020600a015460ff16156120c75760405162461bcd60e51b8152600401610e80906139fa565b60038114806120d65750600481145b6121195760405162461bcd60e51b8152602060048201526014602482015273496e76616c69642042616c6c6f7420537461746560601b6044820152606401610e80565b6000828152600260205260409081902060098101839055600a8101805460ff19166001179055905183907fdc921f027328d7238b58d77649ebcbd0c8b1c494c66ba53dfe53e0de65f6dd9f906121729085815260200190565b60405180910390a2505050565b6000546001600160a01b031633146121a95760405162461bcd60e51b8152600401610e8090613998565b6001600160a01b0381166121ff5760405162461bcd60e51b815260206004820152601a60248201527f416464726573732073686f756c64206265206e6f6e2d7a65726f0000000000006044820152606401610e80565b600180546001600160a01b0319166001600160a01b0392909216919091179055565b813361222b612933565b6001600160a01b0316148061225957506000818152600260205260409020600401546001600160a01b031633145b6122755760405162461bcd60e51b8152600401610e809061393a565b61227d612953565b6001600160a01b0316306001600160a01b0316146122ad5760405162461bcd60e51b8152600401610e8090613a85565b60008381526002602052604090205483146122da5760405162461bcd60e51b8152600401610e809061390e565b6000838152600260205260409020600a015460ff161561230c5760405162461bcd60e51b8152600401610e80906139fa565b60008381526002602090815260409091208351909161233291600584019186019061332e565b50604051339085907ff0855c0e0ad9b8a162b87f2e4e07d4b2a3f0a45126b15ff4a78b217ad19a901a90600090a350505050565b3361236f612933565b6001600160a01b0316146123955760405162461bcd60e51b8152600401610e809061393a565b61239d612953565b6001600160a01b0316306001600160a01b0316146123cd5760405162461bcd60e51b8152600401610e8090613a85565b81816000821180156123df5750600081115b61241f5760405162461bcd60e51b815260206004820152601160248201527007374617274206f7220656e64206973203607c1b6044820152606401610e80565b81811161245d5760405162461bcd60e51b815260206004820152600c60248201526b1cdd185c9d080f8f48195b9960a21b6044820152606401610e80565b600085815260026020526040902054851461248a5760405162461bcd60e51b8152600401610e809061390e565b6000858152600260205260409020600a015460ff16156124bc5760405162461bcd60e51b8152600401610e80906139fa565b6001600086815260026020526040902060090154146124ed5760405162461bcd60e51b8152600401610e8090613a25565b6000858152600260208190526040909120600181018690558082018590559060098201556040518490869088907fd9938a514dab5cdce149a77493f694bd70c24a4833a278fd4d86fbdf859099c590600090a4505050505050565b6000612552612c2d565b6001600160a01b0316631b27e01b6040518163ffffffff1660e01b815260040160206040518083038186803b15801561110a57600080fd5b33612593612933565b6001600160a01b0316146125b95760405162461bcd60e51b8152600401610e809061393a565b6125c1612953565b6001600160a01b0316306001600160a01b0316146125f15760405162461bcd60e51b8152600401610e8090613a85565b6126008b898987878787612f1e565b61261c5760405162461bcd60e51b8152600401610e8090613aaa565b6126288c8c8c8c61296e565b6126a26040518061014001604052806000815260200160006001600160a01b0316815260200160006001600160a01b0316815260200160006001600160a01b0316815260200160006001600160a01b0316815260200160608152602001606081526020016060815260200160008152602001600081525090565b8c8160000181815250508881602001906001600160a01b031690816001600160a01b0316815250508781604001906001600160a01b031690816001600160a01b0316815250508681606001906001600160a01b031690816001600160a01b0316815250508581608001906001600160a01b031690816001600160a01b031681525050848160a00181905250838160c00181905250828160e00181905250818161010001818152505080600360008f81526020019081526020016000206000820151816000015560208201518160010160006101000a8154816001600160a01b0302191690836001600160a01b0316021790555060408201518160020160006101000a8154816001600160a01b0302191690836001600160a01b0316021790555060608201518160030160006101000a8154816001600160a01b0302191690836001600160a01b0316021790555060808201518160040160006101000a8154816001600160a01b0302191690836001600160a01b0316021790555060a082015181600501908051906020019061283892919061332e565b5060c0820151805161285491600684019160209091019061332e565b5060e0820151805161287091600784019160209091019061332e565b5061010082015160088201556101209091015160099091015550505050505050505050505050565b6000546001600160a01b031633146128c25760405162461bcd60e51b8152600401610e8090613998565b6001600160a01b0381166129275760405162461bcd60e51b815260206004820152602660248201527f4f776e61626c653a206e6577206f776e657220697320746865207a65726f206160448201526564647265737360d01b6064820152608401610e80565b61293081612d67565b50565b60006111427111dbdd995c9b985b98d950dbdb9d1c9858dd60721b613298565b60006111426c42616c6c6f7453746f7261676560981b613298565b81806129786110c8565b11156129c65760405162461bcd60e51b815260206004820152601c60248201527f556e646572206d696e2076616c7565206f6620206475726174696f6e000000006044820152606401610e80565b6129ce612548565b811115612a1d5760405162461bcd60e51b815260206004820152601a60248201527f4f766572206d61782076616c7565206f66206475726174696f6e0000000000006044820152606401610e80565b600085815260026020526040902054851415612a745760405162461bcd60e51b8152602060048201526016602482015275105b1c9958591e48195e1a5cdd19590818985b1b1bdd60521b6044820152606401610e80565b612ae36040518061018001604052806000815260200160008152602001600081526020016000815260200160006001600160a01b031681526020016060815260200160008152602001600081526020016000815260200160008152602001600015158152602001600081525090565b858152606081018590526001600160a01b03831660808201526001610120820152600061014082018190526101608201859052868152600260208181526040928390208451815581850151600182015592840151918301919091556060830151600383015560808301516004830180546001600160a01b0319166001600160a01b0390921691909117905560a08301518051849392612b8992600585019291019061332e565b5060c0820151600682015560e082015160078201556101008201516008820155610120820151600980830191909155610140830151600a8301805460ff191691151591909117905561016090920151600b9091015554612bea90600161331b565b6009556040516001600160a01b03841690869088907fd1ba591c76ef71222e2d30b8277758713cc6eef1de29efaf98a716744ac2420b90600090a4505050505050565b600061114269456e7653746f7261676560b01b613298565b600060058514612c675760405162461bcd60e51b8152600401610e80906139cd565b83612cbe5760405162461bcd60e51b815260206004820152602160248201527f496e76616c696420656e7669726f6e6d656e74207661726961626c65206e616d6044820152606560f81b6064820152608401610e80565b6001831015612cdf5760405162461bcd60e51b8152600401610e80906138cd565b6006831115612d005760405162461bcd60e51b8152600401610e80906138cd565b6000825111612d5c5760405162461bcd60e51b815260206004820152602260248201527f496e76616c696420656e7669726f6e6d656e74207661726961626c652076616c604482015261756560f01b6064820152608401610e80565b506001949350505050565b600080546001600160a01b038381166001600160a01b0319831681178455604051919092169283917f8be0079c531659141344cd1fd0a4f28419497f9722a3daafe3b4186f6b6457e09190a35050565b6001821480612dc65750600282145b612e055760405162461bcd60e51b815260206004820152601060248201526f24b73b30b634b2103232b1b4b9b4b7b760811b6044820152606401610e80565b6000848152600260205260409020548414612e325760405162461bcd60e51b8152600401610e809061390e565b60008481526007602090815260408083206001600160a01b038716845290915290205460ff1615612e955760405162461bcd60e51b815260206004820152600d60248201526c185b1c9958591e481d9bdd1959609a1b6044820152606401610e80565b6000848152600260209081526040808320600783528184206001600160a01b0388168552909252909120805460ff191660019081179091556006820154612edb9161331b565b60068201556001831415612f02576007810154612ef8908361331b565b6007820155612f17565b6008810154612f11908361331b565b60088201555b5050505050565b600060018810158015612f32575060038811155b612f4e5760405162461bcd60e51b8152600401610e80906139cd565b60028814156130c0576001600160a01b038716612f7d5760405162461bcd60e51b8152600401610e8090613a4e565b6001600160a01b03861615612fa45760405162461bcd60e51b8152600401610e8090613961565b845115612feb5760405162461bcd60e51b8152602060048201526015602482015274496e76616c6964206e6577206e6f6465206e616d6560581b6044820152606401610e80565b8351156130305760405162461bcd60e51b8152602060048201526013602482015272125b9d985b1a59081b995dc81b9bd919481a59606a1b6044820152606401610e80565b8251156130755760405162461bcd60e51b81526020600482015260136024820152720496e76616c6964206e6577206e6f646520495606c1b6044820152606401610e80565b81156130bb5760405162461bcd60e51b8152602060048201526015602482015274125b9d985b1a59081b995dc81b9bd91948141bdc9d605a1b6044820152606401610e80565b61328a565b60008551116131095760405162461bcd60e51b8152602060048201526015602482015274496e76616c6964206e6577206e6f6465206e616d6560581b6044820152606401610e80565b83516040146131505760405162461bcd60e51b8152602060048201526013602482015272125b9d985b1a59081b995dc81b9bd919481a59606a1b6044820152606401610e80565b60008351116131975760405162461bcd60e51b81526020600482015260136024820152720496e76616c6964206e6577206e6f646520495606c1b6044820152606401610e80565b600082116131df5760405162461bcd60e51b8152602060048201526015602482015274125b9d985b1a59081b995dc81b9bd91948141bdc9d605a1b6044820152606401610e80565b6001881415613235576001600160a01b0387161561320f5760405162461bcd60e51b8152600401610e8090613a4e565b6001600160a01b0386166130bb5760405162461bcd60e51b8152600401610e8090613961565b600388141561328a576001600160a01b0387166132645760405162461bcd60e51b8152600401610e8090613a4e565b6001600160a01b03861661328a5760405162461bcd60e51b8152600401610e8090613961565b506001979650505050505050565b600154604051630d2020dd60e01b8152600481018390526000916001600160a01b031690630d2020dd9060240160206040518083038186803b1580156132dd57600080fd5b505afa1580156132f1573d6000803e3d6000fd5b505050506040513d601f19601f820116820180604052508101906133159190613481565b92915050565b60006133278284613b44565b9392505050565b82805461333a90613b6a565b90600052602060002090601f01602090048101928261335c57600085556133a2565b82601f1061337557805160ff19168380011785556133a2565b828001600101855582156133a2579182015b828111156133a2578251825591602001919060010190613387565b506133ae9291506133b2565b5090565b5b808211156133ae57600081556001016133b3565b80356133d281613bbb565b919050565b600082601f8301126133e857600080fd5b813567ffffffffffffffff8082111561340357613403613ba5565b604051601f8301601f19908116603f0116810190828211818310171561342b5761342b613ba5565b8160405283815286602085880101111561344457600080fd5b836020870160208301376000602085830101528094505050505092915050565b60006020828403121561347657600080fd5b813561332781613bbb565b60006020828403121561349357600080fd5b815161332781613bbb565b6000602082840312156134b057600080fd5b5035919050565b6000602082840312156134c957600080fd5b5051919050565b600080604083850312156134e357600080fd5b82359150602083013567ffffffffffffffff81111561350157600080fd5b61350d858286016133d7565b9150509250929050565b6000806040838503121561352a57600080fd5b50508035926020909101359150565b600080600080600060a0868803121561355157600080fd5b8535945060208601359350604086013561356a81613bbb565b94979396509394606081013594506080013592915050565b60008060006060848603121561359757600080fd5b505081359360208301359350604090920135919050565b600080600080600060a086880312156135c657600080fd5b85359450602086013593506040860135925060608601356135e681613bbb565b915060808601356135f681613bbb565b809150509295509295909350565b6000806000806000806000806000806000806101808d8f03121561362757600080fd5b8c359b5060208d01359a5060408d0135995061364560608e016133c7565b985061365360808e016133c7565b975061366160a08e016133c7565b965061366f60c08e016133c7565b955061367d60e08e016133c7565b945067ffffffffffffffff6101008e0135111561369957600080fd5b6136aa8e6101008f01358f016133d7565b935067ffffffffffffffff6101208e013511156136c657600080fd5b6136d78e6101208f01358f016133d7565b925067ffffffffffffffff6101408e013511156136f357600080fd5b6137048e6101408f01358f016133d7565b91506101608d013590509295989b509295989b509295989b565b600080600080600080600060e0888a03121561373957600080fd5b873596506020880135955060408801359450606088013561375981613bbb565b93506080880135925060a0880135915060c088013567ffffffffffffffff81111561378357600080fd5b61378f8a828b016133d7565b91505092959891949750929550565b600080604083850312156137b157600080fd5b823566ffffffffffffff811681146137c857600080fd5b915060208301356137d881613bbb565b809150509250929050565b6000815180845260005b81811015613809576020818501810151868301820152016137ed565b8181111561381b576000602083870101525b50601f01601f19169290920160200192915050565b6001600160a01b03898116825288811660208301528716604082015261010060608201819052600090613865838201896137e3565b9050828103608084015261387981886137e3565b905082810360a084015261388d81876137e3565b60c0840195909552505060e001529695505050505050565b8381528260208201526060604082015260006138c460608301846137e3565b95945050505050565b60208082526021908201527f496e76616c696420656e7669726f6e6d656e74207661726961626c65205479706040820152606560f81b606082015260800190565b6020808252601290820152711b9bdd08195e1a5cdd19590810985b1b1bdd60721b604082015260600190565b6020808252600d908201526c2737902832b936b4b9b9b4b7b760991b604082015260600190565b6020808252601a908201527f496e76616c6964206e6577206d656d6265722061646472657373000000000000604082015260600190565b6020808252818101527f4f776e61626c653a2063616c6c6572206973206e6f7420746865206f776e6572604082015260600190565b602080825260139082015272496e76616c69642042616c6c6f74205479706560681b604082015260600190565b602080825260119082015270185b1c9958591e48199a5b985b1a5e9959607a1b604082015260600190565b6020808252600f908201526e4e6f7420526561647920537461746560881b604082015260600190565b6020808252601a908201527f496e76616c6964206f6c64206d656d6265722061646472657373000000000000604082015260600190565b6020808252600b908201526a125cc8111a5cd8589b195960aa1b604082015260600190565b60208082526011908201527024b73b30b634b2102830b930b6b2ba32b960791b604082015260600190565b60006101608d83528c60208401528b604084015260018060a01b038b166060840152806080840152613b098184018b6137e3565b60a0840199909952505060c081019590955260e085019390935261010084019190915215156101208301526101409091015295945050505050565b60008219821115613b6557634e487b7160e01b600052601160045260246000fd5b500190565b600181811c90821680613b7e57607f821691505b60208210811415613b9f57634e487b7160e01b600052602260045260246000fd5b50919050565b634e487b7160e01b600052604160045260246000fd5b6001600160a01b038116811461293057600080fdfea264697066735822122022449618f3d7d3e167477052889b8782906f2987c5910565f26601412859079964736f6c63430008060033",
  "linkReferences": {},
  "deployedLinkReferences": {}
}