{
  "_format": "hh-sol-artifact-1",
  "contractName": "EnvStorageImp",
  "sourceName": "contracts/storage/EnvStorageImp.sol",
  "abi": [
    {
      "anonymous": false,
      "inputs": [
        {
          "indexed": true,
          "internalType": "bytes32",
          "name": "_name",
          "type": "bytes32"
        },
        {
          "indexed": false,
          "internalType": "address",
          "name": "_value",
          "type": "address"
        }
      ],
      "name": "AddressVarableChanged",
      "type": "event"
    },
    {
      "anonymous": false,
      "inputs": [
        {
          "indexed": false,
          "internalType": "address",
          "name": "previousAdmin",
          "type": "address"
        },
        {
          "indexed": false,
          "internalType": "address",
          "name": "newAdmin",
          "type": "address"
        }
      ],
      "name": "AdminChanged",
      "type": "event"
    },
    {
      "anonymous": false,
      "inputs": [
        {
          "indexed": true,
          "internalType": "address",
          "name": "beacon",
          "type": "address"
        }
      ],
      "name": "BeaconUpgraded",
      "type": "event"
    },
    {
      "anonymous": false,
      "inputs": [
        {
          "indexed": true,
          "internalType": "bytes32",
          "name": "_name",
          "type": "bytes32"
        },
        {
          "indexed": false,
          "internalType": "bytes32",
          "name": "_value",
          "type": "bytes32"
        }
      ],
      "name": "Bytes32VarableChanged",
      "type": "event"
    },
    {
      "anonymous": false,
      "inputs": [
        {
          "indexed": true,
          "internalType": "bytes32",
          "name": "_name",
          "type": "bytes32"
        },
        {
          "indexed": false,
          "internalType": "bytes",
          "name": "_value",
          "type": "bytes"
        }
      ],
      "name": "BytesVarableChanged",
      "type": "event"
    },
    {
      "anonymous": false,
      "inputs": [
        {
          "indexed": true,
          "internalType": "bytes32",
          "name": "_name",
          "type": "bytes32"
        },
        {
          "indexed": false,
          "internalType": "int256",
          "name": "_value",
          "type": "int256"
        }
      ],
      "name": "IntVarableChanged",
      "type": "event"
    },
    {
      "anonymous": false,
      "inputs": [
        {
          "indexed": true,
          "internalType": "address",
          "name": "previousOwner",
          "type": "address"
        },
        {
          "indexed": true,
          "internalType": "address",
          "name": "newOwner",
          "type": "address"
        }
      ],
      "name": "OwnershipTransferred",
      "type": "event"
    },
    {
      "anonymous": false,
      "inputs": [
        {
          "indexed": true,
          "internalType": "bytes32",
          "name": "_name",
          "type": "bytes32"
        },
        {
          "indexed": false,
          "internalType": "string",
          "name": "_value",
          "type": "string"
        }
      ],
      "name": "StringVarableChanged",
      "type": "event"
    },
    {
      "anonymous": false,
      "inputs": [
        {
          "indexed": true,
          "internalType": "bytes32",
          "name": "_name",
          "type": "bytes32"
        },
        {
          "indexed": false,
          "internalType": "uint256",
          "name": "_value",
          "type": "uint256"
        }
      ],
      "name": "UintVarableChanged",
      "type": "event"
    },
    {
      "anonymous": false,
      "inputs": [
        {
          "indexed": true,
          "internalType": "address",
          "name": "implementation",
          "type": "address"
        }
      ],
      "name": "Upgraded",
      "type": "event"
    },
    {
      "anonymous": false,
      "inputs": [
        {
          "indexed": true,
          "internalType": "bytes32",
          "name": "_name",
          "type": "bytes32"
        },
        {
          "indexed": true,
          "internalType": "uint256",
          "name": "_type",
          "type": "uint256"
        },
        {
          "indexed": false,
          "internalType": "string",
          "name": "_value",
          "type": "string"
        }
      ],
      "name": "VarableChanged",
      "type": "event"
    },
    {
      "inputs": [],
      "name": "BALLOT_DURATION_MAX_NAME",
      "outputs": [
        {
          "internalType": "bytes32",
          "name": "",
          "type": "bytes32"
        }
      ],
      "stateMutability": "view",
      "type": "function"
    },
    {
      "inputs": [],
      "name": "BALLOT_DURATION_MIN_MAX_NAME",
      "outputs": [
        {
          "internalType": "bytes32",
          "name": "",
          "type": "bytes32"
        }
      ],
      "stateMutability": "view",
      "type": "function"
    },
    {
      "inputs": [],
      "name": "BALLOT_DURATION_MIN_NAME",
      "outputs": [
        {
          "internalType": "bytes32",
          "name": "",
          "type": "bytes32"
        }
      ],
      "stateMutability": "view",
      "type": "function"
    },
    {
      "inputs": [],
      "name": "BALLOT_STORAGE_NAME",
      "outputs": [
        {
          "internalType": "bytes32",
          "name": "",
          "type": "bytes32"
        }
      ],
      "stateMutability": "view",
      "type": "function"
    },
    {
      "inputs": [],
      "name": "BASE_FEE_MAX_CHANGE_DENOMINATOR_NAME",
      "outputs": [
        {
          "internalType": "bytes32",
          "name": "",
          "type": "bytes32"
        }
      ],
      "stateMutability": "view",
      "type": "function"
    },
    {
      "inputs": [],
      "name": "BLOCKS_PER_NAME",
      "outputs": [
        {
          "internalType": "bytes32",
          "name": "",
          "type": "bytes32"
        }
      ],
      "stateMutability": "view",
      "type": "function"
    },
    {
      "inputs": [],
      "name": "BLOCK_CREATION_TIME_NAME",
      "outputs": [
        {
          "internalType": "bytes32",
          "name": "",
          "type": "bytes32"
        }
      ],
      "stateMutability": "view",
      "type": "function"
    },
    {
      "inputs": [],
      "name": "BLOCK_GASLIMIT_NAME",
      "outputs": [
        {
          "internalType": "bytes32",
          "name": "",
          "type": "bytes32"
        }
      ],
      "stateMutability": "view",
      "type": "function"
    },
    {
      "inputs": [],
      "name": "BLOCK_REWARD_AMOUNT_NAME",
      "outputs": [
        {
          "internalType": "bytes32",
          "name": "",
          "type": "bytes32"
        }
      ],
      "stateMutability": "view",
      "type": "function"
    },
    {
      "inputs": [],
      "name": "BLOCK_REWARD_DISTRIBUTION_BLOCK_PRODUCER_NAME",
      "outputs": [
        {
          "internalType": "bytes32",
          "name": "",
          "type": "bytes32"
        }
      ],
      "stateMutability": "view",
      "type": "function"
    },
    {
      "inputs": [],
      "name": "BLOCK_REWARD_DISTRIBUTION_ECOSYSTEM_NAME",
      "outputs": [
        {
          "internalType": "bytes32",
          "name": "",
          "type": "bytes32"
        }
      ],
      "stateMutability": "view",
      "type": "function"
    },
    {
      "inputs": [],
      "name": "BLOCK_REWARD_DISTRIBUTION_MAINTANANCE_NAME",
      "outputs": [
        {
          "internalType": "bytes32",
          "name": "",
          "type": "bytes32"
        }
      ],
      "stateMutability": "view",
      "type": "function"
    },
    {
      "inputs": [],
      "name": "BLOCK_REWARD_DISTRIBUTION_METHOD_NAME",
      "outputs": [
        {
          "internalType": "bytes32",
          "name": "",
          "type": "bytes32"
        }
      ],
      "stateMutability": "view",
      "type": "function"
    },
    {
      "inputs": [],
      "name": "BLOCK_REWARD_DISTRIBUTION_STAKING_REWARD_NAME",
      "outputs": [
        {
          "internalType": "bytes32",
          "name": "",
          "type": "bytes32"
        }
      ],
      "stateMutability": "view",
      "type": "function"
    },
    {
      "inputs": [],
      "name": "DENOMINATOR",
      "outputs": [
        {
          "internalType": "uint256",
          "name": "",
          "type": "uint256"
        }
      ],
      "stateMutability": "view",
      "type": "function"
    },
    {
      "inputs": [],
      "name": "ECOFUND_ADDRESS_NAME",
      "outputs": [
        {
          "internalType": "bytes32",
          "name": "",
          "type": "bytes32"
        }
      ],
      "stateMutability": "view",
      "type": "function"
    },
    {
      "inputs": [],
      "name": "ELASTICITY_MULTIPLIER_NAME",
      "outputs": [
        {
          "internalType": "bytes32",
          "name": "",
          "type": "bytes32"
        }
      ],
      "stateMutability": "view",
      "type": "function"
    },
    {
      "inputs": [],
      "name": "ENV_STORAGE_NAME",
      "outputs": [
        {
          "internalType": "bytes32",
          "name": "",
          "type": "bytes32"
        }
      ],
      "stateMutability": "view",
      "type": "function"
    },
    {
      "inputs": [],
      "name": "GASLIMIT_AND_BASE_FEE_NAME",
      "outputs": [
        {
          "internalType": "bytes32",
          "name": "",
          "type": "bytes32"
        }
      ],
      "stateMutability": "view",
      "type": "function"
    },
    {
      "inputs": [],
      "name": "GAS_PRICE_NAME",
      "outputs": [
        {
          "internalType": "bytes32",
          "name": "",
          "type": "bytes32"
        }
      ],
      "stateMutability": "view",
      "type": "function"
    },
    {
      "inputs": [],
      "name": "GOV_NAME",
      "outputs": [
        {
          "internalType": "bytes32",
          "name": "",
          "type": "bytes32"
        }
      ],
      "stateMutability": "view",
      "type": "function"
    },
    {
      "inputs": [],
      "name": "MAINTANANCE_ADDRESS_NAME",
      "outputs": [
        {
          "internalType": "bytes32",
          "name": "",
          "type": "bytes32"
        }
      ],
      "stateMutability": "view",
      "type": "function"
    },
    {
      "inputs": [],
      "name": "MAINTENANCE_NAME",
      "outputs": [
        {
          "internalType": "bytes32",
          "name": "",
          "type": "bytes32"
        }
      ],
      "stateMutability": "view",
      "type": "function"
    },
    {
      "inputs": [],
      "name": "MAX_IDLE_BLOCK_INTERVAL_NAME",
      "outputs": [
        {
          "internalType": "bytes32",
          "name": "",
          "type": "bytes32"
        }
      ],
      "stateMutability": "view",
      "type": "function"
    },
    {
      "inputs": [],
      "name": "MAX_PRIORITY_FEE_PER_GAS_NAME",
      "outputs": [
        {
          "internalType": "bytes32",
          "name": "",
          "type": "bytes32"
        }
      ],
      "stateMutability": "view",
      "type": "function"
    },
    {
      "inputs": [],
      "name": "REWARD_POOL_NAME",
      "outputs": [
        {
          "internalType": "bytes32",
          "name": "",
          "type": "bytes32"
        }
      ],
      "stateMutability": "view",
      "type": "function"
    },
    {
      "inputs": [],
      "name": "STAKING_MAX_NAME",
      "outputs": [
        {
          "internalType": "bytes32",
          "name": "",
          "type": "bytes32"
        }
      ],
      "stateMutability": "view",
      "type": "function"
    },
    {
      "inputs": [],
      "name": "STAKING_MIN_MAX_NAME",
      "outputs": [
        {
          "internalType": "bytes32",
          "name": "",
          "type": "bytes32"
        }
      ],
      "stateMutability": "view",
      "type": "function"
    },
    {
      "inputs": [],
      "name": "STAKING_MIN_NAME",
      "outputs": [
        {
          "internalType": "bytes32",
          "name": "",
          "type": "bytes32"
        }
      ],
      "stateMutability": "view",
      "type": "function"
    },
    {
      "inputs": [],
      "name": "STAKING_NAME",
      "outputs": [
        {
          "internalType": "bytes32",
          "name": "",
          "type": "bytes32"
        }
      ],
      "stateMutability": "view",
      "type": "function"
    },
    {
      "inputs": [],
      "name": "STAKING_REWARD_ADDRESS_NAME",
      "outputs": [
        {
          "internalType": "bytes32",
          "name": "",
          "type": "bytes32"
        }
      ],
      "stateMutability": "view",
      "type": "function"
    },
    {
      "inputs": [
        {
          "internalType": "bytes32",
          "name": "h",
          "type": "bytes32"
        }
      ],
      "name": "getAddress",
      "outputs": [
        {
          "internalType": "address",
          "name": "",
          "type": "address"
        }
      ],
      "stateMutability": "view",
      "type": "function"
    },
    {
      "inputs": [],
      "name": "getBallotDurationMax",
      "outputs": [
        {
          "internalType": "uint256",
          "name": "",
          "type": "uint256"
        }
      ],
      "stateMutability": "view",
      "type": "function"
    },
    {
      "inputs": [],
      "name": "getBallotDurationMin",
      "outputs": [
        {
          "internalType": "uint256",
          "name": "",
          "type": "uint256"
        }
      ],
      "stateMutability": "view",
      "type": "function"
    },
    {
      "inputs": [],
      "name": "getBallotDurationMinMax",
      "outputs": [
        {
          "internalType": "uint256",
          "name": "",
          "type": "uint256"
        },
        {
          "internalType": "uint256",
          "name": "",
          "type": "uint256"
        }
      ],
      "stateMutability": "view",
      "type": "function"
    },
    {
      "inputs": [],
      "name": "getBlockCreationTime",
      "outputs": [
        {
          "internalType": "uint256",
          "name": "",
          "type": "uint256"
        }
      ],
      "stateMutability": "view",
      "type": "function"
    },
    {
      "inputs": [],
      "name": "getBlockRewardAmount",
      "outputs": [
        {
          "internalType": "uint256",
          "name": "",
          "type": "uint256"
        }
      ],
      "stateMutability": "view",
      "type": "function"
    },
    {
      "inputs": [],
      "name": "getBlockRewardDistributionMethod",
      "outputs": [
        {
          "internalType": "uint256",
          "name": "",
          "type": "uint256"
        },
        {
          "internalType": "uint256",
          "name": "",
          "type": "uint256"
        },
        {
          "internalType": "uint256",
          "name": "",
          "type": "uint256"
        },
        {
          "internalType": "uint256",
          "name": "",
          "type": "uint256"
        }
      ],
      "stateMutability": "view",
      "type": "function"
    },
    {
      "inputs": [],
      "name": "getBlocksPer",
      "outputs": [
        {
          "internalType": "uint256",
          "name": "",
          "type": "uint256"
        }
      ],
      "stateMutability": "view",
      "type": "function"
    },
    {
      "inputs": [
        {
          "internalType": "bytes32",
          "name": "h",
          "type": "bytes32"
        }
      ],
      "name": "getBoolean",
      "outputs": [
        {
          "internalType": "bool",
          "name": "",
          "type": "bool"
        }
      ],
      "stateMutability": "view",
      "type": "function"
    },
    {
      "inputs": [
        {
          "internalType": "bytes32",
          "name": "h",
          "type": "bytes32"
        }
      ],
      "name": "getBytes",
      "outputs": [
        {
          "internalType": "bytes",
          "name": "",
          "type": "bytes"
        }
      ],
      "stateMutability": "view",
      "type": "function"
    },
    {
      "inputs": [
        {
          "internalType": "bytes32",
          "name": "h",
          "type": "bytes32"
        }
      ],
      "name": "getBytes32",
      "outputs": [
        {
          "internalType": "bytes32",
          "name": "",
          "type": "bytes32"
        }
      ],
      "stateMutability": "view",
      "type": "function"
    },
    {
      "inputs": [],
      "name": "getEcofundAddress",
      "outputs": [
        {
          "internalType": "address",
          "name": "",
          "type": "address"
        }
      ],
      "stateMutability": "view",
      "type": "function"
    },
    {
      "inputs": [],
      "name": "getGasLimitAndBaseFee",
      "outputs": [
        {
          "internalType": "uint256",
          "name": "",
          "type": "uint256"
        },
        {
          "internalType": "uint256",
          "name": "",
          "type": "uint256"
        },
        {
          "internalType": "uint256",
          "name": "",
          "type": "uint256"
        }
      ],
      "stateMutability": "view",
      "type": "function"
    },
    {
      "inputs": [],
      "name": "getGasPrice",
      "outputs": [
        {
          "internalType": "uint256",
          "name": "",
          "type": "uint256"
        }
      ],
      "stateMutability": "view",
      "type": "function"
    },
    {
      "inputs": [
        {
          "internalType": "bytes32",
          "name": "h",
          "type": "bytes32"
        }
      ],
      "name": "getInt",
      "outputs": [
        {
          "internalType": "int256",
          "name": "",
          "type": "int256"
        }
      ],
      "stateMutability": "view",
      "type": "function"
    },
    {
      "inputs": [],
      "name": "getMaintananceAddress",
      "outputs": [
        {
          "internalType": "address",
          "name": "",
          "type": "address"
        }
      ],
      "stateMutability": "view",
      "type": "function"
    },
    {
      "inputs": [],
      "name": "getMaxIdleBlockInterval",
      "outputs": [
        {
          "internalType": "uint256",
          "name": "",
          "type": "uint256"
        }
      ],
      "stateMutability": "view",
      "type": "function"
    },
    {
      "inputs": [],
      "name": "getMaxPriorityFeePerGas",
      "outputs": [
        {
          "internalType": "uint256",
          "name": "",
          "type": "uint256"
        }
      ],
      "stateMutability": "view",
      "type": "function"
    },
    {
      "inputs": [],
      "name": "getStakingMax",
      "outputs": [
        {
          "internalType": "uint256",
          "name": "",
          "type": "uint256"
        }
      ],
      "stateMutability": "view",
      "type": "function"
    },
    {
      "inputs": [],
      "name": "getStakingMin",
      "outputs": [
        {
          "internalType": "uint256",
          "name": "",
          "type": "uint256"
        }
      ],
      "stateMutability": "view",
      "type": "function"
    },
    {
      "inputs": [],
      "name": "getStakingMinMax",
      "outputs": [
        {
          "internalType": "uint256",
          "name": "",
          "type": "uint256"
        },
        {
          "internalType": "uint256",
          "name": "",
          "type": "uint256"
        }
      ],
      "stateMutability": "view",
      "type": "function"
    },
    {
      "inputs": [],
      "name": "getStakingRewardAddress",
      "outputs": [
        {
          "internalType": "address",
          "name": "",
          "type": "address"
        }
      ],
      "stateMutability": "view",
      "type": "function"
    },
    {
      "inputs": [
        {
          "internalType": "bytes32",
          "name": "h",
          "type": "bytes32"
        }
      ],
      "name": "getString",
      "outputs": [
        {
          "internalType": "string",
          "name": "",
          "type": "string"
        }
      ],
      "stateMutability": "view",
      "type": "function"
    },
    {
      "inputs": [
        {
          "internalType": "bytes32",
          "name": "h",
          "type": "bytes32"
        }
      ],
      "name": "getUint",
      "outputs": [
        {
          "internalType": "uint256",
          "name": "",
          "type": "uint256"
        }
      ],
      "stateMutability": "view",
      "type": "function"
    },
    {
      "inputs": [
        {
          "internalType": "bytes32[]",
          "name": "names",
          "type": "bytes32[]"
        },
        {
          "internalType": "uint256[]",
          "name": "infos",
          "type": "uint256[]"
        }
      ],
      "name": "initialize",
      "outputs": [],
      "stateMutability": "nonpayable",
      "type": "function"
    },
    {
      "inputs": [],
      "name": "owner",
      "outputs": [
        {
          "internalType": "address",
          "name": "",
          "type": "address"
        }
      ],
      "stateMutability": "view",
      "type": "function"
    },
    {
      "inputs": [],
      "name": "proxiableUUID",
      "outputs": [
        {
          "internalType": "bytes32",
          "name": "",
          "type": "bytes32"
        }
      ],
      "stateMutability": "view",
      "type": "function"
    },
    {
      "inputs": [],
      "name": "reg",
      "outputs": [
        {
          "internalType": "contract IRegistry",
          "name": "",
          "type": "address"
        }
      ],
      "stateMutability": "view",
      "type": "function"
    },
    {
      "inputs": [],
      "name": "renounceOwnership",
      "outputs": [],
      "stateMutability": "nonpayable",
      "type": "function"
    },
    {
      "inputs": [
        {
          "internalType": "uint256",
          "name": "_value",
          "type": "uint256"
        }
      ],
      "name": "setBallotDurationMax",
      "outputs": [],
      "stateMutability": "nonpayable",
      "type": "function"
    },
    {
      "inputs": [
        {
          "internalType": "bytes",
          "name": "_value",
          "type": "bytes"
        }
      ],
      "name": "setBallotDurationMaxByBytes",
      "outputs": [],
      "stateMutability": "nonpayable",
      "type": "function"
    },
    {
      "inputs": [
        {
          "internalType": "uint256",
          "name": "_value",
          "type": "uint256"
        }
      ],
      "name": "setBallotDurationMin",
      "outputs": [],
      "stateMutability": "nonpayable",
      "type": "function"
    },
    {
      "inputs": [
        {
          "internalType": "bytes",
          "name": "_value",
          "type": "bytes"
        }
      ],
      "name": "setBallotDurationMinByBytes",
      "outputs": [],
      "stateMutability": "nonpayable",
      "type": "function"
    },
    {
      "inputs": [
        {
          "internalType": "uint256",
          "name": "_min",
          "type": "uint256"
        },
        {
          "internalType": "uint256",
          "name": "_max",
          "type": "uint256"
        }
      ],
      "name": "setBallotDurationMinMax",
      "outputs": [],
      "stateMutability": "nonpayable",
      "type": "function"
    },
    {
      "inputs": [
        {
          "internalType": "bytes",
          "name": "_value",
          "type": "bytes"
        }
      ],
      "name": "setBallotDurationMinMaxByBytes",
      "outputs": [],
      "stateMutability": "nonpayable",
      "type": "function"
    },
    {
      "inputs": [
        {
          "internalType": "uint256",
          "name": "_value",
          "type": "uint256"
        }
      ],
      "name": "setBlockCreationTime",
      "outputs": [],
      "stateMutability": "nonpayable",
      "type": "function"
    },
    {
      "inputs": [
        {
          "internalType": "bytes",
          "name": "_value",
          "type": "bytes"
        }
      ],
      "name": "setBlockCreationTimeByBytes",
      "outputs": [],
      "stateMutability": "nonpayable",
      "type": "function"
    },
    {
      "inputs": [
        {
          "internalType": "uint256",
          "name": "_value",
          "type": "uint256"
        }
      ],
      "name": "setBlockRewardAmount",
      "outputs": [],
      "stateMutability": "nonpayable",
      "type": "function"
    },
    {
      "inputs": [
        {
          "internalType": "bytes",
          "name": "_value",
          "type": "bytes"
        }
      ],
      "name": "setBlockRewardAmountByBytes",
      "outputs": [],
      "stateMutability": "nonpayable",
      "type": "function"
    },
    {
      "inputs": [
        {
          "internalType": "uint256",
          "name": "_block_producer",
          "type": "uint256"
        },
        {
          "internalType": "uint256",
          "name": "_staking_reward",
          "type": "uint256"
        },
        {
          "internalType": "uint256",
          "name": "_ecofund",
          "type": "uint256"
        },
        {
          "internalType": "uint256",
          "name": "_maintanance",
          "type": "uint256"
        }
      ],
      "name": "setBlockRewardDistributionMethod",
      "outputs": [],
      "stateMutability": "nonpayable",
      "type": "function"
    },
    {
      "inputs": [
        {
          "internalType": "bytes",
          "name": "_value",
          "type": "bytes"
        }
      ],
      "name": "setBlockRewardDistributionMethodByBytes",
      "outputs": [],
      "stateMutability": "nonpayable",
      "type": "function"
    },
    {
      "inputs": [
        {
          "internalType": "uint256",
          "name": "_value",
          "type": "uint256"
        }
      ],
      "name": "setBlocksPer",
      "outputs": [],
      "stateMutability": "nonpayable",
      "type": "function"
    },
    {
      "inputs": [
        {
          "internalType": "bytes",
          "name": "_value",
          "type": "bytes"
        }
      ],
      "name": "setBlocksPerByBytes",
      "outputs": [],
      "stateMutability": "nonpayable",
      "type": "function"
    },
    {
      "inputs": [
        {
          "internalType": "address",
          "name": "_value",
          "type": "address"
        }
      ],
      "name": "setEcofundAddress",
      "outputs": [],
      "stateMutability": "nonpayable",
      "type": "function"
    },
    {
      "inputs": [
        {
          "internalType": "bytes",
          "name": "_value",
          "type": "bytes"
        }
      ],
      "name": "setEcofundAddressByBytes",
      "outputs": [],
      "stateMutability": "nonpayable",
      "type": "function"
    },
    {
      "inputs": [
        {
          "internalType": "uint256",
          "name": "_block_GasLimit",
          "type": "uint256"
        },
        {
          "internalType": "uint256",
          "name": "_baseFeeMaxChangeDenominator",
          "type": "uint256"
        },
        {
          "internalType": "uint256",
          "name": "_elasticityMultiplier",
          "type": "uint256"
        }
      ],
      "name": "setGasLimitAndBaseFee",
      "outputs": [],
      "stateMutability": "nonpayable",
      "type": "function"
    },
    {
      "inputs": [
        {
          "internalType": "bytes",
          "name": "_value",
          "type": "bytes"
        }
      ],
      "name": "setGasLimitAndBaseFeeByBytes",
      "outputs": [],
      "stateMutability": "nonpayable",
      "type": "function"
    },
    {
      "inputs": [
        {
          "internalType": "uint256",
          "name": "_value",
          "type": "uint256"
        }
      ],
      "name": "setGasPrice",
      "outputs": [],
      "stateMutability": "nonpayable",
      "type": "function"
    },
    {
      "inputs": [
        {
          "internalType": "bytes",
          "name": "_value",
          "type": "bytes"
        }
      ],
      "name": "setGasPriceByBytes",
      "outputs": [],
      "stateMutability": "nonpayable",
      "type": "function"
    },
    {
      "inputs": [
        {
          "internalType": "address",
          "name": "_value",
          "type": "address"
        }
      ],
      "name": "setMaintananceAddress",
      "outputs": [],
      "stateMutability": "nonpayable",
      "type": "function"
    },
    {
      "inputs": [
        {
          "internalType": "bytes",
          "name": "_value",
          "type": "bytes"
        }
      ],
      "name": "setMaintananceAddressByBytes",
      "outputs": [],
      "stateMutability": "nonpayable",
      "type": "function"
    },
    {
      "inputs": [
        {
          "internalType": "uint256",
          "name": "_value",
          "type": "uint256"
        }
      ],
      "name": "setMaxIdleBlockInterval",
      "outputs": [],
      "stateMutability": "nonpayable",
      "type": "function"
    },
    {
      "inputs": [
        {
          "internalType": "bytes",
          "name": "_value",
          "type": "bytes"
        }
      ],
      "name": "setMaxIdleBlockIntervalByBytes",
      "outputs": [],
      "stateMutability": "nonpayable",
      "type": "function"
    },
    {
      "inputs": [
        {
          "internalType": "uint256",
          "name": "_value",
          "type": "uint256"
        }
      ],
      "name": "setMaxPriorityFeePerGas",
      "outputs": [],
      "stateMutability": "nonpayable",
      "type": "function"
    },
    {
      "inputs": [
        {
          "internalType": "bytes",
          "name": "_value",
          "type": "bytes"
        }
      ],
      "name": "setMaxPriorityFeePerGasByBytes",
      "outputs": [],
      "stateMutability": "nonpayable",
      "type": "function"
    },
    {
      "inputs": [
        {
          "internalType": "address",
          "name": "_addr",
          "type": "address"
        }
      ],
      "name": "setRegistry",
      "outputs": [],
      "stateMutability": "nonpayable",
      "type": "function"
    },
    {
      "inputs": [
        {
          "internalType": "address",
          "name": "_value",
          "type": "address"
        }
      ],
      "name": "setStakingAddress",
      "outputs": [],
      "stateMutability": "nonpayable",
      "type": "function"
    },
    {
      "inputs": [
        {
          "internalType": "bytes",
          "name": "_value",
          "type": "bytes"
        }
      ],
      "name": "setStakingAddressByBytes",
      "outputs": [],
      "stateMutability": "nonpayable",
      "type": "function"
    },
    {
      "inputs": [
        {
          "internalType": "uint256",
          "name": "_value",
          "type": "uint256"
        }
      ],
      "name": "setStakingMax",
      "outputs": [],
      "stateMutability": "nonpayable",
      "type": "function"
    },
    {
      "inputs": [
        {
          "internalType": "bytes",
          "name": "_value",
          "type": "bytes"
        }
      ],
      "name": "setStakingMaxByBytes",
      "outputs": [],
      "stateMutability": "nonpayable",
      "type": "function"
    },
    {
      "inputs": [
        {
          "internalType": "uint256",
          "name": "_value",
          "type": "uint256"
        }
      ],
      "name": "setStakingMin",
      "outputs": [],
      "stateMutability": "nonpayable",
      "type": "function"
    },
    {
      "inputs": [
        {
          "internalType": "bytes",
          "name": "_value",
          "type": "bytes"
        }
      ],
      "name": "setStakingMinByBytes",
      "outputs": [],
      "stateMutability": "nonpayable",
      "type": "function"
    },
    {
      "inputs": [
        {
          "internalType": "uint256",
          "name": "_min",
          "type": "uint256"
        },
        {
          "internalType": "uint256",
          "name": "_max",
          "type": "uint256"
        }
      ],
      "name": "setStakingMinMax",
      "outputs": [],
      "stateMutability": "nonpayable",
      "type": "function"
    },
    {
      "inputs": [
        {
          "internalType": "bytes",
          "name": "_value",
          "type": "bytes"
        }
      ],
      "name": "setStakingMinMaxByBytes",
      "outputs": [],
      "stateMutability": "nonpayable",
      "type": "function"
    },
    {
      "inputs": [
        {
          "internalType": "address",
          "name": "newOwner",
          "type": "address"
        }
      ],
      "name": "transferOwnership",
      "outputs": [],
      "stateMutability": "nonpayable",
      "type": "function"
    },
    {
      "inputs": [
        {
          "internalType": "address",
          "name": "newImplementation",
          "type": "address"
        }
      ],
      "name": "upgradeTo",
      "outputs": [],
      "stateMutability": "nonpayable",
      "type": "function"
    },
    {
      "inputs": [
        {
          "internalType": "address",
          "name": "newImplementation",
          "type": "address"
        },
        {
          "internalType": "bytes",
          "name": "data",
          "type": "bytes"
        }
      ],
      "name": "upgradeToAndCall",
      "outputs": [],
      "stateMutability": "payable",
      "type": "function"
    }
  ],
  "bytecode": "0x60a06040523060601b6080523480156200001857600080fd5b5062000024336200002a565b6200007c565b600780546001600160a01b038381166001600160a01b0319831681179093556040519116919082907f8be0079c531659141344cd1fd0a4f28419497f9722a3daafe3b4186f6b6457e090600090a35050565b60805160601c6136eb620000b760003960008181611bf301528181611c3301528181611e2301528181611e630152611ef601526136eb6000f3fe6080604052600436106105585760003560e01c806371c6960d116102bd578063a9b629b211610180578063c6713baf116100e7578063e078869f116100a0578063f2fde38b1161007a578063f2fde38b1461176b578063f4e0d9ac1461178b578063f6fd7129146117ab578063f8214591146117cb57600080fd5b8063e078869f146116f7578063e80c4eaf14611717578063ec3df8791461174b57600080fd5b8063c6713baf146115e5578063c7d3da3414611619578063cdb9f6431461164d578063d95deb0914611662578063dc97d96214611696578063dd65d3f9146116c357600080fd5b8063bd02d0f511610139578063bd02d0f514611502578063be33732a1461152f578063bf1fe4201461154f578063c00ace6c1461156f578063c031a18014611591578063c0b4fe15146115b157600080fd5b8063a9b629b2146113ca578063aba01fee146113fe578063b128f88014611428578063b4d6bd3b1461145c578063b9b2e9361461147c578063bb0b05c3146114e257600080fd5b80638da5cb5b116102245780639986e4b9116101dd5780639986e4b9146112e5578063a36f259b14611309578063a5d6a58114611329578063a6868b7d14611349578063a6ed563e1461137d578063a91ee0dc146113aa57600080fd5b80638da5cb5b146111215780638f6fe7251461113f57806390c166b21461121c578063918f86741461123c57806393e9793114611252578063986e791a146112b857600080fd5b80637bf46530116102765780637bf465301461101a5780637dfe8f621461103b57806384483672146110a1578063852cf38f146110c15780638c8b887e146110e15780638d5cdd7e1461110157600080fd5b806371c6960d14610f1b578063737c59b814610f3b578063738fdd1a14610f8657806375b21abe14610fa657806379e8585914610fc65780637b2bfb0114610fe657600080fd5b806333e31184116104205780634bd1ed7611610387578063656e3052116103405780636d583ca71161031a5780636d583ca714610ea25780636e80187814610ec45780636fde207a14610ee4578063715018a614610f0657600080fd5b8063656e305214610d8e57806367d1a2e014610dc25780636c78d2cf14610e7957600080fd5b80634bd1ed7614610c935780634f1ef28614610cb557806352d1902d14610cc85780635dba8c4a14610cdd578063603b838914610d3a5780636167eb4514610d5a57600080fd5b80633e8daafe116103d95780633e8daafe14610b825780633f35c8fe14610ba25780634496a74814610bd657806344b8991414610bf6578063455259cb14610c1657806345b5ec2914610c7357600080fd5b806333e3118414610a145780633659cfe614610a715780633690057a14610a915780633829441914610aee5780633848207a14610b225780633d4c65f314610b6257600080fd5b806321f8a721116104c45780632eccd8321161047d5780632eccd832146109145780632ed19cd5146109345780632f40992e14610954578063320f2bed146109755780633305508e146109a957806333be496e146109c957600080fd5b806321f8a721146107c1578063238737b61461080f578063278bb12a14610843578063287a446e146108775780632b2eaa92146108975780632eb57c65146108f457600080fd5b80630fc238bf116105165780630fc238bf14610687578063124cea37146106a7578063185582f1146106c75780631b27e01b146107245780631daad67b1461076f5780631e0cba0d146107a357600080fd5b806215a73b1461055d578063076cd77f146105925780630add66dd146105dd5780630b1d39b8146105ff5780630b90a39a146106335780630f36c0a814610653575b600080fd5b34801561056957600080fd5b5061057f60008051602061360f83398151915281565b6040519081526020015b60405180910390f35b34801561059e57600080fd5b5060008051602061362f83398151915260005260026020527fd7a437163435b79030132855d9146a10e26570f1767311219983e0c430cfa6905461057f565b3480156105e957600080fd5b506105fd6105f8366004613327565b6117f0565b005b34801561060b57600080fd5b5061057f7f9251c159f02011bbf45dee7be257fcbb2aecba050ea7ce7c9f8561b82858d6e081565b34801561063f57600080fd5b506105fd61064e36600461329c565b611946565b34801561065f57600080fd5b5061057f7f55b3774520b5993024893d303890baa4e84b1244a43c60034d1ced2d3cf2b04b81565b34801561069357600080fd5b506105fd6106a236600461329c565b611986565b3480156106b357600080fd5b506105fd6106c236600461329c565b6119c3565b3480156106d357600080fd5b507f829561ab7af084b7efc6600518d2df79b8d95f3f4c3a550f54f8f7ec7d2b805760005260026020527fbc779bbce8d4fef90926dc39b56d9135e8e3795964b3adae769767961d4a94d85461057f565b34801561073057600080fd5b5060008051602061360f83398151915260005260026020527f5a1993193b8890c75d83157b2c2c12b144545357ab60021d7429856434de051b5461057f565b34801561077b57600080fd5b5061057f7f6d0d53fb98dc9bce1459687cbe14a4d9d9314793382025604e41d0832dabfab281565b3480156107af57600080fd5b5061057f665374616b696e6760c81b81565b3480156107cd57600080fd5b506107f76107dc36600461326a565b6000908152600460205260409020546001600160a01b031690565b6040516001600160a01b039091168152602001610589565b34801561081b57600080fd5b5061057f7f1d36f8ce53f59e624857e1d8dc7932d19981a2ea1b8faa4eb8ff843fc3e5a27881565b34801561084f57600080fd5b5061057f7f3a9129cf69b4fa0fbe5d48e0d50863014e21ae09ffabcd72cebe10b1835251b981565b34801561088357600080fd5b506105fd6108923660046132fb565b611a00565b3480156108a357600080fd5b507fbe90e461bbdb9a95a694f7796912ea04244caf7f5b60ad7ded17e16821d3e44c60005260026020527f270fb31b28afd06ad35288bc3cb901686a4c5a15239e966fd9b64269abd226c35461057f565b34801561090057600080fd5b506105fd61090f36600461326a565b611ab2565b34801561092057600080fd5b506105fd61092f36600461329c565b611af9565b34801561094057600080fd5b506105fd61094f36600461326a565b611b36565b34801561096057600080fd5b5061057f6914995dd85c99141bdbdb60b21b81565b34801561098157600080fd5b5061057f7f22977776155fc4e820722e2555cf883ac48d3db58e8302ad8a8304789cce21e681565b3480156109b557600080fd5b506105fd6109c436600461326a565b611b8f565b3480156109d557600080fd5b5060008051602061369683398151915260005260026020527f8e8c0bef3b4557d74ba01e0433728c574990153e35cacae69cb26f23a8a401755461057f565b348015610a2057600080fd5b507f8086da5becff4dfac91a3105821b361078d2d4abba0ccc2401b974cf0dcf05c160005260026020527ff3497fe1496bfc19eaef6d253f75ec2e9cfe1b4f6080c29192641567c6fc5d875461057f565b348015610a7d57600080fd5b506105fd610a8c36600461312a565b611be8565b348015610a9d57600080fd5b507f2a268972a70c8c688b62366bdfdd9bb09cf19d3e5b6e7e7bb158e671ffdcedd260005260026020527f14e650c949c7cc3fca2efe79b3711fc734b4df488cc27c4137f35bd0adaae7fa5461057f565b348015610afa57600080fd5b5061057f7fbe90e461bbdb9a95a694f7796912ea04244caf7f5b60ad7ded17e16821d3e44c81565b348015610b2e57600080fd5b50610b52610b3d36600461326a565b60009081526020819052604090205460ff1690565b6040519015158152602001610589565b348015610b6e57600080fd5b506105fd610b7d36600461329c565b611cc5565b348015610b8e57600080fd5b506105fd610b9d36600461329c565b611d02565b348015610bae57600080fd5b5061057f7f2a268972a70c8c688b62366bdfdd9bb09cf19d3e5b6e7e7bb158e671ffdcedd281565b348015610be257600080fd5b506105fd610bf136600461312a565b611d3f565b348015610c0257600080fd5b506105fd610c1136600461329c565b611d98565b348015610c2257600080fd5b507f55b3774520b5993024893d303890baa4e84b1244a43c60034d1ced2d3cf2b04b60005260026020527f89e14017ff711cc1abe711ea1baa079a2a616108905812ce6305c232ba75534e5461057f565b348015610c7f57600080fd5b506105fd610c8e36600461329c565b611dd5565b348015610c9f57600080fd5b5061057f6a4d61696e74656e616e636560a81b81565b6105fd610cc3366004613164565b611e18565b348015610cd457600080fd5b5061057f611ee9565b348015610ce957600080fd5b507f89dd490ecaf395283ed4ff2fd9557ca767fc425dce063451a9b0da6d72f600c360005260026020527f38eb620cc1355554391bc9d0c224a726d66edf7c3eb2d67af166d6e81fe445625461057f565b348015610d4657600080fd5b506105fd610d553660046131b4565b611f9c565b348015610d6657600080fd5b5061057f7f8e6c2112cf42a3c3439bb3778561081e8f613478ae194d83342262c47476aa6381565b348015610d9a57600080fd5b5061057f7fe10074dceffb75f13bf0ce50145afd35182d63796823f1280ce40e01c19109e781565b348015610dce57600080fd5b5060026020527fc77500645c8acbf6137a0e04460f85359483e3b08db30285cca2957db0c90904547f6acf411a7f4237d6bcde4357a60af5e72836631a8bcb2f865e40384bbb535892547f6d0d53fb98dc9bce1459687cbe14a4d9d9314793382025604e41d0832dabfab26000527f441cd166c87446442286c88af0bf935c88840dd738a02519c393d2b36eb3d5655460408051938452602084019290925290820152606001610589565b348015610e8557600080fd5b5061057f7111dbdd995c9b985b98d950dbdb9d1c9858dd60721b81565b348015610eae57600080fd5b5061057f60008051602061369683398151915281565b348015610ed057600080fd5b506105fd610edf36600461329c565b6120c0565b348015610ef057600080fd5b5061057f60008051602061362f83398151915281565b348015610f1257600080fd5b506105fd6120fd565b348015610f2757600080fd5b506105fd610f3636600461329c565b612133565b348015610f4757600080fd5b506000805160206135ef83398151915260005260026020527f673c817b54d53459fa437d6b11ba6445e517d8dc789e6b815675ff10e6aeeb5d5461057f565b348015610f9257600080fd5b506008546107f7906001600160a01b031681565b348015610fb257600080fd5b506105fd610fc136600461329c565b612170565b348015610fd257600080fd5b506105fd610fe136600461326a565b6121ab565b348015610ff257600080fd5b5061057f7f9c50bf546a3eb3ddc62018a4800f49d81aad4ea32c0be59072d1ad5ca5cacaad81565b34801561102657600080fd5b5061057f69456e7653746f7261676560b01b81565b34801561104757600080fd5b507f22977776155fc4e820722e2555cf883ac48d3db58e8302ad8a8304789cce21e660005260046020527fa8c63eb6f79872bb83aff6e55a78d69e252b8ab0d34606675cd4258186c97692546001600160a01b03166107f7565b3480156110ad57600080fd5b506105fd6110bc36600461329c565b612204565b3480156110cd57600080fd5b506105fd6110dc36600461326a565b61223f565b3480156110ed57600080fd5b506105fd6110fc36600461329c565b612286565b34801561110d57600080fd5b506105fd61111c3660046132d9565b6122dc565b34801561112d57600080fd5b506007546001600160a01b03166107f7565b34801561114b57600080fd5b5060026020527f7678889376fc8a6ed2710c36b13228581d36f8ebb83e2350dfd5caa6609b1647547e47f9cf5587be7d6fd9d536f94df39052d00daf2fc0dc7758fa4c0c0cef4b32547fbe0178db604d4e5492ee1865a6b4c90b1bfd4b01d44feb834173020cfb3154c7547f9251c159f02011bbf45dee7be257fcbb2aecba050ea7ce7c9f8561b82858d6e06000527fb144616b08bb56180ed010d2f0ad4592187ff288a5fa5f095eb57f8c3089c5ce54604080519485526020850193909352918301526060820152608001610589565b34801561122857600080fd5b506105fd61123736600461329c565b6123b1565b34801561124857600080fd5b5061057f61271081565b34801561125e57600080fd5b507f343c5ed9508182ab8261b3c26ad6005b023d08d7ebda78905998bf972da5a5ef60005260046020527f822020c801afb9810379d8550ca8f4b2be48f1e474fa9bbd2a4121d1381cd6f9546001600160a01b03166107f7565b3480156112c457600080fd5b506112d86112d336600461326a565b6123ec565b60405161058991906133a1565b3480156112f157600080fd5b5061057f6c42616c6c6f7453746f7261676560981b81565b34801561131557600080fd5b506105fd61132436600461326a565b61248e565b34801561133557600080fd5b506105fd61134436600461329c565b6124d5565b34801561135557600080fd5b5061057f7f6c6f69f426081752a5d3e73746599acd2a4cb145d5de4203ca1e3473b281680b81565b34801561138957600080fd5b5061057f61139836600461326a565b60009081526006602052604090205490565b3480156113b657600080fd5b506105fd6113c536600461312a565b612512565b3480156113d657600080fd5b5061057f7f89dd490ecaf395283ed4ff2fd9557ca767fc425dce063451a9b0da6d72f600c381565b34801561140a57600080fd5b506114136125b4565b60408051928352602083019190915201610589565b34801561143457600080fd5b5061057f7f829561ab7af084b7efc6600518d2df79b8d95f3f4c3a550f54f8f7ec7d2b805781565b34801561146857600080fd5b506105fd6114773660046132d9565b61261e565b34801561148857600080fd5b507fc1fef5416a26208ec09d5877fd503bcf881c208c4b0f620ea0f63841134b6bf060005260046020527fdbdaf4026508fb6675aceef3005a61da44fd3603b10755ab7c47276311a5f2b0546001600160a01b03166107f7565b3480156114ee57600080fd5b506105fd6114fd36600461312a565b6126f5565b34801561150e57600080fd5b5061057f61151d36600461326a565b60009081526002602052604090205490565b34801561153b57600080fd5b506105fd61154a36600461329c565b61274e565b34801561155b57600080fd5b506105fd61156a36600461326a565b612797565b34801561157b57600080fd5b5061057f6000805160206135ef83398151915281565b34801561159d57600080fd5b506112d86115ac36600461326a565b6127f0565b3480156115bd57600080fd5b5061057f7f8086da5becff4dfac91a3105821b361078d2d4abba0ccc2401b974cf0dcf05c181565b3480156115f157600080fd5b5061057f7fa5495b55db4a16d67920c831291cb521e7d2e42866df23674e9d512cbe24d91581565b34801561162557600080fd5b5061057f7f04f7b94450bbcad85f37ea47cd1062728f884bb2040e357738f8fd53056134bc81565b34801561165957600080fd5b5061141361280d565b34801561166e57600080fd5b5061057f7f343c5ed9508182ab8261b3c26ad6005b023d08d7ebda78905998bf972da5a5ef81565b3480156116a257600080fd5b5061057f6116b136600461326a565b60009081526001602052604090205490565b3480156116cf57600080fd5b5061057f7fdefa546c11b044f1166f68848d05922f56215584ecaaf1f134abd7253991e49c81565b34801561170357600080fd5b506105fd61171236600461329c565b612873565b34801561172357600080fd5b5061057f7fc1fef5416a26208ec09d5877fd503bcf881c208c4b0f620ea0f63841134b6bf081565b34801561175757600080fd5b506105fd61176636600461326a565b6128b6565b34801561177757600080fd5b506105fd61178636600461312a565b61290f565b34801561179757600080fd5b506105fd6117a636600461312a565b6129a7565b3480156117b757600080fd5b506105fd6117c636600461326a565b612a00565b3480156117d757600080fd5b506105fd6117e636600461326a565b612a59565b905090565b336117f9612aa0565b6001600160a01b0316146118285760405162461bcd60e51b815260040161181f9061344c565b60405180910390fd5b612710818361183786886134fd565b61184191906134fd565b61184b91906134fd565b146118985760405162461bcd60e51b815260206004820152601e60248201527f57726f6e6720726577617264206469737472756274696f6e20726174696f0000604482015260640161181f565b6118c27fa5495b55db4a16d67920c831291cb521e7d2e42866df23674e9d512cbe24d91585612ac0565b6118ec7f8e6c2112cf42a3c3439bb3778561081e8f613478ae194d83342262c47476aa6384612ac0565b6119167f9c50bf546a3eb3ddc62018a4800f49d81aad4ea32c0be59072d1ad5ca5cacaad83612ac0565b6119407f9251c159f02011bbf45dee7be257fcbb2aecba050ea7ce7c9f8561b82858d6e082612ac0565b50505050565b3361194f612aa0565b6001600160a01b0316146119755760405162461bcd60e51b815260040161181f9061344c565b6119836117c6826020015190565b50565b3361198f612aa0565b6001600160a01b0316146119b55760405162461bcd60e51b815260040161181f9061344c565b611983611766826020015190565b336119cc612aa0565b6001600160a01b0316146119f25760405162461bcd60e51b815260040161181f9061344c565b611983611324826020015190565b33611a09612aa0565b6001600160a01b031614611a2f5760405162461bcd60e51b815260040161181f9061344c565b611a597f1d36f8ce53f59e624857e1d8dc7932d19981a2ea1b8faa4eb8ff843fc3e5a27884612ac0565b611a837fdefa546c11b044f1166f68848d05922f56215584ecaaf1f134abd7253991e49c83612ac0565b611aad7f6d0d53fb98dc9bce1459687cbe14a4d9d9314793382025604e41d0832dabfab282612ac0565b505050565b33611abb612aa0565b6001600160a01b031614611ae15760405162461bcd60e51b815260040161181f9061344c565b61198360008051602061362f83398151915282612ac0565b33611b02612aa0565b6001600160a01b031614611b285760405162461bcd60e51b815260040161181f9061344c565b6119836117e6826020015190565b33611b3f612aa0565b6001600160a01b031614611b655760405162461bcd60e51b815260040161181f9061344c565b6119837f89dd490ecaf395283ed4ff2fd9557ca767fc425dce063451a9b0da6d72f600c382612ac0565b33611b98612aa0565b6001600160a01b031614611bbe5760405162461bcd60e51b815260040161181f9061344c565b6119837f8086da5becff4dfac91a3105821b361078d2d4abba0ccc2401b974cf0dcf05c182612ac0565b306001600160a01b037f0000000000000000000000000000000000000000000000000000000000000000161415611c315760405162461bcd60e51b815260040161181f906133b4565b7f00000000000000000000000000000000000000000000000000000000000000006001600160a01b0316611c7a60008051602061364f833981519152546001600160a01b031690565b6001600160a01b031614611ca05760405162461bcd60e51b815260040161181f90613400565b611ca981612b0f565b6040805160008082526020820190925261198391839190612b3e565b33611cce612aa0565b6001600160a01b031614611cf45760405162461bcd60e51b815260040161181f9061344c565b61198361094f826020015190565b33611d0b612aa0565b6001600160a01b031614611d315760405162461bcd60e51b815260040161181f9061344c565b611983610fe1826020015190565b33611d48612aa0565b6001600160a01b031614611d6e5760405162461bcd60e51b815260040161181f9061344c565b6119837fc1fef5416a26208ec09d5877fd503bcf881c208c4b0f620ea0f63841134b6bf082612cb8565b33611da1612aa0565b6001600160a01b031614611dc75760405162461bcd60e51b815260040161181f9061344c565b6119836109c4826020015190565b33611dde612aa0565b6001600160a01b031614611e045760405162461bcd60e51b815260040161181f9061344c565b60208101516040820151611aad828261261e565b306001600160a01b037f0000000000000000000000000000000000000000000000000000000000000000161415611e615760405162461bcd60e51b815260040161181f906133b4565b7f00000000000000000000000000000000000000000000000000000000000000006001600160a01b0316611eaa60008051602061364f833981519152546001600160a01b031690565b6001600160a01b031614611ed05760405162461bcd60e51b815260040161181f90613400565b611ed982612b0f565b611ee582826001612b3e565b5050565b6000306001600160a01b037f00000000000000000000000000000000000000000000000000000000000000001614611f895760405162461bcd60e51b815260206004820152603860248201527f555550535570677261646561626c653a206d757374206e6f742062652063616c60448201527f6c6564207468726f7567682064656c656761746563616c6c0000000000000000606482015260840161181f565b5060008051602061364f83398151915290565b6007546001600160a01b03163314611fc65760405162461bcd60e51b815260040161181f90613473565b60005b8151811015611aad576000612003848381518110611fe957611fe96135ad565b602002602001015160009081526002602052604090205490565b9050828281518110612017576120176135ad565b6020026020010151600014158061202d57508015155b61206c5760405162461bcd60e51b815260206004820152601060248201526f696e76616c6964207661726961626c6560801b604482015260640161181f565b806120ad576120ad848381518110612086576120866135ad565b60200260200101518484815181106120a0576120a06135ad565b6020026020010151612ac0565b50806120b88161357c565b915050611fc9565b336120c9612aa0565b6001600160a01b0316146120ef5760405162461bcd60e51b815260040161181f9061344c565b61198361156a826020015190565b6007546001600160a01b031633146121275760405162461bcd60e51b815260040161181f90613473565b6121316000612d1a565b565b3361213c612aa0565b6001600160a01b0316146121625760405162461bcd60e51b815260040161181f9061344c565b61198361090f826020015190565b33612179612aa0565b6001600160a01b03161461219f5760405162461bcd60e51b815260040161181f9061344c565b6119836117a682612d6c565b336121b4612aa0565b6001600160a01b0316146121da5760405162461bcd60e51b815260040161181f9061344c565b6119837f2a268972a70c8c688b62366bdfdd9bb09cf19d3e5b6e7e7bb158e671ffdcedd282612ac0565b3361220d612aa0565b6001600160a01b0316146122335760405162461bcd60e51b815260040161181f9061344c565b6119836114fd82612d6c565b33612248612aa0565b6001600160a01b03161461226e5760405162461bcd60e51b815260040161181f9061344c565b61198360008051602061360f83398151915282612ac0565b3361228f612aa0565b6001600160a01b0316146122b55760405162461bcd60e51b815260040161181f9061344c565b60208101516040820151606083015160808401516122d5848484846117f0565b5050505050565b336122e5612aa0565b6001600160a01b03161461230b5760405162461bcd60e51b815260040161181f9061344c565b808211156123815760405162461bcd60e51b815260206004820152603e60248201527f4d696e696d756d207374616b696e67206d75737420626520736d616c6c65722060448201527f616e6420657175616c207468616e206d6178696d756d207374616b696e670000606482015260840161181f565b61239960008051602061362f83398151915283612ac0565b611ee56000805160206135ef83398151915282612ac0565b336123ba612aa0565b6001600160a01b0316146123e05760405162461bcd60e51b815260040161181f9061344c565b611983610bf182612d6c565b600081815260036020526040902080546060919061240990613541565b80601f016020809104026020016040519081016040528092919081815260200182805461243590613541565b80156124825780601f1061245757610100808354040283529160200191612482565b820191906000526020600020905b81548152906001019060200180831161246557829003601f168201915b50505050509050919050565b33612497612aa0565b6001600160a01b0316146124bd5760405162461bcd60e51b815260040161181f9061344c565b61198360008051602061369683398151915282612ac0565b336124de612aa0565b6001600160a01b0316146125045760405162461bcd60e51b815260040161181f9061344c565b6119836110dc826020015190565b6007546001600160a01b0316331461253c5760405162461bcd60e51b815260040161181f90613473565b6001600160a01b0381166125925760405162461bcd60e51b815260206004820152601a60248201527f416464726573732073686f756c64206265206e6f6e2d7a65726f000000000000604482015260640161181f565b600880546001600160a01b0319166001600160a01b0392909216919091179055565b60026020527fd7a437163435b79030132855d9146a10e26570f1767311219983e0c430cfa690546000805160206135ef83398151915260009081527f673c817b54d53459fa437d6b11ba6445e517d8dc789e6b815675ff10e6aeeb5d54909182915b915091509091565b33612627612aa0565b6001600160a01b03161461264d5760405162461bcd60e51b815260040161181f9061344c565b808211156126c5576040805162461bcd60e51b81526020600482015260248101919091527f4d696e696d756d206475726174696f6e206d75737420626520736d616c6c657260448201527f20616e6420657175616c207468616e206d6178696d756d206475726174696f6e606482015260840161181f565b6126dd60008051602061369683398151915283612ac0565b611ee560008051602061360f83398151915282612ac0565b336126fe612aa0565b6001600160a01b0316146127245760405162461bcd60e51b815260040161181f9061344c565b6119837f343c5ed9508182ab8261b3c26ad6005b023d08d7ebda78905998bf972da5a5ef82612cb8565b33612757612aa0565b6001600160a01b03161461277d5760405162461bcd60e51b815260040161181f9061344c565b602081015160408201516060830151611940838383611a00565b336127a0612aa0565b6001600160a01b0316146127c65760405162461bcd60e51b815260040161181f9061344c565b6119837f55b3774520b5993024893d303890baa4e84b1244a43c60034d1ced2d3cf2b04b82612ac0565b600081815260056020526040902080546060919061240990613541565b60026020527f8e8c0bef3b4557d74ba01e0433728c574990153e35cacae69cb26f23a8a401755460008051602061360f83398151915260009081527f5a1993193b8890c75d83157b2c2c12b144545357ab60021d7429856434de051b5490918291612616565b3361287c612aa0565b6001600160a01b0316146128a25760405162461bcd60e51b815260040161181f9061344c565b60208101516040820151611aad82826122dc565b336128bf612aa0565b6001600160a01b0316146128e55760405162461bcd60e51b815260040161181f9061344c565b6119837fbe90e461bbdb9a95a694f7796912ea04244caf7f5b60ad7ded17e16821d3e44c82612ac0565b6007546001600160a01b031633146129395760405162461bcd60e51b815260040161181f90613473565b6001600160a01b03811661299e5760405162461bcd60e51b815260206004820152602660248201527f4f776e61626c653a206e6577206f776e657220697320746865207a65726f206160448201526564647265737360d01b606482015260840161181f565b61198381612d1a565b336129b0612aa0565b6001600160a01b0316146129d65760405162461bcd60e51b815260040161181f9061344c565b6119837f22977776155fc4e820722e2555cf883ac48d3db58e8302ad8a8304789cce21e682612cb8565b33612a09612aa0565b6001600160a01b031614612a2f5760405162461bcd60e51b815260040161181f9061344c565b6119837f829561ab7af084b7efc6600518d2df79b8d95f3f4c3a550f54f8f7ec7d2b805782612ac0565b33612a62612aa0565b6001600160a01b031614612a885760405162461bcd60e51b815260040161181f9061344c565b6119836000805160206135ef83398151915282612ac0565b60006117eb7111dbdd995c9b985b98d950dbdb9d1c9858dd60721b612d88565b6000828152600260205260409020819055817f58d7c10adfd5778016889c15d422d57f2975b9292415b54fe5d8cd424120061282604051612b0391815260200190565b60405180910390a25050565b33612b18612aa0565b6001600160a01b0316146119835760405162461bcd60e51b815260040161181f9061344c565b7f4910fdfa16fed3260ed0e7147f7cc6da11a60208b5b9406d12a635614ffd91435460ff1615612b7157611aad83612e05565b826001600160a01b03166352d1902d6040518163ffffffff1660e01b815260040160206040518083038186803b158015612baa57600080fd5b505afa925050508015612bda575060408051601f3d908101601f19168201909252612bd791810190613283565b60015b612c3d5760405162461bcd60e51b815260206004820152602e60248201527f45524331393637557067726164653a206e657720696d706c656d656e7461746960448201526d6f6e206973206e6f74205555505360901b606482015260840161181f565b60008051602061364f8339815191528114612cac5760405162461bcd60e51b815260206004820152602960248201527f45524331393637557067726164653a20756e737570706f727465642070726f786044820152681a58589b195555525160ba1b606482015260840161181f565b50611aad838383612ea1565b600082815260046020526040902080546001600160a01b0319166001600160a01b0383161790556040516001600160a01b038216815282907f5ba696c1849fe23c6b280f9f6057cb4574c818e0cd542032eed6e211f1e0246490602001612b03565b600780546001600160a01b038381166001600160a01b0319831681179093556040519116919082907f8be0079c531659141344cd1fd0a4f28419497f9722a3daafe3b4186f6b6457e090600090a35050565b600081806020019051810190612d829190613147565b92915050565b600854604051630d2020dd60e01b8152600481018390526000916001600160a01b031690630d2020dd9060240160206040518083038186803b158015612dcd57600080fd5b505afa158015612de1573d6000803e3d6000fd5b505050506040513d601f19601f82011682018060405250810190612d829190613147565b6001600160a01b0381163b612e725760405162461bcd60e51b815260206004820152602d60248201527f455243313936373a206e657720696d706c656d656e746174696f6e206973206e60448201526c1bdd08184818dbdb9d1c9858dd609a1b606482015260840161181f565b60008051602061364f83398151915280546001600160a01b0319166001600160a01b0392909216919091179055565b612eaa83612ec6565b600082511180612eb75750805b15611aad576119408383612f06565b612ecf81612e05565b6040516001600160a01b038216907fbc7cd75a20ee27fd9adebab32041f755214dbc6bffa90cc0225b39da2e5c2d3b90600090a250565b6060612f2b838360405180606001604052806027815260200161366f60279139612f32565b9392505050565b60606001600160a01b0384163b612f9a5760405162461bcd60e51b815260206004820152602660248201527f416464726573733a2064656c65676174652063616c6c20746f206e6f6e2d636f6044820152651b9d1c9858dd60d21b606482015260840161181f565b600080856001600160a01b031685604051612fb59190613385565b600060405180830381855af49150503d8060008114612ff0576040519150601f19603f3d011682016040523d82523d6000602084013e612ff5565b606091505b509150915061300582828661300f565b9695505050505050565b6060831561301e575081612f2b565b82511561302e5782518084602001fd5b8160405162461bcd60e51b815260040161181f91906133a1565b600082601f83011261305957600080fd5b8135602061306e613069836134d9565b6134a8565b80838252828201915082860187848660051b890101111561308e57600080fd5b60005b858110156130ad57813584529284019290840190600101613091565b5090979650505050505050565b600082601f8301126130cb57600080fd5b813567ffffffffffffffff8111156130e5576130e56135c3565b6130f8601f8201601f19166020016134a8565b81815284602083860101111561310d57600080fd5b816020850160208301376000918101602001919091529392505050565b60006020828403121561313c57600080fd5b8135612f2b816135d9565b60006020828403121561315957600080fd5b8151612f2b816135d9565b6000806040838503121561317757600080fd5b8235613182816135d9565b9150602083013567ffffffffffffffff81111561319e57600080fd5b6131aa858286016130ba565b9150509250929050565b600080604083850312156131c757600080fd5b823567ffffffffffffffff808211156131df57600080fd5b818501915085601f8301126131f357600080fd5b81356020613203613069836134d9565b8083825282820191508286018a848660051b890101111561322357600080fd5b600096505b84871015613246578035835260019690960195918301918301613228565b509650508601359250508082111561325d57600080fd5b506131aa85828601613048565b60006020828403121561327c57600080fd5b5035919050565b60006020828403121561329557600080fd5b5051919050565b6000602082840312156132ae57600080fd5b813567ffffffffffffffff8111156132c557600080fd5b6132d1848285016130ba565b949350505050565b600080604083850312156132ec57600080fd5b50508035926020909101359150565b60008060006060848603121561331057600080fd5b505081359360208301359350604090920135919050565b6000806000806080858703121561333d57600080fd5b5050823594602084013594506040840135936060013592509050565b60008151808452613371816020860160208601613515565b601f01601f19169290920160200192915050565b60008251613397818460208701613515565b9190910192915050565b602081526000612f2b6020830184613359565b6020808252602c908201527f46756e6374696f6e206d7573742062652063616c6c6564207468726f7567682060408201526b19195b1959d85d1958d85b1b60a21b606082015260800190565b6020808252602c908201527f46756e6374696f6e206d7573742062652063616c6c6564207468726f7567682060408201526b6163746976652070726f787960a01b606082015260800190565b6020808252600d908201526c2737902832b936b4b9b9b4b7b760991b604082015260600190565b6020808252818101527f4f776e61626c653a2063616c6c6572206973206e6f7420746865206f776e6572604082015260600190565b604051601f8201601f1916810167ffffffffffffffff811182821017156134d1576134d16135c3565b604052919050565b600067ffffffffffffffff8211156134f3576134f36135c3565b5060051b60200190565b6000821982111561351057613510613597565b500190565b60005b83811015613530578181015183820152602001613518565b838111156119405750506000910152565b600181811c9082168061355557607f821691505b6020821081141561357657634e487b7160e01b600052602260045260246000fd5b50919050565b600060001982141561359057613590613597565b5060010190565b634e487b7160e01b600052601160045260246000fd5b634e487b7160e01b600052603260045260246000fd5b634e487b7160e01b600052604160045260246000fd5b6001600160a01b038116811461198357600080fdfe18ad4415ef4a621ce1a136395c51ab6c3712bb2e24b79d526059925cea58dcb80c4fbe9dc9de15dd7c0d064975ee1a2f2f9b954fa0e65d4f6cddba94884bdc3e0b09c9badbbeb6c813a598ee910770a39ccda797a1940439bb6e47fc6c87548b360894a13ba1a3210667c828492db98dca3e2076cc3735a920a3ca505d382bbc416464726573733a206c6f772d6c6576656c2064656c65676174652063616c6c206661696c6564c69fc6b7d0efc934fd5a3581c7253a7107a952526bb6dbcd814ef8d8dae1f44aa2646970667358221220bc7359a66d8b3f16e9551c16829aab806d53f8077c3fdde55439a57c3beee8b764736f6c63430008060033",
  "linkReferences": {},
  "deployedLinkReferences": {}
}