{
  "_format": "hh-sol-artifact-1",
  "contractName": "EnvStorageImp",
  "sourceName": "contracts/storage/EnvStorageImp.sol",
  "abi": [
    {
      "anonymous": false,
      "inputs": [
        {
          "indexed": true,
          "internalType": "bytes32",
          "name": "_name",
          "type": "bytes32"
        },
        {
          "indexed": false,
          "internalType": "address",
          "name": "_value",
          "type": "address"
        }
      ],
      "name": "AddressVarableChanged",
      "type": "event"
    },
    {
      "anonymous": false,
      "inputs": [
        {
          "indexed": false,
          "internalType": "address",
          "name": "previousAdmin",
          "type": "address"
        },
        {
          "indexed": false,
          "internalType": "address",
          "name": "newAdmin",
          "type": "address"
        }
      ],
      "name": "AdminChanged",
      "type": "event"
    },
    {
      "anonymous": false,
      "inputs": [
        {
          "indexed": true,
          "internalType": "address",
          "name": "beacon",
          "type": "address"
        }
      ],
      "name": "BeaconUpgraded",
      "type": "event"
    },
    {
      "anonymous": false,
      "inputs": [
        {
          "indexed": true,
          "internalType": "bytes32",
          "name": "_name",
          "type": "bytes32"
        },
        {
          "indexed": false,
          "internalType": "bytes32",
          "name": "_value",
          "type": "bytes32"
        }
      ],
      "name": "Bytes32VarableChanged",
      "type": "event"
    },
    {
      "anonymous": false,
      "inputs": [
        {
          "indexed": true,
          "internalType": "bytes32",
          "name": "_name",
          "type": "bytes32"
        },
        {
          "indexed": false,
          "internalType": "bytes",
          "name": "_value",
          "type": "bytes"
        }
      ],
      "name": "BytesVarableChanged",
      "type": "event"
    },
    {
      "anonymous": false,
      "inputs": [
        {
          "indexed": true,
          "internalType": "bytes32",
          "name": "_name",
          "type": "bytes32"
        },
        {
          "indexed": false,
          "internalType": "int256",
          "name": "_value",
          "type": "int256"
        }
      ],
      "name": "IntVarableChanged",
      "type": "event"
    },
    {
      "anonymous": false,
      "inputs": [
        {
          "indexed": true,
          "internalType": "address",
          "name": "previousOwner",
          "type": "address"
        },
        {
          "indexed": true,
          "internalType": "address",
          "name": "newOwner",
          "type": "address"
        }
      ],
      "name": "OwnershipTransferred",
      "type": "event"
    },
    {
      "anonymous": false,
      "inputs": [
        {
          "indexed": true,
          "internalType": "bytes32",
          "name": "_name",
          "type": "bytes32"
        },
        {
          "indexed": false,
          "internalType": "string",
          "name": "_value",
          "type": "string"
        }
      ],
      "name": "StringVarableChanged",
      "type": "event"
    },
    {
      "anonymous": false,
      "inputs": [
        {
          "indexed": true,
          "internalType": "bytes32",
          "name": "_name",
          "type": "bytes32"
        },
        {
          "indexed": false,
          "internalType": "uint256",
          "name": "_value",
          "type": "uint256"
        }
      ],
      "name": "UintVarableChanged",
      "type": "event"
    },
    {
      "anonymous": false,
      "inputs": [
        {
          "indexed": true,
          "internalType": "address",
          "name": "implementation",
          "type": "address"
        }
      ],
      "name": "Upgraded",
      "type": "event"
    },
    {
      "anonymous": false,
      "inputs": [
        {
          "indexed": true,
          "internalType": "bytes32",
          "name": "_name",
          "type": "bytes32"
        },
        {
          "indexed": true,
          "internalType": "uint256",
          "name": "_type",
          "type": "uint256"
        },
        {
          "indexed": false,
          "internalType": "string",
          "name": "_value",
          "type": "string"
        }
      ],
      "name": "VarableChanged",
      "type": "event"
    },
    {
      "inputs": [],
      "name": "BALLOT_DURATION_MAX_NAME",
      "outputs": [
        {
          "internalType": "bytes32",
          "name": "",
          "type": "bytes32"
        }
      ],
      "stateMutability": "view",
      "type": "function"
    },
    {
      "inputs": [],
      "name": "BALLOT_DURATION_MIN_MAX_NAME",
      "outputs": [
        {
          "internalType": "bytes32",
          "name": "",
          "type": "bytes32"
        }
      ],
      "stateMutability": "view",
      "type": "function"
    },
    {
      "inputs": [],
      "name": "BALLOT_DURATION_MIN_NAME",
      "outputs": [
        {
          "internalType": "bytes32",
          "name": "",
          "type": "bytes32"
        }
      ],
      "stateMutability": "view",
      "type": "function"
    },
    {
      "inputs": [],
      "name": "BALLOT_STORAGE_NAME",
      "outputs": [
        {
          "internalType": "bytes32",
          "name": "",
          "type": "bytes32"
        }
      ],
      "stateMutability": "view",
      "type": "function"
    },
    {
      "inputs": [],
      "name": "BASE_FEE_MAX_CHANGE_DENOMINATOR_NAME",
      "outputs": [
        {
          "internalType": "bytes32",
          "name": "",
          "type": "bytes32"
        }
      ],
      "stateMutability": "view",
      "type": "function"
    },
    {
      "inputs": [],
      "name": "BLOCKS_PER_NAME",
      "outputs": [
        {
          "internalType": "bytes32",
          "name": "",
          "type": "bytes32"
        }
      ],
      "stateMutability": "view",
      "type": "function"
    },
    {
      "inputs": [],
      "name": "BLOCK_CREATION_TIME_NAME",
      "outputs": [
        {
          "internalType": "bytes32",
          "name": "",
          "type": "bytes32"
        }
      ],
      "stateMutability": "view",
      "type": "function"
    },
    {
      "inputs": [],
      "name": "BLOCK_GASLIMIT_NAME",
      "outputs": [
        {
          "internalType": "bytes32",
          "name": "",
          "type": "bytes32"
        }
      ],
      "stateMutability": "view",
      "type": "function"
    },
    {
      "inputs": [],
      "name": "BLOCK_REWARD_AMOUNT_NAME",
      "outputs": [
        {
          "internalType": "bytes32",
          "name": "",
          "type": "bytes32"
        }
      ],
      "stateMutability": "view",
      "type": "function"
    },
    {
      "inputs": [],
      "name": "BLOCK_REWARD_DISTRIBUTION_BLOCK_PRODUCER_NAME",
      "outputs": [
        {
          "internalType": "bytes32",
          "name": "",
          "type": "bytes32"
        }
      ],
      "stateMutability": "view",
      "type": "function"
    },
    {
      "inputs": [],
      "name": "BLOCK_REWARD_DISTRIBUTION_ECOSYSTEM_NAME",
      "outputs": [
        {
          "internalType": "bytes32",
          "name": "",
          "type": "bytes32"
        }
      ],
      "stateMutability": "view",
      "type": "function"
    },
    {
      "inputs": [],
      "name": "BLOCK_REWARD_DISTRIBUTION_MAINTANANCE_NAME",
      "outputs": [
        {
          "internalType": "bytes32",
          "name": "",
          "type": "bytes32"
        }
      ],
      "stateMutability": "view",
      "type": "function"
    },
    {
      "inputs": [],
      "name": "BLOCK_REWARD_DISTRIBUTION_METHOD_NAME",
      "outputs": [
        {
          "internalType": "bytes32",
          "name": "",
          "type": "bytes32"
        }
      ],
      "stateMutability": "view",
      "type": "function"
    },
    {
      "inputs": [],
      "name": "BLOCK_REWARD_DISTRIBUTION_STAKING_REWARD_NAME",
      "outputs": [
        {
          "internalType": "bytes32",
          "name": "",
          "type": "bytes32"
        }
      ],
      "stateMutability": "view",
      "type": "function"
    },
    {
      "inputs": [],
      "name": "DENOMINATOR",
      "outputs": [
        {
          "internalType": "uint256",
          "name": "",
          "type": "uint256"
        }
      ],
      "stateMutability": "view",
      "type": "function"
    },
    {
      "inputs": [],
      "name": "ELASTICITY_MULTIPLIER_NAME",
      "outputs": [
        {
          "internalType": "bytes32",
          "name": "",
          "type": "bytes32"
        }
      ],
      "stateMutability": "view",
      "type": "function"
    },
    {
      "inputs": [],
      "name": "ENV_STORAGE_NAME",
      "outputs": [
        {
          "internalType": "bytes32",
          "name": "",
          "type": "bytes32"
        }
      ],
      "stateMutability": "view",
      "type": "function"
    },
    {
      "inputs": [],
      "name": "GASLIMIT_AND_BASE_FEE_NAME",
      "outputs": [
        {
          "internalType": "bytes32",
          "name": "",
          "type": "bytes32"
        }
      ],
      "stateMutability": "view",
      "type": "function"
    },
    {
      "inputs": [],
      "name": "GAS_PRICE_NAME",
      "outputs": [
        {
          "internalType": "bytes32",
          "name": "",
          "type": "bytes32"
        }
      ],
      "stateMutability": "view",
      "type": "function"
    },
    {
      "inputs": [],
      "name": "GOV_NAME",
      "outputs": [
        {
          "internalType": "bytes32",
          "name": "",
          "type": "bytes32"
        }
      ],
      "stateMutability": "view",
      "type": "function"
    },
    {
      "inputs": [],
      "name": "MAINTENANCE_NAME",
      "outputs": [
        {
          "internalType": "bytes32",
          "name": "",
          "type": "bytes32"
        }
      ],
      "stateMutability": "view",
      "type": "function"
    },
    {
      "inputs": [],
      "name": "MAX_IDLE_BLOCK_INTERVAL_NAME",
      "outputs": [
        {
          "internalType": "bytes32",
          "name": "",
          "type": "bytes32"
        }
      ],
      "stateMutability": "view",
      "type": "function"
    },
    {
      "inputs": [],
      "name": "MAX_PRIORITY_FEE_PER_GAS_NAME",
      "outputs": [
        {
          "internalType": "bytes32",
          "name": "",
          "type": "bytes32"
        }
      ],
      "stateMutability": "view",
      "type": "function"
    },
    {
      "inputs": [],
      "name": "REWARD_POOL_NAME",
      "outputs": [
        {
          "internalType": "bytes32",
          "name": "",
          "type": "bytes32"
        }
      ],
      "stateMutability": "view",
      "type": "function"
    },
    {
      "inputs": [],
      "name": "STAKING_MAX_NAME",
      "outputs": [
        {
          "internalType": "bytes32",
          "name": "",
          "type": "bytes32"
        }
      ],
      "stateMutability": "view",
      "type": "function"
    },
    {
      "inputs": [],
      "name": "STAKING_MIN_MAX_NAME",
      "outputs": [
        {
          "internalType": "bytes32",
          "name": "",
          "type": "bytes32"
        }
      ],
      "stateMutability": "view",
      "type": "function"
    },
    {
      "inputs": [],
      "name": "STAKING_MIN_NAME",
      "outputs": [
        {
          "internalType": "bytes32",
          "name": "",
          "type": "bytes32"
        }
      ],
      "stateMutability": "view",
      "type": "function"
    },
    {
      "inputs": [],
      "name": "STAKING_NAME",
      "outputs": [
        {
          "internalType": "bytes32",
          "name": "",
          "type": "bytes32"
        }
      ],
      "stateMutability": "view",
      "type": "function"
    },
    {
      "inputs": [
        {
          "internalType": "bytes32",
          "name": "envKey",
          "type": "bytes32"
        },
        {
          "internalType": "bytes",
          "name": "envVal",
          "type": "bytes"
        }
      ],
      "name": "checkVariableCondition",
      "outputs": [
        {
          "internalType": "bool",
          "name": "",
          "type": "bool"
        }
      ],
      "stateMutability": "pure",
      "type": "function"
    },
    {
      "inputs": [
        {
          "internalType": "bytes32",
          "name": "h",
          "type": "bytes32"
        }
      ],
      "name": "getAddress",
      "outputs": [
        {
          "internalType": "address",
          "name": "",
          "type": "address"
        }
      ],
      "stateMutability": "view",
      "type": "function"
    },
    {
      "inputs": [],
      "name": "getBallotDurationMax",
      "outputs": [
        {
          "internalType": "uint256",
          "name": "",
          "type": "uint256"
        }
      ],
      "stateMutability": "view",
      "type": "function"
    },
    {
      "inputs": [],
      "name": "getBallotDurationMin",
      "outputs": [
        {
          "internalType": "uint256",
          "name": "",
          "type": "uint256"
        }
      ],
      "stateMutability": "view",
      "type": "function"
    },
    {
      "inputs": [],
      "name": "getBallotDurationMinMax",
      "outputs": [
        {
          "internalType": "uint256",
          "name": "",
          "type": "uint256"
        },
        {
          "internalType": "uint256",
          "name": "",
          "type": "uint256"
        }
      ],
      "stateMutability": "view",
      "type": "function"
    },
    {
      "inputs": [],
      "name": "getBlockCreationTime",
      "outputs": [
        {
          "internalType": "uint256",
          "name": "",
          "type": "uint256"
        }
      ],
      "stateMutability": "view",
      "type": "function"
    },
    {
      "inputs": [],
      "name": "getBlockRewardAmount",
      "outputs": [
        {
          "internalType": "uint256",
          "name": "",
          "type": "uint256"
        }
      ],
      "stateMutability": "view",
      "type": "function"
    },
    {
      "inputs": [],
      "name": "getBlockRewardDistributionMethod",
      "outputs": [
        {
          "internalType": "uint256",
          "name": "",
          "type": "uint256"
        },
        {
          "internalType": "uint256",
          "name": "",
          "type": "uint256"
        },
        {
          "internalType": "uint256",
          "name": "",
          "type": "uint256"
        },
        {
          "internalType": "uint256",
          "name": "",
          "type": "uint256"
        }
      ],
      "stateMutability": "view",
      "type": "function"
    },
    {
      "inputs": [],
      "name": "getBlocksPer",
      "outputs": [
        {
          "internalType": "uint256",
          "name": "",
          "type": "uint256"
        }
      ],
      "stateMutability": "view",
      "type": "function"
    },
    {
      "inputs": [
        {
          "internalType": "bytes32",
          "name": "h",
          "type": "bytes32"
        }
      ],
      "name": "getBoolean",
      "outputs": [
        {
          "internalType": "bool",
          "name": "",
          "type": "bool"
        }
      ],
      "stateMutability": "view",
      "type": "function"
    },
    {
      "inputs": [
        {
          "internalType": "bytes32",
          "name": "h",
          "type": "bytes32"
        }
      ],
      "name": "getBytes",
      "outputs": [
        {
          "internalType": "bytes",
          "name": "",
          "type": "bytes"
        }
      ],
      "stateMutability": "view",
      "type": "function"
    },
    {
      "inputs": [
        {
          "internalType": "bytes32",
          "name": "h",
          "type": "bytes32"
        }
      ],
      "name": "getBytes32",
      "outputs": [
        {
          "internalType": "bytes32",
          "name": "",
          "type": "bytes32"
        }
      ],
      "stateMutability": "view",
      "type": "function"
    },
    {
      "inputs": [],
      "name": "getGasLimitAndBaseFee",
      "outputs": [
        {
          "internalType": "uint256",
          "name": "",
          "type": "uint256"
        },
        {
          "internalType": "uint256",
          "name": "",
          "type": "uint256"
        },
        {
          "internalType": "uint256",
          "name": "",
          "type": "uint256"
        }
      ],
      "stateMutability": "view",
      "type": "function"
    },
    {
      "inputs": [],
      "name": "getGasPrice",
      "outputs": [
        {
          "internalType": "uint256",
          "name": "",
          "type": "uint256"
        }
      ],
      "stateMutability": "view",
      "type": "function"
    },
    {
      "inputs": [
        {
          "internalType": "bytes32",
          "name": "h",
          "type": "bytes32"
        }
      ],
      "name": "getInt",
      "outputs": [
        {
          "internalType": "int256",
          "name": "",
          "type": "int256"
        }
      ],
      "stateMutability": "view",
      "type": "function"
    },
    {
      "inputs": [],
      "name": "getMaxIdleBlockInterval",
      "outputs": [
        {
          "internalType": "uint256",
          "name": "",
          "type": "uint256"
        }
      ],
      "stateMutability": "view",
      "type": "function"
    },
    {
      "inputs": [],
      "name": "getMaxPriorityFeePerGas",
      "outputs": [
        {
          "internalType": "uint256",
          "name": "",
          "type": "uint256"
        }
      ],
      "stateMutability": "view",
      "type": "function"
    },
    {
      "inputs": [],
      "name": "getStakingMax",
      "outputs": [
        {
          "internalType": "uint256",
          "name": "",
          "type": "uint256"
        }
      ],
      "stateMutability": "view",
      "type": "function"
    },
    {
      "inputs": [],
      "name": "getStakingMin",
      "outputs": [
        {
          "internalType": "uint256",
          "name": "",
          "type": "uint256"
        }
      ],
      "stateMutability": "view",
      "type": "function"
    },
    {
      "inputs": [],
      "name": "getStakingMinMax",
      "outputs": [
        {
          "internalType": "uint256",
          "name": "",
          "type": "uint256"
        },
        {
          "internalType": "uint256",
          "name": "",
          "type": "uint256"
        }
      ],
      "stateMutability": "view",
      "type": "function"
    },
    {
      "inputs": [
        {
          "internalType": "bytes32",
          "name": "h",
          "type": "bytes32"
        }
      ],
      "name": "getString",
      "outputs": [
        {
          "internalType": "string",
          "name": "",
          "type": "string"
        }
      ],
      "stateMutability": "view",
      "type": "function"
    },
    {
      "inputs": [
        {
          "internalType": "bytes32",
          "name": "h",
          "type": "bytes32"
        }
      ],
      "name": "getUint",
      "outputs": [
        {
          "internalType": "uint256",
          "name": "",
          "type": "uint256"
        }
      ],
      "stateMutability": "view",
      "type": "function"
    },
    {
      "inputs": [
        {
          "internalType": "bytes32[]",
          "name": "names",
          "type": "bytes32[]"
        },
        {
          "internalType": "uint256[]",
          "name": "infos",
          "type": "uint256[]"
        }
      ],
      "name": "initialize",
      "outputs": [],
      "stateMutability": "nonpayable",
      "type": "function"
    },
    {
      "inputs": [],
      "name": "owner",
      "outputs": [
        {
          "internalType": "address",
          "name": "",
          "type": "address"
        }
      ],
      "stateMutability": "view",
      "type": "function"
    },
    {
      "inputs": [],
      "name": "proxiableUUID",
      "outputs": [
        {
          "internalType": "bytes32",
          "name": "",
          "type": "bytes32"
        }
      ],
      "stateMutability": "view",
      "type": "function"
    },
    {
      "inputs": [],
      "name": "reg",
      "outputs": [
        {
          "internalType": "contract IRegistry",
          "name": "",
          "type": "address"
        }
      ],
      "stateMutability": "view",
      "type": "function"
    },
    {
      "inputs": [],
      "name": "renounceOwnership",
      "outputs": [],
      "stateMutability": "nonpayable",
      "type": "function"
    },
    {
      "inputs": [
        {
          "internalType": "uint256",
          "name": "_value",
          "type": "uint256"
        }
      ],
      "name": "setBallotDurationMax",
      "outputs": [],
      "stateMutability": "nonpayable",
      "type": "function"
    },
    {
      "inputs": [
        {
          "internalType": "bytes",
          "name": "_value",
          "type": "bytes"
        }
      ],
      "name": "setBallotDurationMaxByBytes",
      "outputs": [],
      "stateMutability": "nonpayable",
      "type": "function"
    },
    {
      "inputs": [
        {
          "internalType": "uint256",
          "name": "_value",
          "type": "uint256"
        }
      ],
      "name": "setBallotDurationMin",
      "outputs": [],
      "stateMutability": "nonpayable",
      "type": "function"
    },
    {
      "inputs": [
        {
          "internalType": "bytes",
          "name": "_value",
          "type": "bytes"
        }
      ],
      "name": "setBallotDurationMinByBytes",
      "outputs": [],
      "stateMutability": "nonpayable",
      "type": "function"
    },
    {
      "inputs": [
        {
          "internalType": "uint256",
          "name": "_min",
          "type": "uint256"
        },
        {
          "internalType": "uint256",
          "name": "_max",
          "type": "uint256"
        }
      ],
      "name": "setBallotDurationMinMax",
      "outputs": [],
      "stateMutability": "nonpayable",
      "type": "function"
    },
    {
      "inputs": [
        {
          "internalType": "bytes",
          "name": "_value",
          "type": "bytes"
        }
      ],
      "name": "setBallotDurationMinMaxByBytes",
      "outputs": [],
      "stateMutability": "nonpayable",
      "type": "function"
    },
    {
      "inputs": [
        {
          "internalType": "uint256",
          "name": "_value",
          "type": "uint256"
        }
      ],
      "name": "setBlockCreationTime",
      "outputs": [],
      "stateMutability": "nonpayable",
      "type": "function"
    },
    {
      "inputs": [
        {
          "internalType": "bytes",
          "name": "_value",
          "type": "bytes"
        }
      ],
      "name": "setBlockCreationTimeByBytes",
      "outputs": [],
      "stateMutability": "nonpayable",
      "type": "function"
    },
    {
      "inputs": [
        {
          "internalType": "uint256",
          "name": "_value",
          "type": "uint256"
        }
      ],
      "name": "setBlockRewardAmount",
      "outputs": [],
      "stateMutability": "nonpayable",
      "type": "function"
    },
    {
      "inputs": [
        {
          "internalType": "bytes",
          "name": "_value",
          "type": "bytes"
        }
      ],
      "name": "setBlockRewardAmountByBytes",
      "outputs": [],
      "stateMutability": "nonpayable",
      "type": "function"
    },
    {
      "inputs": [
        {
          "internalType": "uint256",
          "name": "_block_producer",
          "type": "uint256"
        },
        {
          "internalType": "uint256",
          "name": "_staking_reward",
          "type": "uint256"
        },
        {
          "internalType": "uint256",
          "name": "_ecofund",
          "type": "uint256"
        },
        {
          "internalType": "uint256",
          "name": "_maintanance",
          "type": "uint256"
        }
      ],
      "name": "setBlockRewardDistributionMethod",
      "outputs": [],
      "stateMutability": "nonpayable",
      "type": "function"
    },
    {
      "inputs": [
        {
          "internalType": "bytes",
          "name": "_value",
          "type": "bytes"
        }
      ],
      "name": "setBlockRewardDistributionMethodByBytes",
      "outputs": [],
      "stateMutability": "nonpayable",
      "type": "function"
    },
    {
      "inputs": [
        {
          "internalType": "uint256",
          "name": "_value",
          "type": "uint256"
        }
      ],
      "name": "setBlocksPer",
      "outputs": [],
      "stateMutability": "nonpayable",
      "type": "function"
    },
    {
      "inputs": [
        {
          "internalType": "bytes",
          "name": "_value",
          "type": "bytes"
        }
      ],
      "name": "setBlocksPerByBytes",
      "outputs": [],
      "stateMutability": "nonpayable",
      "type": "function"
    },
    {
      "inputs": [
        {
          "internalType": "uint256",
          "name": "_block_GasLimit",
          "type": "uint256"
        },
        {
          "internalType": "uint256",
          "name": "_baseFeeMaxChangeDenominator",
          "type": "uint256"
        },
        {
          "internalType": "uint256",
          "name": "_elasticityMultiplier",
          "type": "uint256"
        }
      ],
      "name": "setGasLimitAndBaseFee",
      "outputs": [],
      "stateMutability": "nonpayable",
      "type": "function"
    },
    {
      "inputs": [
        {
          "internalType": "bytes",
          "name": "_value",
          "type": "bytes"
        }
      ],
      "name": "setGasLimitAndBaseFeeByBytes",
      "outputs": [],
      "stateMutability": "nonpayable",
      "type": "function"
    },
    {
      "inputs": [
        {
          "internalType": "uint256",
          "name": "_value",
          "type": "uint256"
        }
      ],
      "name": "setGasPrice",
      "outputs": [],
      "stateMutability": "nonpayable",
      "type": "function"
    },
    {
      "inputs": [
        {
          "internalType": "bytes",
          "name": "_value",
          "type": "bytes"
        }
      ],
      "name": "setGasPriceByBytes",
      "outputs": [],
      "stateMutability": "nonpayable",
      "type": "function"
    },
    {
      "inputs": [
        {
          "internalType": "uint256",
          "name": "_value",
          "type": "uint256"
        }
      ],
      "name": "setMaxIdleBlockInterval",
      "outputs": [],
      "stateMutability": "nonpayable",
      "type": "function"
    },
    {
      "inputs": [
        {
          "internalType": "bytes",
          "name": "_value",
          "type": "bytes"
        }
      ],
      "name": "setMaxIdleBlockIntervalByBytes",
      "outputs": [],
      "stateMutability": "nonpayable",
      "type": "function"
    },
    {
      "inputs": [
        {
          "internalType": "uint256",
          "name": "_value",
          "type": "uint256"
        }
      ],
      "name": "setMaxPriorityFeePerGas",
      "outputs": [],
      "stateMutability": "nonpayable",
      "type": "function"
    },
    {
      "inputs": [
        {
          "internalType": "bytes",
          "name": "_value",
          "type": "bytes"
        }
      ],
      "name": "setMaxPriorityFeePerGasByBytes",
      "outputs": [],
      "stateMutability": "nonpayable",
      "type": "function"
    },
    {
      "inputs": [
        {
          "internalType": "address",
          "name": "_addr",
          "type": "address"
        }
      ],
      "name": "setRegistry",
      "outputs": [],
      "stateMutability": "nonpayable",
      "type": "function"
    },
    {
      "inputs": [
        {
          "internalType": "uint256",
          "name": "_value",
          "type": "uint256"
        }
      ],
      "name": "setStakingMax",
      "outputs": [],
      "stateMutability": "nonpayable",
      "type": "function"
    },
    {
      "inputs": [
        {
          "internalType": "bytes",
          "name": "_value",
          "type": "bytes"
        }
      ],
      "name": "setStakingMaxByBytes",
      "outputs": [],
      "stateMutability": "nonpayable",
      "type": "function"
    },
    {
      "inputs": [
        {
          "internalType": "uint256",
          "name": "_value",
          "type": "uint256"
        }
      ],
      "name": "setStakingMin",
      "outputs": [],
      "stateMutability": "nonpayable",
      "type": "function"
    },
    {
      "inputs": [
        {
          "internalType": "bytes",
          "name": "_value",
          "type": "bytes"
        }
      ],
      "name": "setStakingMinByBytes",
      "outputs": [],
      "stateMutability": "nonpayable",
      "type": "function"
    },
    {
      "inputs": [
        {
          "internalType": "uint256",
          "name": "_min",
          "type": "uint256"
        },
        {
          "internalType": "uint256",
          "name": "_max",
          "type": "uint256"
        }
      ],
      "name": "setStakingMinMax",
      "outputs": [],
      "stateMutability": "nonpayable",
      "type": "function"
    },
    {
      "inputs": [
        {
          "internalType": "bytes",
          "name": "_value",
          "type": "bytes"
        }
      ],
      "name": "setStakingMinMaxByBytes",
      "outputs": [],
      "stateMutability": "nonpayable",
      "type": "function"
    },
    {
      "inputs": [
        {
          "internalType": "bytes32",
          "name": "envKey",
          "type": "bytes32"
        },
        {
          "internalType": "bytes",
          "name": "envVal",
          "type": "bytes"
        }
      ],
      "name": "setVariable",
      "outputs": [],
      "stateMutability": "nonpayable",
      "type": "function"
    },
    {
      "inputs": [
        {
          "internalType": "address",
          "name": "newOwner",
          "type": "address"
        }
      ],
      "name": "transferOwnership",
      "outputs": [],
      "stateMutability": "nonpayable",
      "type": "function"
    },
    {
      "inputs": [
        {
          "internalType": "address",
          "name": "newImplementation",
          "type": "address"
        }
      ],
      "name": "upgradeTo",
      "outputs": [],
      "stateMutability": "nonpayable",
      "type": "function"
    },
    {
      "inputs": [
        {
          "internalType": "address",
          "name": "newImplementation",
          "type": "address"
        },
        {
          "internalType": "bytes",
          "name": "data",
          "type": "bytes"
        }
      ],
      "name": "upgradeToAndCall",
      "outputs": [],
      "stateMutability": "payable",
      "type": "function"
    }
  ],
  "bytecode": "0x60a06040523060601b60805234801561001757600080fd5b5061002133610026565b610078565b600780546001600160a01b038381166001600160a01b0319831681179093556040519116919082907f8be0079c531659141344cd1fd0a4f28419497f9722a3daafe3b4186f6b6457e090600090a35050565b60805160601c6134bb620000b36000396000818161181b0152818161185b015281816119f201528181611a320152611ac501526134bb6000f3fe6080604052600436106104ca5760003560e01c80636e80187811610276578063a6ed563e1161014f578063c0b4fe15116100c1578063dd65d3f911610085578063dd65d3f914611363578063e078869f14611397578063ec3df879146113b7578063f2fde38b146113d7578063f6fd7129146113f7578063f82145911461141757600080fd5b8063c0b4fe1514611297578063c6713baf146112b9578063c7d3da34146112ed578063cdb9f64314611321578063dc97d9621461133657600080fd5b8063b4d6bd3b11610113578063b4d6bd3b146111c8578063bd02d0f5146111e8578063be33732a14611215578063bf1fe42014611235578063c00ace6c14611255578063c031a1801461127757600080fd5b8063a6ed563e1461110d578063a91ee0dc1461113a578063a9b629b21461115a578063aba01fee1461117c578063b128f880146111a657600080fd5b80638c8b887e116101e85780639801bff9116101ac5780639801bff914611028578063986e791a146110485780639986e4b914611075578063a36f259b14611099578063a5d6a581146110b9578063a6868b7d146110d957600080fd5b80638c8b887e14610ed75780638d5cdd7e14610ef75780638da5cb5b14610f175780638f6fe72514610f35578063918f86741461101257600080fd5b8063738fdd1a1161023a578063738fdd1a14610e0257806379e8585914610e225780637b2bfb0114610e425780637bf4653014610e76578063852cf38f14610e9757806388c2801914610eb757600080fd5b80636e80187814610d405780636fde207a14610d60578063715018a614610d8257806371c6960d14610d97578063737c59b814610db757600080fd5b806333be496e116103a857806345b5ec291161031a578063603b8389116102de578063603b838914610bb65780636167eb4514610bd6578063656e305214610c0a57806367d1a2e014610c3e5780636c78d2cf14610cf55780636d583ca714610d1e57600080fd5b806345b5ec2914610b015780634bd1ed7614610b215780634f1ef28614610b4357806352d1902d14610b565780635dba8c4a14610b6b57600080fd5b80633848207a1161036c5780633848207a146109f45780633d4c65f314610a345780633e8daafe14610a545780633f35c8fe14610a7457806344b8991414610a96578063455259cb14610ab657600080fd5b806333be496e146108d157806333e311841461091c5780633659cfe6146109675780633690057a1461098757806338294419146109d257600080fd5b80631e0cba0d116104415780632b2eaa92116104055780632b2eaa92146107e55780632eb57c65146108305780632eccd832146108505780632ed19cd5146108705780632f40992e146108905780633305508e146108b157600080fd5b80631e0cba0d146106f157806321f8a7211461070f578063238737b61461075d578063278bb12a14610791578063287a446e146107c557600080fd5b80630f36c0a8116104935780630f36c0a8146105c55780630fc238bf146105e7578063124cea3714610607578063185582f1146106275780631b27e01b146106725780631daad67b146106bd57600080fd5b806215a73b146104cf578063076cd77f146105045780630add66dd1461054f5780630b1d39b8146105715780630b90a39a146105a5575b600080fd5b3480156104db57600080fd5b506104f160008051602061335f83398151915281565b6040519081526020015b60405180910390f35b34801561051057600080fd5b506000805160206133bf83398151915260005260026020527fd7a437163435b79030132855d9146a10e26570f1767311219983e0c430cfa690546104f1565b34801561055b57600080fd5b5061056f61056a366004613001565b61143c565b005b34801561057d57600080fd5b506104f17f9251c159f02011bbf45dee7be257fcbb2aecba050ea7ce7c9f8561b82858d6e081565b3480156105b157600080fd5b5061056f6105c0366004612f52565b611592565b3480156105d157600080fd5b506104f16000805160206133ff83398151915281565b3480156105f357600080fd5b5061056f610602366004612f52565b6115d2565b34801561061357600080fd5b5061056f610622366004612f52565b61160f565b34801561063357600080fd5b5060008051602061331f83398151915260005260026020527fbc779bbce8d4fef90926dc39b56d9135e8e3795964b3adae769767961d4a94d8546104f1565b34801561067e57600080fd5b5060008051602061335f83398151915260005260026020527f5a1993193b8890c75d83157b2c2c12b144545357ab60021d7429856434de051b546104f1565b3480156106c957600080fd5b506104f17f6d0d53fb98dc9bce1459687cbe14a4d9d9314793382025604e41d0832dabfab281565b3480156106fd57600080fd5b506104f1665374616b696e6760c81b81565b34801561071b57600080fd5b5061074561072a366004612eef565b6000908152600460205260409020546001600160a01b031690565b6040516001600160a01b0390911681526020016104fb565b34801561076957600080fd5b506104f17f1d36f8ce53f59e624857e1d8dc7932d19981a2ea1b8faa4eb8ff843fc3e5a27881565b34801561079d57600080fd5b506104f17f3a9129cf69b4fa0fbe5d48e0d50863014e21ae09ffabcd72cebe10b1835251b981565b3480156107d157600080fd5b5061056f6107e0366004612fd5565b61164c565b3480156107f157600080fd5b5060008051602061339f83398151915260005260026020527f270fb31b28afd06ad35288bc3cb901686a4c5a15239e966fd9b64269abd226c3546104f1565b34801561083c57600080fd5b5061056f61084b366004612eef565b6116fe565b34801561085c57600080fd5b5061056f61086b366004612f52565b611745565b34801561087c57600080fd5b5061056f61088b366004612eef565b611782565b34801561089c57600080fd5b506104f16914995dd85c99141bdbdb60b21b81565b3480156108bd57600080fd5b5061056f6108cc366004612eef565b6117c9565b3480156108dd57600080fd5b5060008051602061346683398151915260005260026020527f8e8c0bef3b4557d74ba01e0433728c574990153e35cacae69cb26f23a8a40175546104f1565b34801561092857600080fd5b5060008051602061333f83398151915260005260026020527ff3497fe1496bfc19eaef6d253f75ec2e9cfe1b4f6080c29192641567c6fc5d87546104f1565b34801561097357600080fd5b5061056f610982366004612daf565b611810565b34801561099357600080fd5b5060008051602061344683398151915260005260026020527f14e650c949c7cc3fca2efe79b3711fc734b4df488cc27c4137f35bd0adaae7fa546104f1565b3480156109de57600080fd5b506104f160008051602061339f83398151915281565b348015610a0057600080fd5b50610a24610a0f366004612eef565b60009081526020819052604090205460ff1690565b60405190151581526020016104fb565b348015610a4057600080fd5b5061056f610a4f366004612f52565b6118ed565b348015610a6057600080fd5b5061056f610a6f366004612f52565b61192a565b348015610a8057600080fd5b506104f160008051602061344683398151915281565b348015610aa257600080fd5b5061056f610ab1366004612f52565b611967565b348015610ac257600080fd5b506000805160206133ff83398151915260005260026020527f89e14017ff711cc1abe711ea1baa079a2a616108905812ce6305c232ba75534e546104f1565b348015610b0d57600080fd5b5061056f610b1c366004612f52565b6119a4565b348015610b2d57600080fd5b506104f16a4d61696e74656e616e636560a81b81565b61056f610b51366004612de9565b6119e7565b348015610b6257600080fd5b506104f1611ab8565b348015610b7757600080fd5b5060008051602061337f83398151915260005260026020527f38eb620cc1355554391bc9d0c224a726d66edf7c3eb2d67af166d6e81fe44562546104f1565b348015610bc257600080fd5b5061056f610bd1366004612e39565b611b6b565b348015610be257600080fd5b506104f17f8e6c2112cf42a3c3439bb3778561081e8f613478ae194d83342262c47476aa6381565b348015610c1657600080fd5b506104f17fe10074dceffb75f13bf0ce50145afd35182d63796823f1280ce40e01c19109e781565b348015610c4a57600080fd5b5060026020527fc77500645c8acbf6137a0e04460f85359483e3b08db30285cca2957db0c90904547f6acf411a7f4237d6bcde4357a60af5e72836631a8bcb2f865e40384bbb535892547f6d0d53fb98dc9bce1459687cbe14a4d9d9314793382025604e41d0832dabfab26000527f441cd166c87446442286c88af0bf935c88840dd738a02519c393d2b36eb3d56554604080519384526020840192909252908201526060016104fb565b348015610d0157600080fd5b506104f17111dbdd995c9b985b98d950dbdb9d1c9858dd60721b81565b348015610d2a57600080fd5b506104f160008051602061346683398151915281565b348015610d4c57600080fd5b5061056f610d5b366004612f52565b611c8f565b348015610d6c57600080fd5b506104f16000805160206133bf83398151915281565b348015610d8e57600080fd5b5061056f611ccc565b348015610da357600080fd5b5061056f610db2366004612f52565b611d02565b348015610dc357600080fd5b506000805160206132ff83398151915260005260026020527f673c817b54d53459fa437d6b11ba6445e517d8dc789e6b815675ff10e6aeeb5d546104f1565b348015610e0e57600080fd5b50600854610745906001600160a01b031681565b348015610e2e57600080fd5b5061056f610e3d366004612eef565b611d3f565b348015610e4e57600080fd5b506104f17f9c50bf546a3eb3ddc62018a4800f49d81aad4ea32c0be59072d1ad5ca5cacaad81565b348015610e8257600080fd5b506104f169456e7653746f7261676560b01b81565b348015610ea357600080fd5b5061056f610eb2366004612eef565b611d86565b348015610ec357600080fd5b5061056f610ed2366004612f21565b611dcd565b348015610ee357600080fd5b5061056f610ef2366004612f52565b611f4b565b348015610f0357600080fd5b5061056f610f12366004612f8f565b611fa1565b348015610f2357600080fd5b506007546001600160a01b0316610745565b348015610f4157600080fd5b5060026020527f7678889376fc8a6ed2710c36b13228581d36f8ebb83e2350dfd5caa6609b1647547e47f9cf5587be7d6fd9d536f94df39052d00daf2fc0dc7758fa4c0c0cef4b32547fbe0178db604d4e5492ee1865a6b4c90b1bfd4b01d44feb834173020cfb3154c7547f9251c159f02011bbf45dee7be257fcbb2aecba050ea7ce7c9f8561b82858d6e06000527fb144616b08bb56180ed010d2f0ad4592187ff288a5fa5f095eb57f8c3089c5ce546040805194855260208501939093529183015260608201526080016104fb565b34801561101e57600080fd5b506104f161271081565b34801561103457600080fd5b50610a24611043366004612f21565b612076565b34801561105457600080fd5b50611068611063366004612eef565b6121d7565b6040516104fb91906130b1565b34801561108157600080fd5b506104f16c42616c6c6f7453746f7261676560981b81565b3480156110a557600080fd5b5061056f6110b4366004612eef565b612279565b3480156110c557600080fd5b5061056f6110d4366004612f52565b6122c0565b3480156110e557600080fd5b506104f17f6c6f69f426081752a5d3e73746599acd2a4cb145d5de4203ca1e3473b281680b81565b34801561111957600080fd5b506104f1611128366004612eef565b60009081526006602052604090205490565b34801561114657600080fd5b5061056f611155366004612daf565b6122fd565b34801561116657600080fd5b506104f160008051602061337f83398151915281565b34801561118857600080fd5b5061119161239f565b604080519283526020830191909152016104fb565b3480156111b257600080fd5b506104f160008051602061331f83398151915281565b3480156111d457600080fd5b5061056f6111e3366004612f8f565b612409565b3480156111f457600080fd5b506104f1611203366004612eef565b60009081526002602052604090205490565b34801561122157600080fd5b5061056f611230366004612f52565b6124e0565b34801561124157600080fd5b5061056f611250366004612eef565b612529565b34801561126157600080fd5b506104f16000805160206132ff83398151915281565b34801561128357600080fd5b50611068611292366004612eef565b612570565b3480156112a357600080fd5b506104f160008051602061333f83398151915281565b3480156112c557600080fd5b506104f17fa5495b55db4a16d67920c831291cb521e7d2e42866df23674e9d512cbe24d91581565b3480156112f957600080fd5b506104f17f04f7b94450bbcad85f37ea47cd1062728f884bb2040e357738f8fd53056134bc81565b34801561132d57600080fd5b5061119161258d565b34801561134257600080fd5b506104f1611351366004612eef565b60009081526001602052604090205490565b34801561136f57600080fd5b506104f17fdefa546c11b044f1166f68848d05922f56215584ecaaf1f134abd7253991e49c81565b3480156113a357600080fd5b5061056f6113b2366004612f52565b6125f3565b3480156113c357600080fd5b5061056f6113d2366004612eef565b612636565b3480156113e357600080fd5b5061056f6113f2366004612daf565b61267d565b34801561140357600080fd5b5061056f611412366004612eef565b612715565b34801561142357600080fd5b5061056f611432366004612eef565b61275c565b905090565b336114456127a3565b6001600160a01b0316146114745760405162461bcd60e51b815260040161146b9061315c565b60405180910390fd5b6127108183611483868861320d565b61148d919061320d565b611497919061320d565b146114e45760405162461bcd60e51b815260206004820152601e60248201527f57726f6e6720726577617264206469737472756274696f6e20726174696f0000604482015260640161146b565b61150e7fa5495b55db4a16d67920c831291cb521e7d2e42866df23674e9d512cbe24d915856127c3565b6115387f8e6c2112cf42a3c3439bb3778561081e8f613478ae194d83342262c47476aa63846127c3565b6115627f9c50bf546a3eb3ddc62018a4800f49d81aad4ea32c0be59072d1ad5ca5cacaad836127c3565b61158c7f9251c159f02011bbf45dee7be257fcbb2aecba050ea7ce7c9f8561b82858d6e0826127c3565b50505050565b3361159b6127a3565b6001600160a01b0316146115c15760405162461bcd60e51b815260040161146b9061315c565b6115cf611412826020015190565b50565b336115db6127a3565b6001600160a01b0316146116015760405162461bcd60e51b815260040161146b9061315c565b6115cf6113d2826020015190565b336116186127a3565b6001600160a01b03161461163e5760405162461bcd60e51b815260040161146b9061315c565b6115cf6110b4826020015190565b336116556127a3565b6001600160a01b03161461167b5760405162461bcd60e51b815260040161146b9061315c565b6116a57f1d36f8ce53f59e624857e1d8dc7932d19981a2ea1b8faa4eb8ff843fc3e5a278846127c3565b6116cf7fdefa546c11b044f1166f68848d05922f56215584ecaaf1f134abd7253991e49c836127c3565b6116f97f6d0d53fb98dc9bce1459687cbe14a4d9d9314793382025604e41d0832dabfab2826127c3565b505050565b336117076127a3565b6001600160a01b03161461172d5760405162461bcd60e51b815260040161146b9061315c565b6115cf6000805160206133bf833981519152826127c3565b3361174e6127a3565b6001600160a01b0316146117745760405162461bcd60e51b815260040161146b9061315c565b6115cf611432826020015190565b3361178b6127a3565b6001600160a01b0316146117b15760405162461bcd60e51b815260040161146b9061315c565b6115cf60008051602061337f833981519152826127c3565b336117d26127a3565b6001600160a01b0316146117f85760405162461bcd60e51b815260040161146b9061315c565b6115cf60008051602061333f833981519152826127c3565b306001600160a01b037f00000000000000000000000000000000000000000000000000000000000000001614156118595760405162461bcd60e51b815260040161146b906130c4565b7f00000000000000000000000000000000000000000000000000000000000000006001600160a01b03166118a26000805160206133df833981519152546001600160a01b031690565b6001600160a01b0316146118c85760405162461bcd60e51b815260040161146b90613110565b6118d181612812565b604080516000808252602082019092526115cf91839190612841565b336118f66127a3565b6001600160a01b03161461191c5760405162461bcd60e51b815260040161146b9061315c565b6115cf61088b826020015190565b336119336127a3565b6001600160a01b0316146119595760405162461bcd60e51b815260040161146b9061315c565b6115cf610e3d826020015190565b336119706127a3565b6001600160a01b0316146119965760405162461bcd60e51b815260040161146b9061315c565b6115cf6108cc826020015190565b336119ad6127a3565b6001600160a01b0316146119d35760405162461bcd60e51b815260040161146b9061315c565b602081015160408201516116f98282612409565b306001600160a01b037f0000000000000000000000000000000000000000000000000000000000000000161415611a305760405162461bcd60e51b815260040161146b906130c4565b7f00000000000000000000000000000000000000000000000000000000000000006001600160a01b0316611a796000805160206133df833981519152546001600160a01b031690565b6001600160a01b031614611a9f5760405162461bcd60e51b815260040161146b90613110565b611aa882612812565b611ab482826001612841565b5050565b6000306001600160a01b037f00000000000000000000000000000000000000000000000000000000000000001614611b585760405162461bcd60e51b815260206004820152603860248201527f555550535570677261646561626c653a206d757374206e6f742062652063616c60448201527f6c6564207468726f7567682064656c656761746563616c6c0000000000000000606482015260840161146b565b506000805160206133df83398151915290565b6007546001600160a01b03163314611b955760405162461bcd60e51b815260040161146b90613183565b60005b81518110156116f9576000611bd2848381518110611bb857611bb86132bd565b602002602001015160009081526002602052604090205490565b9050828281518110611be657611be66132bd565b60200260200101516000141580611bfc57508015155b611c3b5760405162461bcd60e51b815260206004820152601060248201526f696e76616c6964207661726961626c6560801b604482015260640161146b565b80611c7c57611c7c848381518110611c5557611c556132bd565b6020026020010151848481518110611c6f57611c6f6132bd565b60200260200101516127c3565b5080611c878161328c565b915050611b98565b33611c986127a3565b6001600160a01b031614611cbe5760405162461bcd60e51b815260040161146b9061315c565b6115cf611250826020015190565b6007546001600160a01b03163314611cf65760405162461bcd60e51b815260040161146b90613183565b611d0060006129bb565b565b33611d0b6127a3565b6001600160a01b031614611d315760405162461bcd60e51b815260040161146b9061315c565b6115cf61084b826020015190565b33611d486127a3565b6001600160a01b031614611d6e5760405162461bcd60e51b815260040161146b9061315c565b6115cf600080516020613446833981519152826127c3565b33611d8f6127a3565b6001600160a01b031614611db55760405162461bcd60e51b815260040161146b9061315c565b6115cf60008051602061335f833981519152826127c3565b600080516020613446833981519152821415611dec57611ab48161192a565b7fe10074dceffb75f13bf0ce50145afd35182d63796823f1280ce40e01c19109e7821415611e1d57611ab4816119a4565b7f6c6f69f426081752a5d3e73746599acd2a4cb145d5de4203ca1e3473b281680b821415611e4e57611ab4816125f3565b6000805160206133ff833981519152821415611e6d57611ab481611c8f565b60008051602061331f833981519152821415611e8c57611ab481611592565b60008051602061333f833981519152821415611eab57611ab481611967565b60008051602061337f833981519152821415611eca57611ab4816118ed565b60008051602061339f833981519152821415611ee957611ab4816115d2565b7f3a9129cf69b4fa0fbe5d48e0d50863014e21ae09ffabcd72cebe10b1835251b9821415611f1a57611ab481611f4b565b7f04f7b94450bbcad85f37ea47cd1062728f884bb2040e357738f8fd53056134bc821415611ab457611ab4816124e0565b33611f546127a3565b6001600160a01b031614611f7a5760405162461bcd60e51b815260040161146b9061315c565b6020810151604082015160608301516080840151611f9a8484848461143c565b5050505050565b33611faa6127a3565b6001600160a01b031614611fd05760405162461bcd60e51b815260040161146b9061315c565b808211156120465760405162461bcd60e51b815260206004820152603e60248201527f4d696e696d756d207374616b696e67206d75737420626520736d616c6c65722060448201527f616e6420657175616c207468616e206d6178696d756d207374616b696e670000606482015260840161146b565b61205e6000805160206133bf833981519152836127c3565b611ab46000805160206132ff833981519152826127c3565b60007f3a9129cf69b4fa0fbe5d48e0d50863014e21ae09ffabcd72cebe10b1835251b983141561210257600080600080858060200190518101906120ba9190613033565b9350935093509350612710818385876120d3919061320d565b6120dd919061320d565b6120e7919061320d565b146120f95760009450505050506121d1565b505050506121cd565b7f6c6f69f426081752a5d3e73746599acd2a4cb145d5de4203ca1e3473b281680b83148061214f57507fe10074dceffb75f13bf0ce50145afd35182d63796823f1280ce40e01c19109e783145b15612189576000808380602001905181019061216b9190612fb1565b9150915080821115612182576000925050506121d1565b50506121cd565b60008051602061333f8339815191528314156121cd576000828060200190518101906121b59190612f08565b90506103e88110156121cb5760009150506121d1565b505b5060015b92915050565b60008181526003602052604090208054606091906121f490613251565b80601f016020809104026020016040519081016040528092919081815260200182805461222090613251565b801561226d5780601f106122425761010080835404028352916020019161226d565b820191906000526020600020905b81548152906001019060200180831161225057829003601f168201915b50505050509050919050565b336122826127a3565b6001600160a01b0316146122a85760405162461bcd60e51b815260040161146b9061315c565b6115cf600080516020613466833981519152826127c3565b336122c96127a3565b6001600160a01b0316146122ef5760405162461bcd60e51b815260040161146b9061315c565b6115cf610eb2826020015190565b6007546001600160a01b031633146123275760405162461bcd60e51b815260040161146b90613183565b6001600160a01b03811661237d5760405162461bcd60e51b815260206004820152601a60248201527f416464726573732073686f756c64206265206e6f6e2d7a65726f000000000000604482015260640161146b565b600880546001600160a01b0319166001600160a01b0392909216919091179055565b60026020527fd7a437163435b79030132855d9146a10e26570f1767311219983e0c430cfa690546000805160206132ff83398151915260009081527f673c817b54d53459fa437d6b11ba6445e517d8dc789e6b815675ff10e6aeeb5d54909182915b915091509091565b336124126127a3565b6001600160a01b0316146124385760405162461bcd60e51b815260040161146b9061315c565b808211156124b0576040805162461bcd60e51b81526020600482015260248101919091527f4d696e696d756d206475726174696f6e206d75737420626520736d616c6c657260448201527f20616e6420657175616c207468616e206d6178696d756d206475726174696f6e606482015260840161146b565b6124c8600080516020613466833981519152836127c3565b611ab460008051602061335f833981519152826127c3565b336124e96127a3565b6001600160a01b03161461250f5760405162461bcd60e51b815260040161146b9061315c565b60208101516040820151606083015161158c83838361164c565b336125326127a3565b6001600160a01b0316146125585760405162461bcd60e51b815260040161146b9061315c565b6115cf6000805160206133ff833981519152826127c3565b60008181526005602052604090208054606091906121f490613251565b60026020527f8e8c0bef3b4557d74ba01e0433728c574990153e35cacae69cb26f23a8a401755460008051602061335f83398151915260009081527f5a1993193b8890c75d83157b2c2c12b144545357ab60021d7429856434de051b5490918291612401565b336125fc6127a3565b6001600160a01b0316146126225760405162461bcd60e51b815260040161146b9061315c565b602081015160408201516116f98282611fa1565b3361263f6127a3565b6001600160a01b0316146126655760405162461bcd60e51b815260040161146b9061315c565b6115cf60008051602061339f833981519152826127c3565b6007546001600160a01b031633146126a75760405162461bcd60e51b815260040161146b90613183565b6001600160a01b03811661270c5760405162461bcd60e51b815260206004820152602660248201527f4f776e61626c653a206e6577206f776e657220697320746865207a65726f206160448201526564647265737360d01b606482015260840161146b565b6115cf816129bb565b3361271e6127a3565b6001600160a01b0316146127445760405162461bcd60e51b815260040161146b9061315c565b6115cf60008051602061331f833981519152826127c3565b336127656127a3565b6001600160a01b03161461278b5760405162461bcd60e51b815260040161146b9061315c565b6115cf6000805160206132ff833981519152826127c3565b60006114377111dbdd995c9b985b98d950dbdb9d1c9858dd60721b612a0d565b6000828152600260205260409020819055817f58d7c10adfd5778016889c15d422d57f2975b9292415b54fe5d8cd42412006128260405161280691815260200190565b60405180910390a25050565b3361281b6127a3565b6001600160a01b0316146115cf5760405162461bcd60e51b815260040161146b9061315c565b7f4910fdfa16fed3260ed0e7147f7cc6da11a60208b5b9406d12a635614ffd91435460ff1615612874576116f983612a8a565b826001600160a01b03166352d1902d6040518163ffffffff1660e01b815260040160206040518083038186803b1580156128ad57600080fd5b505afa9250505080156128dd575060408051601f3d908101601f191682019092526128da91810190612f08565b60015b6129405760405162461bcd60e51b815260206004820152602e60248201527f45524331393637557067726164653a206e657720696d706c656d656e7461746960448201526d6f6e206973206e6f74205555505360901b606482015260840161146b565b6000805160206133df83398151915281146129af5760405162461bcd60e51b815260206004820152602960248201527f45524331393637557067726164653a20756e737570706f727465642070726f786044820152681a58589b195555525160ba1b606482015260840161146b565b506116f9838383612b26565b600780546001600160a01b038381166001600160a01b0319831681179093556040519116919082907f8be0079c531659141344cd1fd0a4f28419497f9722a3daafe3b4186f6b6457e090600090a35050565b600854604051630d2020dd60e01b8152600481018390526000916001600160a01b031690630d2020dd9060240160206040518083038186803b158015612a5257600080fd5b505afa158015612a66573d6000803e3d6000fd5b505050506040513d601f19601f820116820180604052508101906121d19190612dcc565b6001600160a01b0381163b612af75760405162461bcd60e51b815260206004820152602d60248201527f455243313936373a206e657720696d706c656d656e746174696f6e206973206e60448201526c1bdd08184818dbdb9d1c9858dd609a1b606482015260840161146b565b6000805160206133df83398151915280546001600160a01b0319166001600160a01b0392909216919091179055565b612b2f83612b4b565b600082511180612b3c5750805b156116f95761158c8383612b8b565b612b5481612a8a565b6040516001600160a01b038216907fbc7cd75a20ee27fd9adebab32041f755214dbc6bffa90cc0225b39da2e5c2d3b90600090a250565b6060612bb0838360405180606001604052806027815260200161341f60279139612bb7565b9392505050565b60606001600160a01b0384163b612c1f5760405162461bcd60e51b815260206004820152602660248201527f416464726573733a2064656c65676174652063616c6c20746f206e6f6e2d636f6044820152651b9d1c9858dd60d21b606482015260840161146b565b600080856001600160a01b031685604051612c3a9190613095565b600060405180830381855af49150503d8060008114612c75576040519150601f19603f3d011682016040523d82523d6000602084013e612c7a565b606091505b5091509150612c8a828286612c94565b9695505050505050565b60608315612ca3575081612bb0565b825115612cb35782518084602001fd5b8160405162461bcd60e51b815260040161146b91906130b1565b600082601f830112612cde57600080fd5b81356020612cf3612cee836131e9565b6131b8565b80838252828201915082860187848660051b8901011115612d1357600080fd5b60005b85811015612d3257813584529284019290840190600101612d16565b5090979650505050505050565b600082601f830112612d5057600080fd5b813567ffffffffffffffff811115612d6a57612d6a6132d3565b612d7d601f8201601f19166020016131b8565b818152846020838601011115612d9257600080fd5b816020850160208301376000918101602001919091529392505050565b600060208284031215612dc157600080fd5b8135612bb0816132e9565b600060208284031215612dde57600080fd5b8151612bb0816132e9565b60008060408385031215612dfc57600080fd5b8235612e07816132e9565b9150602083013567ffffffffffffffff811115612e2357600080fd5b612e2f85828601612d3f565b9150509250929050565b60008060408385031215612e4c57600080fd5b823567ffffffffffffffff80821115612e6457600080fd5b818501915085601f830112612e7857600080fd5b81356020612e88612cee836131e9565b8083825282820191508286018a848660051b8901011115612ea857600080fd5b600096505b84871015612ecb578035835260019690960195918301918301612ead565b5096505086013592505080821115612ee257600080fd5b50612e2f85828601612ccd565b600060208284031215612f0157600080fd5b5035919050565b600060208284031215612f1a57600080fd5b5051919050565b60008060408385031215612f3457600080fd5b82359150602083013567ffffffffffffffff811115612e2357600080fd5b600060208284031215612f6457600080fd5b813567ffffffffffffffff811115612f7b57600080fd5b612f8784828501612d3f565b949350505050565b60008060408385031215612fa257600080fd5b50508035926020909101359150565b60008060408385031215612fc457600080fd5b505080516020909101519092909150565b600080600060608486031215612fea57600080fd5b505081359360208301359350604090920135919050565b6000806000806080858703121561301757600080fd5b5050823594602084013594506040840135936060013592509050565b6000806000806080858703121561304957600080fd5b505082516020840151604085015160609095015191969095509092509050565b60008151808452613081816020860160208601613225565b601f01601f19169290920160200192915050565b600082516130a7818460208701613225565b9190910192915050565b602081526000612bb06020830184613069565b6020808252602c908201527f46756e6374696f6e206d7573742062652063616c6c6564207468726f7567682060408201526b19195b1959d85d1958d85b1b60a21b606082015260800190565b6020808252602c908201527f46756e6374696f6e206d7573742062652063616c6c6564207468726f7567682060408201526b6163746976652070726f787960a01b606082015260800190565b6020808252600d908201526c2737902832b936b4b9b9b4b7b760991b604082015260600190565b6020808252818101527f4f776e61626c653a2063616c6c6572206973206e6f7420746865206f776e6572604082015260600190565b604051601f8201601f1916810167ffffffffffffffff811182821017156131e1576131e16132d3565b604052919050565b600067ffffffffffffffff821115613203576132036132d3565b5060051b60200190565b60008219821115613220576132206132a7565b500190565b60005b83811015613240578181015183820152602001613228565b8381111561158c5750506000910152565b600181811c9082168061326557607f821691505b6020821081141561328657634e487b7160e01b600052602260045260246000fd5b50919050565b60006000198214156132a0576132a06132a7565b5060010190565b634e487b7160e01b600052601160045260246000fd5b634e487b7160e01b600052603260045260246000fd5b634e487b7160e01b600052604160045260246000fd5b6001600160a01b03811681146115cf57600080fdfe18ad4415ef4a621ce1a136395c51ab6c3712bb2e24b79d526059925cea58dcb8829561ab7af084b7efc6600518d2df79b8d95f3f4c3a550f54f8f7ec7d2b80578086da5becff4dfac91a3105821b361078d2d4abba0ccc2401b974cf0dcf05c10c4fbe9dc9de15dd7c0d064975ee1a2f2f9b954fa0e65d4f6cddba94884bdc3e89dd490ecaf395283ed4ff2fd9557ca767fc425dce063451a9b0da6d72f600c3be90e461bbdb9a95a694f7796912ea04244caf7f5b60ad7ded17e16821d3e44c0b09c9badbbeb6c813a598ee910770a39ccda797a1940439bb6e47fc6c87548b360894a13ba1a3210667c828492db98dca3e2076cc3735a920a3ca505d382bbc55b3774520b5993024893d303890baa4e84b1244a43c60034d1ced2d3cf2b04b416464726573733a206c6f772d6c6576656c2064656c65676174652063616c6c206661696c65642a268972a70c8c688b62366bdfdd9bb09cf19d3e5b6e7e7bb158e671ffdcedd2c69fc6b7d0efc934fd5a3581c7253a7107a952526bb6dbcd814ef8d8dae1f44aa264697066735822122003afac6ba3beeb0ca31683bc9ecbef3214aaa11f811eb1582651f78120a86c4064736f6c63430008060033",
  "linkReferences": {},
  "deployedLinkReferences": {}
}