{
  "_format": "hh-sol-artifact-1",
  "contractName": "EnvStorage",
  "sourceName": "contracts/storage/EnvStorage.sol",
  "abi": [
    {
      "inputs": [
        {
          "internalType": "address",
          "name": "_registry",
          "type": "address"
        },
        {
          "internalType": "address",
          "name": "_implementation",
          "type": "address"
        }
      ],
      "stateMutability": "nonpayable",
      "type": "constructor"
    },
    {
      "anonymous": false,
      "inputs": [
        {
          "indexed": true,
          "internalType": "bytes32",
          "name": "_name",
          "type": "bytes32"
        },
        {
          "indexed": false,
          "internalType": "address",
          "name": "_value",
          "type": "address"
        }
      ],
      "name": "AddressVarableChanged",
      "type": "event"
    },
    {
      "anonymous": false,
      "inputs": [
        {
          "indexed": false,
          "internalType": "address",
          "name": "previousAdmin",
          "type": "address"
        },
        {
          "indexed": false,
          "internalType": "address",
          "name": "newAdmin",
          "type": "address"
        }
      ],
      "name": "AdminChanged",
      "type": "event"
    },
    {
      "anonymous": false,
      "inputs": [
        {
          "indexed": true,
          "internalType": "address",
          "name": "beacon",
          "type": "address"
        }
      ],
      "name": "BeaconUpgraded",
      "type": "event"
    },
    {
      "anonymous": false,
      "inputs": [
        {
          "indexed": true,
          "internalType": "bytes32",
          "name": "_name",
          "type": "bytes32"
        },
        {
          "indexed": false,
          "internalType": "bytes32",
          "name": "_value",
          "type": "bytes32"
        }
      ],
      "name": "Bytes32VarableChanged",
      "type": "event"
    },
    {
      "anonymous": false,
      "inputs": [
        {
          "indexed": true,
          "internalType": "bytes32",
          "name": "_name",
          "type": "bytes32"
        },
        {
          "indexed": false,
          "internalType": "bytes",
          "name": "_value",
          "type": "bytes"
        }
      ],
      "name": "BytesVarableChanged",
      "type": "event"
    },
    {
      "anonymous": false,
      "inputs": [
        {
          "indexed": true,
          "internalType": "bytes32",
          "name": "_name",
          "type": "bytes32"
        },
        {
          "indexed": false,
          "internalType": "int256",
          "name": "_value",
          "type": "int256"
        }
      ],
      "name": "IntVarableChanged",
      "type": "event"
    },
    {
      "anonymous": false,
      "inputs": [
        {
          "indexed": true,
          "internalType": "address",
          "name": "previousOwner",
          "type": "address"
        },
        {
          "indexed": true,
          "internalType": "address",
          "name": "newOwner",
          "type": "address"
        }
      ],
      "name": "OwnershipTransferred",
      "type": "event"
    },
    {
      "anonymous": false,
      "inputs": [
        {
          "indexed": true,
          "internalType": "bytes32",
          "name": "_name",
          "type": "bytes32"
        },
        {
          "indexed": false,
          "internalType": "string",
          "name": "_value",
          "type": "string"
        }
      ],
      "name": "StringVarableChanged",
      "type": "event"
    },
    {
      "anonymous": false,
      "inputs": [
        {
          "indexed": true,
          "internalType": "bytes32",
          "name": "_name",
          "type": "bytes32"
        },
        {
          "indexed": false,
          "internalType": "uint256",
          "name": "_value",
          "type": "uint256"
        }
      ],
      "name": "UintVarableChanged",
      "type": "event"
    },
    {
      "anonymous": false,
      "inputs": [
        {
          "indexed": true,
          "internalType": "address",
          "name": "implementation",
          "type": "address"
        }
      ],
      "name": "Upgraded",
      "type": "event"
    },
    {
      "anonymous": false,
      "inputs": [
        {
          "indexed": true,
          "internalType": "bytes32",
          "name": "_name",
          "type": "bytes32"
        },
        {
          "indexed": true,
          "internalType": "uint256",
          "name": "_type",
          "type": "uint256"
        },
        {
          "indexed": false,
          "internalType": "string",
          "name": "_value",
          "type": "string"
        }
      ],
      "name": "VarableChanged",
      "type": "event"
    },
    {
      "stateMutability": "payable",
      "type": "fallback"
    },
    {
      "inputs": [],
      "name": "BALLOT_STORAGE_NAME",
      "outputs": [
        {
          "internalType": "bytes32",
          "name": "",
          "type": "bytes32"
        }
      ],
      "stateMutability": "view",
      "type": "function"
    },
    {
      "inputs": [],
      "name": "ENV_STORAGE_NAME",
      "outputs": [
        {
          "internalType": "bytes32",
          "name": "",
          "type": "bytes32"
        }
      ],
      "stateMutability": "view",
      "type": "function"
    },
    {
      "inputs": [],
      "name": "GOV_NAME",
      "outputs": [
        {
          "internalType": "bytes32",
          "name": "",
          "type": "bytes32"
        }
      ],
      "stateMutability": "view",
      "type": "function"
    },
    {
      "inputs": [],
      "name": "MAINTENANCE_NAME",
      "outputs": [
        {
          "internalType": "bytes32",
          "name": "",
          "type": "bytes32"
        }
      ],
      "stateMutability": "view",
      "type": "function"
    },
    {
      "inputs": [],
      "name": "REWARD_POOL_NAME",
      "outputs": [
        {
          "internalType": "bytes32",
          "name": "",
          "type": "bytes32"
        }
      ],
      "stateMutability": "view",
      "type": "function"
    },
    {
      "inputs": [],
      "name": "STAKING_NAME",
      "outputs": [
        {
          "internalType": "bytes32",
          "name": "",
          "type": "bytes32"
        }
      ],
      "stateMutability": "view",
      "type": "function"
    },
    {
      "inputs": [
        {
          "internalType": "bytes32",
          "name": "h",
          "type": "bytes32"
        }
      ],
      "name": "getAddress",
      "outputs": [
        {
          "internalType": "address",
          "name": "",
          "type": "address"
        }
      ],
      "stateMutability": "view",
      "type": "function"
    },
    {
      "inputs": [
        {
          "internalType": "bytes32",
          "name": "h",
          "type": "bytes32"
        }
      ],
      "name": "getBoolean",
      "outputs": [
        {
          "internalType": "bool",
          "name": "",
          "type": "bool"
        }
      ],
      "stateMutability": "view",
      "type": "function"
    },
    {
      "inputs": [
        {
          "internalType": "bytes32",
          "name": "h",
          "type": "bytes32"
        }
      ],
      "name": "getBytes",
      "outputs": [
        {
          "internalType": "bytes",
          "name": "",
          "type": "bytes"
        }
      ],
      "stateMutability": "view",
      "type": "function"
    },
    {
      "inputs": [
        {
          "internalType": "bytes32",
          "name": "h",
          "type": "bytes32"
        }
      ],
      "name": "getBytes32",
      "outputs": [
        {
          "internalType": "bytes32",
          "name": "",
          "type": "bytes32"
        }
      ],
      "stateMutability": "view",
      "type": "function"
    },
    {
      "inputs": [
        {
          "internalType": "bytes32",
          "name": "h",
          "type": "bytes32"
        }
      ],
      "name": "getInt",
      "outputs": [
        {
          "internalType": "int256",
          "name": "",
          "type": "int256"
        }
      ],
      "stateMutability": "view",
      "type": "function"
    },
    {
      "inputs": [
        {
          "internalType": "bytes32",
          "name": "h",
          "type": "bytes32"
        }
      ],
      "name": "getString",
      "outputs": [
        {
          "internalType": "string",
          "name": "",
          "type": "string"
        }
      ],
      "stateMutability": "view",
      "type": "function"
    },
    {
      "inputs": [
        {
          "internalType": "bytes32",
          "name": "h",
          "type": "bytes32"
        }
      ],
      "name": "getUint",
      "outputs": [
        {
          "internalType": "uint256",
          "name": "",
          "type": "uint256"
        }
      ],
      "stateMutability": "view",
      "type": "function"
    },
    {
      "inputs": [],
      "name": "implementation",
      "outputs": [
        {
          "internalType": "address",
          "name": "",
          "type": "address"
        }
      ],
      "stateMutability": "view",
      "type": "function"
    },
    {
      "inputs": [],
      "name": "owner",
      "outputs": [
        {
          "internalType": "address",
          "name": "",
          "type": "address"
        }
      ],
      "stateMutability": "view",
      "type": "function"
    },
    {
      "inputs": [],
      "name": "reg",
      "outputs": [
        {
          "internalType": "contract IRegistry",
          "name": "",
          "type": "address"
        }
      ],
      "stateMutability": "view",
      "type": "function"
    },
    {
      "inputs": [],
      "name": "renounceOwnership",
      "outputs": [],
      "stateMutability": "nonpayable",
      "type": "function"
    },
    {
      "inputs": [
        {
          "internalType": "address",
          "name": "_addr",
          "type": "address"
        }
      ],
      "name": "setRegistry",
      "outputs": [],
      "stateMutability": "nonpayable",
      "type": "function"
    },
    {
      "inputs": [
        {
          "internalType": "address",
          "name": "newOwner",
          "type": "address"
        }
      ],
      "name": "transferOwnership",
      "outputs": [],
      "stateMutability": "nonpayable",
      "type": "function"
    },
    {
      "inputs": [
        {
          "internalType": "address",
          "name": "newImplementation",
          "type": "address"
        }
      ],
      "name": "upgradeTo",
      "outputs": [],
      "stateMutability": "nonpayable",
      "type": "function"
    },
    {
      "stateMutability": "payable",
      "type": "receive"
    }
  ],
  "bytecode": "0x60806040523480156200001157600080fd5b50604051620014c2380380620014c283398101604081905262000034916200052c565b60408051602081019091526000815281906200007260017f360894a13ba1a3210667c828492db98dca3e2076cc3735a920a3ca505d382bbd620005b7565b6000805160206200147b833981519152146200009257620000926200060c565b620000a0828260006200013f565b50620000ae9050336200017c565b806001600160a01b0316826001600160a01b031614156200012c5760405162461bcd60e51b815260206004820152602d60248201527f72656769737472792073686f756c64206e6f742062652073616d65206173206960448201526c36b83632b6b2b73a30ba34b7b760991b60648201526084015b60405180910390fd5b6200013782620001ce565b505062000622565b6200014a83620002a4565b600082511180620001585750805b156200017757620001758383620002e660201b6200072a1760201c565b505b505050565b600780546001600160a01b038381166001600160a01b0319831681179093556040519116919082907f8be0079c531659141344cd1fd0a4f28419497f9722a3daafe3b4186f6b6457e090600090a35050565b6007546001600160a01b031633146200022a5760405162461bcd60e51b815260206004820181905260248201527f4f776e61626c653a2063616c6c6572206973206e6f7420746865206f776e6572604482015260640162000123565b6001600160a01b038116620002825760405162461bcd60e51b815260206004820152601a60248201527f416464726573732073686f756c64206265206e6f6e2d7a65726f000000000000604482015260640162000123565b600880546001600160a01b0319166001600160a01b0392909216919091179055565b620002af8162000315565b6040516001600160a01b038216907fbc7cd75a20ee27fd9adebab32041f755214dbc6bffa90cc0225b39da2e5c2d3b90600090a250565b60606200030e83836040518060600160405280602781526020016200149b60279139620003d9565b9392505050565b6200032b81620004bf60201b620007561760201c565b6200038f5760405162461bcd60e51b815260206004820152602d60248201527f455243313936373a206e657720696d706c656d656e746174696f6e206973206e60448201526c1bdd08184818dbdb9d1c9858dd609a1b606482015260840162000123565b80620003b86000805160206200147b83398151915260001b620004ce60201b620007651760201c565b80546001600160a01b0319166001600160a01b039290921691909117905550565b60606001600160a01b0384163b620004435760405162461bcd60e51b815260206004820152602660248201527f416464726573733a2064656c65676174652063616c6c20746f206e6f6e2d636f6044820152651b9d1c9858dd60d21b606482015260840162000123565b600080856001600160a01b03168560405162000460919062000564565b600060405180830381855af49150503d80600081146200049d576040519150601f19603f3d011682016040523d82523d6000602084013e620004a2565b606091505b509092509050620004b5828286620004d1565b9695505050505050565b6001600160a01b03163b151590565b90565b60608315620004e25750816200030e565b825115620004f35782518084602001fd5b8160405162461bcd60e51b815260040162000123919062000582565b80516001600160a01b03811681146200052757600080fd5b919050565b600080604083850312156200054057600080fd5b6200054b836200050f565b91506200055b602084016200050f565b90509250929050565b6000825162000578818460208701620005dd565b9190910192915050565b6020815260008251806020840152620005a3816040850160208701620005dd565b601f01601f19169190910160400192915050565b600082821015620005d857634e487b7160e01b600052601160045260246000fd5b500390565b60005b83811015620005fa578181015183820152602001620005e0565b83811115620001755750506000910152565b634e487b7160e01b600052600160045260246000fd5b610e4980620006326000396000f3fe6080604052600436106101235760003560e01c80637bf46530116100a0578063a91ee0dc11610064578063a91ee0dc1461038c578063bd02d0f5146103ac578063c031a180146103d9578063dc97d962146103f9578063f2fde38b1461042657610132565b80637bf46530146102cf5780638da5cb5b146102f0578063986e791a1461030e5780639986e4b91461033b578063a6ed563e1461035f57610132565b80634bd1ed76116100e75780634bd1ed761461023a5780635c60da1b1461025c5780636c78d2cf14610271578063715018a61461029a578063738fdd1a146102af57610132565b80631e0cba0d1461013a57806321f8a7211461016b5780632f40992e146101b95780633659cfe6146101da5780633848207a146101fa57610132565b3661013257610130610446565b005b610130610446565b34801561014657600080fd5b50610158665374616b696e6760c81b81565b6040519081526020015b60405180910390f35b34801561017757600080fd5b506101a1610186366004610cae565b6000908152600460205260409020546001600160a01b031690565b6040516001600160a01b039091168152602001610162565b3480156101c557600080fd5b506101586914995dd85c99141bdbdb60b21b81565b3480156101e657600080fd5b506101306101f5366004610c74565b610458565b34801561020657600080fd5b5061022a610215366004610cae565b60009081526020819052604090205460ff1690565b6040519015158152602001610162565b34801561024657600080fd5b506101586a4d61696e74656e616e636560a81b81565b34801561026857600080fd5b506101a16104ee565b34801561027d57600080fd5b506101587111dbdd995c9b985b98d950dbdb9d1c9858dd60721b81565b3480156102a657600080fd5b506101306104fd565b3480156102bb57600080fd5b506008546101a1906001600160a01b031681565b3480156102db57600080fd5b5061015869456e7653746f7261676560b01b81565b3480156102fc57600080fd5b506007546001600160a01b03166101a1565b34801561031a57600080fd5b5061032e610329366004610cae565b610531565b6040516101629190610d28565b34801561034757600080fd5b506101586c42616c6c6f7453746f7261676560981b81565b34801561036b57600080fd5b5061015861037a366004610cae565b60009081526006602052604090205490565b34801561039857600080fd5b506101306103a7366004610c74565b6105d3565b3480156103b857600080fd5b506101586103c7366004610cae565b60009081526002602052604090205490565b3480156103e557600080fd5b5061032e6103f4366004610cae565b610675565b34801561040557600080fd5b50610158610414366004610cae565b60009081526001602052604090205490565b34801561043257600080fd5b50610130610441366004610c74565b610692565b610456610451610768565b61079b565b565b336104616107c4565b6001600160a01b0316148061048f5750336104846007546001600160a01b031690565b6001600160a01b0316145b6104d05760405162461bcd60e51b815260206004820152600d60248201526c2737902832b936b4b9b9b4b7b760991b60448201526064015b60405180910390fd5b6104eb816040518060200160405280600081525060006107e4565b50565b60006104f8610768565b905090565b6007546001600160a01b031633146105275760405162461bcd60e51b81526004016104c790610d3b565b6104566000610970565b600081815260036020526040902080546060919061054e90610d9c565b80601f016020809104026020016040519081016040528092919081815260200182805461057a90610d9c565b80156105c75780601f1061059c576101008083540402835291602001916105c7565b820191906000526020600020905b8154815290600101906020018083116105aa57829003601f168201915b50505050509050919050565b6007546001600160a01b031633146105fd5760405162461bcd60e51b81526004016104c790610d3b565b6001600160a01b0381166106535760405162461bcd60e51b815260206004820152601a60248201527f416464726573732073686f756c64206265206e6f6e2d7a65726f00000000000060448201526064016104c7565b600880546001600160a01b0319166001600160a01b0392909216919091179055565b600081815260056020526040902080546060919061054e90610d9c565b6007546001600160a01b031633146106bc5760405162461bcd60e51b81526004016104c790610d3b565b6001600160a01b0381166107215760405162461bcd60e51b815260206004820152602660248201527f4f776e61626c653a206e6577206f776e657220697320746865207a65726f206160448201526564647265737360d01b60648201526084016104c7565b6104eb81610970565b606061074f8383604051806060016040528060278152602001610ded602791396109c2565b9392505050565b6001600160a01b03163b151590565b90565b60006104f87f360894a13ba1a3210667c828492db98dca3e2076cc3735a920a3ca505d382bbc546001600160a01b031690565b3660008037600080366000845af43d6000803e8080156107ba573d6000f35b3d6000fd5b505050565b60006104f87111dbdd995c9b985b98d950dbdb9d1c9858dd60721b610a9f565b7f4910fdfa16fed3260ed0e7147f7cc6da11a60208b5b9406d12a635614ffd91435460ff1615610817576107bf83610b22565b826001600160a01b03166352d1902d6040518163ffffffff1660e01b815260040160206040518083038186803b15801561085057600080fd5b505afa925050508015610880575060408051601f3d908101601f1916820190925261087d91810190610cc7565b60015b6108e35760405162461bcd60e51b815260206004820152602e60248201527f45524331393637557067726164653a206e657720696d706c656d656e7461746960448201526d6f6e206973206e6f74205555505360901b60648201526084016104c7565b7f360894a13ba1a3210667c828492db98dca3e2076cc3735a920a3ca505d382bbc81146109645760405162461bcd60e51b815260206004820152602960248201527f45524331393637557067726164653a20756e737570706f727465642070726f786044820152681a58589b195555525160ba1b60648201526084016104c7565b506107bf838383610bd0565b600780546001600160a01b038381166001600160a01b0319831681179093556040519116919082907f8be0079c531659141344cd1fd0a4f28419497f9722a3daafe3b4186f6b6457e090600090a35050565b60606001600160a01b0384163b610a2a5760405162461bcd60e51b815260206004820152602660248201527f416464726573733a2064656c65676174652063616c6c20746f206e6f6e2d636f6044820152651b9d1c9858dd60d21b60648201526084016104c7565b600080856001600160a01b031685604051610a459190610d0c565b600060405180830381855af49150503d8060008114610a80576040519150601f19603f3d011682016040523d82523d6000602084013e610a85565b606091505b5091509150610a95828286610bfb565b9695505050505050565b600854604051630d2020dd60e01b8152600481018390526000916001600160a01b031690630d2020dd9060240160206040518083038186803b158015610ae457600080fd5b505afa158015610af8573d6000803e3d6000fd5b505050506040513d601f19601f82011682018060405250810190610b1c9190610c91565b92915050565b6001600160a01b0381163b610b8f5760405162461bcd60e51b815260206004820152602d60248201527f455243313936373a206e657720696d706c656d656e746174696f6e206973206e60448201526c1bdd08184818dbdb9d1c9858dd609a1b60648201526084016104c7565b7f360894a13ba1a3210667c828492db98dca3e2076cc3735a920a3ca505d382bbc80546001600160a01b0319166001600160a01b0392909216919091179055565b610bd983610c34565b600082511180610be65750805b156107bf57610bf5838361072a565b50505050565b60608315610c0a57508161074f565b825115610c1a5782518084602001fd5b8160405162461bcd60e51b81526004016104c79190610d28565b610c3d81610b22565b6040516001600160a01b038216907fbc7cd75a20ee27fd9adebab32041f755214dbc6bffa90cc0225b39da2e5c2d3b90600090a250565b600060208284031215610c8657600080fd5b813561074f81610dd7565b600060208284031215610ca357600080fd5b815161074f81610dd7565b600060208284031215610cc057600080fd5b5035919050565b600060208284031215610cd957600080fd5b5051919050565b60008151808452610cf8816020860160208601610d70565b601f01601f19169290920160200192915050565b60008251610d1e818460208701610d70565b9190910192915050565b60208152600061074f6020830184610ce0565b6020808252818101527f4f776e61626c653a2063616c6c6572206973206e6f7420746865206f776e6572604082015260600190565b60005b83811015610d8b578181015183820152602001610d73565b83811115610bf55750506000910152565b600181811c90821680610db057607f821691505b60208210811415610dd157634e487b7160e01b600052602260045260246000fd5b50919050565b6001600160a01b03811681146104eb57600080fdfe416464726573733a206c6f772d6c6576656c2064656c65676174652063616c6c206661696c6564a264697066735822122075091e861f801362a373ca3818504fab157affb6ae8d2bf98b1c5722f4be5bf964736f6c63430008060033360894a13ba1a3210667c828492db98dca3e2076cc3735a920a3ca505d382bbc416464726573733a206c6f772d6c6576656c2064656c65676174652063616c6c206661696c6564",
  "linkReferences": {},
  "deployedLinkReferences": {}
}