{
  "contractName": "EnvStorage",
  "abi": [
    {
      "constant": true,
      "inputs": [],
      "name": "STAKING_NAME",
      "outputs": [
        {
          "name": "",
          "type": "bytes32"
        }
      ],
      "payable": false,
      "stateMutability": "view",
      "type": "function"
    },
    {
      "constant": true,
      "inputs": [
        {
          "name": "h",
          "type": "bytes32"
        }
      ],
      "name": "getAddress",
      "outputs": [
        {
          "name": "",
          "type": "address"
        }
      ],
      "payable": false,
      "stateMutability": "view",
      "type": "function"
    },
    {
      "constant": true,
      "inputs": [],
      "name": "REWARD_POOL_NAME",
      "outputs": [
        {
          "name": "",
          "type": "bytes32"
        }
      ],
      "payable": false,
      "stateMutability": "view",
      "type": "function"
    },
    {
      "constant": true,
      "inputs": [
        {
          "name": "h",
          "type": "bytes32"
        }
      ],
      "name": "getBoolean",
      "outputs": [
        {
          "name": "",
          "type": "bool"
        }
      ],
      "payable": false,
      "stateMutability": "view",
      "type": "function"
    },
    {
      "constant": true,
      "inputs": [],
      "name": "implementation",
      "outputs": [
        {
          "name": "impl",
          "type": "address"
        }
      ],
      "payable": false,
      "stateMutability": "view",
      "type": "function"
    },
    {
      "constant": true,
      "inputs": [],
      "name": "GOV_NAME",
      "outputs": [
        {
          "name": "",
          "type": "bytes32"
        }
      ],
      "payable": false,
      "stateMutability": "view",
      "type": "function"
    },
    {
      "constant": false,
      "inputs": [],
      "name": "renounceOwnership",
      "outputs": [],
      "payable": false,
      "stateMutability": "nonpayable",
      "type": "function"
    },
    {
      "constant": true,
      "inputs": [],
      "name": "reg",
      "outputs": [
        {
          "name": "",
          "type": "address"
        }
      ],
      "payable": false,
      "stateMutability": "view",
      "type": "function"
    },
    {
      "constant": true,
      "inputs": [],
      "name": "ENV_STORAGE_NAME",
      "outputs": [
        {
          "name": "",
          "type": "bytes32"
        }
      ],
      "payable": false,
      "stateMutability": "view",
      "type": "function"
    },
    {
      "constant": true,
      "inputs": [],
      "name": "owner",
      "outputs": [
        {
          "name": "",
          "type": "address"
        }
      ],
      "payable": false,
      "stateMutability": "view",
      "type": "function"
    },
    {
      "constant": true,
      "inputs": [],
      "name": "isOwner",
      "outputs": [
        {
          "name": "",
          "type": "bool"
        }
      ],
      "payable": false,
      "stateMutability": "view",
      "type": "function"
    },
    {
      "constant": true,
      "inputs": [
        {
          "name": "h",
          "type": "bytes32"
        }
      ],
      "name": "getString",
      "outputs": [
        {
          "name": "",
          "type": "string"
        }
      ],
      "payable": false,
      "stateMutability": "view",
      "type": "function"
    },
    {
      "constant": true,
      "inputs": [],
      "name": "BALLOT_STORAGE_NAME",
      "outputs": [
        {
          "name": "",
          "type": "bytes32"
        }
      ],
      "payable": false,
      "stateMutability": "view",
      "type": "function"
    },
    {
      "constant": true,
      "inputs": [
        {
          "name": "h",
          "type": "bytes32"
        }
      ],
      "name": "getBytes32",
      "outputs": [
        {
          "name": "",
          "type": "bytes32"
        }
      ],
      "payable": false,
      "stateMutability": "view",
      "type": "function"
    },
    {
      "constant": false,
      "inputs": [
        {
          "name": "_addr",
          "type": "address"
        }
      ],
      "name": "setRegistry",
      "outputs": [],
      "payable": false,
      "stateMutability": "nonpayable",
      "type": "function"
    },
    {
      "constant": true,
      "inputs": [
        {
          "name": "h",
          "type": "bytes32"
        }
      ],
      "name": "getUint",
      "outputs": [
        {
          "name": "",
          "type": "uint256"
        }
      ],
      "payable": false,
      "stateMutability": "view",
      "type": "function"
    },
    {
      "constant": true,
      "inputs": [
        {
          "name": "h",
          "type": "bytes32"
        }
      ],
      "name": "getBytes",
      "outputs": [
        {
          "name": "",
          "type": "bytes"
        }
      ],
      "payable": false,
      "stateMutability": "view",
      "type": "function"
    },
    {
      "constant": true,
      "inputs": [
        {
          "name": "h",
          "type": "bytes32"
        }
      ],
      "name": "getInt",
      "outputs": [
        {
          "name": "",
          "type": "int256"
        }
      ],
      "payable": false,
      "stateMutability": "view",
      "type": "function"
    },
    {
      "constant": false,
      "inputs": [
        {
          "name": "newOwner",
          "type": "address"
        }
      ],
      "name": "transferOwnership",
      "outputs": [],
      "payable": false,
      "stateMutability": "nonpayable",
      "type": "function"
    },
    {
      "inputs": [
        {
          "name": "_registry",
          "type": "address"
        },
        {
          "name": "_implementation",
          "type": "address"
        }
      ],
      "payable": false,
      "stateMutability": "nonpayable",
      "type": "constructor"
    },
    {
      "payable": true,
      "stateMutability": "payable",
      "type": "fallback"
    },
    {
      "anonymous": false,
      "inputs": [
        {
          "indexed": true,
          "name": "_name",
          "type": "bytes32"
        },
        {
          "indexed": false,
          "name": "_value",
          "type": "string"
        }
      ],
      "name": "StringVarableChanged",
      "type": "event"
    },
    {
      "anonymous": false,
      "inputs": [
        {
          "indexed": true,
          "name": "_name",
          "type": "bytes32"
        },
        {
          "indexed": false,
          "name": "_value",
          "type": "uint256"
        }
      ],
      "name": "UintVarableChanged",
      "type": "event"
    },
    {
      "anonymous": false,
      "inputs": [
        {
          "indexed": true,
          "name": "_name",
          "type": "bytes32"
        },
        {
          "indexed": false,
          "name": "_value",
          "type": "int256"
        }
      ],
      "name": "IntVarableChanged",
      "type": "event"
    },
    {
      "anonymous": false,
      "inputs": [
        {
          "indexed": true,
          "name": "_name",
          "type": "bytes32"
        },
        {
          "indexed": false,
          "name": "_value",
          "type": "address"
        }
      ],
      "name": "AddressVarableChanged",
      "type": "event"
    },
    {
      "anonymous": false,
      "inputs": [
        {
          "indexed": true,
          "name": "_name",
          "type": "bytes32"
        },
        {
          "indexed": false,
          "name": "_value",
          "type": "bytes32"
        }
      ],
      "name": "Bytes32VarableChanged",
      "type": "event"
    },
    {
      "anonymous": false,
      "inputs": [
        {
          "indexed": true,
          "name": "_name",
          "type": "bytes32"
        },
        {
          "indexed": false,
          "name": "_value",
          "type": "bytes"
        }
      ],
      "name": "BytesVarableChanged",
      "type": "event"
    },
    {
      "anonymous": false,
      "inputs": [
        {
          "indexed": true,
          "name": "_name",
          "type": "bytes32"
        },
        {
          "indexed": true,
          "name": "_type",
          "type": "uint256"
        },
        {
          "indexed": false,
          "name": "_value",
          "type": "string"
        }
      ],
      "name": "VarableChanged",
      "type": "event"
    },
    {
      "anonymous": false,
      "inputs": [
        {
          "indexed": true,
          "name": "previousOwner",
          "type": "address"
        },
        {
          "indexed": true,
          "name": "newOwner",
          "type": "address"
        }
      ],
      "name": "OwnershipTransferred",
      "type": "event"
    },
    {
      "anonymous": false,
      "inputs": [
        {
          "indexed": true,
          "name": "implementation",
          "type": "address"
        }
      ],
      "name": "Upgraded",
      "type": "event"
    },
    {
      "constant": false,
      "inputs": [
        {
          "name": "newImplementation",
          "type": "address"
        }
      ],
      "name": "upgradeTo",
      "outputs": [],
      "payable": false,
      "stateMutability": "nonpayable",
      "type": "function"
    }
  ],
  "bytecode": "0x608060405234801561001057600080fd5b506040516040806114a6833981018060405281019080805190602001909291908051906020019092919050505033600760006101000a81548173ffffffffffffffffffffffffffffffffffffffff021916908373ffffffffffffffffffffffffffffffffffffffff160217905550600760009054906101000a900473ffffffffffffffffffffffffffffffffffffffff1673ffffffffffffffffffffffffffffffffffffffff16600073ffffffffffffffffffffffffffffffffffffffff167f8be0079c531659141344cd1fd0a4f28419497f9722a3daafe3b4186f6b6457e060405160405180910390a361011382610132640100000000026401000000009004565b61012b81610198640100000000026401000000009004565b5050610257565b6101496101ff640100000000026401000000009004565b151561015457600080fd5b80600860006101000a81548173ffffffffffffffffffffffffffffffffffffffff021916908373ffffffffffffffffffffffffffffffffffffffff16021790555050565b600060405180807f6f72672e6d6574616469756d2e70726f78792e696d706c656d656e746174696f81526020017f6e000000000000000000000000000000000000000000000000000000000000008152506021019050604051809103902090508181555050565b6000600760009054906101000a900473ffffffffffffffffffffffffffffffffffffffff1673ffffffffffffffffffffffffffffffffffffffff163373ffffffffffffffffffffffffffffffffffffffff1614905090565b611240806102666000396000f300608060405260043610610112576000357c0100000000000000000000000000000000000000000000000000000000900463ffffffff1680631e0cba0d1461018157806321f8a721146101b45780632f40992e146102255780633659cfe6146102585780633848207a1461029b5780635c60da1b146102e45780636c78d2cf1461033b578063715018a61461036e578063738fdd1a146103855780637bf46530146103dc5780638da5cb5b1461040f5780638f32d59b14610466578063986e791a146104955780639986e4b91461053f578063a6ed563e14610572578063a91ee0dc146105bf578063bd02d0f514610602578063c031a18014610647578063dc97d962146106f1578063f2fde38b14610736575b600061011c610779565b9050600073ffffffffffffffffffffffffffffffffffffffff168173ffffffffffffffffffffffffffffffffffffffff161415151561015a57600080fd5b60405136600082376000803683855af43d806000843e816000811461017d578184f35b8184fd5b34801561018d57600080fd5b506101966107e2565b60405180826000191660001916815260200191505060405180910390f35b3480156101c057600080fd5b506101e36004803603810190808035600019169060200190929190505050610806565b604051808273ffffffffffffffffffffffffffffffffffffffff1673ffffffffffffffffffffffffffffffffffffffff16815260200191505060405180910390f35b34801561023157600080fd5b5061023a61084d565b60405180826000191660001916815260200191505060405180910390f35b34801561026457600080fd5b50610299600480360381019080803573ffffffffffffffffffffffffffffffffffffffff169060200190929190505050610871565b005b3480156102a757600080fd5b506102ca6004803603810190808035600019169060200190929190505050610a86565b604051808215151515815260200191505060405180910390f35b3480156102f057600080fd5b506102f9610779565b604051808273ffffffffffffffffffffffffffffffffffffffff1673ffffffffffffffffffffffffffffffffffffffff16815260200191505060405180910390f35b34801561034757600080fd5b50610350610aba565b60405180826000191660001916815260200191505060405180910390f35b34801561037a57600080fd5b50610383610ade565b005b34801561039157600080fd5b5061039a610bb2565b604051808273ffffffffffffffffffffffffffffffffffffffff1673ffffffffffffffffffffffffffffffffffffffff16815260200191505060405180910390f35b3480156103e857600080fd5b506103f1610bd8565b60405180826000191660001916815260200191505060405180910390f35b34801561041b57600080fd5b50610424610bfc565b604051808273ffffffffffffffffffffffffffffffffffffffff1673ffffffffffffffffffffffffffffffffffffffff16815260200191505060405180910390f35b34801561047257600080fd5b5061047b610c26565b604051808215151515815260200191505060405180910390f35b3480156104a157600080fd5b506104c46004803603810190808035600019169060200190929190505050610c7e565b6040518080602001828103825283818151815260200191508051906020019080838360005b838110156105045780820151818401526020810190506104e9565b50505050905090810190601f1680156105315780820380516001836020036101000a031916815260200191505b509250505060405180910390f35b34801561054b57600080fd5b50610554610d3e565b60405180826000191660001916815260200191505060405180910390f35b34801561057e57600080fd5b506105a16004803603810190808035600019169060200190929190505050610d62565b60405180826000191660001916815260200191505060405180910390f35b3480156105cb57600080fd5b50610600600480360381019080803573ffffffffffffffffffffffffffffffffffffffff169060200190929190505050610d89565b005b34801561060e57600080fd5b506106316004803603810190808035600019169060200190929190505050610de0565b6040518082815260200191505060405180910390f35b34801561065357600080fd5b506106766004803603810190808035600019169060200190929190505050610e07565b6040518080602001828103825283818151815260200191508051906020019080838360005b838110156106b657808201518184015260208101905061069b565b50505050905090810190601f1680156106e35780820380516001836020036101000a031916815260200191505b509250505060405180910390f35b3480156106fd57600080fd5b506107206004803603810190808035600019169060200190929190505050610ec7565b6040518082815260200191505060405180910390f35b34801561074257600080fd5b50610777600480360381019080803573ffffffffffffffffffffffffffffffffffffffff169060200190929190505050610eee565b005b60008060405180807f6f72672e6d6574616469756d2e70726f78792e696d706c656d656e746174696f81526020017f6e00000000000000000000000000000000000000000000000000000000000000815250602101905060405180910390209050805491505090565b7f5374616b696e670000000000000000000000000000000000000000000000000081565b6000806004016000836000191660001916815260200190815260200160002060009054906101000a900473ffffffffffffffffffffffffffffffffffffffff169050919050565b7f526577617264506f6f6c0000000000000000000000000000000000000000000081565b3373ffffffffffffffffffffffffffffffffffffffff16610890610f0d565b73ffffffffffffffffffffffffffffffffffffffff1614806108b657506108b5610c26565b5b151561092a576040517f08c379a000000000000000000000000000000000000000000000000000000000815260040180806020018281038252600d8152602001807f4e6f205065726d697373696f6e0000000000000000000000000000000000000081525060200191505060405180910390fd5b600073ffffffffffffffffffffffffffffffffffffffff168173ffffffffffffffffffffffffffffffffffffffff16141515156109cf576040517f08c379a000000000000000000000000000000000000000000000000000000000815260040180806020018281038252601d8152602001807f496d706c656d656e746174696f6e2063616e6e6f74206265207a65726f00000081525060200191505060405180910390fd5b6109d7610779565b73ffffffffffffffffffffffffffffffffffffffff168173ffffffffffffffffffffffffffffffffffffffff1614151515610a7a576040517f08c379a00000000000000000000000000000000000000000000000000000000081526004018080602001828103825260158152602001807f53616d6520636f6e74726163742061646472657373000000000000000000000081525060200191505060405180910390fd5b610a8381610f3d565b50565b6000806000016000836000191660001916815260200190815260200160002060009054906101000a900460ff169050919050565b7f476f7665726e616e6365436f6e7472616374000000000000000000000000000081565b610ae6610c26565b1515610af157600080fd5b600073ffffffffffffffffffffffffffffffffffffffff16600760009054906101000a900473ffffffffffffffffffffffffffffffffffffffff1673ffffffffffffffffffffffffffffffffffffffff167f8be0079c531659141344cd1fd0a4f28419497f9722a3daafe3b4186f6b6457e060405160405180910390a36000600760006101000a81548173ffffffffffffffffffffffffffffffffffffffff021916908373ffffffffffffffffffffffffffffffffffffffff160217905550565b600860009054906101000a900473ffffffffffffffffffffffffffffffffffffffff1681565b7f456e7653746f726167650000000000000000000000000000000000000000000081565b6000600760009054906101000a900473ffffffffffffffffffffffffffffffffffffffff16905090565b6000600760009054906101000a900473ffffffffffffffffffffffffffffffffffffffff1673ffffffffffffffffffffffffffffffffffffffff163373ffffffffffffffffffffffffffffffffffffffff1614905090565b60606000600301600083600019166000191681526020019081526020016000208054600181600116156101000203166002900480601f016020809104026020016040519081016040528092919081815260200182805460018160011615610100020316600290048015610d325780601f10610d0757610100808354040283529160200191610d32565b820191906000526020600020905b815481529060010190602001808311610d1557829003601f168201915b50505050509050919050565b7f42616c6c6f7453746f726167650000000000000000000000000000000000000081565b60008060060160008360001916600019168152602001908152602001600020549050919050565b610d91610c26565b1515610d9c57600080fd5b80600860006101000a81548173ffffffffffffffffffffffffffffffffffffffff021916908373ffffffffffffffffffffffffffffffffffffffff16021790555050565b60008060020160008360001916600019168152602001908152602001600020549050919050565b60606000600501600083600019166000191681526020019081526020016000208054600181600116156101000203166002900480601f016020809104026020016040519081016040528092919081815260200182805460018160011615610100020316600290048015610ebb5780601f10610e9057610100808354040283529160200191610ebb565b820191906000526020600020905b815481529060010190602001808311610e9e57829003601f168201915b50505050509050919050565b60008060010160008360001916600019168152602001908152602001600020549050919050565b610ef6610c26565b1515610f0157600080fd5b610f0a81610fd4565b50565b6000610f387f476f7665726e616e6365436f6e747261637400000000000000000000000000006110d0565b905090565b6000610f47610779565b90508173ffffffffffffffffffffffffffffffffffffffff168173ffffffffffffffffffffffffffffffffffffffff1614151515610f8457600080fd5b610f8d826111ad565b8173ffffffffffffffffffffffffffffffffffffffff167fbc7cd75a20ee27fd9adebab32041f755214dbc6bffa90cc0225b39da2e5c2d3b60405160405180910390a25050565b600073ffffffffffffffffffffffffffffffffffffffff168173ffffffffffffffffffffffffffffffffffffffff161415151561101057600080fd5b8073ffffffffffffffffffffffffffffffffffffffff16600760009054906101000a900473ffffffffffffffffffffffffffffffffffffffff1673ffffffffffffffffffffffffffffffffffffffff167f8be0079c531659141344cd1fd0a4f28419497f9722a3daafe3b4186f6b6457e060405160405180910390a380600760006101000a81548173ffffffffffffffffffffffffffffffffffffffff021916908373ffffffffffffffffffffffffffffffffffffffff16021790555050565b6000600860009054906101000a900473ffffffffffffffffffffffffffffffffffffffff1673ffffffffffffffffffffffffffffffffffffffff16630d2020dd836040518263ffffffff167c0100000000000000000000000000000000000000000000000000000000028152600401808260001916600019168152602001915050602060405180830381600087803b15801561116b57600080fd5b505af115801561117f573d6000803e3d6000fd5b505050506040513d602081101561119557600080fd5b81019080805190602001909291905050509050919050565b600060405180807f6f72672e6d6574616469756d2e70726f78792e696d706c656d656e746174696f81526020017f6e0000000000000000000000000000000000000000000000000000000000000081525060210190506040518091039020905081815550505600a165627a7a723058202b0149f4c629c9d3212d1e01d5de7f889b4bc7bae93450c3d0f35e2307802b260029",
  "source": "pragma solidity ^0.4.24;\n\nimport \"./AEnvStorage.sol\";\nimport \"../proxy/UpgradeabilityProxy.sol\";\n\n\ncontract EnvStorage is UpgradeabilityProxy, AEnvStorage {\n\n    modifier onlyGovOrOwner() {\n        require((getGovAddress() == msg.sender) || isOwner(), \"No Permission\");\n        _;\n    }\n\n    constructor(address _registry, address _implementation) public {\n        setRegistry(_registry);\n        setImplementation(_implementation);\n    }\n\n    function upgradeTo(address newImplementation) public onlyGovOrOwner {\n        require(newImplementation != address(0), \"Implementation cannot be zero\");\n        require(newImplementation != implementation(), \"Same contract address\");\n        _upgradeTo(newImplementation);\n    }\n}",
  "sourcePath": "/Users/ywshin/Documents/WS/truffle/governance-contract-blueisle/contracts/storage/EnvStorage.sol",
  "compiler": {
    "name": "solc",
    "version": "0.4.24+commit.e67f0147.Emscripten.clang"
  },
  "schemaVersion": "2.0.1",
  "updatedAt": "2019-03-13T10:51:18.600Z"
}