{
  "contractName": "EnvStorageImp",
  "abi": [
    {
      "constant": true,
      "inputs": [],
      "name": "BALLOT_DURATION_MAX_NAME",
      "outputs": [
        {
          "name": "",
          "type": "bytes32"
        }
      ],
      "payable": false,
      "stateMutability": "view",
      "type": "function"
    },
    {
      "constant": true,
      "inputs": [],
      "name": "STAKING_MIN_TYPE",
      "outputs": [
        {
          "name": "",
          "type": "uint256"
        }
      ],
      "payable": false,
      "stateMutability": "view",
      "type": "function"
    },
    {
      "constant": true,
      "inputs": [],
      "name": "GAS_PRICE_NAME",
      "outputs": [
        {
          "name": "",
          "type": "bytes32"
        }
      ],
      "payable": false,
      "stateMutability": "view",
      "type": "function"
    },
    {
      "constant": true,
      "inputs": [],
      "name": "BLOCKS_PER_TYPE",
      "outputs": [
        {
          "name": "",
          "type": "uint256"
        }
      ],
      "payable": false,
      "stateMutability": "view",
      "type": "function"
    },
    {
      "constant": true,
      "inputs": [],
      "name": "STAKING_NAME",
      "outputs": [
        {
          "name": "",
          "type": "bytes32"
        }
      ],
      "payable": false,
      "stateMutability": "view",
      "type": "function"
    },
    {
      "constant": true,
      "inputs": [],
      "name": "GAS_PRICE_TYPE",
      "outputs": [
        {
          "name": "",
          "type": "uint256"
        }
      ],
      "payable": false,
      "stateMutability": "view",
      "type": "function"
    },
    {
      "constant": true,
      "inputs": [
        {
          "name": "h",
          "type": "bytes32"
        }
      ],
      "name": "getAddress",
      "outputs": [
        {
          "name": "",
          "type": "address"
        }
      ],
      "payable": false,
      "stateMutability": "view",
      "type": "function"
    },
    {
      "constant": true,
      "inputs": [],
      "name": "REWARD_POOL_NAME",
      "outputs": [
        {
          "name": "",
          "type": "bytes32"
        }
      ],
      "payable": false,
      "stateMutability": "view",
      "type": "function"
    },
    {
      "constant": true,
      "inputs": [
        {
          "name": "h",
          "type": "bytes32"
        }
      ],
      "name": "getBoolean",
      "outputs": [
        {
          "name": "",
          "type": "bool"
        }
      ],
      "payable": false,
      "stateMutability": "view",
      "type": "function"
    },
    {
      "constant": true,
      "inputs": [],
      "name": "BLOCKS_PER_NAME",
      "outputs": [
        {
          "name": "",
          "type": "bytes32"
        }
      ],
      "payable": false,
      "stateMutability": "view",
      "type": "function"
    },
    {
      "constant": true,
      "inputs": [],
      "name": "BALLOT_DURATION_MAX_TYPE",
      "outputs": [
        {
          "name": "",
          "type": "uint256"
        }
      ],
      "payable": false,
      "stateMutability": "view",
      "type": "function"
    },
    {
      "constant": true,
      "inputs": [],
      "name": "GOV_NAME",
      "outputs": [
        {
          "name": "",
          "type": "bytes32"
        }
      ],
      "payable": false,
      "stateMutability": "view",
      "type": "function"
    },
    {
      "constant": true,
      "inputs": [],
      "name": "BALLOT_DURATION_MIN_NAME",
      "outputs": [
        {
          "name": "",
          "type": "bytes32"
        }
      ],
      "payable": false,
      "stateMutability": "view",
      "type": "function"
    },
    {
      "constant": true,
      "inputs": [],
      "name": "STAKING_MIN_NAME",
      "outputs": [
        {
          "name": "",
          "type": "bytes32"
        }
      ],
      "payable": false,
      "stateMutability": "view",
      "type": "function"
    },
    {
      "constant": false,
      "inputs": [],
      "name": "renounceOwnership",
      "outputs": [],
      "payable": false,
      "stateMutability": "nonpayable",
      "type": "function"
    },
    {
      "constant": true,
      "inputs": [],
      "name": "reg",
      "outputs": [
        {
          "name": "",
          "type": "address"
        }
      ],
      "payable": false,
      "stateMutability": "view",
      "type": "function"
    },
    {
      "constant": true,
      "inputs": [],
      "name": "ENV_STORAGE_NAME",
      "outputs": [
        {
          "name": "",
          "type": "bytes32"
        }
      ],
      "payable": false,
      "stateMutability": "view",
      "type": "function"
    },
    {
      "constant": true,
      "inputs": [],
      "name": "MAX_IDLE_BLOCK_INTERVAL_TYPE",
      "outputs": [
        {
          "name": "",
          "type": "uint256"
        }
      ],
      "payable": false,
      "stateMutability": "view",
      "type": "function"
    },
    {
      "constant": true,
      "inputs": [],
      "name": "owner",
      "outputs": [
        {
          "name": "",
          "type": "address"
        }
      ],
      "payable": false,
      "stateMutability": "view",
      "type": "function"
    },
    {
      "constant": true,
      "inputs": [],
      "name": "isOwner",
      "outputs": [
        {
          "name": "",
          "type": "bool"
        }
      ],
      "payable": false,
      "stateMutability": "view",
      "type": "function"
    },
    {
      "constant": true,
      "inputs": [
        {
          "name": "h",
          "type": "bytes32"
        }
      ],
      "name": "getString",
      "outputs": [
        {
          "name": "",
          "type": "string"
        }
      ],
      "payable": false,
      "stateMutability": "view",
      "type": "function"
    },
    {
      "constant": true,
      "inputs": [],
      "name": "BALLOT_STORAGE_NAME",
      "outputs": [
        {
          "name": "",
          "type": "bytes32"
        }
      ],
      "payable": false,
      "stateMutability": "view",
      "type": "function"
    },
    {
      "constant": true,
      "inputs": [],
      "name": "STAKING_MAX_TYPE",
      "outputs": [
        {
          "name": "",
          "type": "uint256"
        }
      ],
      "payable": false,
      "stateMutability": "view",
      "type": "function"
    },
    {
      "constant": true,
      "inputs": [
        {
          "name": "h",
          "type": "bytes32"
        }
      ],
      "name": "getBytes32",
      "outputs": [
        {
          "name": "",
          "type": "bytes32"
        }
      ],
      "payable": false,
      "stateMutability": "view",
      "type": "function"
    },
    {
      "constant": false,
      "inputs": [
        {
          "name": "_addr",
          "type": "address"
        }
      ],
      "name": "setRegistry",
      "outputs": [],
      "payable": false,
      "stateMutability": "nonpayable",
      "type": "function"
    },
    {
      "constant": true,
      "inputs": [],
      "name": "BALLOT_DURATION_MIN_TYPE",
      "outputs": [
        {
          "name": "",
          "type": "uint256"
        }
      ],
      "payable": false,
      "stateMutability": "view",
      "type": "function"
    },
    {
      "constant": true,
      "inputs": [],
      "name": "MAX_IDLE_BLOCK_INTERVAL_NAME",
      "outputs": [
        {
          "name": "",
          "type": "bytes32"
        }
      ],
      "payable": false,
      "stateMutability": "view",
      "type": "function"
    },
    {
      "constant": true,
      "inputs": [
        {
          "name": "h",
          "type": "bytes32"
        }
      ],
      "name": "getUint",
      "outputs": [
        {
          "name": "",
          "type": "uint256"
        }
      ],
      "payable": false,
      "stateMutability": "view",
      "type": "function"
    },
    {
      "constant": true,
      "inputs": [],
      "name": "STAKING_MAX_NAME",
      "outputs": [
        {
          "name": "",
          "type": "bytes32"
        }
      ],
      "payable": false,
      "stateMutability": "view",
      "type": "function"
    },
    {
      "constant": true,
      "inputs": [
        {
          "name": "h",
          "type": "bytes32"
        }
      ],
      "name": "getBytes",
      "outputs": [
        {
          "name": "",
          "type": "bytes"
        }
      ],
      "payable": false,
      "stateMutability": "view",
      "type": "function"
    },
    {
      "constant": true,
      "inputs": [
        {
          "name": "h",
          "type": "bytes32"
        }
      ],
      "name": "getInt",
      "outputs": [
        {
          "name": "",
          "type": "int256"
        }
      ],
      "payable": false,
      "stateMutability": "view",
      "type": "function"
    },
    {
      "constant": false,
      "inputs": [
        {
          "name": "newOwner",
          "type": "address"
        }
      ],
      "name": "transferOwnership",
      "outputs": [],
      "payable": false,
      "stateMutability": "nonpayable",
      "type": "function"
    },
    {
      "anonymous": false,
      "inputs": [
        {
          "indexed": true,
          "name": "_name",
          "type": "bytes32"
        },
        {
          "indexed": false,
          "name": "_value",
          "type": "string"
        }
      ],
      "name": "StringVarableChanged",
      "type": "event"
    },
    {
      "anonymous": false,
      "inputs": [
        {
          "indexed": true,
          "name": "_name",
          "type": "bytes32"
        },
        {
          "indexed": false,
          "name": "_value",
          "type": "uint256"
        }
      ],
      "name": "UintVarableChanged",
      "type": "event"
    },
    {
      "anonymous": false,
      "inputs": [
        {
          "indexed": true,
          "name": "_name",
          "type": "bytes32"
        },
        {
          "indexed": false,
          "name": "_value",
          "type": "int256"
        }
      ],
      "name": "IntVarableChanged",
      "type": "event"
    },
    {
      "anonymous": false,
      "inputs": [
        {
          "indexed": true,
          "name": "_name",
          "type": "bytes32"
        },
        {
          "indexed": false,
          "name": "_value",
          "type": "address"
        }
      ],
      "name": "AddressVarableChanged",
      "type": "event"
    },
    {
      "anonymous": false,
      "inputs": [
        {
          "indexed": true,
          "name": "_name",
          "type": "bytes32"
        },
        {
          "indexed": false,
          "name": "_value",
          "type": "bytes32"
        }
      ],
      "name": "Bytes32VarableChanged",
      "type": "event"
    },
    {
      "anonymous": false,
      "inputs": [
        {
          "indexed": true,
          "name": "_name",
          "type": "bytes32"
        },
        {
          "indexed": false,
          "name": "_value",
          "type": "bytes"
        }
      ],
      "name": "BytesVarableChanged",
      "type": "event"
    },
    {
      "anonymous": false,
      "inputs": [
        {
          "indexed": true,
          "name": "_name",
          "type": "bytes32"
        },
        {
          "indexed": true,
          "name": "_type",
          "type": "uint256"
        },
        {
          "indexed": false,
          "name": "_value",
          "type": "string"
        }
      ],
      "name": "VarableChanged",
      "type": "event"
    },
    {
      "anonymous": false,
      "inputs": [
        {
          "indexed": true,
          "name": "previousOwner",
          "type": "address"
        },
        {
          "indexed": true,
          "name": "newOwner",
          "type": "address"
        }
      ],
      "name": "OwnershipTransferred",
      "type": "event"
    },
    {
      "constant": false,
      "inputs": [
        {
          "name": "_blocksPer",
          "type": "uint256"
        },
        {
          "name": "_ballotDurationMin",
          "type": "uint256"
        },
        {
          "name": "_ballotDurationMax",
          "type": "uint256"
        },
        {
          "name": "_stakingMin",
          "type": "uint256"
        },
        {
          "name": "_stakingMax",
          "type": "uint256"
        },
        {
          "name": "_gasPrice",
          "type": "uint256"
        },
        {
          "name": "_maxIdleBlockInterval",
          "type": "uint256"
        }
      ],
      "name": "initialize",
      "outputs": [],
      "payable": false,
      "stateMutability": "nonpayable",
      "type": "function"
    },
    {
      "constant": true,
      "inputs": [],
      "name": "getBlocksPer",
      "outputs": [
        {
          "name": "",
          "type": "uint256"
        }
      ],
      "payable": false,
      "stateMutability": "view",
      "type": "function"
    },
    {
      "constant": true,
      "inputs": [],
      "name": "getBallotDurationMin",
      "outputs": [
        {
          "name": "",
          "type": "uint256"
        }
      ],
      "payable": false,
      "stateMutability": "view",
      "type": "function"
    },
    {
      "constant": true,
      "inputs": [],
      "name": "getBallotDurationMax",
      "outputs": [
        {
          "name": "",
          "type": "uint256"
        }
      ],
      "payable": false,
      "stateMutability": "view",
      "type": "function"
    },
    {
      "constant": true,
      "inputs": [],
      "name": "getStakingMin",
      "outputs": [
        {
          "name": "",
          "type": "uint256"
        }
      ],
      "payable": false,
      "stateMutability": "view",
      "type": "function"
    },
    {
      "constant": true,
      "inputs": [],
      "name": "getStakingMax",
      "outputs": [
        {
          "name": "",
          "type": "uint256"
        }
      ],
      "payable": false,
      "stateMutability": "view",
      "type": "function"
    },
    {
      "constant": true,
      "inputs": [],
      "name": "getGasPrice",
      "outputs": [
        {
          "name": "",
          "type": "uint256"
        }
      ],
      "payable": false,
      "stateMutability": "view",
      "type": "function"
    },
    {
      "constant": true,
      "inputs": [],
      "name": "getMaxIdleBlockInterval",
      "outputs": [
        {
          "name": "",
          "type": "uint256"
        }
      ],
      "payable": false,
      "stateMutability": "view",
      "type": "function"
    },
    {
      "constant": false,
      "inputs": [
        {
          "name": "_value",
          "type": "uint256"
        }
      ],
      "name": "setBlocksPer",
      "outputs": [],
      "payable": false,
      "stateMutability": "nonpayable",
      "type": "function"
    },
    {
      "constant": false,
      "inputs": [
        {
          "name": "_value",
          "type": "uint256"
        }
      ],
      "name": "setBallotDurationMin",
      "outputs": [],
      "payable": false,
      "stateMutability": "nonpayable",
      "type": "function"
    },
    {
      "constant": false,
      "inputs": [
        {
          "name": "_value",
          "type": "uint256"
        }
      ],
      "name": "setBallotDurationMax",
      "outputs": [],
      "payable": false,
      "stateMutability": "nonpayable",
      "type": "function"
    },
    {
      "constant": false,
      "inputs": [
        {
          "name": "_value",
          "type": "uint256"
        }
      ],
      "name": "setStakingMin",
      "outputs": [],
      "payable": false,
      "stateMutability": "nonpayable",
      "type": "function"
    },
    {
      "constant": false,
      "inputs": [
        {
          "name": "_value",
          "type": "uint256"
        }
      ],
      "name": "setStakingMax",
      "outputs": [],
      "payable": false,
      "stateMutability": "nonpayable",
      "type": "function"
    },
    {
      "constant": false,
      "inputs": [
        {
          "name": "_value",
          "type": "uint256"
        }
      ],
      "name": "setGasPrice",
      "outputs": [],
      "payable": false,
      "stateMutability": "nonpayable",
      "type": "function"
    },
    {
      "constant": false,
      "inputs": [
        {
          "name": "_value",
          "type": "uint256"
        }
      ],
      "name": "setMaxIdleBlockInterval",
      "outputs": [],
      "payable": false,
      "stateMutability": "nonpayable",
      "type": "function"
    },
    {
      "constant": false,
      "inputs": [
        {
          "name": "_value",
          "type": "bytes"
        }
      ],
      "name": "setBlocksPerByBytes",
      "outputs": [],
      "payable": false,
      "stateMutability": "nonpayable",
      "type": "function"
    },
    {
      "constant": false,
      "inputs": [
        {
          "name": "_value",
          "type": "bytes"
        }
      ],
      "name": "setBallotDurationMinByBytes",
      "outputs": [],
      "payable": false,
      "stateMutability": "nonpayable",
      "type": "function"
    },
    {
      "constant": false,
      "inputs": [
        {
          "name": "_value",
          "type": "bytes"
        }
      ],
      "name": "setBallotDurationMaxByBytes",
      "outputs": [],
      "payable": false,
      "stateMutability": "nonpayable",
      "type": "function"
    },
    {
      "constant": false,
      "inputs": [
        {
          "name": "_value",
          "type": "bytes"
        }
      ],
      "name": "setStakingMinByBytes",
      "outputs": [],
      "payable": false,
      "stateMutability": "nonpayable",
      "type": "function"
    },
    {
      "constant": false,
      "inputs": [
        {
          "name": "_value",
          "type": "bytes"
        }
      ],
      "name": "setStakingMaxByBytes",
      "outputs": [],
      "payable": false,
      "stateMutability": "nonpayable",
      "type": "function"
    },
    {
      "constant": false,
      "inputs": [
        {
          "name": "_value",
          "type": "bytes"
        }
      ],
      "name": "setGasPriceByBytes",
      "outputs": [],
      "payable": false,
      "stateMutability": "nonpayable",
      "type": "function"
    },
    {
      "constant": false,
      "inputs": [
        {
          "name": "_value",
          "type": "bytes"
        }
      ],
      "name": "setMaxIdleBlockIntervalByBytes",
      "outputs": [],
      "payable": false,
      "stateMutability": "nonpayable",
      "type": "function"
    },
    {
      "constant": true,
      "inputs": [],
      "name": "getTestInt",
      "outputs": [
        {
          "name": "",
          "type": "int256"
        }
      ],
      "payable": false,
      "stateMutability": "view",
      "type": "function"
    },
    {
      "constant": true,
      "inputs": [],
      "name": "getTestAddress",
      "outputs": [
        {
          "name": "",
          "type": "address"
        }
      ],
      "payable": false,
      "stateMutability": "view",
      "type": "function"
    },
    {
      "constant": true,
      "inputs": [],
      "name": "getTestBytes32",
      "outputs": [
        {
          "name": "",
          "type": "bytes32"
        }
      ],
      "payable": false,
      "stateMutability": "view",
      "type": "function"
    },
    {
      "constant": true,
      "inputs": [],
      "name": "getTestBytes",
      "outputs": [
        {
          "name": "",
          "type": "bytes"
        }
      ],
      "payable": false,
      "stateMutability": "view",
      "type": "function"
    },
    {
      "constant": true,
      "inputs": [],
      "name": "getTestString",
      "outputs": [
        {
          "name": "",
          "type": "string"
        }
      ],
      "payable": false,
      "stateMutability": "view",
      "type": "function"
    },
    {
      "constant": false,
      "inputs": [
        {
          "name": "_value",
          "type": "bytes"
        }
      ],
      "name": "setTestIntByBytes",
      "outputs": [],
      "payable": false,
      "stateMutability": "nonpayable",
      "type": "function"
    },
    {
      "constant": false,
      "inputs": [
        {
          "name": "_value",
          "type": "bytes"
        }
      ],
      "name": "setTestAddressByBytes",
      "outputs": [],
      "payable": false,
      "stateMutability": "nonpayable",
      "type": "function"
    },
    {
      "constant": false,
      "inputs": [
        {
          "name": "_value",
          "type": "bytes"
        }
      ],
      "name": "setTestBytes32ByBytes",
      "outputs": [],
      "payable": false,
      "stateMutability": "nonpayable",
      "type": "function"
    },
    {
      "constant": false,
      "inputs": [
        {
          "name": "_value",
          "type": "bytes"
        }
      ],
      "name": "setTestBytesByBytes",
      "outputs": [],
      "payable": false,
      "stateMutability": "nonpayable",
      "type": "function"
    },
    {
      "constant": false,
      "inputs": [
        {
          "name": "_value",
          "type": "bytes"
        }
      ],
      "name": "setTestStringByBytes",
      "outputs": [],
      "payable": false,
      "stateMutability": "nonpayable",
      "type": "function"
    }
  ],
  "bytecode": "0x608060405233600760006101000a81548173ffffffffffffffffffffffffffffffffffffffff021916908373ffffffffffffffffffffffffffffffffffffffff160217905550600760009054906101000a900473ffffffffffffffffffffffffffffffffffffffff1673ffffffffffffffffffffffffffffffffffffffff16600073ffffffffffffffffffffffffffffffffffffffff167f8be0079c531659141344cd1fd0a4f28419497f9722a3daafe3b4186f6b6457e060405160405180910390a3613cf7806100d16000396000f3006080604052600436106102f5576000357c0100000000000000000000000000000000000000000000000000000000900463ffffffff16806215a73b146102fa578063076cd77f1461032d57806308180035146103585780630b90a39a146103c15780630ea0a8c61461042a5780630f36c0a814610455578063124cea371461048857806314b8bc63146104f157806315bf4b051461051c578063185582f1146105ac5780631b27e01b146105d75780631e0cba0d146106025780632118b7821461063557806321f8a721146106605780632eb57c65146106d15780632eccd832146106fe5780632f40992e146107675780632f91be481461079a57806333be496e1461082a5780633690057a146108555780633848207a146108805780633e8daafe146108c95780633f35c8fe14610932578063455259cb1461096557806346e1d553146109905780635f53e21d146109f95780635f5a4f6614610a2457806368cb4da314610a8d5780636c78d2cf14610ac05780636d583ca714610af35780636e80187814610b265780636fde207a14610b8f578063715018a614610bc257806371c6960d14610bd9578063737c59b814610c42578063738fdd1a14610c6d57806379e8585914610cc45780637bf4653014610cf1578063852cf38f14610d2457806388f9aade14610d515780638a523b6b14610d7c5780638da5cb5b14610de55780638f32d59b14610e3c578063986e791a14610e6b5780639986e4b914610f155780639f3ab54a14610f48578063a36f259b14610f73578063a5d6a58114610fa0578063a6ed563e14611009578063a91ee0dc14611056578063aed31e7b14611099578063b128f880146110c4578063b6610ace146110f7578063bd02d0f514611160578063bf1fe420146111a5578063c00ace6c146111d2578063c031a18014611205578063d6147814146112af578063dc97d96214611306578063dd46cb811461134b578063e60308db146113b4578063f2fde38b146113df578063f6fd712914611422578063f82145911461144f575b600080fd5b34801561030657600080fd5b5061030f61147c565b60405180826000191660001916815260200191505060405180910390f35b34801561033957600080fd5b506103426114b5565b6040518082815260200191505060405180910390f35b34801561036457600080fd5b506103bf600480360381019080803590602001908201803590602001908080601f01602080910402602001604051908101604052809392919081815260200183838082843782019150505050505091929192905050506114fa565b005b3480156103cd57600080fd5b50610428600480360381019080803590602001908201803590602001908080601f01602080910402602001604051908101604052809392919081815260200183838082843782019150505050505091929192905050506115e6565b005b34801561043657600080fd5b5061043f6116a4565b6040518082815260200191505060405180910390f35b34801561046157600080fd5b5061046a6116b4565b60405180826000191660001916815260200191505060405180910390f35b34801561049457600080fd5b506104ef600480360381019080803590602001908201803590602001908080601f01602080910402602001604051908101604052809392919081815260200183838082843782019150505050505091929192905050506116ed565b005b3480156104fd57600080fd5b506105066117ab565b6040518082815260200191505060405180910390f35b34801561052857600080fd5b506105316117bb565b6040518080602001828103825283818151815260200191508051906020019080838360005b83811015610571578082015181840152602081019050610556565b50505050905090810190601f16801561059e5780820380516001836020036101000a031916815260200191505b509250505060405180910390f35b3480156105b857600080fd5b506105c1611800565b6040518082815260200191505060405180910390f35b3480156105e357600080fd5b506105ec611845565b6040518082815260200191505060405180910390f35b34801561060e57600080fd5b5061061761188a565b60405180826000191660001916815260200191505060405180910390f35b34801561064157600080fd5b5061064a6118ae565b6040518082815260200191505060405180910390f35b34801561066c57600080fd5b5061068f60048036038101908080356000191690602001909291905050506118be565b604051808273ffffffffffffffffffffffffffffffffffffffff1673ffffffffffffffffffffffffffffffffffffffff16815260200191505060405180910390f35b3480156106dd57600080fd5b506106fc60048036038101908080359060200190929190505050611905565b005b34801561070a57600080fd5b50610765600480360381019080803590602001908201803590602001908080601f01602080910402602001604051908101604052809392919081815260200183838082843782019150505050505091929192905050506119f1565b005b34801561077357600080fd5b5061077c611aaf565b60405180826000191660001916815260200191505060405180910390f35b3480156107a657600080fd5b506107af611ad3565b6040518080602001828103825283818151815260200191508051906020019080838360005b838110156107ef5780820151818401526020810190506107d4565b50505050905090810190601f16801561081c5780820380516001836020036101000a031916815260200191505b509250505060405180910390f35b34801561083657600080fd5b5061083f611b18565b6040518082815260200191505060405180910390f35b34801561086157600080fd5b5061086a611b5d565b6040518082815260200191505060405180910390f35b34801561088c57600080fd5b506108af6004803603810190808035600019169060200190929190505050611ba2565b604051808215151515815260200191505060405180910390f35b3480156108d557600080fd5b50610930600480360381019080803590602001908201803590602001908080601f0160208091040260200160405190810160405280939291908181526020018383808284378201915050505050509192919290505050611bd6565b005b34801561093e57600080fd5b50610947611c94565b60405180826000191660001916815260200191505060405180910390f35b34801561097157600080fd5b5061097a611ccd565b6040518082815260200191505060405180910390f35b34801561099c57600080fd5b506109f7600480360381019080803590602001908201803590602001908080601f0160208091040260200160405190810160405280939291908181526020018383808284378201915050505050509192919290505050611d12565b005b348015610a0557600080fd5b50610a0e611e06565b6040518082815260200191505060405180910390f35b348015610a3057600080fd5b50610a8b600480360381019080803590602001908201803590602001908080601f0160208091040260200160405190810160405280939291908181526020018383808284378201915050505050509192919290505050611e16565b005b348015610a9957600080fd5b50610aa2611f0a565b60405180826000191660001916815260200191505060405180910390f35b348015610acc57600080fd5b50610ad5611f4f565b60405180826000191660001916815260200191505060405180910390f35b348015610aff57600080fd5b50610b08611f73565b60405180826000191660001916815260200191505060405180910390f35b348015610b3257600080fd5b50610b8d600480360381019080803590602001908201803590602001908080601f0160208091040260200160405190810160405280939291908181526020018383808284378201915050505050509192919290505050611fac565b005b348015610b9b57600080fd5b50610ba461206a565b60405180826000191660001916815260200191505060405180910390f35b348015610bce57600080fd5b50610bd76120a3565b005b348015610be557600080fd5b50610c40600480360381019080803590602001908201803590602001908080601f0160208091040260200160405190810160405280939291908181526020018383808284378201915050505050509192919290505050612177565b005b348015610c4e57600080fd5b50610c57612235565b6040518082815260200191505060405180910390f35b348015610c7957600080fd5b50610c8261227a565b604051808273ffffffffffffffffffffffffffffffffffffffff1673ffffffffffffffffffffffffffffffffffffffff16815260200191505060405180910390f35b348015610cd057600080fd5b50610cef600480360381019080803590602001909291905050506122a0565b005b348015610cfd57600080fd5b50610d0661238c565b60405180826000191660001916815260200191505060405180910390f35b348015610d3057600080fd5b50610d4f600480360381019080803590602001909291905050506123b0565b005b348015610d5d57600080fd5b50610d6661249c565b6040518082815260200191505060405180910390f35b348015610d8857600080fd5b50610de3600480360381019080803590602001908201803590602001908080601f01602080910402602001604051908101604052809392919081815260200183838082843782019150505050505091929192905050506124ac565b005b348015610df157600080fd5b50610dfa612598565b604051808273ffffffffffffffffffffffffffffffffffffffff1673ffffffffffffffffffffffffffffffffffffffff16815260200191505060405180910390f35b348015610e4857600080fd5b50610e516125c2565b604051808215151515815260200191505060405180910390f35b348015610e7757600080fd5b50610e9a600480360381019080803560001916906020019092919050505061261a565b6040518080602001828103825283818151815260200191508051906020019080838360005b83811015610eda578082015181840152602081019050610ebf565b50505050905090810190601f168015610f075780820380516001836020036101000a031916815260200191505b509250505060405180910390f35b348015610f2157600080fd5b50610f2a6126da565b60405180826000191660001916815260200191505060405180910390f35b348015610f5457600080fd5b50610f5d6126fe565b6040518082815260200191505060405180910390f35b348015610f7f57600080fd5b50610f9e6004803603810190808035906020019092919050505061270e565b005b348015610fac57600080fd5b50611007600480360381019080803590602001908201803590602001908080601f01602080910402602001604051908101604052809392919081815260200183838082843782019150505050505091929192905050506127fa565b005b34801561101557600080fd5b5061103860048036038101908080356000191690602001909291905050506128b8565b60405180826000191660001916815260200191505060405180910390f35b34801561106257600080fd5b50611097600480360381019080803573ffffffffffffffffffffffffffffffffffffffff1690602001909291905050506128df565b005b3480156110a557600080fd5b506110ae612936565b6040518082815260200191505060405180910390f35b3480156110d057600080fd5b506110d9612946565b60405180826000191660001916815260200191505060405180910390f35b34801561110357600080fd5b5061115e6004803603810190808035906020019092919080359060200190929190803590602001909291908035906020019092919080359060200190929190803590602001909291908035906020019092919050505061297f565b005b34801561116c57600080fd5b5061118f6004803603810190808035600019169060200190929190505050612fbb565b6040518082815260200191505060405180910390f35b3480156111b157600080fd5b506111d060048036038101908080359060200190929190505050612fe2565b005b3480156111de57600080fd5b506111e76130ce565b60405180826000191660001916815260200191505060405180910390f35b34801561121157600080fd5b506112346004803603810190808035600019169060200190929190505050613107565b6040518080602001828103825283818151815260200191508051906020019080838360005b83811015611274578082015181840152602081019050611259565b50505050905090810190601f1680156112a15780820380516001836020036101000a031916815260200191505b509250505060405180910390f35b3480156112bb57600080fd5b506112c46131c7565b604051808273ffffffffffffffffffffffffffffffffffffffff1673ffffffffffffffffffffffffffffffffffffffff16815260200191505060405180910390f35b34801561131257600080fd5b50611335600480360381019080803560001916906020019092919050505061320c565b6040518082815260200191505060405180910390f35b34801561135757600080fd5b506113b2600480360381019080803590602001908201803590602001908080601f0160208091040260200160405190810160405280939291908181526020018383808284378201915050505050509192919290505050613233565b005b3480156113c057600080fd5b506113c9613327565b6040518082815260200191505060405180910390f35b3480156113eb57600080fd5b50611420600480360381019080803573ffffffffffffffffffffffffffffffffffffffff16906020019092919050505061336c565b005b34801561142e57600080fd5b5061144d6004803603810190808035906020019092919050505061338b565b005b34801561145b57600080fd5b5061147a60048036038101908080359060200190929190505050613477565b005b60405180807f62616c6c6f744475726174696f6e4d61780000000000000000000000000000008152506011019050604051809103902081565b60006114f560405180807f7374616b696e674d696e00000000000000000000000000000000000000000000815250600a0190506040518091039020612fbb565b905090565b3373ffffffffffffffffffffffffffffffffffffffff16611519613563565b73ffffffffffffffffffffffffffffffffffffffff161415156115a4576040517f08c379a000000000000000000000000000000000000000000000000000000000815260040180806020018281038252600d8152602001807f4e6f205065726d697373696f6e0000000000000000000000000000000000000081525060200191505060405180910390fd5b6115e360405180807f544553545f425954455300000000000000000000000000000000000000000000815250600a019050604051809103902082613593565b50565b3373ffffffffffffffffffffffffffffffffffffffff16611605613563565b73ffffffffffffffffffffffffffffffffffffffff16141515611690576040517f08c379a000000000000000000000000000000000000000000000000000000000815260040180806020018281038252600d8152602001807f4e6f205065726d697373696f6e0000000000000000000000000000000000000081525060200191505060405180910390fd5b6116a161169c82613642565b613477565b50565b600260068111156116b157fe5b81565b60405180807f67617350726963650000000000000000000000000000000000000000000000008152506008019050604051809103902081565b3373ffffffffffffffffffffffffffffffffffffffff1661170c613563565b73ffffffffffffffffffffffffffffffffffffffff16141515611797576040517f08c379a000000000000000000000000000000000000000000000000000000000815260040180806020018281038252600d8152602001807f4e6f205065726d697373696f6e0000000000000000000000000000000000000081525060200191505060405180910390fd5b6117a86117a382613642565b61270e565b50565b600260068111156117b857fe5b81565b60606117fb60405180807f544553545f425954455300000000000000000000000000000000000000000000815250600a0190506040518091039020613107565b905090565b600061184060405180807f4d617849646c65426c6f636b496e74657276616c00000000000000000000000081525060140190506040518091039020612fbb565b905090565b600061188560405180807f62616c6c6f744475726174696f6e4d617800000000000000000000000000000081525060110190506040518091039020612fbb565b905090565b7f5374616b696e670000000000000000000000000000000000000000000000000081565b600260068111156118bb57fe5b81565b6000806004016000836000191660001916815260200190815260200160002060009054906101000a900473ffffffffffffffffffffffffffffffffffffffff169050919050565b3373ffffffffffffffffffffffffffffffffffffffff16611924613563565b73ffffffffffffffffffffffffffffffffffffffff161415156119af576040517f08c379a000000000000000000000000000000000000000000000000000000000815260040180806020018281038252600d8152602001807f4e6f205065726d697373696f6e0000000000000000000000000000000000000081525060200191505060405180910390fd5b6119ee60405180807f7374616b696e674d696e00000000000000000000000000000000000000000000815250600a019050604051809103902082613650565b50565b3373ffffffffffffffffffffffffffffffffffffffff16611a10613563565b73ffffffffffffffffffffffffffffffffffffffff16141515611a9b576040517f08c379a000000000000000000000000000000000000000000000000000000000815260040180806020018281038252600d8152602001807f4e6f205065726d697373696f6e0000000000000000000000000000000000000081525060200191505060405180910390fd5b611aac611aa782613642565b613477565b50565b7f526577617264506f6f6c0000000000000000000000000000000000000000000081565b6060611b1360405180807f544553545f535452494e47000000000000000000000000000000000000000000815250600b019050604051809103902061261a565b905090565b6000611b5860405180807f62616c6c6f744475726174696f6e4d696e00000000000000000000000000000081525060110190506040518091039020612fbb565b905090565b6000611b9d60405180807f626c6f636b73506572000000000000000000000000000000000000000000000081525060090190506040518091039020612fbb565b905090565b6000806000016000836000191660001916815260200190815260200160002060009054906101000a900460ff169050919050565b3373ffffffffffffffffffffffffffffffffffffffff16611bf5613563565b73ffffffffffffffffffffffffffffffffffffffff16141515611c80576040517f08c379a000000000000000000000000000000000000000000000000000000000815260040180806020018281038252600d8152602001807f4e6f205065726d697373696f6e0000000000000000000000000000000000000081525060200191505060405180910390fd5b611c91611c8c82613642565b6122a0565b50565b60405180807f626c6f636b7350657200000000000000000000000000000000000000000000008152506009019050604051809103902081565b6000611d0d60405180807f676173507269636500000000000000000000000000000000000000000000000081525060080190506040518091039020612fbb565b905090565b3373ffffffffffffffffffffffffffffffffffffffff16611d31613563565b73ffffffffffffffffffffffffffffffffffffffff16141515611dbc576040517f08c379a000000000000000000000000000000000000000000000000000000000815260040180806020018281038252600d8152602001807f4e6f205065726d697373696f6e0000000000000000000000000000000000000081525060200191505060405180910390fd5b611e0360405180807f544553545f494e5400000000000000000000000000000000000000000000000081525060080190506040518091039020611dfe8361369a565b6136a8565b50565b60026006811115611e1357fe5b81565b3373ffffffffffffffffffffffffffffffffffffffff16611e35613563565b73ffffffffffffffffffffffffffffffffffffffff16141515611ec0576040517f08c379a000000000000000000000000000000000000000000000000000000000815260040180806020018281038252600d8152602001807f4e6f205065726d697373696f6e0000000000000000000000000000000000000081525060200191505060405180910390fd5b611f0760405180807f544553545f425954455333320000000000000000000000000000000000000000815250600c0190506040518091039020611f02836136f2565b613700565b50565b6000611f4a60405180807f544553545f425954455333320000000000000000000000000000000000000000815250600c01905060405180910390206128b8565b905090565b7f476f7665726e616e6365436f6e7472616374000000000000000000000000000081565b60405180807f62616c6c6f744475726174696f6e4d696e0000000000000000000000000000008152506011019050604051809103902081565b3373ffffffffffffffffffffffffffffffffffffffff16611fcb613563565b73ffffffffffffffffffffffffffffffffffffffff16141515612056576040517f08c379a000000000000000000000000000000000000000000000000000000000815260040180806020018281038252600d8152602001807f4e6f205065726d697373696f6e0000000000000000000000000000000000000081525060200191505060405180910390fd5b61206761206282613642565b613477565b50565b60405180807f7374616b696e674d696e00000000000000000000000000000000000000000000815250600a019050604051809103902081565b6120ab6125c2565b15156120b657600080fd5b600073ffffffffffffffffffffffffffffffffffffffff16600760009054906101000a900473ffffffffffffffffffffffffffffffffffffffff1673ffffffffffffffffffffffffffffffffffffffff167f8be0079c531659141344cd1fd0a4f28419497f9722a3daafe3b4186f6b6457e060405160405180910390a36000600760006101000a81548173ffffffffffffffffffffffffffffffffffffffff021916908373ffffffffffffffffffffffffffffffffffffffff160217905550565b3373ffffffffffffffffffffffffffffffffffffffff16612196613563565b73ffffffffffffffffffffffffffffffffffffffff16141515612221576040517f08c379a000000000000000000000000000000000000000000000000000000000815260040180806020018281038252600d8152602001807f4e6f205065726d697373696f6e0000000000000000000000000000000000000081525060200191505060405180910390fd5b61223261222d82613642565b611905565b50565b600061227560405180807f7374616b696e674d617800000000000000000000000000000000000000000000815250600a0190506040518091039020612fbb565b905090565b600860009054906101000a900473ffffffffffffffffffffffffffffffffffffffff1681565b3373ffffffffffffffffffffffffffffffffffffffff166122bf613563565b73ffffffffffffffffffffffffffffffffffffffff1614151561234a576040517f08c379a000000000000000000000000000000000000000000000000000000000815260040180806020018281038252600d8152602001807f4e6f205065726d697373696f6e0000000000000000000000000000000000000081525060200191505060405180910390fd5b61238960405180807f626c6f636b7350657200000000000000000000000000000000000000000000008152506009019050604051809103902082613650565b50565b7f456e7653746f726167650000000000000000000000000000000000000000000081565b3373ffffffffffffffffffffffffffffffffffffffff166123cf613563565b73ffffffffffffffffffffffffffffffffffffffff1614151561245a576040517f08c379a000000000000000000000000000000000000000000000000000000000815260040180806020018281038252600d8152602001807f4e6f205065726d697373696f6e0000000000000000000000000000000000000081525060200191505060405180910390fd5b61249960405180807f62616c6c6f744475726174696f6e4d61780000000000000000000000000000008152506011019050604051809103902082613650565b50565b600260068111156124a957fe5b81565b3373ffffffffffffffffffffffffffffffffffffffff166124cb613563565b73ffffffffffffffffffffffffffffffffffffffff16141515612556576040517f08c379a000000000000000000000000000000000000000000000000000000000815260040180806020018281038252600d8152602001807f4e6f205065726d697373696f6e0000000000000000000000000000000000000081525060200191505060405180910390fd5b61259560405180807f544553545f535452494e47000000000000000000000000000000000000000000815250600b019050604051809103902082613752565b50565b6000600760009054906101000a900473ffffffffffffffffffffffffffffffffffffffff16905090565b6000600760009054906101000a900473ffffffffffffffffffffffffffffffffffffffff1673ffffffffffffffffffffffffffffffffffffffff163373ffffffffffffffffffffffffffffffffffffffff1614905090565b60606000600301600083600019166000191681526020019081526020016000208054600181600116156101000203166002900480601f0160208091040260200160405190810160405280929190818152602001828054600181600116156101000203166002900480156126ce5780601f106126a3576101008083540402835291602001916126ce565b820191906000526020600020905b8154815290600101906020018083116126b157829003601f168201915b50505050509050919050565b7f42616c6c6f7453746f726167650000000000000000000000000000000000000081565b6002600681111561270b57fe5b81565b3373ffffffffffffffffffffffffffffffffffffffff1661272d613563565b73ffffffffffffffffffffffffffffffffffffffff161415156127b8576040517f08c379a000000000000000000000000000000000000000000000000000000000815260040180806020018281038252600d8152602001807f4e6f205065726d697373696f6e0000000000000000000000000000000000000081525060200191505060405180910390fd5b6127f760405180807f62616c6c6f744475726174696f6e4d696e0000000000000000000000000000008152506011019050604051809103902082613650565b50565b3373ffffffffffffffffffffffffffffffffffffffff16612819613563565b73ffffffffffffffffffffffffffffffffffffffff161415156128a4576040517f08c379a000000000000000000000000000000000000000000000000000000000815260040180806020018281038252600d8152602001807f4e6f205065726d697373696f6e0000000000000000000000000000000000000081525060200191505060405180910390fd5b6128b56128b082613642565b6123b0565b50565b60008060060160008360001916600019168152602001908152602001600020549050919050565b6128e76125c2565b15156128f257600080fd5b80600860006101000a81548173ffffffffffffffffffffffffffffffffffffffff021916908373ffffffffffffffffffffffffffffffffffffffff16021790555050565b6002600681111561294357fe5b81565b60405180807f4d617849646c65426c6f636b496e74657276616c0000000000000000000000008152506014019050604051809103902081565b60008060008060008060006129926125c2565b151561299d57600080fd5b6129a5611b5d565b96506129af611b18565b95506129b9611845565b94506129c36114b5565b93506129cd612235565b92506129d7611ccd565b91506129e1611800565b905060008e1415806129f4575060008714155b1515612a68576040517f08c379a00000000000000000000000000000000000000000000000000000000081526004018080602001828103825260188152602001807f696e76616c696420626c6f636b735065722076616c756573000000000000000081525060200191505060405180910390fd5b60008d141580612a79575060008614155b1515612aed576040517f08c379a00000000000000000000000000000000000000000000000000000000081526004018080602001828103825260208152602001807f696e76616c69642062616c6c6f744475726174696f6e4d696e2076616c75657381525060200191505060405180910390fd5b60008c141580612afe575060008514155b1515612b72576040517f08c379a00000000000000000000000000000000000000000000000000000000081526004018080602001828103825260208152602001807f696e76616c69642062616c6c6f744475726174696f6e4d61782076616c75657381525060200191505060405180910390fd5b60008b141580612b83575060008414155b1515612bf7576040517f08c379a00000000000000000000000000000000000000000000000000000000081526004018080602001828103825260198152602001807f696e76616c6964207374616b696e674d696e2076616c7565730000000000000081525060200191505060405180910390fd5b60008a141580612c08575060008314155b1515612c7c576040517f08c379a00000000000000000000000000000000000000000000000000000000081526004018080602001828103825260198152602001807f696e76616c6964207374616b696e674d61782076616c7565730000000000000081525060200191505060405180910390fd5b600089141580612c8d575060008214155b1515612d01576040517f08c379a00000000000000000000000000000000000000000000000000000000081526004018080602001828103825260178152602001807f696e76616c69642067617350726963652076616c75657300000000000000000081525060200191505060405180910390fd5b600088141580612d12575060008114155b1515612dac576040517f08c379a00000000000000000000000000000000000000000000000000000000081526004018080602001828103825260268152602001807f696e76616c6964206d61782049646c6520426c6f636b20496e74657276616c2081526020017f76616c756573000000000000000000000000000000000000000000000000000081525060400191505060405180910390fd5b6000871415612df557612df460405180807f626c6f636b735065720000000000000000000000000000000000000000000000815250600901905060405180910390208f613650565b5b6000861415612e3e57612e3d60405180807f62616c6c6f744475726174696f6e4d696e000000000000000000000000000000815250601101905060405180910390208e613650565b5b6000851415612e8757612e8660405180807f62616c6c6f744475726174696f6e4d6178000000000000000000000000000000815250601101905060405180910390208d613650565b5b6000841415612ed057612ecf60405180807f7374616b696e674d696e00000000000000000000000000000000000000000000815250600a01905060405180910390208c613650565b5b6000831415612f1957612f1860405180807f7374616b696e674d617800000000000000000000000000000000000000000000815250600a01905060405180910390208b613650565b5b6000821415612f6257612f6160405180807f6761735072696365000000000000000000000000000000000000000000000000815250600801905060405180910390208a613650565b5b6000811415612fab57612faa60405180807f4d617849646c65426c6f636b496e74657276616c0000000000000000000000008152506014019050604051809103902089613650565b5b5050505050505050505050505050565b60008060020160008360001916600019168152602001908152602001600020549050919050565b3373ffffffffffffffffffffffffffffffffffffffff16613001613563565b73ffffffffffffffffffffffffffffffffffffffff1614151561308c576040517f08c379a000000000000000000000000000000000000000000000000000000000815260040180806020018281038252600d8152602001807f4e6f205065726d697373696f6e0000000000000000000000000000000000000081525060200191505060405180910390fd5b6130cb60405180807f67617350726963650000000000000000000000000000000000000000000000008152506008019050604051809103902082613650565b50565b60405180807f7374616b696e674d617800000000000000000000000000000000000000000000815250600a019050604051809103902081565b60606000600501600083600019166000191681526020019081526020016000208054600181600116156101000203166002900480601f0160208091040260200160405190810160405280929190818152602001828054600181600116156101000203166002900480156131bb5780601f10613190576101008083540402835291602001916131bb565b820191906000526020600020905b81548152906001019060200180831161319e57829003601f168201915b50505050509050919050565b600061320760405180807f544553545f414444524553530000000000000000000000000000000000000000815250600c01905060405180910390206118be565b905090565b60008060010160008360001916600019168152602001908152602001600020549050919050565b3373ffffffffffffffffffffffffffffffffffffffff16613252613563565b73ffffffffffffffffffffffffffffffffffffffff161415156132dd576040517f08c379a000000000000000000000000000000000000000000000000000000000815260040180806020018281038252600d8152602001807f4e6f205065726d697373696f6e0000000000000000000000000000000000000081525060200191505060405180910390fd5b61332460405180807f544553545f414444524553530000000000000000000000000000000000000000815250600c019050604051809103902061331f83613801565b61380f565b50565b600061336760405180807f544553545f494e540000000000000000000000000000000000000000000000008152506008019050604051809103902061320c565b905090565b6133746125c2565b151561337f57600080fd5b61338881613885565b50565b3373ffffffffffffffffffffffffffffffffffffffff166133aa613563565b73ffffffffffffffffffffffffffffffffffffffff16141515613435576040517f08c379a000000000000000000000000000000000000000000000000000000000815260040180806020018281038252600d8152602001807f4e6f205065726d697373696f6e0000000000000000000000000000000000000081525060200191505060405180910390fd5b61347460405180807f4d617849646c65426c6f636b496e74657276616c0000000000000000000000008152506014019050604051809103902082613650565b50565b3373ffffffffffffffffffffffffffffffffffffffff16613496613563565b73ffffffffffffffffffffffffffffffffffffffff16141515613521576040517f08c379a000000000000000000000000000000000000000000000000000000000815260040180806020018281038252600d8152602001807f4e6f205065726d697373696f6e0000000000000000000000000000000000000081525060200191505060405180910390fd5b61356060405180807f7374616b696e674d617800000000000000000000000000000000000000000000815250600a019050604051809103902082613650565b50565b600061358e7f476f7665726e616e6365436f6e74726163740000000000000000000000000000613981565b905090565b61359d8282613a5e565b81600019167f871b63105583c40db6d530b9340369142c5ae265e41a501d300455015dc1283a826040518080602001828103825283818151815260200191508051906020019080838360005b838110156136045780820151818401526020810190506135e9565b50505050905090810190601f1680156136315780820380516001836020036101000a031916815260200191505b509250505060405180910390a25050565b600060208201519050919050565b61365a8282613a95565b81600019167f58d7c10adfd5778016889c15d422d57f2975b9292415b54fe5d8cd4241200612826040518082815260200191505060405180910390a25050565b600060208201519050919050565b6136b28282613abc565b81600019167f3b274b11383ad4ca069e655ed60df9e4307b7a0f82ba2245a3cb9789ab814bf6826040518082815260200191505060405180910390a25050565b600060208201519050919050565b61370a8282613ae3565b81600019167fde32aec28e018560c62b0217a8e7cfdc094cda68f1fc7ecd4ed833ee1d4862c98260405180826000191660001916815260200191505060405180910390a25050565b61375c8282613b0e565b81600019167f43849fbc1e66a5d2cd0ace04916e2e6c8f314c1904d104cad97150428a370a41826040518080602001828103825283818151815260200191508051906020019080838360005b838110156137c35780820151818401526020810190506137a8565b50505050905090810190601f1680156137f05780820380516001836020036101000a031916815260200191505b509250505060405180910390a25050565b600060148201519050919050565b6138198282613b45565b81600019167f5ba696c1849fe23c6b280f9f6057cb4574c818e0cd542032eed6e211f1e0246482604051808273ffffffffffffffffffffffffffffffffffffffff1673ffffffffffffffffffffffffffffffffffffffff16815260200191505060405180910390a25050565b600073ffffffffffffffffffffffffffffffffffffffff168173ffffffffffffffffffffffffffffffffffffffff16141515156138c157600080fd5b8073ffffffffffffffffffffffffffffffffffffffff16600760009054906101000a900473ffffffffffffffffffffffffffffffffffffffff1673ffffffffffffffffffffffffffffffffffffffff167f8be0079c531659141344cd1fd0a4f28419497f9722a3daafe3b4186f6b6457e060405160405180910390a380600760006101000a81548173ffffffffffffffffffffffffffffffffffffffff021916908373ffffffffffffffffffffffffffffffffffffffff16021790555050565b6000600860009054906101000a900473ffffffffffffffffffffffffffffffffffffffff1673ffffffffffffffffffffffffffffffffffffffff16630d2020dd836040518263ffffffff167c0100000000000000000000000000000000000000000000000000000000028152600401808260001916600019168152602001915050602060405180830381600087803b158015613a1c57600080fd5b505af1158015613a30573d6000803e3d6000fd5b505050506040513d6020811015613a4657600080fd5b81019080805190602001909291905050509050919050565b806000600501600084600019166000191681526020019081526020016000209080519060200190613a90929190613ba6565b505050565b80600060020160008460001916600019168152602001908152602001600020819055505050565b80600060010160008460001916600019168152602001908152602001600020819055505050565b8060006006016000846000191660001916815260200190815260200160002081600019169055505050565b806000600301600084600019166000191681526020019081526020016000209080519060200190613b40929190613c26565b505050565b8060006004016000846000191660001916815260200190815260200160002060006101000a81548173ffffffffffffffffffffffffffffffffffffffff021916908373ffffffffffffffffffffffffffffffffffffffff1602179055505050565b828054600181600116156101000203166002900490600052602060002090601f016020900481019282601f10613be757805160ff1916838001178555613c15565b82800160010185558215613c15579182015b82811115613c14578251825591602001919060010190613bf9565b5b509050613c229190613ca6565b5090565b828054600181600116156101000203166002900490600052602060002090601f016020900481019282601f10613c6757805160ff1916838001178555613c95565b82800160010185558215613c95579182015b82811115613c94578251825591602001919060010190613c79565b5b509050613ca29190613ca6565b5090565b613cc891905b80821115613cc4576000816000905550600101613cac565b5090565b905600a165627a7a723058209f5fdc8b486f0a9c39c5fb2cf72af5291f47ebc9e8da4aa545a441cbceb988180029",
  "source": "pragma solidity ^0.4.24;\n\nimport \"openzeppelin-solidity/contracts/math/SafeMath.sol\";\nimport \"../abstract/EnvConstants.sol\";\nimport \"./AEnvStorage.sol\";\n//import \"./Conversion.sol\";\n\n\ncontract EnvStorageImp is AEnvStorage, EnvConstants {\n    using SafeMath for uint256;\n\n    function initialize(\n        uint256 _blocksPer, \n        uint256 _ballotDurationMin,\n        uint256 _ballotDurationMax,\n        uint256 _stakingMin,\n        uint256 _stakingMax,\n        uint256 _gasPrice,\n        uint256 _maxIdleBlockInterval\n    ) public onlyOwner {\n        uint256 blocksPer = getBlocksPer();\n        uint256 ballotDurationMin = getBallotDurationMin();\n        uint256 ballotDurationMax = getBallotDurationMax();\n        uint256 stakingMin = getStakingMin();\n        uint256 stakingMax = getStakingMax();\n        uint256 gasPrice = getGasPrice();\n        uint256 maxIdleBlockInterval = getMaxIdleBlockInterval();\n        require(_blocksPer != 0 || blocksPer != 0, \"invalid blocksPer values\");\n        require(_ballotDurationMin != 0 || ballotDurationMin != 0, \"invalid ballotDurationMin values\");\n        require(_ballotDurationMax != 0 || ballotDurationMax != 0, \"invalid ballotDurationMax values\");\n        require(_stakingMin != 0 || stakingMin != 0, \"invalid stakingMin values\");\n        require(_stakingMax != 0 || stakingMax != 0, \"invalid stakingMax values\");\n        require(_gasPrice != 0 || gasPrice != 0, \"invalid gasPrice values\");\n        require(_maxIdleBlockInterval != 0 || maxIdleBlockInterval != 0, \"invalid max Idle Block Interval values\");\n        if (blocksPer == 0) {\n            setUint(BLOCKS_PER_NAME, _blocksPer);\n        }\n        if (ballotDurationMin == 0) {\n            setUint(BALLOT_DURATION_MIN_NAME, _ballotDurationMin);\n        }\n        if (ballotDurationMax == 0) {\n            setUint(BALLOT_DURATION_MAX_NAME, _ballotDurationMax);\n        }\n        if (stakingMin == 0) {\n            setUint(STAKING_MIN_NAME, _stakingMin);\n        }\n        if (stakingMax == 0) {\n            setUint(STAKING_MAX_NAME, _stakingMax);\n        }\n        if (gasPrice == 0) {\n            setUint(GAS_PRICE_NAME,_gasPrice);\n        }\n        if (maxIdleBlockInterval == 0) {\n            setUint(MAX_IDLE_BLOCK_INTERVAL_NAME,_maxIdleBlockInterval);\n        }\n    }\n\n    function getBlocksPer() public view returns (uint256) {\n        return getUint(BLOCKS_PER_NAME);\n    }\n\n    function getBallotDurationMin() public view returns (uint256) {\n        return getUint(BALLOT_DURATION_MIN_NAME);\n    }\n\n    function getBallotDurationMax() public view returns (uint256) {\n        return getUint(BALLOT_DURATION_MAX_NAME);\n    }\n\n    function getStakingMin() public view returns (uint256) {\n        return getUint(STAKING_MIN_NAME);\n    }\n\n    function getStakingMax() public view returns (uint256) {\n        return getUint(STAKING_MAX_NAME);\n    }\n\n    function getGasPrice() public view returns (uint256) {\n        return getUint(GAS_PRICE_NAME);\n    }\n    function getMaxIdleBlockInterval() public view returns (uint256) {\n        return getUint(MAX_IDLE_BLOCK_INTERVAL_NAME);\n    }\n\n    function setBlocksPer(uint256 _value) public onlyGov { \n        setUint(BLOCKS_PER_NAME, _value);\n    }\n\n    function setBallotDurationMin(uint256 _value) public onlyGov { \n        setUint(BALLOT_DURATION_MIN_NAME, _value);\n    }\n\n    function setBallotDurationMax(uint256 _value) public onlyGov { \n        setUint(BALLOT_DURATION_MAX_NAME, _value);\n    }\n\n    function setStakingMin(uint256 _value) public onlyGov { \n        setUint(STAKING_MIN_NAME, _value);\n    }\n\n    function setStakingMax(uint256 _value) public onlyGov { \n        setUint(STAKING_MAX_NAME, _value);\n    }\n\n    function setGasPrice(uint256 _value) public onlyGov { \n        setUint(GAS_PRICE_NAME, _value);\n    }\n    \n    function setMaxIdleBlockInterval(uint256 _value) public onlyGov { \n        setUint(MAX_IDLE_BLOCK_INTERVAL_NAME, _value);\n    }\n\n    function setBlocksPerByBytes(bytes _value) public onlyGov { \n        setBlocksPer(toUint(_value));\n    }\n\n    function setBallotDurationMinByBytes(bytes _value) public onlyGov { \n        setBallotDurationMin(toUint(_value));\n    }\n\n    function setBallotDurationMaxByBytes(bytes _value) public onlyGov { \n        setBallotDurationMax(toUint(_value));\n    }\n\n    function setStakingMinByBytes(bytes _value) public onlyGov { \n        setStakingMin(toUint(_value));\n    }\n\n    function setStakingMaxByBytes(bytes _value) public onlyGov { \n        setStakingMax(toUint(_value));\n    }\n\n    function setGasPriceByBytes(bytes _value) public onlyGov { \n        setStakingMax(toUint(_value));\n    }\n\n    function setMaxIdleBlockIntervalByBytes(bytes _value) public onlyGov { \n        setStakingMax(toUint(_value));\n    }\n\n    function getTestInt() public view returns (int256) {\n        return getInt(TEST_INT);\n    }\n\n    function getTestAddress() public view returns (address) {\n        return getAddress(TEST_ADDRESS);\n    }\n\n    function getTestBytes32() public view returns (bytes32) {\n        return getBytes32(TEST_BYTES32);\n    }\n\n    function getTestBytes() public view returns (bytes) {\n        return getBytes(TEST_BYTES);\n    }\n\n    function getTestString() public view returns (string) {\n        return getString(TEST_STRING);\n    }\n\n    function setTestIntByBytes(bytes _value) public onlyGov { \n        setInt(TEST_INT, toInt(_value));\n    }\n\n    function setTestAddressByBytes(bytes _value) public onlyGov { \n        setAddress(TEST_ADDRESS, toAddress(_value));\n    }\n\n    function setTestBytes32ByBytes(bytes _value) public onlyGov { \n        setBytes32(TEST_BYTES32, toBytes32(_value));\n    }\n\n    function setTestBytesByBytes(bytes _value) public onlyGov { \n        setBytes(TEST_BYTES, _value);\n    }\n\n    function setTestStringByBytes(bytes _value) public onlyGov { \n        setString(TEST_STRING, string(_value));\n    }\n\n    function toBytes32(bytes memory _input) internal pure returns (bytes32 _output) {\n        assembly {\n            _output := mload(add(_input, 32))\n        }\n    }\n\n    function toInt(bytes memory _input) internal pure returns (int256 _output) {\n        assembly {\n            _output := mload(add(_input, 32))\n        }\n    }\n\n    function toUint(bytes memory _input) internal pure returns (uint256 _output) {\n        \n        assembly {\n            _output := mload(add(_input, 32))\n        }\n    }\n\n    function toAddress(bytes memory _input) internal pure returns (address _output) {\n        assembly {\n            _output := mload(add(_input, 20))\n        }\n    }\n}",
  "sourcePath": "/Users/ywshin/Documents/WS/truffle/governance-contract-blueisle/contracts/storage/EnvStorageImp.sol",
  "compiler": {
    "name": "solc",
    "version": "0.4.24+commit.e67f0147.Emscripten.clang"
  },
  "schemaVersion": "2.0.1",
  "updatedAt": "2019-03-13T10:51:18.613Z"
}