{
  "contractName": "Gov",
  "abi": [
    {
      "constant": true,
      "inputs": [],
      "name": "magic",
      "outputs": [
        {
          "name": "",
          "type": "uint256"
        }
      ],
      "payable": false,
      "stateMutability": "view",
      "type": "function"
    },
    {
      "constant": true,
      "inputs": [],
      "name": "STAKING_NAME",
      "outputs": [
        {
          "name": "",
          "type": "bytes32"
        }
      ],
      "payable": false,
      "stateMutability": "view",
      "type": "function"
    },
    {
      "constant": true,
      "inputs": [],
      "name": "REWARD_POOL_NAME",
      "outputs": [
        {
          "name": "",
          "type": "bytes32"
        }
      ],
      "payable": false,
      "stateMutability": "view",
      "type": "function"
    },
    {
      "constant": true,
      "inputs": [],
      "name": "implementation",
      "outputs": [
        {
          "name": "impl",
          "type": "address"
        }
      ],
      "payable": false,
      "stateMutability": "view",
      "type": "function"
    },
    {
      "constant": true,
      "inputs": [],
      "name": "GOV_NAME",
      "outputs": [
        {
          "name": "",
          "type": "bytes32"
        }
      ],
      "payable": false,
      "stateMutability": "view",
      "type": "function"
    },
    {
      "constant": false,
      "inputs": [],
      "name": "renounceOwnership",
      "outputs": [],
      "payable": false,
      "stateMutability": "nonpayable",
      "type": "function"
    },
    {
      "constant": true,
      "inputs": [],
      "name": "reg",
      "outputs": [
        {
          "name": "",
          "type": "address"
        }
      ],
      "payable": false,
      "stateMutability": "view",
      "type": "function"
    },
    {
      "constant": true,
      "inputs": [],
      "name": "ENV_STORAGE_NAME",
      "outputs": [
        {
          "name": "",
          "type": "bytes32"
        }
      ],
      "payable": false,
      "stateMutability": "view",
      "type": "function"
    },
    {
      "constant": true,
      "inputs": [],
      "name": "modifiedBlock",
      "outputs": [
        {
          "name": "",
          "type": "uint256"
        }
      ],
      "payable": false,
      "stateMutability": "view",
      "type": "function"
    },
    {
      "constant": true,
      "inputs": [],
      "name": "owner",
      "outputs": [
        {
          "name": "",
          "type": "address"
        }
      ],
      "payable": false,
      "stateMutability": "view",
      "type": "function"
    },
    {
      "constant": true,
      "inputs": [],
      "name": "isOwner",
      "outputs": [
        {
          "name": "",
          "type": "bool"
        }
      ],
      "payable": false,
      "stateMutability": "view",
      "type": "function"
    },
    {
      "constant": true,
      "inputs": [],
      "name": "BALLOT_STORAGE_NAME",
      "outputs": [
        {
          "name": "",
          "type": "bytes32"
        }
      ],
      "payable": false,
      "stateMutability": "view",
      "type": "function"
    },
    {
      "constant": false,
      "inputs": [
        {
          "name": "_addr",
          "type": "address"
        }
      ],
      "name": "setRegistry",
      "outputs": [],
      "payable": false,
      "stateMutability": "nonpayable",
      "type": "function"
    },
    {
      "constant": true,
      "inputs": [],
      "name": "ballotLength",
      "outputs": [
        {
          "name": "",
          "type": "uint256"
        }
      ],
      "payable": false,
      "stateMutability": "view",
      "type": "function"
    },
    {
      "constant": true,
      "inputs": [],
      "name": "voteLength",
      "outputs": [
        {
          "name": "",
          "type": "uint256"
        }
      ],
      "payable": false,
      "stateMutability": "view",
      "type": "function"
    },
    {
      "constant": false,
      "inputs": [
        {
          "name": "newOwner",
          "type": "address"
        }
      ],
      "name": "transferOwnership",
      "outputs": [],
      "payable": false,
      "stateMutability": "nonpayable",
      "type": "function"
    },
    {
      "inputs": [],
      "payable": false,
      "stateMutability": "nonpayable",
      "type": "constructor"
    },
    {
      "payable": true,
      "stateMutability": "payable",
      "type": "fallback"
    },
    {
      "anonymous": false,
      "inputs": [
        {
          "indexed": true,
          "name": "previousOwner",
          "type": "address"
        },
        {
          "indexed": true,
          "name": "newOwner",
          "type": "address"
        }
      ],
      "name": "OwnershipTransferred",
      "type": "event"
    },
    {
      "anonymous": false,
      "inputs": [
        {
          "indexed": true,
          "name": "implementation",
          "type": "address"
        }
      ],
      "name": "Upgraded",
      "type": "event"
    },
    {
      "constant": true,
      "inputs": [
        {
          "name": "addr",
          "type": "address"
        }
      ],
      "name": "isMember",
      "outputs": [
        {
          "name": "",
          "type": "bool"
        }
      ],
      "payable": false,
      "stateMutability": "view",
      "type": "function"
    },
    {
      "constant": true,
      "inputs": [
        {
          "name": "idx",
          "type": "uint256"
        }
      ],
      "name": "getMember",
      "outputs": [
        {
          "name": "",
          "type": "address"
        }
      ],
      "payable": false,
      "stateMutability": "view",
      "type": "function"
    },
    {
      "constant": true,
      "inputs": [],
      "name": "getMemberLength",
      "outputs": [
        {
          "name": "",
          "type": "uint256"
        }
      ],
      "payable": false,
      "stateMutability": "view",
      "type": "function"
    },
    {
      "constant": true,
      "inputs": [
        {
          "name": "idx",
          "type": "uint256"
        }
      ],
      "name": "getReward",
      "outputs": [
        {
          "name": "",
          "type": "address"
        }
      ],
      "payable": false,
      "stateMutability": "view",
      "type": "function"
    },
    {
      "constant": true,
      "inputs": [
        {
          "name": "addr",
          "type": "address"
        }
      ],
      "name": "getNodeIdxFromMember",
      "outputs": [
        {
          "name": "",
          "type": "uint256"
        }
      ],
      "payable": false,
      "stateMutability": "view",
      "type": "function"
    },
    {
      "constant": true,
      "inputs": [
        {
          "name": "idx",
          "type": "uint256"
        }
      ],
      "name": "getMemberFromNodeIdx",
      "outputs": [
        {
          "name": "",
          "type": "address"
        }
      ],
      "payable": false,
      "stateMutability": "view",
      "type": "function"
    },
    {
      "constant": true,
      "inputs": [],
      "name": "getNodeLength",
      "outputs": [
        {
          "name": "",
          "type": "uint256"
        }
      ],
      "payable": false,
      "stateMutability": "view",
      "type": "function"
    },
    {
      "constant": true,
      "inputs": [
        {
          "name": "idx",
          "type": "uint256"
        }
      ],
      "name": "getNode",
      "outputs": [
        {
          "name": "name",
          "type": "bytes"
        },
        {
          "name": "enode",
          "type": "bytes"
        },
        {
          "name": "ip",
          "type": "bytes"
        },
        {
          "name": "port",
          "type": "uint256"
        }
      ],
      "payable": false,
      "stateMutability": "view",
      "type": "function"
    },
    {
      "constant": true,
      "inputs": [],
      "name": "getBallotInVoting",
      "outputs": [
        {
          "name": "",
          "type": "uint256"
        }
      ],
      "payable": false,
      "stateMutability": "view",
      "type": "function"
    },
    {
      "constant": false,
      "inputs": [
        {
          "name": "registry",
          "type": "address"
        },
        {
          "name": "implementation",
          "type": "address"
        },
        {
          "name": "lockAmount",
          "type": "uint256"
        },
        {
          "name": "name",
          "type": "bytes"
        },
        {
          "name": "enode",
          "type": "bytes"
        },
        {
          "name": "ip",
          "type": "bytes"
        },
        {
          "name": "port",
          "type": "uint256"
        }
      ],
      "name": "init",
      "outputs": [],
      "payable": false,
      "stateMutability": "nonpayable",
      "type": "function"
    },
    {
      "constant": false,
      "inputs": [
        {
          "name": "registry",
          "type": "address"
        },
        {
          "name": "implementation",
          "type": "address"
        },
        {
          "name": "data",
          "type": "bytes"
        }
      ],
      "name": "initOnce",
      "outputs": [],
      "payable": false,
      "stateMutability": "nonpayable",
      "type": "function"
    }
  ],
  "bytecode": "0x6080604052724d6574616469756d20476f7665726e616e636560025534801561002757600080fd5b50336000806101000a81548173ffffffffffffffffffffffffffffffffffffffff021916908373ffffffffffffffffffffffffffffffffffffffff1602179055506000809054906101000a900473ffffffffffffffffffffffffffffffffffffffff1673ffffffffffffffffffffffffffffffffffffffff16600073ffffffffffffffffffffffffffffffffffffffff167f8be0079c531659141344cd1fd0a4f28419497f9722a3daafe3b4186f6b6457e060405160405180910390a36000600460006101000a81548160ff02191690831515021790555060006007819055506000600d819055506000600e819055506000600f819055506000601081905550611e44806101366000396000f30060806040526004361061015f576000357c0100000000000000000000000000000000000000000000000000000000900463ffffffff1680630d854646146101ce57806315bf6b4d146101f95780631c4b774b146102665780631e0cba0d146102d35780631fb85d91146103065780632f40992e146103af5780634f0f4aa9146103e25780635c60da1b146105675780636c78d2cf146105be578063715018a6146105f157806372016f7514610608578063738fdd1a146106335780637bf465301461068a5780637d10dd1b146106bd5780638c38bdf5146106e85780638da5cb5b146108315780638f32d59b146108885780639986e4b9146108b7578063a230c524146108ea578063a91ee0dc14610945578063ab3545e514610988578063ce6a54ff146109f5578063d6f9cfce14610a4c578063d965ea0014610a77578063de09b37714610aa2578063e9523fb514610acd578063f2fde38b14610af8575b6000610169610b3b565b9050600073ffffffffffffffffffffffffffffffffffffffff168173ffffffffffffffffffffffffffffffffffffffff16141515156101a757600080fd5b60405136600082376000803683855af43d806000843e81600081146101ca578184f35b8184fd5b3480156101da57600080fd5b506101e3610ba4565b6040518082815260200191505060405180910390f35b34801561020557600080fd5b5061022460048036038101908080359060200190929190505050610baa565b604051808273ffffffffffffffffffffffffffffffffffffffff1673ffffffffffffffffffffffffffffffffffffffff16815260200191505060405180910390f35b34801561027257600080fd5b5061029160048036038101908080359060200190929190505050610be7565b604051808273ffffffffffffffffffffffffffffffffffffffff1673ffffffffffffffffffffffffffffffffffffffff16815260200191505060405180910390f35b3480156102df57600080fd5b506102e8610c24565b60405180826000191660001916815260200191505060405180910390f35b34801561031257600080fd5b506103ad600480360381019080803573ffffffffffffffffffffffffffffffffffffffff169060200190929190803573ffffffffffffffffffffffffffffffffffffffff169060200190929190803590602001908201803590602001908080601f0160208091040260200160405190810160405280939291908181526020018383808284378201915050505050509192919290505050610c48565b005b3480156103bb57600080fd5b506103c4611007565b60405180826000191660001916815260200191505060405180910390f35b3480156103ee57600080fd5b5061040d6004803603810190808035906020019092919050505061102b565b60405180806020018060200180602001858152602001848103845288818151815260200191508051906020019080838360005b8381101561045b578082015181840152602081019050610440565b50505050905090810190601f1680156104885780820380516001836020036101000a031916815260200191505b50848103835287818151815260200191508051906020019080838360005b838110156104c15780820151818401526020810190506104a6565b50505050905090810190601f1680156104ee5780820380516001836020036101000a031916815260200191505b50848103825286818151815260200191508051906020019080838360005b8381101561052757808201518184015260208101905061050c565b50505050905090810190601f1680156105545780820380516001836020036101000a031916815260200191505b5097505050505050505060405180910390f35b34801561057357600080fd5b5061057c610b3b565b604051808273ffffffffffffffffffffffffffffffffffffffff1673ffffffffffffffffffffffffffffffffffffffff16815260200191505060405180910390f35b3480156105ca57600080fd5b506105d361126e565b60405180826000191660001916815260200191505060405180910390f35b3480156105fd57600080fd5b50610606611292565b005b34801561061457600080fd5b5061061d611364565b6040518082815260200191505060405180910390f35b34801561063f57600080fd5b5061064861136e565b604051808273ffffffffffffffffffffffffffffffffffffffff1673ffffffffffffffffffffffffffffffffffffffff16815260200191505060405180910390f35b34801561069657600080fd5b5061069f611394565b60405180826000191660001916815260200191505060405180910390f35b3480156106c957600080fd5b506106d26113b8565b6040518082815260200191505060405180910390f35b3480156106f457600080fd5b5061082f600480360381019080803573ffffffffffffffffffffffffffffffffffffffff169060200190929190803573ffffffffffffffffffffffffffffffffffffffff16906020019092919080359060200190929190803590602001908201803590602001908080601f0160208091040260200160405190810160405280939291908181526020018383808284378201915050505050509192919290803590602001908201803590602001908080601f0160208091040260200160405190810160405280939291908181526020018383808284378201915050505050509192919290803590602001908201803590602001908080601f0160208091040260200160405190810160405280939291908181526020018383808284378201915050505050509192919290803590602001909291905050506113be565b005b34801561083d57600080fd5b506108466118f9565b604051808273ffffffffffffffffffffffffffffffffffffffff1673ffffffffffffffffffffffffffffffffffffffff16815260200191505060405180910390f35b34801561089457600080fd5b5061089d611922565b604051808215151515815260200191505060405180910390f35b3480156108c357600080fd5b506108cc611979565b60405180826000191660001916815260200191505060405180910390f35b3480156108f657600080fd5b5061092b600480360381019080803573ffffffffffffffffffffffffffffffffffffffff16906020019092919050505061199d565b604051808215151515815260200191505060405180910390f35b34801561095157600080fd5b50610986600480360381019080803573ffffffffffffffffffffffffffffffffffffffff1690602001909291905050506119e9565b005b34801561099457600080fd5b506109b360048036038101908080359060200190929190505050611a40565b604051808273ffffffffffffffffffffffffffffffffffffffff1673ffffffffffffffffffffffffffffffffffffffff16815260200191505060405180910390f35b348015610a0157600080fd5b50610a36600480360381019080803573ffffffffffffffffffffffffffffffffffffffff169060200190929190505050611a7d565b6040518082815260200191505060405180910390f35b348015610a5857600080fd5b50610a61611ac6565b6040518082815260200191505060405180910390f35b348015610a8357600080fd5b50610a8c611acc565b6040518082815260200191505060405180910390f35b348015610aae57600080fd5b50610ab7611ad6565b6040518082815260200191505060405180910390f35b348015610ad957600080fd5b50610ae2611ae0565b6040518082815260200191505060405180910390f35b348015610b0457600080fd5b50610b39600480360381019080803573ffffffffffffffffffffffffffffffffffffffff169060200190929190505050611ae6565b005b60008060405180807f6f72672e6d6574616469756d2e70726f78792e696d706c656d656e746174696f81526020017f6e00000000000000000000000000000000000000000000000000000000000000815250602101905060405180910390209050805491505090565b60025481565b6000600c600083815260200190815260200160002060009054906101000a900473ffffffffffffffffffffffffffffffffffffffff169050919050565b60006008600083815260200190815260200160002060009054906101000a900473ffffffffffffffffffffffffffffffffffffffff169050919050565b7f5374616b696e670000000000000000000000000000000000000000000000000081565b600060608060606000806000806000610c5f611922565b1515610c6a57600080fd5b60001515600460009054906101000a900460ff161515141515610cf5576040517f08c379a00000000000000000000000000000000000000000000000000000000081526004018080602001828103825260138152602001807f416c726561647920696e697469616c697a65640000000000000000000000000081525060200191505060405180910390fd5b610cfe8c6119e9565b610d078b611b05565b6001600460006101000a81548160ff021916908315150217905550436003819055506000935060208a0192508951830191505b81831015610feb57825194508498506020830192508183101515610d5d57600080fd5b8297508751602001830192508183101515610d7757600080fd5b8296508651602001830192508183101515610d9157600080fd5b8295508551602001830192508183101515610dab57600080fd5b82519450602083019250600184019350886005600086815260200190815260200160002060006101000a81548173ffffffffffffffffffffffffffffffffffffffff021916908373ffffffffffffffffffffffffffffffffffffffff16021790555083600660008b73ffffffffffffffffffffffffffffffffffffffff1673ffffffffffffffffffffffffffffffffffffffff16815260200190815260200160002081905550886008600086815260200190815260200160002060006101000a81548173ffffffffffffffffffffffffffffffffffffffff021916908373ffffffffffffffffffffffffffffffffffffffff16021790555083600960008b73ffffffffffffffffffffffffffffffffffffffff1673ffffffffffffffffffffffffffffffffffffffff16815260200190815260200160002081905550600a6000858152602001908152602001600020905087816000019080519060200190610f14929190611d73565b5086816001019080519060200190610f2d929190611d73565b5085816002019080519060200190610f46929190611d73565b5084816003018190555088600c600086815260200190815260200160002060006101000a81548173ffffffffffffffffffffffffffffffffffffffff021916908373ffffffffffffffffffffffffffffffffffffffff16021790555083600b60008b73ffffffffffffffffffffffffffffffffffffffff1673ffffffffffffffffffffffffffffffffffffffff16815260200190815260200160002081905550610d3a565b8360078190555083600d81905550505050505050505050505050565b7f526577617264506f6f6c0000000000000000000000000000000000000000000081565b60608060606000600a6000868152602001908152602001600020600001600a6000878152602001908152602001600020600101600a6000888152602001908152602001600020600201600a600089815260200190815260200160002060030154838054600181600116156101000203166002900480601f0160208091040260200160405190810160405280929190818152602001828054600181600116156101000203166002900480156111205780601f106110f557610100808354040283529160200191611120565b820191906000526020600020905b81548152906001019060200180831161110357829003601f168201915b50505050509350828054600181600116156101000203166002900480601f0160208091040260200160405190810160405280929190818152602001828054600181600116156101000203166002900480156111bc5780601f10611191576101008083540402835291602001916111bc565b820191906000526020600020905b81548152906001019060200180831161119f57829003601f168201915b50505050509250818054600181600116156101000203166002900480601f0160208091040260200160405190810160405280929190818152602001828054600181600116156101000203166002900480156112585780601f1061122d57610100808354040283529160200191611258565b820191906000526020600020905b81548152906001019060200180831161123b57829003601f168201915b5050505050915093509350935093509193509193565b7f476f7665726e616e6365436f6e7472616374000000000000000000000000000081565b61129a611922565b15156112a557600080fd5b600073ffffffffffffffffffffffffffffffffffffffff166000809054906101000a900473ffffffffffffffffffffffffffffffffffffffff1673ffffffffffffffffffffffffffffffffffffffff167f8be0079c531659141344cd1fd0a4f28419497f9722a3daafe3b4186f6b6457e060405160405180910390a360008060006101000a81548173ffffffffffffffffffffffffffffffffffffffff021916908373ffffffffffffffffffffffffffffffffffffffff160217905550565b6000600d54905090565b600160009054906101000a900473ffffffffffffffffffffffffffffffffffffffff1681565b7f456e7653746f726167650000000000000000000000000000000000000000000081565b60035481565b6000806113c9611922565b15156113d457600080fd5b60001515600460009054906101000a900460ff16151514151561145f576040517f08c379a00000000000000000000000000000000000000000000000000000000081526004018080602001828103825260138152602001807f416c726561647920696e697469616c697a65640000000000000000000000000081525060200191505060405180910390fd5b611468896119e9565b61147188611b05565b611479611b6c565b9150868273ffffffffffffffffffffffffffffffffffffffff166325d998bb336040518263ffffffff167c0100000000000000000000000000000000000000000000000000000000028152600401808273ffffffffffffffffffffffffffffffffffffffff1673ffffffffffffffffffffffffffffffffffffffff168152602001915050602060405180830381600087803b15801561151757600080fd5b505af115801561152b573d6000803e3d6000fd5b505050506040513d602081101561154157600080fd5b8101908080519060200190929190505050101515156115c8576040517f08c379a00000000000000000000000000000000000000000000000000000000081526004018080602001828103825260148152602001807f496e73756666696369656e74207374616b696e6700000000000000000000000081525060200191505060405180910390fd5b8173ffffffffffffffffffffffffffffffffffffffff1663282d3fdf33896040518363ffffffff167c0100000000000000000000000000000000000000000000000000000000028152600401808373ffffffffffffffffffffffffffffffffffffffff1673ffffffffffffffffffffffffffffffffffffffff16815260200182815260200192505050600060405180830381600087803b15801561166b57600080fd5b505af115801561167f573d6000803e3d6000fd5b5050505060016007819055503360056000600754815260200190815260200160002060006101000a81548173ffffffffffffffffffffffffffffffffffffffff021916908373ffffffffffffffffffffffffffffffffffffffff160217905550600754600660003373ffffffffffffffffffffffffffffffffffffffff1673ffffffffffffffffffffffffffffffffffffffff168152602001908152602001600020819055503360086000600754815260200190815260200160002060006101000a81548173ffffffffffffffffffffffffffffffffffffffff021916908373ffffffffffffffffffffffffffffffffffffffff160217905550600754600960003373ffffffffffffffffffffffffffffffffffffffff1673ffffffffffffffffffffffffffffffffffffffff168152602001908152602001600020819055506001600d81905550600a6000600d5481526020019081526020016000209050858160000190805190602001906117f6929190611d73565b508481600101908051906020019061180f929190611d73565b5083816002019080519060200190611828929190611d73565b50828160030181905550600d54600b60003373ffffffffffffffffffffffffffffffffffffffff1673ffffffffffffffffffffffffffffffffffffffff1681526020019081526020016000208190555033600c6000600d54815260200190815260200160002060006101000a81548173ffffffffffffffffffffffffffffffffffffffff021916908373ffffffffffffffffffffffffffffffffffffffff1602179055506001600460006101000a81548160ff02191690831515021790555043600381905550505050505050505050565b60008060009054906101000a900473ffffffffffffffffffffffffffffffffffffffff16905090565b60008060009054906101000a900473ffffffffffffffffffffffffffffffffffffffff1673ffffffffffffffffffffffffffffffffffffffff163373ffffffffffffffffffffffffffffffffffffffff1614905090565b7f42616c6c6f7453746f726167650000000000000000000000000000000000000081565b600080600660008473ffffffffffffffffffffffffffffffffffffffff1673ffffffffffffffffffffffffffffffffffffffff1681526020019081526020016000205414159050919050565b6119f1611922565b15156119fc57600080fd5b80600160006101000a81548173ffffffffffffffffffffffffffffffffffffffff021916908373ffffffffffffffffffffffffffffffffffffffff16021790555050565b60006005600083815260200190815260200160002060009054906101000a900473ffffffffffffffffffffffffffffffffffffffff169050919050565b6000600b60008373ffffffffffffffffffffffffffffffffffffffff1673ffffffffffffffffffffffffffffffffffffffff168152602001908152602001600020549050919050565b600e5481565b6000600754905090565b6000601054905090565b600f5481565b611aee611922565b1515611af957600080fd5b611b0281611b9c565b50565b600060405180807f6f72672e6d6574616469756d2e70726f78792e696d706c656d656e746174696f81526020017f6e000000000000000000000000000000000000000000000000000000000000008152506021019050604051809103902090508181555050565b6000611b977f5374616b696e6700000000000000000000000000000000000000000000000000611c96565b905090565b600073ffffffffffffffffffffffffffffffffffffffff168173ffffffffffffffffffffffffffffffffffffffff1614151515611bd857600080fd5b8073ffffffffffffffffffffffffffffffffffffffff166000809054906101000a900473ffffffffffffffffffffffffffffffffffffffff1673ffffffffffffffffffffffffffffffffffffffff167f8be0079c531659141344cd1fd0a4f28419497f9722a3daafe3b4186f6b6457e060405160405180910390a3806000806101000a81548173ffffffffffffffffffffffffffffffffffffffff021916908373ffffffffffffffffffffffffffffffffffffffff16021790555050565b6000600160009054906101000a900473ffffffffffffffffffffffffffffffffffffffff1673ffffffffffffffffffffffffffffffffffffffff16630d2020dd836040518263ffffffff167c0100000000000000000000000000000000000000000000000000000000028152600401808260001916600019168152602001915050602060405180830381600087803b158015611d3157600080fd5b505af1158015611d45573d6000803e3d6000fd5b505050506040513d6020811015611d5b57600080fd5b81019080805190602001909291905050509050919050565b828054600181600116156101000203166002900490600052602060002090601f016020900481019282601f10611db457805160ff1916838001178555611de2565b82800160010185558215611de2579182015b82811115611de1578251825591602001919060010190611dc6565b5b509050611def9190611df3565b5090565b611e1591905b80821115611e11576000816000905550600101611df9565b5090565b905600a165627a7a72305820b5b133a1132b1ea2a0e51d4844bee135ad9d685acb6634ffa061f36d770b41970029",
  "source": "pragma solidity ^0.4.24;\n\nimport \"openzeppelin-solidity/contracts/math/SafeMath.sol\";\nimport \"./proxy/UpgradeabilityProxy.sol\";\nimport \"./interface/IStaking.sol\";\nimport \"./GovChecker.sol\";\n\n\ncontract Gov is UpgradeabilityProxy, GovChecker {\n    // \"Metadium Governance\"\n    uint public magic = 0x4d6574616469756d20476f7665726e616e6365;\n    uint public modifiedBlock;\n    bool private _initialized;\n\n    // For voting member\n    mapping(uint256 => address) internal members;\n    mapping(address => uint256) internal memberIdx;\n    uint256 internal memberLength;\n\n    // For reward member\n    mapping(uint256 => address) internal rewards;\n    mapping(address => uint256) internal rewardIdx;\n\n    // For enode\n    struct Node {\n        bytes name;\n        bytes enode;\n        bytes ip;\n        uint port;\n    }\n\n    mapping(uint256 => Node) internal nodes;\n    mapping(address => uint256) internal nodeIdxFromMember;\n    mapping(uint256 => address) internal nodeToMember;\n    uint256 internal nodeLength;\n\n    // For ballot\n    uint256 public ballotLength;\n    uint256 public voteLength;\n    uint256 internal ballotInVoting;\n\n    constructor() public {\n        _initialized = false;\n        memberLength = 0;\n        nodeLength = 0;\n        ballotLength = 0;\n        voteLength = 0;\n        ballotInVoting = 0;\n    }\n\n    function isMember(address addr) public view returns (bool) { return (memberIdx[addr] != 0); }\n    function getMember(uint256 idx) public view returns (address) { return members[idx]; }\n    function getMemberLength() public view returns (uint256) { return memberLength; }\n    function getReward(uint256 idx) public view returns (address) { return rewards[idx]; }\n    function getNodeIdxFromMember(address addr) public view returns (uint256) { return nodeIdxFromMember[addr]; }\n    function getMemberFromNodeIdx(uint256 idx) public view returns (address) { return nodeToMember[idx]; }\n    function getNodeLength() public view returns (uint256) { return nodeLength; }\n\n    function getNode(uint256 idx) public view returns (bytes name, bytes enode, bytes ip, uint port) {\n        return (nodes[idx].name, nodes[idx].enode, nodes[idx].ip, nodes[idx].port);\n    }\n\n    function getBallotInVoting() public view returns (uint256) { return ballotInVoting; }\n\n    function init(\n        address registry,\n        address implementation,\n        uint256 lockAmount,\n        bytes name,\n        bytes enode,\n        bytes ip,\n        uint port\n    )\n        public onlyOwner\n    {\n        require(_initialized == false, \"Already initialized\");\n\n        setRegistry(registry);\n        setImplementation(implementation);\n\n        // Lock\n        IStaking staking = IStaking(getStakingAddress());\n        require(staking.availableBalanceOf(msg.sender) >= lockAmount, \"Insufficient staking\");\n        staking.lock(msg.sender, lockAmount);\n\n        // Add voting member\n        memberLength = 1;\n        members[memberLength] = msg.sender;\n        memberIdx[msg.sender] = memberLength;\n\n        // Add reward member\n        rewards[memberLength] = msg.sender;\n        rewardIdx[msg.sender] = memberLength;\n\n        // Add node\n        nodeLength = 1;\n        Node storage node = nodes[nodeLength];\n        node.name = name;\n        node.enode = enode;\n        node.ip = ip;\n        node.port = port;\n        nodeIdxFromMember[msg.sender] = nodeLength;\n        nodeToMember[nodeLength] = msg.sender;\n\n        _initialized = true;\n        modifiedBlock = block.number;\n    }\n\n    function initOnce(\n        address registry,\n        address implementation,\n        bytes data\n    )\n        public onlyOwner\n    {\n        require(_initialized == false, \"Already initialized\");\n\n        setRegistry(registry);\n        setImplementation(implementation);\n\n        _initialized = true;\n        modifiedBlock = block.number;\n\n        // []{uint addr, bytes name, bytes enode, bytes ip, uint port}\n        // 32 bytes, [32 bytes, <data>] * 3, 32 bytes\n        address addr;\n        bytes memory name;\n        bytes memory enode;\n        bytes memory ip;\n        uint port;\n        uint idx = 0;\n\n        uint ix;\n        uint eix;\n        assembly {\n            ix := add(data, 0x20)\n        }\n        eix = ix + data.length;\n        while (ix < eix) {\n            assembly {\n                port := mload(ix)\n            }\n            addr = address(port);\n            ix += 0x20;\n            require(ix < eix);\n\n            assembly {\n                name := ix\n            }\n            ix += 0x20 + name.length;\n            require(ix < eix);\n\n            assembly {\n                enode := ix\n            }\n            ix += 0x20 + enode.length;\n            require(ix < eix);\n\n            assembly {\n                ip := ix\n            }\n            ix += 0x20 + ip.length;\n            require(ix < eix);\n\n            assembly {\n                port := mload(ix)\n            }\n            ix += 0x20;\n\n            idx += 1;\n            members[idx] = addr;\n            memberIdx[addr] = idx;\n            rewards[idx] = addr;\n            rewardIdx[addr] = idx;\n\n            Node storage node = nodes[idx];\n            node.name = name;\n            node.enode = enode;\n            node.ip = ip;\n            node.port = port;\n            nodeToMember[idx] = addr;\n            nodeIdxFromMember[addr] = idx;\n        }\n        memberLength = idx;\n        nodeLength = idx;\n    }\n}\n",
  "sourcePath": "/Users/ywshin/Documents/WS/truffle/governance-contract-blueisle/contracts/Gov.sol",
  "compiler": {
    "name": "solc",
    "version": "0.4.24+commit.e67f0147.Emscripten.clang"
  },
  "schemaVersion": "2.0.1",
  "updatedAt": "2019-03-13T10:51:18.683Z"
}