{
  "_format": "hh-sol-artifact-1",
  "contractName": "Gov",
  "sourceName": "contracts/Gov.sol",
  "abi": [
    {
      "anonymous": false,
      "inputs": [
        {
          "indexed": false,
          "internalType": "address",
          "name": "previousAdmin",
          "type": "address"
        },
        {
          "indexed": false,
          "internalType": "address",
          "name": "newAdmin",
          "type": "address"
        }
      ],
      "name": "AdminChanged",
      "type": "event"
    },
    {
      "anonymous": false,
      "inputs": [
        {
          "indexed": true,
          "internalType": "address",
          "name": "beacon",
          "type": "address"
        }
      ],
      "name": "BeaconUpgraded",
      "type": "event"
    },
    {
      "anonymous": false,
      "inputs": [
        {
          "indexed": true,
          "internalType": "address",
          "name": "previousOwner",
          "type": "address"
        },
        {
          "indexed": true,
          "internalType": "address",
          "name": "newOwner",
          "type": "address"
        }
      ],
      "name": "OwnershipTransferred",
      "type": "event"
    },
    {
      "anonymous": false,
      "inputs": [
        {
          "indexed": true,
          "internalType": "address",
          "name": "implementation",
          "type": "address"
        }
      ],
      "name": "Upgraded",
      "type": "event"
    },
    {
      "stateMutability": "payable",
      "type": "fallback"
    },
    {
      "inputs": [],
      "name": "BALLOT_STORAGE_NAME",
      "outputs": [
        {
          "internalType": "bytes32",
          "name": "",
          "type": "bytes32"
        }
      ],
      "stateMutability": "view",
      "type": "function"
    },
    {
      "inputs": [],
      "name": "ENV_STORAGE_NAME",
      "outputs": [
        {
          "internalType": "bytes32",
          "name": "",
          "type": "bytes32"
        }
      ],
      "stateMutability": "view",
      "type": "function"
    },
    {
      "inputs": [],
      "name": "GOV_NAME",
      "outputs": [
        {
          "internalType": "bytes32",
          "name": "",
          "type": "bytes32"
        }
      ],
      "stateMutability": "view",
      "type": "function"
    },
    {
      "inputs": [],
      "name": "MAINTENANCE_NAME",
      "outputs": [
        {
          "internalType": "bytes32",
          "name": "",
          "type": "bytes32"
        }
      ],
      "stateMutability": "view",
      "type": "function"
    },
    {
      "inputs": [],
      "name": "REWARD_POOL_NAME",
      "outputs": [
        {
          "internalType": "bytes32",
          "name": "",
          "type": "bytes32"
        }
      ],
      "stateMutability": "view",
      "type": "function"
    },
    {
      "inputs": [],
      "name": "STAKING_NAME",
      "outputs": [
        {
          "internalType": "bytes32",
          "name": "",
          "type": "bytes32"
        }
      ],
      "stateMutability": "view",
      "type": "function"
    },
    {
      "inputs": [],
      "name": "ballotLength",
      "outputs": [
        {
          "internalType": "uint256",
          "name": "",
          "type": "uint256"
        }
      ],
      "stateMutability": "view",
      "type": "function"
    },
    {
      "inputs": [],
      "name": "getBallotInVoting",
      "outputs": [
        {
          "internalType": "uint256",
          "name": "",
          "type": "uint256"
        }
      ],
      "stateMutability": "view",
      "type": "function"
    },
    {
      "inputs": [
        {
          "internalType": "uint256",
          "name": "idx",
          "type": "uint256"
        }
      ],
      "name": "getMember",
      "outputs": [
        {
          "internalType": "address",
          "name": "",
          "type": "address"
        }
      ],
      "stateMutability": "view",
      "type": "function"
    },
    {
      "inputs": [
        {
          "internalType": "uint256",
          "name": "idx",
          "type": "uint256"
        }
      ],
      "name": "getMemberFromNodeIdx",
      "outputs": [
        {
          "internalType": "address",
          "name": "",
          "type": "address"
        }
      ],
      "stateMutability": "view",
      "type": "function"
    },
    {
      "inputs": [],
      "name": "getMemberLength",
      "outputs": [
        {
          "internalType": "uint256",
          "name": "",
          "type": "uint256"
        }
      ],
      "stateMutability": "view",
      "type": "function"
    },
    {
      "inputs": [
        {
          "internalType": "uint256",
          "name": "idx",
          "type": "uint256"
        }
      ],
      "name": "getNode",
      "outputs": [
        {
          "internalType": "bytes",
          "name": "name",
          "type": "bytes"
        },
        {
          "internalType": "bytes",
          "name": "enode",
          "type": "bytes"
        },
        {
          "internalType": "bytes",
          "name": "ip",
          "type": "bytes"
        },
        {
          "internalType": "uint256",
          "name": "port",
          "type": "uint256"
        }
      ],
      "stateMutability": "view",
      "type": "function"
    },
    {
      "inputs": [
        {
          "internalType": "address",
          "name": "addr",
          "type": "address"
        }
      ],
      "name": "getNodeIdxFromMember",
      "outputs": [
        {
          "internalType": "uint256",
          "name": "",
          "type": "uint256"
        }
      ],
      "stateMutability": "view",
      "type": "function"
    },
    {
      "inputs": [],
      "name": "getNodeLength",
      "outputs": [
        {
          "internalType": "uint256",
          "name": "",
          "type": "uint256"
        }
      ],
      "stateMutability": "view",
      "type": "function"
    },
    {
      "inputs": [
        {
          "internalType": "uint256",
          "name": "idx",
          "type": "uint256"
        }
      ],
      "name": "getReward",
      "outputs": [
        {
          "internalType": "address",
          "name": "",
          "type": "address"
        }
      ],
      "stateMutability": "view",
      "type": "function"
    },
    {
      "inputs": [
        {
          "internalType": "uint256",
          "name": "idx",
          "type": "uint256"
        }
      ],
      "name": "getStaker",
      "outputs": [
        {
          "internalType": "address",
          "name": "",
          "type": "address"
        }
      ],
      "stateMutability": "view",
      "type": "function"
    },
    {
      "inputs": [],
      "name": "implementation",
      "outputs": [
        {
          "internalType": "address",
          "name": "",
          "type": "address"
        }
      ],
      "stateMutability": "view",
      "type": "function"
    },
    {
      "inputs": [
        {
          "internalType": "address",
          "name": "registry",
          "type": "address"
        },
        {
          "internalType": "address",
          "name": "newImplementation",
          "type": "address"
        },
        {
          "internalType": "address",
          "name": "staker",
          "type": "address"
        },
        {
          "internalType": "uint256",
          "name": "lockAmount",
          "type": "uint256"
        },
        {
          "internalType": "bytes",
          "name": "name",
          "type": "bytes"
        },
        {
          "internalType": "bytes",
          "name": "enode",
          "type": "bytes"
        },
        {
          "internalType": "bytes",
          "name": "ip",
          "type": "bytes"
        },
        {
          "internalType": "uint256",
          "name": "port",
          "type": "uint256"
        }
      ],
      "name": "init",
      "outputs": [],
      "stateMutability": "nonpayable",
      "type": "function"
    },
    {
      "inputs": [
        {
          "internalType": "address",
          "name": "addr",
          "type": "address"
        }
      ],
      "name": "isMember",
      "outputs": [
        {
          "internalType": "bool",
          "name": "",
          "type": "bool"
        }
      ],
      "stateMutability": "view",
      "type": "function"
    },
    {
      "inputs": [],
      "name": "magic",
      "outputs": [
        {
          "internalType": "uint256",
          "name": "",
          "type": "uint256"
        }
      ],
      "stateMutability": "view",
      "type": "function"
    },
    {
      "inputs": [],
      "name": "modifiedBlock",
      "outputs": [
        {
          "internalType": "uint256",
          "name": "",
          "type": "uint256"
        }
      ],
      "stateMutability": "view",
      "type": "function"
    },
    {
      "inputs": [],
      "name": "owner",
      "outputs": [
        {
          "internalType": "address",
          "name": "",
          "type": "address"
        }
      ],
      "stateMutability": "view",
      "type": "function"
    },
    {
      "inputs": [],
      "name": "reg",
      "outputs": [
        {
          "internalType": "contract IRegistry",
          "name": "",
          "type": "address"
        }
      ],
      "stateMutability": "view",
      "type": "function"
    },
    {
      "inputs": [],
      "name": "renounceOwnership",
      "outputs": [],
      "stateMutability": "nonpayable",
      "type": "function"
    },
    {
      "inputs": [
        {
          "internalType": "address",
          "name": "_addr",
          "type": "address"
        }
      ],
      "name": "setRegistry",
      "outputs": [],
      "stateMutability": "nonpayable",
      "type": "function"
    },
    {
      "inputs": [
        {
          "internalType": "address",
          "name": "newOwner",
          "type": "address"
        }
      ],
      "name": "transferOwnership",
      "outputs": [],
      "stateMutability": "nonpayable",
      "type": "function"
    },
    {
      "inputs": [],
      "name": "voteLength",
      "outputs": [
        {
          "internalType": "uint256",
          "name": "",
          "type": "uint256"
        }
      ],
      "stateMutability": "view",
      "type": "function"
    },
    {
      "stateMutability": "payable",
      "type": "receive"
    }
  ],
  "bytecode": "0x6080604052724d6574616469756d20476f7665726e616e636560125534801561002757600080fd5b5061003133610036565b610086565b600080546001600160a01b038381166001600160a01b0319831681178455604051919092169283917f8be0079c531659141344cd1fd0a4f28419497f9722a3daafe3b4186f6b6457e09190a35050565b6117bb806100956000396000f3fe6080604052600436106101a05760003560e01c80637d10dd1b116100ec578063d0bb6d241161008a578063de09b37711610064578063de09b37714610515578063e3c998fe1461052a578063e9523fb514610560578063f2fde38b14610576576101af565b8063d0bb6d24146104ca578063d6f9cfce146104ea578063d965ea0014610500576101af565b8063a230c524116100c6578063a230c524146103f6578063a91ee0dc1461043e578063ab3545e51461045e578063ce6a54ff14610494576101af565b80637d10dd1b1461039e5780638da5cb5b146103b45780639986e4b9146103d2576101af565b80634f0f4aa911610159578063715018a611610133578063715018a61461033357806372016f7514610348578063738fdd1a1461035d5780637bf465301461037d576101af565b80634f0f4aa9146102c55780635c60da1b146102f55780636c78d2cf1461030a576101af565b80630d854646146101b757806315bf6b4d146101e05780631c4b774b1461022e5780631e0cba0d146102645780632f40992e146102825780634bd1ed76146102a3576101af565b366101af576101ad610596565b005b6101ad610596565b3480156101c357600080fd5b506101cd60125481565b6040519081526020015b60405180910390f35b3480156101ec57600080fd5b506102166101fb3660046115d8565b6000908152600d60205260409020546001600160a01b031690565b6040516001600160a01b0390911681526020016101d7565b34801561023a57600080fd5b506102166102493660046115d8565b6000908152600660205260409020546001600160a01b031690565b34801561027057600080fd5b506101cd665374616b696e6760c81b81565b34801561028e57600080fd5b506101cd6914995dd85c99141bdbdb60b21b81565b3480156102af57600080fd5b506101cd6a4d61696e74656e616e636560a81b81565b3480156102d157600080fd5b506102e56102e03660046115d8565b6105a8565b6040516101d79493929190611639565b34801561030157600080fd5b50610216610785565b34801561031657600080fd5b506101cd7111dbdd995c9b985b98d950dbdb9d1c9858dd60721b81565b34801561033f57600080fd5b506101ad610794565b34801561035457600080fd5b50600e546101cd565b34801561036957600080fd5b50600154610216906001600160a01b031681565b34801561038957600080fd5b506101cd69456e7653746f7261676560b01b81565b3480156103aa57600080fd5b506101cd60025481565b3480156103c057600080fd5b506000546001600160a01b0316610216565b3480156103de57600080fd5b506101cd6c42616c6c6f7453746f7261676560981b81565b34801561040257600080fd5b5061042e610411366004611495565b6001600160a01b0316600090815260046020526040902054151590565b60405190151581526020016101d7565b34801561044a57600080fd5b506101ad610459366004611495565b6107d1565b34801561046a57600080fd5b506102166104793660046115d8565b6000908152600360205260409020546001600160a01b031690565b3480156104a057600080fd5b506101cd6104af366004611495565b6001600160a01b03166000908152600c602052604090205490565b3480156104d657600080fd5b506101ad6104e53660046114cf565b610873565b3480156104f657600080fd5b506101cd600f5481565b34801561050c57600080fd5b506005546101cd565b34801561052157600080fd5b506011546101cd565b34801561053657600080fd5b506102166105453660046115d8565b6000908152600860205260409020546001600160a01b031690565b34801561056c57600080fd5b506101cd60105481565b34801561058257600080fd5b506101ad610591366004611495565b610d99565b6105a66105a1610e34565b610e67565b565b6000818152600b60205260408120600381015481546060938493849391929091600183019160028401919084906105de906116f8565b80601f016020809104026020016040519081016040528092919081815260200182805461060a906116f8565b80156106575780601f1061062c57610100808354040283529160200191610657565b820191906000526020600020905b81548152906001019060200180831161063a57829003601f168201915b5050505050935082805461066a906116f8565b80601f0160208091040260200160405190810160405280929190818152602001828054610696906116f8565b80156106e35780601f106106b8576101008083540402835291602001916106e3565b820191906000526020600020905b8154815290600101906020018083116106c657829003601f168201915b505050505092508180546106f6906116f8565b80601f0160208091040260200160405190810160405280929190818152602001828054610722906116f8565b801561076f5780601f106107445761010080835404028352916020019161076f565b820191906000526020600020905b81548152906001019060200180831161075257829003601f168201915b5050505050915093509350935093509193509193565b600061078f610e34565b905090565b6000546001600160a01b031633146107c75760405162461bcd60e51b81526004016107be90611697565b60405180910390fd5b6105a66000610e90565b6000546001600160a01b031633146107fb5760405162461bcd60e51b81526004016107be90611697565b6001600160a01b0381166108515760405162461bcd60e51b815260206004820152601a60248201527f416464726573732073686f756c64206265206e6f6e2d7a65726f00000000000060448201526064016107be565b600180546001600160a01b0319166001600160a01b0392909216919091179055565b6000546001600160a01b0316331461089d5760405162461bcd60e51b81526004016107be90611697565b60135460ff16156108e65760405162461bcd60e51b8152602060048201526013602482015272105b1c9958591e481a5b9a5d1a585b1a5e9959606a1b60448201526064016107be565b600085116109425760405162461bcd60e51b815260206004820152602360248201527f6c6f636b416d6f756e742073686f756c64206265206d6f7265207468656e207a60448201526265726f60e81b60648201526084016107be565b61094b886107d1565b6040805160008082526020820190925261096791899190610ee0565b600061097161106c565b6040516325d998bb60e01b81526001600160a01b03898116600483015291925087918316906325d998bb9060240160206040518083038186803b1580156109b757600080fd5b505afa1580156109cb573d6000803e3d6000fd5b505050506040513d601f19601f820116820180604052508101906109ef91906115bf565b1015610a345760405162461bcd60e51b8152602060048201526014602482015273496e73756666696369656e74207374616b696e6760601b60448201526064016107be565b60405163a165437960e01b81523360048201526001600160a01b03888116602483015282169063a16543799060440160206040518083038186803b158015610a7b57600080fd5b505afa158015610a8f573d6000803e3d6000fd5b505050506040513d601f19601f82011682018060405250810190610ab3919061159d565b610af75760405162461bcd60e51b815260206004820152601560248201527414dd185ad95c881a5cc81b9bdd08185b1b1bddd959605a1b60448201526064016107be565b60405163282d3fdf60e01b81526001600160a01b0388811660048301526024820188905282169063282d3fdf90604401600060405180830381600087803b158015610b4157600080fd5b505af1158015610b55573d6000803e3d6000fd5b5050505060016005819055503360036000600554815260200190815260200160002060006101000a8154816001600160a01b0302191690836001600160a01b0316021790555060055460046000336001600160a01b03166001600160a01b03168152602001908152602001600020819055503360066000600554815260200190815260200160002060006101000a8154816001600160a01b0302191690836001600160a01b0316021790555060055460076000336001600160a01b03166001600160a01b03168152602001908152602001600020819055508660086000600554815260200190815260200160002060006101000a8154816001600160a01b0302191690836001600160a01b0316021790555060055460096000896001600160a01b03166001600160a01b031681526020019081526020016000208190555086600a6000336001600160a01b03166001600160a01b0316815260200190815260200160002060006101000a8154816001600160a01b0302191690836001600160a01b031602179055506001600e819055506000600b6000600e548152602001908152602001600020905085816000019080519060200190610d1692919061135f565b508451610d2c906001830190602088019061135f565b508351610d42906002830190602087019061135f565b50600301919091555050600e54336000818152600c60209081526040808320859055938252600d90529190912080546001600160a01b031916909117905550506013805460ff191660011790555050436002555050565b6000546001600160a01b03163314610dc35760405162461bcd60e51b81526004016107be90611697565b6001600160a01b038116610e285760405162461bcd60e51b815260206004820152602660248201527f4f776e61626c653a206e6577206f776e657220697320746865207a65726f206160448201526564647265737360d01b60648201526084016107be565b610e3181610e90565b50565b600061078f7f360894a13ba1a3210667c828492db98dca3e2076cc3735a920a3ca505d382bbc546001600160a01b031690565b3660008037600080366000845af43d6000803e808015610e86573d6000f35b3d6000fd5b505050565b600080546001600160a01b038381166001600160a01b0319831681178455604051919092169283917f8be0079c531659141344cd1fd0a4f28419497f9722a3daafe3b4186f6b6457e09190a35050565b7f4910fdfa16fed3260ed0e7147f7cc6da11a60208b5b9406d12a635614ffd91435460ff1615610f1357610e8b83611081565b826001600160a01b03166352d1902d6040518163ffffffff1660e01b815260040160206040518083038186803b158015610f4c57600080fd5b505afa925050508015610f7c575060408051601f3d908101601f19168201909252610f79918101906115bf565b60015b610fdf5760405162461bcd60e51b815260206004820152602e60248201527f45524331393637557067726164653a206e657720696d706c656d656e7461746960448201526d6f6e206973206e6f74205555505360901b60648201526084016107be565b7f360894a13ba1a3210667c828492db98dca3e2076cc3735a920a3ca505d382bbc81146110605760405162461bcd60e51b815260206004820152602960248201527f45524331393637557067726164653a20756e737570706f727465642070726f786044820152681a58589b195555525160ba1b60648201526084016107be565b50610e8b83838361112f565b600061078f665374616b696e6760c81b61115a565b6001600160a01b0381163b6110ee5760405162461bcd60e51b815260206004820152602d60248201527f455243313936373a206e657720696d706c656d656e746174696f6e206973206e60448201526c1bdd08184818dbdb9d1c9858dd609a1b60648201526084016107be565b7f360894a13ba1a3210667c828492db98dca3e2076cc3735a920a3ca505d382bbc80546001600160a01b0319166001600160a01b0392909216919091179055565b611138836111dd565b6000825111806111455750805b15610e8b57611154838361121d565b50505050565b600154604051630d2020dd60e01b8152600481018390526000916001600160a01b031690630d2020dd9060240160206040518083038186803b15801561119f57600080fd5b505afa1580156111b3573d6000803e3d6000fd5b505050506040513d601f19601f820116820180604052508101906111d791906114b2565b92915050565b6111e681611081565b6040516001600160a01b038216907fbc7cd75a20ee27fd9adebab32041f755214dbc6bffa90cc0225b39da2e5c2d3b90600090a250565b6060611242838360405180606001604052806027815260200161175f60279139611249565b9392505050565b60606001600160a01b0384163b6112b15760405162461bcd60e51b815260206004820152602660248201527f416464726573733a2064656c65676174652063616c6c20746f206e6f6e2d636f6044820152651b9d1c9858dd60d21b60648201526084016107be565b600080856001600160a01b0316856040516112cc919061161d565b600060405180830381855af49150503d8060008114611307576040519150601f19603f3d011682016040523d82523d6000602084013e61130c565b606091505b509150915061131c828286611326565b9695505050505050565b60608315611335575081611242565b8251156113455782518084602001fd5b8160405162461bcd60e51b81526004016107be9190611684565b82805461136b906116f8565b90600052602060002090601f01602090048101928261138d57600085556113d3565b82601f106113a657805160ff19168380011785556113d3565b828001600101855582156113d3579182015b828111156113d35782518255916020019190600101906113b8565b506113df9291506113e3565b5090565b5b808211156113df57600081556001016113e4565b803561140381611749565b919050565b600082601f83011261141957600080fd5b813567ffffffffffffffff8082111561143457611434611733565b604051601f8301601f19908116603f0116810190828211818310171561145c5761145c611733565b8160405283815286602085880101111561147557600080fd5b836020870160208301376000602085830101528094505050505092915050565b6000602082840312156114a757600080fd5b813561124281611749565b6000602082840312156114c457600080fd5b815161124281611749565b600080600080600080600080610100898b0312156114ec57600080fd5b6114f5896113f8565b975061150360208a016113f8565b965061151160408a016113f8565b955060608901359450608089013567ffffffffffffffff8082111561153557600080fd5b6115418c838d01611408565b955060a08b013591508082111561155757600080fd5b6115638c838d01611408565b945060c08b013591508082111561157957600080fd5b506115868b828c01611408565b92505060e089013590509295985092959890939650565b6000602082840312156115af57600080fd5b8151801515811461124257600080fd5b6000602082840312156115d157600080fd5b5051919050565b6000602082840312156115ea57600080fd5b5035919050565b600081518084526116098160208601602086016116cc565b601f01601f19169290920160200192915050565b6000825161162f8184602087016116cc565b9190910192915050565b60808152600061164c60808301876115f1565b828103602084015261165e81876115f1565b9050828103604084015261167281866115f1565b91505082606083015295945050505050565b60208152600061124260208301846115f1565b6020808252818101527f4f776e61626c653a2063616c6c6572206973206e6f7420746865206f776e6572604082015260600190565b60005b838110156116e75781810151838201526020016116cf565b838111156111545750506000910152565b600181811c9082168061170c57607f821691505b6020821081141561172d57634e487b7160e01b600052602260045260246000fd5b50919050565b634e487b7160e01b600052604160045260246000fd5b6001600160a01b0381168114610e3157600080fdfe416464726573733a206c6f772d6c6576656c2064656c65676174652063616c6c206661696c6564a2646970667358221220d2d0b7c5828065d30b841317027aadf1bba4d771b5d619dffd0aa3e927c1888764736f6c63430008060033",
  "linkReferences": {},
  "deployedLinkReferences": {}
}