{
  "_format": "hh-sol-artifact-1",
  "contractName": "Gov",
  "sourceName": "contracts/Gov.sol",
  "abi": [
    {
      "anonymous": false,
      "inputs": [
        {
          "indexed": false,
          "internalType": "address",
          "name": "previousAdmin",
          "type": "address"
        },
        {
          "indexed": false,
          "internalType": "address",
          "name": "newAdmin",
          "type": "address"
        }
      ],
      "name": "AdminChanged",
      "type": "event"
    },
    {
      "anonymous": false,
      "inputs": [
        {
          "indexed": true,
          "internalType": "address",
          "name": "beacon",
          "type": "address"
        }
      ],
      "name": "BeaconUpgraded",
      "type": "event"
    },
    {
      "anonymous": false,
      "inputs": [
        {
          "indexed": true,
          "internalType": "address",
          "name": "previousOwner",
          "type": "address"
        },
        {
          "indexed": true,
          "internalType": "address",
          "name": "newOwner",
          "type": "address"
        }
      ],
      "name": "OwnershipTransferred",
      "type": "event"
    },
    {
      "anonymous": false,
      "inputs": [
        {
          "indexed": true,
          "internalType": "address",
          "name": "implementation",
          "type": "address"
        }
      ],
      "name": "Upgraded",
      "type": "event"
    },
    {
      "stateMutability": "payable",
      "type": "fallback"
    },
    {
      "inputs": [],
      "name": "BALLOT_STORAGE_NAME",
      "outputs": [
        {
          "internalType": "bytes32",
          "name": "",
          "type": "bytes32"
        }
      ],
      "stateMutability": "view",
      "type": "function"
    },
    {
      "inputs": [],
      "name": "ENV_STORAGE_NAME",
      "outputs": [
        {
          "internalType": "bytes32",
          "name": "",
          "type": "bytes32"
        }
      ],
      "stateMutability": "view",
      "type": "function"
    },
    {
      "inputs": [],
      "name": "GOV_NAME",
      "outputs": [
        {
          "internalType": "bytes32",
          "name": "",
          "type": "bytes32"
        }
      ],
      "stateMutability": "view",
      "type": "function"
    },
    {
      "inputs": [],
      "name": "MAINTENANCE_NAME",
      "outputs": [
        {
          "internalType": "bytes32",
          "name": "",
          "type": "bytes32"
        }
      ],
      "stateMutability": "view",
      "type": "function"
    },
    {
      "inputs": [],
      "name": "REWARD_POOL_NAME",
      "outputs": [
        {
          "internalType": "bytes32",
          "name": "",
          "type": "bytes32"
        }
      ],
      "stateMutability": "view",
      "type": "function"
    },
    {
      "inputs": [],
      "name": "STAKING_NAME",
      "outputs": [
        {
          "internalType": "bytes32",
          "name": "",
          "type": "bytes32"
        }
      ],
      "stateMutability": "view",
      "type": "function"
    },
    {
      "inputs": [],
      "name": "ballotLength",
      "outputs": [
        {
          "internalType": "uint256",
          "name": "",
          "type": "uint256"
        }
      ],
      "stateMutability": "view",
      "type": "function"
    },
    {
      "inputs": [],
      "name": "getBallotInVoting",
      "outputs": [
        {
          "internalType": "uint256",
          "name": "",
          "type": "uint256"
        }
      ],
      "stateMutability": "view",
      "type": "function"
    },
    {
      "inputs": [
        {
          "internalType": "uint256",
          "name": "idx",
          "type": "uint256"
        }
      ],
      "name": "getMember",
      "outputs": [
        {
          "internalType": "address",
          "name": "",
          "type": "address"
        }
      ],
      "stateMutability": "view",
      "type": "function"
    },
    {
      "inputs": [
        {
          "internalType": "uint256",
          "name": "idx",
          "type": "uint256"
        }
      ],
      "name": "getMemberFromNodeIdx",
      "outputs": [
        {
          "internalType": "address",
          "name": "",
          "type": "address"
        }
      ],
      "stateMutability": "view",
      "type": "function"
    },
    {
      "inputs": [],
      "name": "getMemberLength",
      "outputs": [
        {
          "internalType": "uint256",
          "name": "",
          "type": "uint256"
        }
      ],
      "stateMutability": "view",
      "type": "function"
    },
    {
      "inputs": [
        {
          "internalType": "uint256",
          "name": "idx",
          "type": "uint256"
        }
      ],
      "name": "getNode",
      "outputs": [
        {
          "internalType": "bytes",
          "name": "name",
          "type": "bytes"
        },
        {
          "internalType": "bytes",
          "name": "enode",
          "type": "bytes"
        },
        {
          "internalType": "bytes",
          "name": "ip",
          "type": "bytes"
        },
        {
          "internalType": "uint256",
          "name": "port",
          "type": "uint256"
        }
      ],
      "stateMutability": "view",
      "type": "function"
    },
    {
      "inputs": [
        {
          "internalType": "address",
          "name": "addr",
          "type": "address"
        }
      ],
      "name": "getNodeIdxFromMember",
      "outputs": [
        {
          "internalType": "uint256",
          "name": "",
          "type": "uint256"
        }
      ],
      "stateMutability": "view",
      "type": "function"
    },
    {
      "inputs": [],
      "name": "getNodeLength",
      "outputs": [
        {
          "internalType": "uint256",
          "name": "",
          "type": "uint256"
        }
      ],
      "stateMutability": "view",
      "type": "function"
    },
    {
      "inputs": [
        {
          "internalType": "uint256",
          "name": "idx",
          "type": "uint256"
        }
      ],
      "name": "getReward",
      "outputs": [
        {
          "internalType": "address",
          "name": "",
          "type": "address"
        }
      ],
      "stateMutability": "view",
      "type": "function"
    },
    {
      "inputs": [
        {
          "internalType": "uint256",
          "name": "idx",
          "type": "uint256"
        }
      ],
      "name": "getVoter",
      "outputs": [
        {
          "internalType": "address",
          "name": "",
          "type": "address"
        }
      ],
      "stateMutability": "view",
      "type": "function"
    },
    {
      "inputs": [],
      "name": "implementation",
      "outputs": [
        {
          "internalType": "address",
          "name": "",
          "type": "address"
        }
      ],
      "stateMutability": "view",
      "type": "function"
    },
    {
      "inputs": [
        {
          "internalType": "address",
          "name": "registry",
          "type": "address"
        },
        {
          "internalType": "address",
          "name": "newImplementation",
          "type": "address"
        },
        {
          "internalType": "uint256",
          "name": "lockAmount",
          "type": "uint256"
        },
        {
          "internalType": "bytes",
          "name": "name",
          "type": "bytes"
        },
        {
          "internalType": "bytes",
          "name": "enode",
          "type": "bytes"
        },
        {
          "internalType": "bytes",
          "name": "ip",
          "type": "bytes"
        },
        {
          "internalType": "uint256",
          "name": "port",
          "type": "uint256"
        }
      ],
      "name": "init",
      "outputs": [],
      "stateMutability": "nonpayable",
      "type": "function"
    },
    {
      "inputs": [
        {
          "internalType": "address",
          "name": "registry",
          "type": "address"
        },
        {
          "internalType": "address",
          "name": "newImplementation",
          "type": "address"
        },
        {
          "components": [
            {
              "internalType": "address",
              "name": "staker",
              "type": "address"
            },
            {
              "internalType": "uint256",
              "name": "lockAmount",
              "type": "uint256"
            },
            {
              "internalType": "bytes",
              "name": "name",
              "type": "bytes"
            },
            {
              "internalType": "bytes",
              "name": "enode",
              "type": "bytes"
            },
            {
              "internalType": "bytes",
              "name": "ip",
              "type": "bytes"
            },
            {
              "internalType": "uint256",
              "name": "port",
              "type": "uint256"
            }
          ],
          "internalType": "struct Gov.InitConstructor[]",
          "name": "infos",
          "type": "tuple[]"
        }
      ],
      "name": "initOnce",
      "outputs": [],
      "stateMutability": "nonpayable",
      "type": "function"
    },
    {
      "inputs": [
        {
          "internalType": "address",
          "name": "addr",
          "type": "address"
        }
      ],
      "name": "isMember",
      "outputs": [
        {
          "internalType": "bool",
          "name": "",
          "type": "bool"
        }
      ],
      "stateMutability": "view",
      "type": "function"
    },
    {
      "inputs": [
        {
          "internalType": "address",
          "name": "addr",
          "type": "address"
        }
      ],
      "name": "isStaker",
      "outputs": [
        {
          "internalType": "bool",
          "name": "",
          "type": "bool"
        }
      ],
      "stateMutability": "view",
      "type": "function"
    },
    {
      "inputs": [
        {
          "internalType": "address",
          "name": "addr",
          "type": "address"
        }
      ],
      "name": "isVoter",
      "outputs": [
        {
          "internalType": "bool",
          "name": "",
          "type": "bool"
        }
      ],
      "stateMutability": "view",
      "type": "function"
    },
    {
      "inputs": [],
      "name": "magic",
      "outputs": [
        {
          "internalType": "uint256",
          "name": "",
          "type": "uint256"
        }
      ],
      "stateMutability": "view",
      "type": "function"
    },
    {
      "inputs": [],
      "name": "modifiedBlock",
      "outputs": [
        {
          "internalType": "uint256",
          "name": "",
          "type": "uint256"
        }
      ],
      "stateMutability": "view",
      "type": "function"
    },
    {
      "inputs": [],
      "name": "owner",
      "outputs": [
        {
          "internalType": "address",
          "name": "",
          "type": "address"
        }
      ],
      "stateMutability": "view",
      "type": "function"
    },
    {
      "inputs": [],
      "name": "reg",
      "outputs": [
        {
          "internalType": "contract IRegistry",
          "name": "",
          "type": "address"
        }
      ],
      "stateMutability": "view",
      "type": "function"
    },
    {
      "inputs": [],
      "name": "renounceOwnership",
      "outputs": [],
      "stateMutability": "nonpayable",
      "type": "function"
    },
    {
      "inputs": [
        {
          "internalType": "address",
          "name": "_addr",
          "type": "address"
        }
      ],
      "name": "setRegistry",
      "outputs": [],
      "stateMutability": "nonpayable",
      "type": "function"
    },
    {
      "inputs": [
        {
          "internalType": "address",
          "name": "newOwner",
          "type": "address"
        }
      ],
      "name": "transferOwnership",
      "outputs": [],
      "stateMutability": "nonpayable",
      "type": "function"
    },
    {
      "inputs": [],
      "name": "voteLength",
      "outputs": [
        {
          "internalType": "uint256",
          "name": "",
          "type": "uint256"
        }
      ],
      "stateMutability": "view",
      "type": "function"
    },
    {
      "stateMutability": "payable",
      "type": "receive"
    }
  ],
  "bytecode": "0x6080604052724d6574616469756d20476f7665726e616e636560115534801561002757600080fd5b5061003133610036565b610086565b600080546001600160a01b038381166001600160a01b0319831681178455604051919092169283917f8be0079c531659141344cd1fd0a4f28419497f9722a3daafe3b4186f6b6457e09190a35050565b611d36806100956000396000f3fe6080604052600436106101d15760003560e01c80637d10dd1b116100f7578063ab3545e511610095578063d965ea0011610064578063d965ea00146105df578063de09b377146105f4578063e9523fb514610609578063f2fde38b1461061f576101e0565b8063ab3545e514610527578063ce6a54ff1461055d578063d07bff0c14610593578063d6f9cfce146105c9576101e0565b80639986e4b9116100d15780639986e4b91461048b578063a230c524146104af578063a7771ee3146104cf578063a91ee0dc14610507576101e0565b80637d10dd1b146104375780638c38bdf51461044d5780638da5cb5b1461046d576101e0565b80635c60da1b1161016f578063715018a61161013e578063715018a6146103cc57806372016f75146103e1578063738fdd1a146103f65780637bf4653014610416576101e0565b80635c60da1b146103265780636c78d2cf1461033b5780636f1e853314610364578063703e8a19146103ac576101e0565b80631e0cba0d116101ab5780631e0cba0d146102955780632f40992e146102b35780634bd1ed76146102d45780634f0f4aa9146102f6576101e0565b80630d854646146101e857806315bf6b4d146102115780631c4b774b1461025f576101e0565b366101e0576101de61063f565b005b6101de61063f565b3480156101f457600080fd5b506101fe60115481565b6040519081526020015b60405180910390f35b34801561021d57600080fd5b5061024761022c366004611a9a565b6000908152600c60205260409020546001600160a01b031690565b6040516001600160a01b039091168152602001610208565b34801561026b57600080fd5b5061024761027a366004611a9a565b6000908152600660205260409020546001600160a01b031690565b3480156102a157600080fd5b506101fe665374616b696e6760c81b81565b3480156102bf57600080fd5b506101fe6914995dd85c99141bdbdb60b21b81565b3480156102e057600080fd5b506101fe6a4d61696e74656e616e636560a81b81565b34801561030257600080fd5b50610316610311366004611a9a565b610651565b6040516102089493929190611afb565b34801561033257600080fd5b5061024761082e565b34801561034757600080fd5b506101fe7111dbdd995c9b985b98d950dbdb9d1c9858dd60721b81565b34801561037057600080fd5b5061039c61037f3660046117dd565b6001600160a01b0316600090815260096020526040902054151590565b6040519015158152602001610208565b3480156103b857600080fd5b506101de6103c7366004611817565b61083d565b3480156103d857600080fd5b506101de610c53565b3480156103ed57600080fd5b50600d546101fe565b34801561040257600080fd5b50600154610247906001600160a01b031681565b34801561042257600080fd5b506101fe69456e7653746f7261676560b01b81565b34801561044357600080fd5b506101fe60025481565b34801561045957600080fd5b506101de6104683660046119c0565b610c87565b34801561047957600080fd5b506000546001600160a01b0316610247565b34801561049757600080fd5b506101fe6c42616c6c6f7453746f7261676560981b81565b3480156104bb57600080fd5b5061039c6104ca3660046117dd565b61101f565b3480156104db57600080fd5b5061039c6104ea3660046117dd565b6001600160a01b0316600090815260046020526040902054151590565b34801561051357600080fd5b506101de6105223660046117dd565b611062565b34801561053357600080fd5b50610247610542366004611a9a565b6000908152600860205260409020546001600160a01b031690565b34801561056957600080fd5b506101fe6105783660046117dd565b6001600160a01b03166000908152600b602052604090205490565b34801561059f57600080fd5b506102476105ae366004611a9a565b6000908152600360205260409020546001600160a01b031690565b3480156105d557600080fd5b506101fe600e5481565b3480156105eb57600080fd5b506005546101fe565b34801561060057600080fd5b506010546101fe565b34801561061557600080fd5b506101fe600f5481565b34801561062b57600080fd5b506101de61063a3660046117dd565b611104565b61064f61064a61119f565b6111d2565b565b6000818152600a602052604081206003810154815460609384938493919290916001830191600284019190849061068790611c2c565b80601f01602080910402602001604051908101604052809291908181526020018280546106b390611c2c565b80156107005780601f106106d557610100808354040283529160200191610700565b820191906000526020600020905b8154815290600101906020018083116106e357829003601f168201915b5050505050935082805461071390611c2c565b80601f016020809104026020016040519081016040528092919081815260200182805461073f90611c2c565b801561078c5780601f106107615761010080835404028352916020019161078c565b820191906000526020600020905b81548152906001019060200180831161076f57829003601f168201915b5050505050925081805461079f90611c2c565b80601f01602080910402602001604051908101604052809291908181526020018280546107cb90611c2c565b80156108185780601f106107ed57610100808354040283529160200191610818565b820191906000526020600020905b8154815290600101906020018083116107fb57829003601f168201915b5050505050915093509350935093509193509193565b600061083861119f565b905090565b6000546001600160a01b031633146108705760405162461bcd60e51b815260040161086790611b59565b60405180910390fd5b60125460ff16156108b95760405162461bcd60e51b8152602060048201526013602482015272105b1c9958591e481a5b9a5d1a585b1a5e9959606a1b6044820152606401610867565b6108c283611062565b6108cb826111fb565b6012805460ff191660011790554360025560005b8151811015610c405760008282815181106108fc576108fc611c98565b6020026020010151600001519050600061091461123b565b905083838151811061092857610928611c98565b60209081029190910181015101516040516325d998bb60e01b81526001600160a01b0384811660048301528316906325d998bb9060240160206040518083038186803b15801561097757600080fd5b505afa15801561098b573d6000803e3d6000fd5b505050506040513d601f19601f820116820180604052508101906109af9190611a81565b10156109f45760405162461bcd60e51b8152602060048201526014602482015273496e73756666696369656e74207374616b696e6760601b6044820152606401610867565b806001600160a01b031663282d3fdf83868681518110610a1657610a16611c98565b6020026020010151602001516040518363ffffffff1660e01b8152600401610a539291906001600160a01b03929092168252602082015260400190565b600060405180830381600087803b158015610a6d57600080fd5b505af1158015610a81573d6000803e3d6000fd5b50505050826001610a929190611be8565b6005818155600091825260036020908152604080842080546001600160a01b0388166001600160a01b031991821681179092558454828752600485528387208190558652600684528286208054821683179055845482875260078552838720819055865260088452828620805490911682179055925492845260098252808420839055600d839055918352600a905290208451859085908110610b3757610b37611c98565b602090810291909101810151604001518051610b5692849201906116c4565b50848481518110610b6957610b69611c98565b602002602001015160600151816001019080519060200190610b8c9291906116c4565b50848481518110610b9f57610b9f611c98565b602002602001015160800151816002019080519060200190610bc29291906116c4565b50848481518110610bd557610bd5611c98565b60209081029190910181015160a00151600390920191909155600d80546000908152600c8352604080822080546001600160a01b039097166001600160a01b0319909716871790559154948152600b9092529020919091555080610c3881611c67565b9150506108df565b50506012805460ff191660011790555050565b6000546001600160a01b03163314610c7d5760405162461bcd60e51b815260040161086790611b59565b61064f6000611250565b6000546001600160a01b03163314610cb15760405162461bcd60e51b815260040161086790611b59565b60125460ff1615610cfa5760405162461bcd60e51b8152602060048201526013602482015272105b1c9958591e481a5b9a5d1a585b1a5e9959606a1b6044820152606401610867565b60008511610d565760405162461bcd60e51b815260206004820152602360248201527f6c6f636b416d6f756e742073686f756c64206265206d6f7265207468656e207a60448201526265726f60e81b6064820152608401610867565b610d5f87611062565b60408051600080825260208201909252610d7b918891906112a0565b6000610d8561123b565b6040516325d998bb60e01b815233600482015290915086906001600160a01b038316906325d998bb9060240160206040518083038186803b158015610dc957600080fd5b505afa158015610ddd573d6000803e3d6000fd5b505050506040513d601f19601f82011682018060405250810190610e019190611a81565b1015610e465760405162461bcd60e51b8152602060048201526014602482015273496e73756666696369656e74207374616b696e6760601b6044820152606401610867565b60405163282d3fdf60e01b8152336004820152602481018790526001600160a01b0382169063282d3fdf90604401600060405180830381600087803b158015610e8e57600080fd5b505af1158015610ea2573d6000803e3d6000fd5b5050600160058190557fa15bc60c955c405d20d9149c709e2460f1c2d9a497496a7f46004d1772c3054c8054336001600160a01b0319918216811790925560008281526004602090815260408083208690557f3e5fec24aa4dc4e5aee2e025e51e1392c72a2500577559fae9665c6d52bd6a318054851686179055600782528083208690557fad67d757c34507f157cacfa2e3153e9f260a2244f30428821be7be64587ac55f805490941690941790925560098252918220839055600d839055919052600a815287517fbbc70db1b6c7afd11e79c0fb0051300458f1a3acb8ee9789d9b6b26c61ad9bc79350610f9d925083918901906116c4565b508451610fb390600183019060208801906116c4565b508351610fc990600283019060208701906116c4565b50600301919091555050600d54336000818152600b60209081526040808320859055938252600c90529190912080546001600160a01b031916909117905550506012805460ff1916600117905550504360025550565b6001600160a01b03811660009081526009602052604081205415158061105c57506001600160a01b03821660009081526004602052604090205415155b92915050565b6000546001600160a01b0316331461108c5760405162461bcd60e51b815260040161086790611b59565b6001600160a01b0381166110e25760405162461bcd60e51b815260206004820152601a60248201527f416464726573732073686f756c64206265206e6f6e2d7a65726f0000000000006044820152606401610867565b600180546001600160a01b0319166001600160a01b0392909216919091179055565b6000546001600160a01b0316331461112e5760405162461bcd60e51b815260040161086790611b59565b6001600160a01b0381166111935760405162461bcd60e51b815260206004820152602660248201527f4f776e61626c653a206e6577206f776e657220697320746865207a65726f206160448201526564647265737360d01b6064820152608401610867565b61119c81611250565b50565b60006108387f360894a13ba1a3210667c828492db98dca3e2076cc3735a920a3ca505d382bbc546001600160a01b031690565b3660008037600080366000845af43d6000803e8080156111f1573d6000f35b3d6000fd5b505050565b6112048161142c565b6040516001600160a01b038216907fbc7cd75a20ee27fd9adebab32041f755214dbc6bffa90cc0225b39da2e5c2d3b90600090a250565b6000610838665374616b696e6760c81b6114da565b600080546001600160a01b038381166001600160a01b0319831681178455604051919092169283917f8be0079c531659141344cd1fd0a4f28419497f9722a3daafe3b4186f6b6457e09190a35050565b7f4910fdfa16fed3260ed0e7147f7cc6da11a60208b5b9406d12a635614ffd91435460ff16156112d3576111f68361142c565b826001600160a01b03166352d1902d6040518163ffffffff1660e01b815260040160206040518083038186803b15801561130c57600080fd5b505afa92505050801561133c575060408051601f3d908101601f1916820190925261133991810190611a81565b60015b61139f5760405162461bcd60e51b815260206004820152602e60248201527f45524331393637557067726164653a206e657720696d706c656d656e7461746960448201526d6f6e206973206e6f74205555505360901b6064820152608401610867565b7f360894a13ba1a3210667c828492db98dca3e2076cc3735a920a3ca505d382bbc81146114205760405162461bcd60e51b815260206004820152602960248201527f45524331393637557067726164653a20756e737570706f727465642070726f786044820152681a58589b195555525160ba1b6064820152608401610867565b506111f6838383611557565b6001600160a01b0381163b6114995760405162461bcd60e51b815260206004820152602d60248201527f455243313936373a206e657720696d706c656d656e746174696f6e206973206e60448201526c1bdd08184818dbdb9d1c9858dd609a1b6064820152608401610867565b7f360894a13ba1a3210667c828492db98dca3e2076cc3735a920a3ca505d382bbc80546001600160a01b0319166001600160a01b0392909216919091179055565b600154604051630d2020dd60e01b8152600481018390526000916001600160a01b031690630d2020dd9060240160206040518083038186803b15801561151f57600080fd5b505afa158015611533573d6000803e3d6000fd5b505050506040513d601f19601f8201168201806040525081019061105c91906117fa565b611560836111fb565b60008251118061156d5750805b156111f65761157c8383611582565b50505050565b60606115a78383604051806060016040528060278152602001611cda602791396115ae565b9392505050565b60606001600160a01b0384163b6116165760405162461bcd60e51b815260206004820152602660248201527f416464726573733a2064656c65676174652063616c6c20746f206e6f6e2d636f6044820152651b9d1c9858dd60d21b6064820152608401610867565b600080856001600160a01b0316856040516116319190611adf565b600060405180830381855af49150503d806000811461166c576040519150601f19603f3d011682016040523d82523d6000602084013e611671565b606091505b509150915061168182828661168b565b9695505050505050565b6060831561169a5750816115a7565b8251156116aa5782518084602001fd5b8160405162461bcd60e51b81526004016108679190611b46565b8280546116d090611c2c565b90600052602060002090601f0160209004810192826116f25760008555611738565b82601f1061170b57805160ff1916838001178555611738565b82800160010185558215611738579182015b8281111561173857825182559160200191906001019061171d565b50611744929150611748565b5090565b5b808211156117445760008155600101611749565b803561176881611cc4565b919050565b600082601f83011261177e57600080fd5b813567ffffffffffffffff81111561179857611798611cae565b6117ab601f8201601f1916602001611bb7565b8181528460208386010111156117c057600080fd5b816020850160208301376000918101602001919091529392505050565b6000602082840312156117ef57600080fd5b81356115a781611cc4565b60006020828403121561180c57600080fd5b81516115a781611cc4565b60008060006060848603121561182c57600080fd5b6118368435611cc4565b833592506118476020850135611cc4565b6020840135915067ffffffffffffffff806040860135111561186857600080fd5b6040850135850186601f82011261187e57600080fd5b80358281111561189057611890611cae565b61189f60208260051b01611bb7565b80828252602082019150602084018a60208560051b87010111156118c257600080fd5b60005b848110156119af5786823511156118db57600080fd5b8135860160c0818e03601f190112156118f357600080fd5b6118fb611b8e565b6119076020830161175d565b815260408201356020820152886060830135111561192457600080fd5b6119378e6020606085013585010161176d565b6040820152886080830135111561194d57600080fd5b6119608e6020608085013585010161176d565b60608201528860a0830135111561197657600080fd5b6119898e602060a085013585010161176d565b608082015260c0919091013560a0820152845260209384019391909101906001016118c5565b505080955050505050509250925092565b600080600080600080600060e0888a0312156119db57600080fd5b87356119e681611cc4565b9650600060208901356119f881611cc4565b965060408901359550606089013567ffffffffffffffff80821115611a1b578283fd5b611a278c838d0161176d565b965060808b0135915080821115611a3c578283fd5b611a488c838d0161176d565b955060a08b0135915080821115611a5d578283fd5b50611a6a8b828c0161176d565b9350505060c0880135905092959891949750929550565b600060208284031215611a9357600080fd5b5051919050565b600060208284031215611aac57600080fd5b5035919050565b60008151808452611acb816020860160208601611c00565b601f01601f19169290920160200192915050565b60008251611af1818460208701611c00565b9190910192915050565b608081526000611b0e6080830187611ab3565b8281036020840152611b208187611ab3565b90508281036040840152611b348186611ab3565b91505082606083015295945050505050565b6020815260006115a76020830184611ab3565b6020808252818101527f4f776e61626c653a2063616c6c6572206973206e6f7420746865206f776e6572604082015260600190565b60405160c0810167ffffffffffffffff81118282101715611bb157611bb1611cae565b60405290565b604051601f8201601f1916810167ffffffffffffffff81118282101715611be057611be0611cae565b604052919050565b60008219821115611bfb57611bfb611c82565b500190565b60005b83811015611c1b578181015183820152602001611c03565b8381111561157c5750506000910152565b600181811c90821680611c4057607f821691505b60208210811415611c6157634e487b7160e01b600052602260045260246000fd5b50919050565b6000600019821415611c7b57611c7b611c82565b5060010190565b634e487b7160e01b600052601160045260246000fd5b634e487b7160e01b600052603260045260246000fd5b634e487b7160e01b600052604160045260246000fd5b6001600160a01b038116811461119c57600080fdfe416464726573733a206c6f772d6c6576656c2064656c65676174652063616c6c206661696c6564a26469706673582212209726a3945096a3e3f05d7d5c87fa5a25aab96816a7aa212aa3e49168a906e3c964736f6c63430008060033",
  "linkReferences": {},
  "deployedLinkReferences": {}
}