{
  "_format": "hh-sol-artifact-1",
  "contractName": "GovChecker",
  "sourceName": "contracts/GovChecker.sol",
  "abi": [
    {
      "anonymous": false,
      "inputs": [
        {
          "indexed": true,
          "internalType": "address",
          "name": "previousOwner",
          "type": "address"
        },
        {
          "indexed": true,
          "internalType": "address",
          "name": "newOwner",
          "type": "address"
        }
      ],
      "name": "OwnershipTransferred",
      "type": "event"
    },
    {
      "inputs": [],
      "name": "BALLOT_STORAGE_NAME",
      "outputs": [
        {
          "internalType": "bytes32",
          "name": "",
          "type": "bytes32"
        }
      ],
      "stateMutability": "view",
      "type": "function"
    },
    {
      "inputs": [],
      "name": "ENV_STORAGE_NAME",
      "outputs": [
        {
          "internalType": "bytes32",
          "name": "",
          "type": "bytes32"
        }
      ],
      "stateMutability": "view",
      "type": "function"
    },
    {
      "inputs": [],
      "name": "GOV_NAME",
      "outputs": [
        {
          "internalType": "bytes32",
          "name": "",
          "type": "bytes32"
        }
      ],
      "stateMutability": "view",
      "type": "function"
    },
    {
      "inputs": [],
      "name": "MAINTENANCE_NAME",
      "outputs": [
        {
          "internalType": "bytes32",
          "name": "",
          "type": "bytes32"
        }
      ],
      "stateMutability": "view",
      "type": "function"
    },
    {
      "inputs": [],
      "name": "REWARD_POOL_NAME",
      "outputs": [
        {
          "internalType": "bytes32",
          "name": "",
          "type": "bytes32"
        }
      ],
      "stateMutability": "view",
      "type": "function"
    },
    {
      "inputs": [],
      "name": "STAKING_NAME",
      "outputs": [
        {
          "internalType": "bytes32",
          "name": "",
          "type": "bytes32"
        }
      ],
      "stateMutability": "view",
      "type": "function"
    },
    {
      "inputs": [],
      "name": "owner",
      "outputs": [
        {
          "internalType": "address",
          "name": "",
          "type": "address"
        }
      ],
      "stateMutability": "view",
      "type": "function"
    },
    {
      "inputs": [],
      "name": "reg",
      "outputs": [
        {
          "internalType": "contract IRegistry",
          "name": "",
          "type": "address"
        }
      ],
      "stateMutability": "view",
      "type": "function"
    },
    {
      "inputs": [],
      "name": "renounceOwnership",
      "outputs": [],
      "stateMutability": "nonpayable",
      "type": "function"
    },
    {
      "inputs": [
        {
          "internalType": "address",
          "name": "_addr",
          "type": "address"
        }
      ],
      "name": "setRegistry",
      "outputs": [],
      "stateMutability": "nonpayable",
      "type": "function"
    },
    {
      "inputs": [
        {
          "internalType": "address",
          "name": "newOwner",
          "type": "address"
        }
      ],
      "name": "transferOwnership",
      "outputs": [],
      "stateMutability": "nonpayable",
      "type": "function"
    }
  ],
  "bytecode": "0x608060405234801561001057600080fd5b5061001a3361001f565b61006f565b600080546001600160a01b038381166001600160a01b0319831681178455604051919092169283917f8be0079c531659141344cd1fd0a4f28419497f9722a3daafe3b4186f6b6457e09190a35050565b6104158061007e6000396000f3fe608060405234801561001057600080fd5b50600436106100a95760003560e01c8063738fdd1a11610071578063738fdd1a146101215780637bf465301461014c5780638da5cb5b146101605780639986e4b914610171578063a91ee0dc14610188578063f2fde38b1461019b57600080fd5b80631e0cba0d146100ae5780632f40992e146100d25780634bd1ed76146100e65780636c78d2cf146100fb578063715018a614610117575b600080fd5b6100bf665374616b696e6760c81b81565b6040519081526020015b60405180910390f35b6100bf6914995dd85c99141bdbdb60b21b81565b6100bf6a4d61696e74656e616e636560a81b81565b6100bf7111dbdd995c9b985b98d950dbdb9d1c9858dd60721b81565b61011f6101ae565b005b600154610134906001600160a01b031681565b6040516001600160a01b0390911681526020016100c9565b6100bf69456e7653746f7261676560b01b81565b6000546001600160a01b0316610134565b6100bf6c42616c6c6f7453746f7261676560981b81565b61011f61019636600461037a565b6101ed565b61011f6101a936600461037a565b61028f565b6000546001600160a01b031633146101e15760405162461bcd60e51b81526004016101d8906103aa565b60405180910390fd5b6101eb600061032a565b565b6000546001600160a01b031633146102175760405162461bcd60e51b81526004016101d8906103aa565b6001600160a01b03811661026d5760405162461bcd60e51b815260206004820152601a60248201527f416464726573732073686f756c64206265206e6f6e2d7a65726f00000000000060448201526064016101d8565b600180546001600160a01b0319166001600160a01b0392909216919091179055565b6000546001600160a01b031633146102b95760405162461bcd60e51b81526004016101d8906103aa565b6001600160a01b03811661031e5760405162461bcd60e51b815260206004820152602660248201527f4f776e61626c653a206e6577206f776e657220697320746865207a65726f206160448201526564647265737360d01b60648201526084016101d8565b6103278161032a565b50565b600080546001600160a01b038381166001600160a01b0319831681178455604051919092169283917f8be0079c531659141344cd1fd0a4f28419497f9722a3daafe3b4186f6b6457e09190a35050565b60006020828403121561038c57600080fd5b81356001600160a01b03811681146103a357600080fd5b9392505050565b6020808252818101527f4f776e61626c653a2063616c6c6572206973206e6f7420746865206f776e657260408201526060019056fea264697066735822122000751f57a4062649648475d3a3d06a3087af046e3d4281d86dc031937a7f6d8d64736f6c63430008060033",
  "linkReferences": {},
  "deployedLinkReferences": {}
}