{
  "_format": "hh-sol-artifact-1",
  "contractName": "GovImp",
  "sourceName": "contracts/GovImp.sol",
  "abi": [
    {
      "anonymous": false,
      "inputs": [
        {
          "indexed": false,
          "internalType": "address",
          "name": "previousAdmin",
          "type": "address"
        },
        {
          "indexed": false,
          "internalType": "address",
          "name": "newAdmin",
          "type": "address"
        }
      ],
      "name": "AdminChanged",
      "type": "event"
    },
    {
      "anonymous": false,
      "inputs": [
        {
          "indexed": true,
          "internalType": "address",
          "name": "beacon",
          "type": "address"
        }
      ],
      "name": "BeaconUpgraded",
      "type": "event"
    },
    {
      "anonymous": false,
      "inputs": [
        {
          "indexed": false,
          "internalType": "bytes32",
          "name": "envName",
          "type": "bytes32"
        },
        {
          "indexed": false,
          "internalType": "uint256",
          "name": "envType",
          "type": "uint256"
        },
        {
          "indexed": false,
          "internalType": "bytes",
          "name": "envVal",
          "type": "bytes"
        }
      ],
      "name": "EnvChanged",
      "type": "event"
    },
    {
      "anonymous": false,
      "inputs": [
        {
          "indexed": true,
          "internalType": "address",
          "name": "addr",
          "type": "address"
        }
      ],
      "name": "MemberAdded",
      "type": "event"
    },
    {
      "anonymous": false,
      "inputs": [
        {
          "indexed": true,
          "internalType": "address",
          "name": "oldAddr",
          "type": "address"
        },
        {
          "indexed": true,
          "internalType": "address",
          "name": "newAddr",
          "type": "address"
        }
      ],
      "name": "MemberChanged",
      "type": "event"
    },
    {
      "anonymous": false,
      "inputs": [
        {
          "indexed": true,
          "internalType": "address",
          "name": "addr",
          "type": "address"
        }
      ],
      "name": "MemberRemoved",
      "type": "event"
    },
    {
      "anonymous": false,
      "inputs": [
        {
          "indexed": true,
          "internalType": "address",
          "name": "addr",
          "type": "address"
        }
      ],
      "name": "MemberUpdated",
      "type": "event"
    },
    {
      "anonymous": false,
      "inputs": [
        {
          "indexed": true,
          "internalType": "uint256",
          "name": "ballotId",
          "type": "uint256"
        },
        {
          "indexed": false,
          "internalType": "string",
          "name": "reason",
          "type": "string"
        }
      ],
      "name": "NotApplicable",
      "type": "event"
    },
    {
      "anonymous": false,
      "inputs": [
        {
          "indexed": true,
          "internalType": "address",
          "name": "previousOwner",
          "type": "address"
        },
        {
          "indexed": true,
          "internalType": "address",
          "name": "newOwner",
          "type": "address"
        }
      ],
      "name": "OwnershipTransferred",
      "type": "event"
    },
    {
      "anonymous": false,
      "inputs": [
        {
          "indexed": true,
          "internalType": "address",
          "name": "implementation",
          "type": "address"
        }
      ],
      "name": "Upgraded",
      "type": "event"
    },
    {
      "inputs": [],
      "name": "BALLOT_DURATION_MAX_NAME",
      "outputs": [
        {
          "internalType": "bytes32",
          "name": "",
          "type": "bytes32"
        }
      ],
      "stateMutability": "view",
      "type": "function"
    },
    {
      "inputs": [],
      "name": "BALLOT_DURATION_MIN_MAX_NAME",
      "outputs": [
        {
          "internalType": "bytes32",
          "name": "",
          "type": "bytes32"
        }
      ],
      "stateMutability": "view",
      "type": "function"
    },
    {
      "inputs": [],
      "name": "BALLOT_DURATION_MIN_NAME",
      "outputs": [
        {
          "internalType": "bytes32",
          "name": "",
          "type": "bytes32"
        }
      ],
      "stateMutability": "view",
      "type": "function"
    },
    {
      "inputs": [],
      "name": "BALLOT_STORAGE_NAME",
      "outputs": [
        {
          "internalType": "bytes32",
          "name": "",
          "type": "bytes32"
        }
      ],
      "stateMutability": "view",
      "type": "function"
    },
    {
      "inputs": [],
      "name": "BASE_FEE_MAX_CHANGE_DENOMINATOR_NAME",
      "outputs": [
        {
          "internalType": "bytes32",
          "name": "",
          "type": "bytes32"
        }
      ],
      "stateMutability": "view",
      "type": "function"
    },
    {
      "inputs": [],
      "name": "BLOCKS_PER_NAME",
      "outputs": [
        {
          "internalType": "bytes32",
          "name": "",
          "type": "bytes32"
        }
      ],
      "stateMutability": "view",
      "type": "function"
    },
    {
      "inputs": [],
      "name": "BLOCK_CREATION_TIME_NAME",
      "outputs": [
        {
          "internalType": "bytes32",
          "name": "",
          "type": "bytes32"
        }
      ],
      "stateMutability": "view",
      "type": "function"
    },
    {
      "inputs": [],
      "name": "BLOCK_GASLIMIT_NAME",
      "outputs": [
        {
          "internalType": "bytes32",
          "name": "",
          "type": "bytes32"
        }
      ],
      "stateMutability": "view",
      "type": "function"
    },
    {
      "inputs": [],
      "name": "BLOCK_REWARD_AMOUNT_NAME",
      "outputs": [
        {
          "internalType": "bytes32",
          "name": "",
          "type": "bytes32"
        }
      ],
      "stateMutability": "view",
      "type": "function"
    },
    {
      "inputs": [],
      "name": "BLOCK_REWARD_DISTRIBUTION_BLOCK_PRODUCER_NAME",
      "outputs": [
        {
          "internalType": "bytes32",
          "name": "",
          "type": "bytes32"
        }
      ],
      "stateMutability": "view",
      "type": "function"
    },
    {
      "inputs": [],
      "name": "BLOCK_REWARD_DISTRIBUTION_ECOSYSTEM_NAME",
      "outputs": [
        {
          "internalType": "bytes32",
          "name": "",
          "type": "bytes32"
        }
      ],
      "stateMutability": "view",
      "type": "function"
    },
    {
      "inputs": [],
      "name": "BLOCK_REWARD_DISTRIBUTION_MAINTANANCE_NAME",
      "outputs": [
        {
          "internalType": "bytes32",
          "name": "",
          "type": "bytes32"
        }
      ],
      "stateMutability": "view",
      "type": "function"
    },
    {
      "inputs": [],
      "name": "BLOCK_REWARD_DISTRIBUTION_METHOD_NAME",
      "outputs": [
        {
          "internalType": "bytes32",
          "name": "",
          "type": "bytes32"
        }
      ],
      "stateMutability": "view",
      "type": "function"
    },
    {
      "inputs": [],
      "name": "BLOCK_REWARD_DISTRIBUTION_STAKING_REWARD_NAME",
      "outputs": [
        {
          "internalType": "bytes32",
          "name": "",
          "type": "bytes32"
        }
      ],
      "stateMutability": "view",
      "type": "function"
    },
    {
      "inputs": [],
      "name": "DENOMINATOR",
      "outputs": [
        {
          "internalType": "uint256",
          "name": "",
          "type": "uint256"
        }
      ],
      "stateMutability": "view",
      "type": "function"
    },
    {
      "inputs": [],
      "name": "ECOFUND_ADDRESS_NAME",
      "outputs": [
        {
          "internalType": "bytes32",
          "name": "",
          "type": "bytes32"
        }
      ],
      "stateMutability": "view",
      "type": "function"
    },
    {
      "inputs": [],
      "name": "ELASTICITY_MULTIPLIER_NAME",
      "outputs": [
        {
          "internalType": "bytes32",
          "name": "",
          "type": "bytes32"
        }
      ],
      "stateMutability": "view",
      "type": "function"
    },
    {
      "inputs": [],
      "name": "ENV_STORAGE_NAME",
      "outputs": [
        {
          "internalType": "bytes32",
          "name": "",
          "type": "bytes32"
        }
      ],
      "stateMutability": "view",
      "type": "function"
    },
    {
      "inputs": [],
      "name": "GASLIMIT_AND_BASE_FEE_NAME",
      "outputs": [
        {
          "internalType": "bytes32",
          "name": "",
          "type": "bytes32"
        }
      ],
      "stateMutability": "view",
      "type": "function"
    },
    {
      "inputs": [],
      "name": "GAS_PRICE_NAME",
      "outputs": [
        {
          "internalType": "bytes32",
          "name": "",
          "type": "bytes32"
        }
      ],
      "stateMutability": "view",
      "type": "function"
    },
    {
      "inputs": [],
      "name": "GOV_NAME",
      "outputs": [
        {
          "internalType": "bytes32",
          "name": "",
          "type": "bytes32"
        }
      ],
      "stateMutability": "view",
      "type": "function"
    },
    {
      "inputs": [],
      "name": "MAINTANANCE_ADDRESS_NAME",
      "outputs": [
        {
          "internalType": "bytes32",
          "name": "",
          "type": "bytes32"
        }
      ],
      "stateMutability": "view",
      "type": "function"
    },
    {
      "inputs": [],
      "name": "MAINTENANCE_NAME",
      "outputs": [
        {
          "internalType": "bytes32",
          "name": "",
          "type": "bytes32"
        }
      ],
      "stateMutability": "view",
      "type": "function"
    },
    {
      "inputs": [],
      "name": "MAX_IDLE_BLOCK_INTERVAL_NAME",
      "outputs": [
        {
          "internalType": "bytes32",
          "name": "",
          "type": "bytes32"
        }
      ],
      "stateMutability": "view",
      "type": "function"
    },
    {
      "inputs": [],
      "name": "MAX_PRIORITY_FEE_PER_GAS_NAME",
      "outputs": [
        {
          "internalType": "bytes32",
          "name": "",
          "type": "bytes32"
        }
      ],
      "stateMutability": "view",
      "type": "function"
    },
    {
      "inputs": [],
      "name": "REWARD_POOL_NAME",
      "outputs": [
        {
          "internalType": "bytes32",
          "name": "",
          "type": "bytes32"
        }
      ],
      "stateMutability": "view",
      "type": "function"
    },
    {
      "inputs": [],
      "name": "STAKING_MAX_NAME",
      "outputs": [
        {
          "internalType": "bytes32",
          "name": "",
          "type": "bytes32"
        }
      ],
      "stateMutability": "view",
      "type": "function"
    },
    {
      "inputs": [],
      "name": "STAKING_MIN_MAX_NAME",
      "outputs": [
        {
          "internalType": "bytes32",
          "name": "",
          "type": "bytes32"
        }
      ],
      "stateMutability": "view",
      "type": "function"
    },
    {
      "inputs": [],
      "name": "STAKING_MIN_NAME",
      "outputs": [
        {
          "internalType": "bytes32",
          "name": "",
          "type": "bytes32"
        }
      ],
      "stateMutability": "view",
      "type": "function"
    },
    {
      "inputs": [],
      "name": "STAKING_NAME",
      "outputs": [
        {
          "internalType": "bytes32",
          "name": "",
          "type": "bytes32"
        }
      ],
      "stateMutability": "view",
      "type": "function"
    },
    {
      "inputs": [],
      "name": "STAKING_REWARD_ADDRESS_NAME",
      "outputs": [
        {
          "internalType": "bytes32",
          "name": "",
          "type": "bytes32"
        }
      ],
      "stateMutability": "view",
      "type": "function"
    },
    {
      "inputs": [
        {
          "components": [
            {
              "internalType": "address",
              "name": "member",
              "type": "address"
            },
            {
              "internalType": "address",
              "name": "staker",
              "type": "address"
            },
            {
              "internalType": "bytes",
              "name": "name",
              "type": "bytes"
            },
            {
              "internalType": "bytes",
              "name": "enode",
              "type": "bytes"
            },
            {
              "internalType": "bytes",
              "name": "ip",
              "type": "bytes"
            },
            {
              "internalType": "uint256",
              "name": "port",
              "type": "uint256"
            },
            {
              "internalType": "uint256",
              "name": "lockAmount",
              "type": "uint256"
            },
            {
              "internalType": "bytes",
              "name": "memo",
              "type": "bytes"
            },
            {
              "internalType": "uint256",
              "name": "duration",
              "type": "uint256"
            }
          ],
          "internalType": "struct GovImp.MemberInfo",
          "name": "info",
          "type": "tuple"
        }
      ],
      "name": "addProposalToAddMember",
      "outputs": [
        {
          "internalType": "uint256",
          "name": "ballotIdx",
          "type": "uint256"
        }
      ],
      "stateMutability": "nonpayable",
      "type": "function"
    },
    {
      "inputs": [
        {
          "internalType": "bytes32",
          "name": "envName",
          "type": "bytes32"
        },
        {
          "internalType": "uint256",
          "name": "envType",
          "type": "uint256"
        },
        {
          "internalType": "bytes",
          "name": "envVal",
          "type": "bytes"
        },
        {
          "internalType": "bytes",
          "name": "memo",
          "type": "bytes"
        },
        {
          "internalType": "uint256",
          "name": "duration",
          "type": "uint256"
        }
      ],
      "name": "addProposalToChangeEnv",
      "outputs": [
        {
          "internalType": "uint256",
          "name": "ballotIdx",
          "type": "uint256"
        }
      ],
      "stateMutability": "nonpayable",
      "type": "function"
    },
    {
      "inputs": [
        {
          "internalType": "address",
          "name": "newGovAddr",
          "type": "address"
        },
        {
          "internalType": "bytes",
          "name": "memo",
          "type": "bytes"
        },
        {
          "internalType": "uint256",
          "name": "duration",
          "type": "uint256"
        }
      ],
      "name": "addProposalToChangeGov",
      "outputs": [
        {
          "internalType": "uint256",
          "name": "ballotIdx",
          "type": "uint256"
        }
      ],
      "stateMutability": "nonpayable",
      "type": "function"
    },
    {
      "inputs": [
        {
          "components": [
            {
              "internalType": "address",
              "name": "member",
              "type": "address"
            },
            {
              "internalType": "address",
              "name": "staker",
              "type": "address"
            },
            {
              "internalType": "bytes",
              "name": "name",
              "type": "bytes"
            },
            {
              "internalType": "bytes",
              "name": "enode",
              "type": "bytes"
            },
            {
              "internalType": "bytes",
              "name": "ip",
              "type": "bytes"
            },
            {
              "internalType": "uint256",
              "name": "port",
              "type": "uint256"
            },
            {
              "internalType": "uint256",
              "name": "lockAmount",
              "type": "uint256"
            },
            {
              "internalType": "bytes",
              "name": "memo",
              "type": "bytes"
            },
            {
              "internalType": "uint256",
              "name": "duration",
              "type": "uint256"
            }
          ],
          "internalType": "struct GovImp.MemberInfo",
          "name": "newInfo",
          "type": "tuple"
        },
        {
          "internalType": "address",
          "name": "oldMember",
          "type": "address"
        }
      ],
      "name": "addProposalToChangeMember",
      "outputs": [
        {
          "internalType": "uint256",
          "name": "ballotIdx",
          "type": "uint256"
        }
      ],
      "stateMutability": "nonpayable",
      "type": "function"
    },
    {
      "inputs": [
        {
          "internalType": "address",
          "name": "member",
          "type": "address"
        },
        {
          "internalType": "uint256",
          "name": "lockAmount",
          "type": "uint256"
        },
        {
          "internalType": "bytes",
          "name": "memo",
          "type": "bytes"
        },
        {
          "internalType": "uint256",
          "name": "duration",
          "type": "uint256"
        }
      ],
      "name": "addProposalToRemoveMember",
      "outputs": [
        {
          "internalType": "uint256",
          "name": "ballotIdx",
          "type": "uint256"
        }
      ],
      "stateMutability": "nonpayable",
      "type": "function"
    },
    {
      "inputs": [],
      "name": "ballotLength",
      "outputs": [
        {
          "internalType": "uint256",
          "name": "",
          "type": "uint256"
        }
      ],
      "stateMutability": "view",
      "type": "function"
    },
    {
      "inputs": [],
      "name": "getBallotInVoting",
      "outputs": [
        {
          "internalType": "uint256",
          "name": "",
          "type": "uint256"
        }
      ],
      "stateMutability": "view",
      "type": "function"
    },
    {
      "inputs": [],
      "name": "getMaxStaking",
      "outputs": [
        {
          "internalType": "uint256",
          "name": "",
          "type": "uint256"
        }
      ],
      "stateMutability": "view",
      "type": "function"
    },
    {
      "inputs": [],
      "name": "getMaxVotingDuration",
      "outputs": [
        {
          "internalType": "uint256",
          "name": "",
          "type": "uint256"
        }
      ],
      "stateMutability": "view",
      "type": "function"
    },
    {
      "inputs": [
        {
          "internalType": "uint256",
          "name": "idx",
          "type": "uint256"
        }
      ],
      "name": "getMember",
      "outputs": [
        {
          "internalType": "address",
          "name": "",
          "type": "address"
        }
      ],
      "stateMutability": "view",
      "type": "function"
    },
    {
      "inputs": [
        {
          "internalType": "uint256",
          "name": "idx",
          "type": "uint256"
        }
      ],
      "name": "getMemberFromNodeIdx",
      "outputs": [
        {
          "internalType": "address",
          "name": "",
          "type": "address"
        }
      ],
      "stateMutability": "view",
      "type": "function"
    },
    {
      "inputs": [],
      "name": "getMemberLength",
      "outputs": [
        {
          "internalType": "uint256",
          "name": "",
          "type": "uint256"
        }
      ],
      "stateMutability": "view",
      "type": "function"
    },
    {
      "inputs": [],
      "name": "getMinStaking",
      "outputs": [
        {
          "internalType": "uint256",
          "name": "",
          "type": "uint256"
        }
      ],
      "stateMutability": "view",
      "type": "function"
    },
    {
      "inputs": [],
      "name": "getMinVotingDuration",
      "outputs": [
        {
          "internalType": "uint256",
          "name": "",
          "type": "uint256"
        }
      ],
      "stateMutability": "view",
      "type": "function"
    },
    {
      "inputs": [
        {
          "internalType": "uint256",
          "name": "idx",
          "type": "uint256"
        }
      ],
      "name": "getNode",
      "outputs": [
        {
          "internalType": "bytes",
          "name": "name",
          "type": "bytes"
        },
        {
          "internalType": "bytes",
          "name": "enode",
          "type": "bytes"
        },
        {
          "internalType": "bytes",
          "name": "ip",
          "type": "bytes"
        },
        {
          "internalType": "uint256",
          "name": "port",
          "type": "uint256"
        }
      ],
      "stateMutability": "view",
      "type": "function"
    },
    {
      "inputs": [
        {
          "internalType": "address",
          "name": "addr",
          "type": "address"
        }
      ],
      "name": "getNodeIdxFromMember",
      "outputs": [
        {
          "internalType": "uint256",
          "name": "",
          "type": "uint256"
        }
      ],
      "stateMutability": "view",
      "type": "function"
    },
    {
      "inputs": [],
      "name": "getNodeLength",
      "outputs": [
        {
          "internalType": "uint256",
          "name": "",
          "type": "uint256"
        }
      ],
      "stateMutability": "view",
      "type": "function"
    },
    {
      "inputs": [
        {
          "internalType": "uint256",
          "name": "idx",
          "type": "uint256"
        }
      ],
      "name": "getReward",
      "outputs": [
        {
          "internalType": "address",
          "name": "",
          "type": "address"
        }
      ],
      "stateMutability": "view",
      "type": "function"
    },
    {
      "inputs": [
        {
          "internalType": "uint256",
          "name": "idx",
          "type": "uint256"
        }
      ],
      "name": "getStaker",
      "outputs": [
        {
          "internalType": "address",
          "name": "",
          "type": "address"
        }
      ],
      "stateMutability": "view",
      "type": "function"
    },
    {
      "inputs": [],
      "name": "getThreshold",
      "outputs": [
        {
          "internalType": "uint256",
          "name": "",
          "type": "uint256"
        }
      ],
      "stateMutability": "pure",
      "type": "function"
    },
    {
      "inputs": [
        {
          "internalType": "address",
          "name": "voter",
          "type": "address"
        },
        {
          "internalType": "address",
          "name": "staker",
          "type": "address"
        }
      ],
      "name": "isAllowedToVote",
      "outputs": [
        {
          "internalType": "bool",
          "name": "",
          "type": "bool"
        }
      ],
      "stateMutability": "view",
      "type": "function"
    },
    {
      "inputs": [
        {
          "internalType": "address",
          "name": "addr",
          "type": "address"
        }
      ],
      "name": "isMember",
      "outputs": [
        {
          "internalType": "bool",
          "name": "",
          "type": "bool"
        }
      ],
      "stateMutability": "view",
      "type": "function"
    },
    {
      "inputs": [],
      "name": "modifiedBlock",
      "outputs": [
        {
          "internalType": "uint256",
          "name": "",
          "type": "uint256"
        }
      ],
      "stateMutability": "view",
      "type": "function"
    },
    {
      "inputs": [],
      "name": "owner",
      "outputs": [
        {
          "internalType": "address",
          "name": "",
          "type": "address"
        }
      ],
      "stateMutability": "view",
      "type": "function"
    },
    {
      "inputs": [],
      "name": "proxiableUUID",
      "outputs": [
        {
          "internalType": "bytes32",
          "name": "",
          "type": "bytes32"
        }
      ],
      "stateMutability": "view",
      "type": "function"
    },
    {
      "inputs": [],
      "name": "reg",
      "outputs": [
        {
          "internalType": "contract IRegistry",
          "name": "",
          "type": "address"
        }
      ],
      "stateMutability": "view",
      "type": "function"
    },
    {
      "inputs": [],
      "name": "renounceOwnership",
      "outputs": [],
      "stateMutability": "nonpayable",
      "type": "function"
    },
    {
      "inputs": [
        {
          "internalType": "address",
          "name": "_addr",
          "type": "address"
        }
      ],
      "name": "setRegistry",
      "outputs": [],
      "stateMutability": "nonpayable",
      "type": "function"
    },
    {
      "inputs": [
        {
          "internalType": "address",
          "name": "newOwner",
          "type": "address"
        }
      ],
      "name": "transferOwnership",
      "outputs": [],
      "stateMutability": "nonpayable",
      "type": "function"
    },
    {
      "inputs": [
        {
          "internalType": "address",
          "name": "newImplementation",
          "type": "address"
        }
      ],
      "name": "upgradeTo",
      "outputs": [],
      "stateMutability": "nonpayable",
      "type": "function"
    },
    {
      "inputs": [
        {
          "internalType": "address",
          "name": "newImplementation",
          "type": "address"
        },
        {
          "internalType": "bytes",
          "name": "data",
          "type": "bytes"
        }
      ],
      "name": "upgradeToAndCall",
      "outputs": [],
      "stateMutability": "payable",
      "type": "function"
    },
    {
      "inputs": [
        {
          "internalType": "uint256",
          "name": "ballotIdx",
          "type": "uint256"
        },
        {
          "internalType": "bool",
          "name": "approval",
          "type": "bool"
        }
      ],
      "name": "vote",
      "outputs": [],
      "stateMutability": "nonpayable",
      "type": "function"
    },
    {
      "inputs": [],
      "name": "voteLength",
      "outputs": [
        {
          "internalType": "uint256",
          "name": "",
          "type": "uint256"
        }
      ],
      "stateMutability": "view",
      "type": "function"
    }
  ],
  "bytecode": "0x60a06040523060601b6080523480156200001857600080fd5b5062000024336200002f565b60016012556200007f565b600080546001600160a01b038381166001600160a01b0319831681178455604051919092169283917f8be0079c531659141344cd1fd0a4f28419497f9722a3daafe3b4186f6b6457e09190a35050565b60805160601c615501620000ba600039600081816113ce0152818161140e01528181611c2f01528181611c6f0152611ceb01526155016000f3fe6080604052600436106103c25760003560e01c80637b2bfb01116101f2578063c6713baf1161010d578063d965ea00116100a0578063e75235b81161006f578063e75235b814610d4d578063e80c4eaf14610d62578063e9523fb514610d96578063f2fde38b14610dac57600080fd5b8063d965ea0014610cb9578063dd65d3f914610cce578063de09b37714610d02578063e3c998fe14610d1757600080fd5b8063ce6a54ff116100dc578063ce6a54ff14610c19578063d13a174414610c4f578063d6f9cfce14610c6f578063d95deb0914610c8557600080fd5b8063c6713baf14610b7c578063c7d3da3414610bb0578063c9d27afe14610be4578063ce04b9d414610c0457600080fd5b8063a6868b7d11610185578063af6af2ff11610154578063af6af2ff14610acb578063b128f88014610ae0578063c00ace6c14610b14578063c0b4fe1514610b4857600080fd5b8063a6868b7d14610a0d578063a91ee0dc14610a41578063a9b629b214610a61578063ab3545e514610a9557600080fd5b8063918f8674116101c1578063918f8674146109835780639986e4b9146109995780639d86eeb2146109bd578063a230c524146109ed57600080fd5b80637b2bfb01146108fa5780637bf465301461092e5780637d10dd1b1461094f5780638da5cb5b1461096557600080fd5b80633bfe695d116102e25780636167eb45116102755780636fde207a116102445780636fde207a1461087c578063715018a6146108b057806372016f75146108c5578063738fdd1a146108da57600080fd5b80636167eb45146107b7578063656e3052146107eb5780636c78d2cf1461081f5780636d583ca71461084857600080fd5b80634f0f4aa9116102b15780634f0f4aa91461074a5780634f1ef2861461077a57806352d1902d1461078d5780635aaa4040146107a257600080fd5b80633bfe695d146106b45780633f35c8fe146106d457806340690353146107085780634bd1ed761461072857600080fd5b80631e0cba0d1161035a5780632f40992e116103295780632f40992e14610609578063320f2bed1461062a5780633659cfe61461065e578063382944191461068057600080fd5b80631e0cba0d14610563578063238737b614610581578063275c6f71146105b5578063278bb12a146105d557600080fd5b806315bf6b4d1161039657806315bf6b4d146104965780631c150171146104e45780631c4b774b146104f95780631daad67b1461052f57600080fd5b806215a73b146103c75780630b1d39b81461040e5780630efa4909146104425780630f36c0a814610462575b600080fd5b3480156103d357600080fd5b506103fb7f0c4fbe9dc9de15dd7c0d064975ee1a2f2f9b954fa0e65d4f6cddba94884bdc3e81565b6040519081526020015b60405180910390f35b34801561041a57600080fd5b506103fb7f9251c159f02011bbf45dee7be257fcbb2aecba050ea7ce7c9f8561b82858d6e081565b34801561044e57600080fd5b506103fb61045d366004614d11565b610dcc565b34801561046e57600080fd5b506103fb7f55b3774520b5993024893d303890baa4e84b1244a43c60034d1ced2d3cf2b04b81565b3480156104a257600080fd5b506104cc6104b1366004614f4c565b6000908152600d60205260409020546001600160a01b031690565b6040516001600160a01b039091168152602001610405565b3480156104f057600080fd5b506103fb611012565b34801561050557600080fd5b506104cc610514366004614f4c565b6000908152600660205260409020546001600160a01b031690565b34801561053b57600080fd5b506103fb7f6d0d53fb98dc9bce1459687cbe14a4d9d9314793382025604e41d0832dabfab281565b34801561056f57600080fd5b506103fb665374616b696e6760c81b81565b34801561058d57600080fd5b506103fb7f1d36f8ce53f59e624857e1d8dc7932d19981a2ea1b8faa4eb8ff843fc3e5a27881565b3480156105c157600080fd5b506103fb6105d0366004614ed0565b611091565b3480156105e157600080fd5b506103fb7f3a9129cf69b4fa0fbe5d48e0d50863014e21ae09ffabcd72cebe10b1835251b981565b34801561061557600080fd5b506103fb6914995dd85c99141bdbdb60b21b81565b34801561063657600080fd5b506103fb7f22977776155fc4e820722e2555cf883ac48d3db58e8302ad8a8304789cce21e681565b34801561066a57600080fd5b5061067e610679366004614b81565b6113c3565b005b34801561068c57600080fd5b506103fb7fbe90e461bbdb9a95a694f7796912ea04244caf7f5b60ad7ded17e16821d3e44c81565b3480156106c057600080fd5b506103fb6106cf366004614f05565b6114a9565b3480156106e057600080fd5b506103fb7f2a268972a70c8c688b62366bdfdd9bb09cf19d3e5b6e7e7bb158e671ffdcedd281565b34801561071457600080fd5b506103fb610723366004614e51565b6118a0565b34801561073457600080fd5b506103fb6a4d61696e74656e616e636560a81b81565b34801561075657600080fd5b5061076a610765366004614f4c565b611a47565b6040516104059493929190615074565b61067e610788366004614cc1565b611c24565b34801561079957600080fd5b506103fb611cde565b3480156107ae57600080fd5b506103fb611d91565b3480156107c357600080fd5b506103fb7f8e6c2112cf42a3c3439bb3778561081e8f613478ae194d83342262c47476aa6381565b3480156107f757600080fd5b506103fb7fe10074dceffb75f13bf0ce50145afd35182d63796823f1280ce40e01c19109e781565b34801561082b57600080fd5b506103fb7111dbdd995c9b985b98d950dbdb9d1c9858dd60721b81565b34801561085457600080fd5b506103fb7fc69fc6b7d0efc934fd5a3581c7253a7107a952526bb6dbcd814ef8d8dae1f44a81565b34801561088857600080fd5b506103fb7f0b09c9badbbeb6c813a598ee910770a39ccda797a1940439bb6e47fc6c87548b81565b3480156108bc57600080fd5b5061067e611dd3565b3480156108d157600080fd5b50600e546103fb565b3480156108e657600080fd5b506001546104cc906001600160a01b031681565b34801561090657600080fd5b506103fb7f9c50bf546a3eb3ddc62018a4800f49d81aad4ea32c0be59072d1ad5ca5cacaad81565b34801561093a57600080fd5b506103fb69456e7653746f7261676560b01b81565b34801561095b57600080fd5b506103fb60025481565b34801561097157600080fd5b506000546001600160a01b03166104cc565b34801561098f57600080fd5b506103fb61271081565b3480156109a557600080fd5b506103fb6c42616c6c6f7453746f7261676560981b81565b3480156109c957600080fd5b506109dd6109d8366004614bbb565b611e09565b6040519015158152602001610405565b3480156109f957600080fd5b506109dd610a08366004614b81565b611e9d565b348015610a1957600080fd5b506103fb7f6c6f69f426081752a5d3e73746599acd2a4cb145d5de4203ca1e3473b281680b81565b348015610a4d57600080fd5b5061067e610a5c366004614b81565b611eba565b348015610a6d57600080fd5b506103fb7f89dd490ecaf395283ed4ff2fd9557ca767fc425dce063451a9b0da6d72f600c381565b348015610aa157600080fd5b506104cc610ab0366004614f4c565b6000908152600360205260409020546001600160a01b031690565b348015610ad757600080fd5b506103fb611f5c565b348015610aec57600080fd5b506103fb7f829561ab7af084b7efc6600518d2df79b8d95f3f4c3a550f54f8f7ec7d2b805781565b348015610b2057600080fd5b506103fb7f18ad4415ef4a621ce1a136395c51ab6c3712bb2e24b79d526059925cea58dcb881565b348015610b5457600080fd5b506103fb7f8086da5becff4dfac91a3105821b361078d2d4abba0ccc2401b974cf0dcf05c181565b348015610b8857600080fd5b506103fb7fa5495b55db4a16d67920c831291cb521e7d2e42866df23674e9d512cbe24d91581565b348015610bbc57600080fd5b506103fb7f04f7b94450bbcad85f37ea47cd1062728f884bb2040e357738f8fd53056134bc81565b348015610bf057600080fd5b5061067e610bff366004614f65565b611f9e565b348015610c1057600080fd5b506103fb612101565b348015610c2557600080fd5b506103fb610c34366004614b81565b6001600160a01b03166000908152600c602052604090205490565b348015610c5b57600080fd5b506103fb610c6a366004614d6a565b612143565b348015610c7b57600080fd5b506103fb600f5481565b348015610c9157600080fd5b506103fb7f343c5ed9508182ab8261b3c26ad6005b023d08d7ebda78905998bf972da5a5ef81565b348015610cc557600080fd5b506005546103fb565b348015610cda57600080fd5b506103fb7fdefa546c11b044f1166f68848d05922f56215584ecaaf1f134abd7253991e49c81565b348015610d0e57600080fd5b506011546103fb565b348015610d2357600080fd5b506104cc610d32366004614f4c565b6000908152600860205260409020546001600160a01b031690565b348015610d5957600080fd5b506113ec6103fb565b348015610d6e57600080fd5b506103fb7fc1fef5416a26208ec09d5877fd503bcf881c208c4b0f620ea0f63841134b6bf081565b348015610da257600080fd5b506103fb60105481565b348015610db857600080fd5b5061067e610dc7366004614b81565b6123d1565b6000610dd6612469565b60405163288c314960e21b81523360048201526001600160a01b03919091169063a230c5249060240160206040518083038186803b158015610e1757600080fd5b505afa158015610e2b573d6000803e3d6000fd5b505050506040513d601f19601f82011682018060405250810190610e4f9190614dcb565b610e745760405162461bcd60e51b8152600401610e6b9061519e565b60405180910390fd5b6001600160a01b038416610eca5760405162461bcd60e51b815260206004820152601d60248201527f496d706c656d656e746174696f6e2063616e6e6f74206265207a65726f0000006044820152606401610e6b565b610ed2612489565b6001600160a01b0316846001600160a01b03161415610f2b5760405162461bcd60e51b815260206004820152601560248201527453616d6520636f6e7472616374206164647265737360581b6044820152606401610e6b565b600f54610f399060016124a5565b9050610f436124b1565b6001600160a01b0316630a3a63fe610f676001600f546124a590919063ffffffff16565b60046040516001600160e01b031960e085901b16815260048101929092526024820152604481018590523360648201526001600160a01b038716608482015260a401602060405180830381600087803b158015610fc357600080fd5b505af1158015610fd7573d6000803e3d6000fd5b505050506040513d601f19601f82011682018060405250810190610ffb9190614de8565b5061100681846124cc565b600f8190559392505050565b600061101c612537565b6001600160a01b03166333be496e6040518163ffffffff1660e01b815260040160206040518083038186803b15801561105457600080fd5b505afa158015611068573d6000803e3d6000fd5b505050506040513d601f19601f8201168201806040525081019061108c9190614de8565b905090565b600061109b612469565b60405163288c314960e21b81523360048201526001600160a01b03919091169063a230c5249060240160206040518083038186803b1580156110dc57600080fd5b505afa1580156110f0573d6000803e3d6000fd5b505050506040513d601f19601f820116820180604052508101906111149190614dcb565b6111305760405162461bcd60e51b8152600401610e6b9061519e565b81516001600160a01b03166111795760405162461bcd60e51b815260206004820152600f60248201526e496e76616c6964206164647265737360881b6044820152606401610e6b565b6000826040015151116111c25760405162461bcd60e51b8152602060048201526011602482015270496e76616c6964206e6f6465206e616d6560781b6044820152606401610e6b565b6000826080015151116112095760405162461bcd60e51b815260206004820152600f60248201526e0496e76616c6964206e6f646520495608c1b6044820152606401610e6b565b60008260a00151116112515760405162461bcd60e51b8152602060048201526011602482015270125b9d985b1a59081b9bd919481c1bdc9d607a1b6044820152606401610e6b565b815161125c90611e9d565b1561129a5760405162461bcd60e51b815260206004820152600e60248201526d20b63932b0b23c9036b2b6b132b960911b6044820152606401610e6b565b6112a2611f5c565b8260c00151101580156112c057506112b8611d91565b8260c0015111155b6113035760405162461bcd60e51b815260206004820152601460248201527324b73b30b634b2103637b1b59020b6b7bab73a1760611b6044820152606401610e6b565b61131582600001518360200151611e09565b6113595760405162461bcd60e51b815260206004820152601560248201527414dd185ad95c881a5cc81b9bdd08185b1b1bddd959605a1b6044820152606401610e6b565b600f546113679060016124a5565b905061139d8160018461010001513360008760000151600089602001518a604001518b606001518c608001518d60a0015161254f565b6113ab818360c001516125d8565b6113b9818360e001516124cc565b600f819055919050565b306001600160a01b037f000000000000000000000000000000000000000000000000000000000000000016141561140c5760405162461bcd60e51b8152600401610e6b906150bf565b7f00000000000000000000000000000000000000000000000000000000000000006001600160a01b031661143e612489565b6001600160a01b0316146114645760405162461bcd60e51b8152600401610e6b90615152565b61146d81612616565b6114a68160005b6040519080825280601f01601f19166020018201604052801561149e576020820181803683370190505b5060006126b3565b50565b60006114b3612469565b60405163288c314960e21b81523360048201526001600160a01b03919091169063a230c5249060240160206040518083038186803b1580156114f457600080fd5b505afa158015611508573d6000803e3d6000fd5b505050506040513d601f19601f8201168201806040525081019061152c9190614dcb565b6115485760405162461bcd60e51b8152600401610e6b9061519e565b6001600160a01b0382166115945760405162461bcd60e51b8152602060048201526013602482015272496e76616c6964206f6c64204164647265737360681b6044820152606401610e6b565b82516001600160a01b03166115e15760405162461bcd60e51b8152602060048201526013602482015272496e76616c6964206e6577204164647265737360681b6044820152606401610e6b565b60008360400151511161162a5760405162461bcd60e51b8152602060048201526011602482015270496e76616c6964206e6f6465206e616d6560781b6044820152606401610e6b565b6000836080015151116116715760405162461bcd60e51b815260206004820152600f60248201526e0496e76616c6964206e6f646520495608c1b6044820152606401610e6b565b60008360a00151116116b95760405162461bcd60e51b8152602060048201526011602482015270125b9d985b1a59081b9bd919481c1bdc9d607a1b6044820152606401610e6b565b6116c282611e9d565b6116fb5760405162461bcd60e51b815260206004820152600a6024820152692737b716b6b2b6b132b960b11b6044820152606401610e6b565b611703611f5c565b8360c00151101580156117215750611719611d91565b8360c0015111155b6117635760405162461bcd60e51b8152602060048201526013602482015272125b9d985b1a59081b1bd8dac8105b5bdd5b9d606a1b6044820152606401610e6b565b61177583600001518460200151611e09565b6117b95760405162461bcd60e51b815260206004820152601560248201527414dd185ad95c881a5cc81b9bdd08185b1b1bddd959605a1b6044820152606401610e6b565b600f546117c79060016124a5565b905061183381600385610100015133868860000151600a60008a6001600160a01b03166001600160a01b0316815260200190815260200160002060009054906101000a90046001600160a01b03168a602001518b604001518c606001518d608001518e60a0015161254f565b611841818460c001516125d8565b61184f818460e001516124cc565b600f819055336001600160a01b038316141561189a57600061187082612832565b925061188a91508390504261188581856124a5565b6128c9565b611898826003600180612940565b505b92915050565b60006118aa612469565b60405163288c314960e21b81523360048201526001600160a01b03919091169063a230c5249060240160206040518083038186803b1580156118eb57600080fd5b505afa1580156118ff573d6000803e3d6000fd5b505050506040513d601f19601f820116820180604052508101906119239190614dcb565b61193f5760405162461bcd60e51b8152600401610e6b9061519e565b84600111158015611951575060068511155b61198c5760405162461bcd60e51b815260206004820152600c60248201526b496e76616c6964207479706560a01b6044820152606401610e6b565b600f5461199a9060016124a5565b90506119a46124b1565b6001600160a01b0316634a57823e82600585338b8b8b6040518863ffffffff1660e01b81526004016119dc97969594939291906152b0565b602060405180830381600087803b1580156119f657600080fd5b505af1158015611a0a573d6000803e3d6000fd5b505050506040513d601f19601f82011682018060405250810190611a2e9190614de8565b50611a3981846124cc565b600f81905595945050505050565b6000818152600b6020526040812060038101548154606093849384939192909160018301916002840191908490611a7d906153da565b80601f0160208091040260200160405190810160405280929190818152602001828054611aa9906153da565b8015611af65780601f10611acb57610100808354040283529160200191611af6565b820191906000526020600020905b815481529060010190602001808311611ad957829003601f168201915b50505050509350828054611b09906153da565b80601f0160208091040260200160405190810160405280929190818152602001828054611b35906153da565b8015611b825780601f10611b5757610100808354040283529160200191611b82565b820191906000526020600020905b815481529060010190602001808311611b6557829003601f168201915b50505050509250818054611b95906153da565b80601f0160208091040260200160405190810160405280929190818152602001828054611bc1906153da565b8015611c0e5780601f10611be357610100808354040283529160200191611c0e565b820191906000526020600020905b815481529060010190602001808311611bf157829003601f168201915b5050505050915093509350935093509193509193565b306001600160a01b037f0000000000000000000000000000000000000000000000000000000000000000161415611c6d5760405162461bcd60e51b8152600401610e6b906150bf565b7f00000000000000000000000000000000000000000000000000000000000000006001600160a01b0316611c9f612489565b6001600160a01b031614611cc55760405162461bcd60e51b8152600401610e6b90615152565b611cce82612616565b611cda828260016126b3565b5050565b6000306001600160a01b037f00000000000000000000000000000000000000000000000000000000000000001614611d7e5760405162461bcd60e51b815260206004820152603860248201527f555550535570677261646561626c653a206d757374206e6f742062652063616c60448201527f6c6564207468726f7567682064656c656761746563616c6c00000000000000006064820152608401610e6b565b5060008051602061546583398151915290565b6000611d9b612537565b6001600160a01b031663737c59b86040518163ffffffff1660e01b815260040160206040518083038186803b15801561105457600080fd5b6000546001600160a01b03163314611dfd5760405162461bcd60e51b8152600401610e6b906151c5565b611e0760006129c9565b565b6000611e13612a19565b60405163a165437960e01b81526001600160a01b0385811660048301528481166024830152919091169063a16543799060440160206040518083038186803b158015611e5e57600080fd5b505afa158015611e72573d6000803e3d6000fd5b505050506040513d601f19601f82011682018060405250810190611e969190614dcb565b9392505050565b6001600160a01b0316600090815260046020526040902054151590565b6000546001600160a01b03163314611ee45760405162461bcd60e51b8152600401610e6b906151c5565b6001600160a01b038116611f3a5760405162461bcd60e51b815260206004820152601a60248201527f416464726573732073686f756c64206265206e6f6e2d7a65726f0000000000006044820152606401610e6b565b600180546001600160a01b0319166001600160a01b0392909216919091179055565b6000611f66612537565b6001600160a01b031663076cd77f6040518163ffffffff1660e01b815260040160206040518083038186803b15801561105457600080fd5b611fa6612469565b60405163288c314960e21b81523360048201526001600160a01b03919091169063a230c5249060240160206040518083038186803b158015611fe757600080fd5b505afa158015611ffb573d6000803e3d6000fd5b505050506040513d601f19601f8201168201806040525081019061201f9190614dcb565b61203b5760405162461bcd60e51b8152600401610e6b9061519e565b6002601254141561208e5760405162461bcd60e51b815260206004820152601f60248201527f5265656e7472616e637947756172643a207265656e7472616e742063616c6c006044820152606401610e6b565b600260125561209c82612a2e565b60006120a783612ade565b90506120b38383612bae565b6000806120bf85612db3565b925092505060006120cf6113ec90565b905080831015806120e05750808210155b156120f4576120f486858486116000612940565b5050600160125550505050565b600061210b612537565b6001600160a01b0316631b27e01b6040518163ffffffff1660e01b815260040160206040518083038186803b15801561105457600080fd5b600061214d612469565b60405163288c314960e21b81523360048201526001600160a01b03919091169063a230c5249060240160206040518083038186803b15801561218e57600080fd5b505afa1580156121a2573d6000803e3d6000fd5b505050506040513d601f19601f820116820180604052508101906121c69190614dcb565b6121e25760405162461bcd60e51b8152600401610e6b9061519e565b6001600160a01b03851661222a5760405162461bcd60e51b815260206004820152600f60248201526e496e76616c6964206164647265737360881b6044820152606401610e6b565b61223385611e9d565b61226c5760405162461bcd60e51b815260206004820152600a6024820152692737b716b6b2b6b132b960b11b6044820152606401610e6b565b600161227760055490565b116122c45760405162461bcd60e51b815260206004820152601b60248201527f43616e6e6f742072656d6f7665206120736f6c65206d656d62657200000000006044820152606401610e6b565b6001600160a01b038086166000908152600a602052604090205485916122ea9116612ded565b101561234b5760405162461bcd60e51b815260206004820152602a60248201527f496e73756666696369656e742062616c616e636520746861742063616e206265604482015269103ab73637b1b5b2b21760b11b6064820152608401610e6b565b600f546123599060016124a5565b6001600160a01b038681166000908152600a60209081526040808320548151848152928301848152838301858152606085019093529596506123b09587956002958a9533958f95929492909316928492908361254f565b6123ba81856125d8565b6123c481846124cc565b600f819055949350505050565b6000546001600160a01b031633146123fb5760405162461bcd60e51b8152600401610e6b906151c5565b6001600160a01b0381166124605760405162461bcd60e51b815260206004820152602660248201527f4f776e61626c653a206e6577206f776e657220697320746865207a65726f206160448201526564647265737360d01b6064820152608401610e6b565b6114a6816129c9565b600061108c7111dbdd995c9b985b98d950dbdb9d1c9858dd60721b612e73565b600080516020615465833981519152546001600160a01b031690565b6000611e96828461537f565b600061108c6c42616c6c6f7453746f7261676560981b612e73565b6124d46124b1565b6001600160a01b031663bce0dbc183836040518363ffffffff1660e01b81526004016125019291906151fa565b600060405180830381600087803b15801561251b57600080fd5b505af115801561252f573d6000803e3d6000fd5b505050505050565b600061108c69456e7653746f7261676560b01b612e73565b6125576124b1565b6001600160a01b031663daacbb958d8d8d8d8d8d8d8d8d8d8d8d6040518d63ffffffff1660e01b81526004016125989c9b9a99989796959493929190615213565b600060405180830381600087803b1580156125b257600080fd5b505af11580156125c6573d6000803e3d6000fd5b50505050505050505050505050505050565b6125e06124b1565b604051633968764960e11b815260048101849052602481018390526001600160a01b0391909116906372d0ec9290604401612501565b61261e612469565b60405163288c314960e21b81523360048201526001600160a01b03919091169063a230c5249060240160206040518083038186803b15801561265f57600080fd5b505afa158015612673573d6000803e3d6000fd5b505050506040513d601f19601f820116820180604052508101906126979190614dcb565b6114a65760405162461bcd60e51b8152600401610e6b9061519e565b7f4910fdfa16fed3260ed0e7147f7cc6da11a60208b5b9406d12a635614ffd91435460ff16156126eb576126e683612ef0565b505050565b826001600160a01b03166352d1902d6040518163ffffffff1660e01b815260040160206040518083038186803b15801561272457600080fd5b505afa925050508015612754575060408051601f3d908101601f1916820190925261275191810190614de8565b60015b6127b75760405162461bcd60e51b815260206004820152602e60248201527f45524331393637557067726164653a206e657720696d706c656d656e7461746960448201526d6f6e206973206e6f74205555505360901b6064820152608401610e6b565b60008051602061546583398151915281146128265760405162461bcd60e51b815260206004820152602960248201527f45524331393637557067726164653a20756e737570706f727465642070726f786044820152681a58589b195555525160ba1b6064820152608401610e6b565b506126e6838383612f8c565b600080600061283f6124b1565b6001600160a01b03166309970688856040518263ffffffff1660e01b815260040161286c91815260200190565b60606040518083038186803b15801561288457600080fd5b505afa158015612898573d6000803e3d6000fd5b505050506040513d601f19601f820116820180604052508101906128bc9190614fc3565b9250925092509193909250565b6128d16124b1565b60405163605b78c360e11b81526004810185905260248101849052604481018390526001600160a01b03919091169063c0b6f18690606401600060405180830381600087803b15801561292357600080fd5b505af1158015612937573d6000803e3d6000fd5b50505050505050565b600482156129b357506003600184141561296a5761295d85612fb7565b612965575060045b6129b3565b600284141561297c57612965856132eb565b600384141561298f5761295d858361373a565b60048414156129a15761296585613ba6565b60058414156129b3576129b385613c65565b6129bd858261429a565b50506000601155505050565b600080546001600160a01b038381166001600160a01b0319831681178455604051919092169283917f8be0079c531659141344cd1fd0a4f28419497f9722a3daafe3b4186f6b6457e09190a35050565b600061108c665374616b696e6760c81b612e73565b601154156114a6576000612a436011546142d8565b509150506000612a54601154612832565b5091505060028214156126e65742811015612a8157601154612a7790600461429a565b6000601155505050565b60115483146126e65760405162461bcd60e51b815260206004820152602360248201527f4e6f7720696e20766f74696e67207769746820646966666572656e742062616c6044820152621b1bdd60ea1b6064820152608401610e6b565b6000806000612aec846142d8565b5090925090506001811415612b6e576000612b0685612832565b92505050612b12611012565b811015612b3557612b308542611885612b29611012565b42906124a5565b612b63565b80612b3e612101565b1015612b5457612b308542611885612b29612101565b612b63854261188581856124a5565b506011849055611898565b6002811415612b7c57611898565b60405162461bcd60e51b8152602060048201526007602482015266115e1c1a5c995960ca1b6044820152606401610e6b565b601054600090612bbf9060016124a5565b90506000612bcb612a19565b336000908152600a602052604090819020549051637d77a0eb60e01b81526001600160a01b0391821660048201526127106024820152911690637d77a0eb9060440160206040518083038186803b158015612c2557600080fd5b505afa158015612c39573d6000803e3d6000fd5b505050506040513d601f19601f82011682018060405250810190612c5d9190614de8565b90508215612d0a57612c6d6124b1565b6040516325918ae760e21b8152600481018490526024810186905233604482015260016064820152608481018390526001600160a01b0391909116906396462b9c9060a401602060405180830381600087803b158015612ccc57600080fd5b505af1158015612ce0573d6000803e3d6000fd5b505050506040513d601f19601f82011682018060405250810190612d049190614de8565b50612dab565b612d126124b1565b6040516325918ae760e21b8152600481018490526024810186905233604482015260026064820152608481018390526001600160a01b0391909116906396462b9c9060a401602060405180830381600087803b158015612d7157600080fd5b505af1158015612d85573d6000803e3d6000fd5b505050506040513d601f19601f82011682018060405250810190612da99190614de8565b505b506010555050565b6000806000612dc06124b1565b6001600160a01b03166356ba988e856040518263ffffffff1660e01b815260040161286c91815260200190565b6000612df7612a19565b604051632c9aab9b60e11b81526001600160a01b03848116600483015291909116906359355736906024015b60206040518083038186803b158015612e3b57600080fd5b505afa158015612e4f573d6000803e3d6000fd5b505050506040513d601f19601f8201168201806040525081019061189a9190614de8565b600154604051630d2020dd60e01b8152600481018390526000916001600160a01b031690630d2020dd9060240160206040518083038186803b158015612eb857600080fd5b505afa158015612ecc573d6000803e3d6000fd5b505050506040513d601f19601f8201168201806040525081019061189a9190614b9e565b6001600160a01b0381163b612f5d5760405162461bcd60e51b815260206004820152602d60248201527f455243313936373a206e657720696d706c656d656e746174696f6e206973206e60448201526c1bdd08184818dbdb9d1c9858dd609a1b6064820152608401610e6b565b60008051602061546583398151915280546001600160a01b0319166001600160a01b0392909216919091179055565b612f9583614362565b600082511180612fa25750805b156126e657612fb183836143a2565b50505050565b6000612fc48260016143c7565b6000806000806000806000612fd8896144ce565b975097509750975097509750975050612ff087611e9d565b1561304d57886000805160206154858339815191526040516130369060208082526010908201526f20b63932b0b23c90309036b2b6b132b960811b604082015260600190565b60405180910390a250600198975050505050505050565b613055611f5c565b811080613068575080613066611d91565b105b156130c857886000805160206154858339815191526040516130b190602080825260139082015272125b9d985b1a59081b1bd8dac8185b5bdd5b9d606a1b604082015260600190565b60405180910390a250600098975050505050505050565b806130d28761457f565b10156130f457886000805160206154858339815191526040516130b19061510b565b6130fe8787611e09565b61314757886000805160206154858339815191526040516130b190602080825260149082015273159bdd195c881a5cc81b9bdd08185b1b1bddd95960621b604082015260600190565b61315186826145b9565b6005546000906131629060016124a5565b600081815260036020908152604080832080546001600160a01b03808f166001600160a01b0319928316811790935582865260048552838620879055868652600685528386208054918f16918316821790558086526007855283862087905586865260088552838620805483168217905580865260098552838620879055918552600a9093529083208054909216179055600e54919250906132059060016124a5565b6000818152600b6020908152604090912088519293509161322e916001840191908a019061487d565b508551613244906002830190602089019061487d565b50600381018590556000828152600d6020908152604080832080546001600160a01b0319166001600160a01b038f169081179091558352600c82529091208390558851613296918391908b019061487d565b506005839055600e829055436002556040516001600160a01b038b16907fb251eb052afc73ffd02ffe85ad79990a8b3fed60d76dbc2fa2fdd7123dffd91490600090a25060019b9a5050505050505050505050565b6132f68160026143c7565b600080613302836144ce565b9750505050505050915061331582611e9d565b61336b578260008051602061548583398151915260405161335e906020808252601490820152732737ba1030b63932b0b23c90309036b2b6b132b960611b604082015260600190565b60405180910390a2505050565b6001600160a01b038083166000818152600460208181526040808420546005548086526003845282862054968652600a8452919094205492909152919392831692169083146134ab5760058054600090815260036020818152604080842080546001600160a01b038c8116808852600480875285892080549d8a529787528589209087529a821688528488209b909b559486905581546001600160a01b0319908116909255885482169085161790975596835260078082528784208054865486526006845289862080548288528b882094865286168088528b882092909255918690558154891690915581548816179055848216835260098082528784208054955485526008835288852080548787528a872093909452929093168085529784208590559290915580548516905580549093168417909255909190613526565b60058054600090815260036020908152604080832080546001600160a01b03199081169091556001600160a01b038a8116808652600485528386208690558654865260068552838620805484169055855260078452828520859055945484526008835281842080549091169055928416825260099052908120555b6005546135349060016145f8565b600555600e546001600160a01b0386166000908152600c60205260409020541461366a576001600160a01b038086166000908152600c6020908152604080832054600e54808552600d845282852054828652600b90945282852090855291909320805493975091909316945082916135ab906153da565b6135b6929190614901565b50600e546000908152600b6020526040902060019081018054918301916135dc906153da565b6135e7929190614901565b50600e546000908152600b60205260409020600290810180549183019161360d906153da565b613618929190614901565b50600e546000908152600b60209081526040808320600390810154940193909355858252600d815282822080546001600160a01b0319166001600160a01b0387169081179091558252600c9052208390555b600e80546000908152600d6020908152604080832080546001600160a01b03191690556001600160a01b0389168352600c825280832083905592548252600b9052908120906136b9828261497c565b6136c760018301600061497c565b6136d560028301600061497c565b50600060039190910155600e546136ed9060016145f8565b600e55436002556136fe8185614604565b6040516001600160a01b038616907f6e76fb4c77256006d9c38ec7d82b45a8c8f3c27b1d6766fffc42dfb8de68449290600090a2505050505050565b60008161374c5761374c8360036143c7565b6000806000806000806000806137618b6144ce565b9750975097509750975097509750975061377a88611e9d565b6137e5578a6000805160206154858339815191526040516137cc906020808252601b908201527f4f6c642061646472657373206973206e6f742061206d656d6265720000000000604082015260600190565b60405180910390a260009850505050505050505061189a565b866001600160a01b0316886001600160a01b0316146138d65761380787611e9d565b1561385a578a6000805160206154858339815191526040516137cc906020808252601f908201527f6e6577206164647265737320697320616c72656164792061206d656d62657200604082015260600190565b6001600160a01b03808916600081815260046020818152604080842080548552600383528185208054978f166001600160a01b0319988916811790915584845281548187528387208190558652600684528286208054909816811790975585855260078352818520549685529084209590955592825290915290555b6001600160a01b038089166000908152600a6020526040902054811690871681146139ff57613903611f5c565b821080613916575081613914611d91565b105b15613979578b60008051602061548583398151915260405161395f90602080825260139082015272125b9d985b1a59081b1bd8dac8185b5bdd5b9d606a1b604082015260600190565b60405180910390a26000995050505050505050505061189a565b816139838861457f565b10156139a5578b60008051602061548583398151915260405161395f9061510b565b6139af87836145b9565b6001600160a01b038181166000818152600960208181526040808420805485526008835281852080546001600160a01b031916978f16978817905592909152815494835282209390935590815290555b6001600160a01b0389166000908152600c6020908152604080832054808452600b8352922088519091613a369183918b019061487d565b508651613a4c90600183019060208a019061487d565b508551613a62906002830190602089019061487d565b5060038101859055436002556001600160a01b03838116908a1614613b5d5789600d600084815260200190815260200160002060006101000a8154816001600160a01b0302191690836001600160a01b0316021790555081600c60008c6001600160a01b03166001600160a01b03168152602001908152602001600020819055506000600c60008d6001600160a01b03166001600160a01b0316815260200190815260200160002081905550613b188385614604565b896001600160a01b03168b6001600160a01b03167f05d866cd9c6000815d031b7ce30f30f643766eba16be13cff25924dc8ad8209260405160405180910390a3613b92565b6040516001600160a01b038c16907fc849ff69d29483b688b050076f9d03b1a618c93ea052a712bfd3224eb71da8e290600090a25b5060019d9c50505050505050505050505050565b613bb18160046143c7565b6000613bbb6124b1565b6001600160a01b0316637efa9ae3836040518263ffffffff1660e01b8152600401613be891815260200190565b60206040518083038186803b158015613c0057600080fd5b505afa158015613c14573d6000803e3d6000fd5b505050506040513d601f19601f82011682018060405250810190613c389190614b9e565b90506001600160a01b03811615611cda57613c5281612616565b613c5d816000611474565b436002555050565b613c708160056143c7565b6000806000613c7d6124b1565b6001600160a01b0316631d940da2856040518263ffffffff1660e01b8152600401613caa91815260200190565b60006040518083038186803b158015613cc257600080fd5b505afa158015613cd6573d6000803e3d6000fd5b505050506040513d6000823e601f3d908101601f19168201604052613cfe9190810190614e01565b9250925092506000613d0e612537565b9050600260037f2a268972a70c8c688b62366bdfdd9bb09cf19d3e5b6e7e7bb158e671ffdcedd286148015613d4257508185145b15613daa57604051631f46d57f60e11b81526001600160a01b03841690633e8daafe90613d73908790600401615061565b600060405180830381600087803b158015613d8d57600080fd5b505af1158015613da1573d6000803e3d6000fd5b50505050614251565b7fe10074dceffb75f13bf0ce50145afd35182d63796823f1280ce40e01c19109e786148015613dd857508185145b15613e09576040516345b5ec2960e01b81526001600160a01b038416906345b5ec2990613d73908790600401615061565b7f6c6f69f426081752a5d3e73746599acd2a4cb145d5de4203ca1e3473b281680b86148015613e3757508185145b15613e685760405163e078869f60e01b81526001600160a01b0384169063e078869f90613d73908790600401615061565b7f55b3774520b5993024893d303890baa4e84b1244a43c60034d1ced2d3cf2b04b86148015613e9657508185145b15613ec757604051630dd0030f60e31b81526001600160a01b03841690636e80187890613d73908790600401615061565b7f829561ab7af084b7efc6600518d2df79b8d95f3f4c3a550f54f8f7ec7d2b805786148015613ef557508185145b15613f26576040516305c851cd60e11b81526001600160a01b03841690630b90a39a90613d73908790600401615061565b7f8086da5becff4dfac91a3105821b361078d2d4abba0ccc2401b974cf0dcf05c186148015613f5457508185145b15613f855760405163112e264560e21b81526001600160a01b038416906344b8991490613d73908790600401615061565b7f89dd490ecaf395283ed4ff2fd9557ca767fc425dce063451a9b0da6d72f600c386148015613fb357508185145b15613fe457604051633d4c65f360e01b81526001600160a01b03841690633d4c65f390613d73908790600401615061565b7fbe90e461bbdb9a95a694f7796912ea04244caf7f5b60ad7ded17e16821d3e44c8614801561401257508185145b1561404357604051630fc238bf60e01b81526001600160a01b03841690630fc238bf90613d73908790600401615061565b7f3a9129cf69b4fa0fbe5d48e0d50863014e21ae09ffabcd72cebe10b1835251b98614801561407157508185145b156140a257604051634645c43f60e11b81526001600160a01b03841690638c8b887e90613d73908790600401615061565b7f04f7b94450bbcad85f37ea47cd1062728f884bb2040e357738f8fd53056134bc861480156140d057508185145b1561410157604051635f19b99560e11b81526001600160a01b0384169063be33732a90613d73908790600401615061565b7f22977776155fc4e820722e2555cf883ac48d3db58e8302ad8a8304789cce21e68614801561412f57508085145b1561416057604051633ad90d5f60e11b81526001600160a01b038416906375b21abe90613d73908790600401615061565b7f343c5ed9508182ab8261b3c26ad6005b023d08d7ebda78905998bf972da5a5ef8614801561418e57508085145b156141bf576040516342241b3960e11b81526001600160a01b03841690638448367290613d73908790600401615061565b7fc1fef5416a26208ec09d5877fd503bcf881c208c4b0f620ea0f63841134b6bf0861480156141ed57508085145b1561425157604051634860b35960e11b81526001600160a01b038416906390c166b29061421e908790600401615061565b600060405180830381600087803b15801561423857600080fd5b505af115801561424c573d6000803e3d6000fd5b505050505b436002556040517f701c16c2519cdb79aaac423a84733590e3510d9552055b6ad6908f0ab12b6c299061428990889088908890615039565b60405180910390a150505050505050565b6142a26124b1565b60405163548f2cdd60e11b815260048101849052602481018390526001600160a01b03919091169063a91e59ba90604401612501565b60008060006142e56124b1565b6001600160a01b031663688ca5b2856040518263ffffffff1660e01b815260040161431291815260200190565b60606040518083038186803b15801561432a57600080fd5b505afa15801561433e573d6000803e3d6000fd5b505050506040513d601f19601f820116820180604052508101906128bc9190614f8a565b61436b81612ef0565b6040516001600160a01b038216907fbc7cd75a20ee27fd9adebab32041f755214dbc6bffa90cc0225b39da2e5c2d3b90600090a250565b6060611e9683836040518060600160405280602781526020016154a560279139614728565b6000806143d3846142d8565b509150915082821461441d5760405162461bcd60e51b8152602060048201526013602482015272496e76616c696420766f74696e67207479706560681b6044820152606401610e6b565b600281146144645760405162461bcd60e51b8152602060048201526014602482015273496e76616c696420766f74696e6720737461746560601b6044820152606401610e6b565b60008061447086612db3565b925092505061447e6113ec90565b8210158061448e57506113ec8110155b61252f5760405162461bcd60e51b8152602060048201526011602482015270139bdd081e595d08199a5b985b1a5e9959607a1b6044820152606401610e6b565b600080600060608060606000806144e36124b1565b6001600160a01b03166373df4e018a6040518263ffffffff1660e01b815260040161451091815260200190565b60006040518083038186803b15801561452857600080fd5b505afa15801561453c573d6000803e3d6000fd5b505050506040513d6000823e601f3d908101601f191682016040526145649190810190614bf4565b97509750975097509750975097509750919395975091939597565b6000614589612a19565b6040516325d998bb60e01b81526001600160a01b03848116600483015291909116906325d998bb90602401612e23565b6145c1612a19565b60405163282d3fdf60e01b81526001600160a01b03848116600483015260248201849052919091169063282d3fdf90604401612501565b6000611e968284615397565b600061460e612a19565b604051632c9aab9b60e11b81526001600160a01b03858116600483015291925060009183169063593557369060240160206040518083038186803b15801561465557600080fd5b505afa158015614669573d6000803e3d6000fd5b505050506040513d601f19601f8201168201806040525081019061468d9190614de8565b90508281111561471e576001600160a01b038216637756c908856146b184876145f8565b6040516001600160e01b031960e085901b1681526001600160a01b0390921660048301526024820152604401600060405180830381600087803b1580156146f757600080fd5b505af115801561470b573d6000803e3d6000fd5b505050506147198484614805565b612fb1565b612fb18482614805565b60606001600160a01b0384163b6147905760405162461bcd60e51b815260206004820152602660248201527f416464726573733a2064656c65676174652063616c6c20746f206e6f6e2d636f6044820152651b9d1c9858dd60d21b6064820152608401610e6b565b600080856001600160a01b0316856040516147ab919061501d565b600060405180830381855af49150503d80600081146147e6576040519150601f19603f3d011682016040523d82523d6000602084013e6147eb565b606091505b50915091506147fb828286614844565b9695505050505050565b61480d612a19565b604051637eee288d60e01b81526001600160a01b038481166004830152602482018490529190911690637eee288d90604401612501565b60608315614853575081611e96565b8251156148635782518084602001fd5b8160405162461bcd60e51b8152600401610e6b9190615061565b828054614889906153da565b90600052602060002090601f0160209004810192826148ab57600085556148f1565b82601f106148c457805160ff19168380011785556148f1565b828001600101855582156148f1579182015b828111156148f15782518255916020019190600101906148d6565b506148fd9291506149b2565b5090565b82805461490d906153da565b90600052602060002090601f01602090048101928261492f57600085556148f1565b82601f1061494057805485556148f1565b828001600101855582156148f157600052602060002091601f016020900482015b828111156148f1578254825591600101919060010190614961565b508054614988906153da565b6000825580601f10614998575050565b601f0160209004906000526020600020908101906114a691905b5b808211156148fd57600081556001016149b3565b80356149d281615441565b919050565b80516149d281615441565b600082601f8301126149f357600080fd5b8135614a06614a0182615357565b615326565b818152846020838601011115614a1b57600080fd5b816020850160208301376000918101602001919091529392505050565b600082601f830112614a4957600080fd5b8151614a57614a0182615357565b818152846020838601011115614a6c57600080fd5b614a7d8260208301602087016153ae565b949350505050565b60006101208284031215614a9857600080fd5b614aa06152fc565b9050614aab826149c7565b8152614ab9602083016149c7565b6020820152604082013567ffffffffffffffff80821115614ad957600080fd5b614ae5858386016149e2565b60408401526060840135915080821115614afe57600080fd5b614b0a858386016149e2565b60608401526080840135915080821115614b2357600080fd5b614b2f858386016149e2565b608084015260a084013560a084015260c084013560c084015260e0840135915080821115614b5c57600080fd5b50614b69848285016149e2565b60e08301525061010080830135818301525092915050565b600060208284031215614b9357600080fd5b8135611e9681615441565b600060208284031215614bb057600080fd5b8151611e9681615441565b60008060408385031215614bce57600080fd5b8235614bd981615441565b91506020830135614be981615441565b809150509250929050565b600080600080600080600080610100898b031215614c1157600080fd5b614c1a896149d7565b9750614c2860208a016149d7565b9650614c3660408a016149d7565b9550606089015167ffffffffffffffff80821115614c5357600080fd5b614c5f8c838d01614a38565b965060808b0151915080821115614c7557600080fd5b614c818c838d01614a38565b955060a08b0151915080821115614c9757600080fd5b50614ca48b828c01614a38565b60c08b015160e0909b0151999c989b509699959894979350505050565b60008060408385031215614cd457600080fd5b8235614cdf81615441565b9150602083013567ffffffffffffffff811115614cfb57600080fd5b614d07858286016149e2565b9150509250929050565b600080600060608486031215614d2657600080fd5b8335614d3181615441565b9250602084013567ffffffffffffffff811115614d4d57600080fd5b614d59868287016149e2565b925050604084013590509250925092565b60008060008060808587031215614d8057600080fd5b8435614d8b81615441565b935060208501359250604085013567ffffffffffffffff811115614dae57600080fd5b614dba878288016149e2565b949793965093946060013593505050565b600060208284031215614ddd57600080fd5b8151611e9681615456565b600060208284031215614dfa57600080fd5b5051919050565b600080600060608486031215614e1657600080fd5b8351925060208401519150604084015167ffffffffffffffff811115614e3b57600080fd5b614e4786828701614a38565b9150509250925092565b600080600080600060a08688031215614e6957600080fd5b8535945060208601359350604086013567ffffffffffffffff80821115614e8f57600080fd5b614e9b89838a016149e2565b94506060880135915080821115614eb157600080fd5b50614ebe888289016149e2565b95989497509295608001359392505050565b600060208284031215614ee257600080fd5b813567ffffffffffffffff811115614ef957600080fd5b614a7d84828501614a85565b60008060408385031215614f1857600080fd5b823567ffffffffffffffff811115614f2f57600080fd5b614f3b85828601614a85565b9250506020830135614be981615441565b600060208284031215614f5e57600080fd5b5035919050565b60008060408385031215614f7857600080fd5b823591506020830135614be981615456565b600080600060608486031215614f9f57600080fd5b83519250602084015191506040840151614fb881615456565b809150509250925092565b600080600060608486031215614fd857600080fd5b8351925060208401519150604084015190509250925092565b600081518084526150098160208601602086016153ae565b601f01601f19169290920160200192915050565b6000825161502f8184602087016153ae565b9190910192915050565b8381528260208201526060604082015260006150586060830184614ff1565b95945050505050565b602081526000611e966020830184614ff1565b6080815260006150876080830187614ff1565b82810360208401526150998187614ff1565b905082810360408401526150ad8186614ff1565b91505082606083015295945050505050565b6020808252602c908201527f46756e6374696f6e206d7573742062652063616c6c6564207468726f7567682060408201526b19195b1959d85d1958d85b1b60a21b606082015260800190565b60208082526027908201527f496e73756666696369656e742062616c616e636520746861742063616e206265604082015266081b1bd8dad95960ca1b606082015260800190565b6020808252602c908201527f46756e6374696f6e206d7573742062652063616c6c6564207468726f7567682060408201526b6163746976652070726f787960a01b606082015260800190565b6020808252600d908201526c2737902832b936b4b9b9b4b7b760991b604082015260600190565b6020808252818101527f4f776e61626c653a2063616c6c6572206973206e6f7420746865206f776e6572604082015260600190565b828152604060208201526000614a7d6040830184614ff1565b8c8152602081018c9052604081018b90526001600160a01b038a81166060830152898116608083015288811660a083015287811660c0830152861660e082015260006101808061010084015261526b81840188614ff1565b90508281036101208401526152808187614ff1565b90508281036101408401526152958186614ff1565b915050826101608301529d9c50505050505050505050505050565b87815286602082015285604082015260018060a01b03851660608201528360808201528260a082015260e060c082015260006152ef60e0830184614ff1565b9998505050505050505050565b604051610120810167ffffffffffffffff811182821017156153205761532061542b565b60405290565b604051601f8201601f1916810167ffffffffffffffff8111828210171561534f5761534f61542b565b604052919050565b600067ffffffffffffffff8211156153715761537161542b565b50601f01601f191660200190565b6000821982111561539257615392615415565b500190565b6000828210156153a9576153a9615415565b500390565b60005b838110156153c95781810151838201526020016153b1565b83811115612fb15750506000910152565b600181811c908216806153ee57607f821691505b6020821081141561540f57634e487b7160e01b600052602260045260246000fd5b50919050565b634e487b7160e01b600052601160045260246000fd5b634e487b7160e01b600052604160045260246000fd5b6001600160a01b03811681146114a657600080fd5b80151581146114a657600080fdfe360894a13ba1a3210667c828492db98dca3e2076cc3735a920a3ca505d382bbc85e7f4987c0698db47045ad8cea110b51138f0eecbd94915842328cf6c3dc97d416464726573733a206c6f772d6c6576656c2064656c65676174652063616c6c206661696c6564a26469706673582212208b0f28c2bb71fad36a250be96c19069674a2b35f34c6f9e04b4904fda3ddd8fa64736f6c63430008060033",
  "linkReferences": {},
  "deployedLinkReferences": {}
}