{
  "contractName": "GovImp",
  "abi": [
    {
      "constant": true,
      "inputs": [],
      "name": "BALLOT_DURATION_MAX_NAME",
      "outputs": [
        {
          "name": "",
          "type": "bytes32"
        }
      ],
      "payable": false,
      "stateMutability": "view",
      "type": "function"
    },
    {
      "constant": true,
      "inputs": [],
      "name": "magic",
      "outputs": [
        {
          "name": "",
          "type": "uint256"
        }
      ],
      "payable": false,
      "stateMutability": "view",
      "type": "function"
    },
    {
      "constant": true,
      "inputs": [],
      "name": "STAKING_MIN_TYPE",
      "outputs": [
        {
          "name": "",
          "type": "uint256"
        }
      ],
      "payable": false,
      "stateMutability": "view",
      "type": "function"
    },
    {
      "constant": true,
      "inputs": [],
      "name": "GAS_PRICE_NAME",
      "outputs": [
        {
          "name": "",
          "type": "bytes32"
        }
      ],
      "payable": false,
      "stateMutability": "view",
      "type": "function"
    },
    {
      "constant": true,
      "inputs": [],
      "name": "BLOCKS_PER_TYPE",
      "outputs": [
        {
          "name": "",
          "type": "uint256"
        }
      ],
      "payable": false,
      "stateMutability": "view",
      "type": "function"
    },
    {
      "constant": true,
      "inputs": [
        {
          "name": "idx",
          "type": "uint256"
        }
      ],
      "name": "getMemberFromNodeIdx",
      "outputs": [
        {
          "name": "",
          "type": "address"
        }
      ],
      "payable": false,
      "stateMutability": "view",
      "type": "function"
    },
    {
      "constant": true,
      "inputs": [
        {
          "name": "idx",
          "type": "uint256"
        }
      ],
      "name": "getReward",
      "outputs": [
        {
          "name": "",
          "type": "address"
        }
      ],
      "payable": false,
      "stateMutability": "view",
      "type": "function"
    },
    {
      "constant": true,
      "inputs": [],
      "name": "STAKING_NAME",
      "outputs": [
        {
          "name": "",
          "type": "bytes32"
        }
      ],
      "payable": false,
      "stateMutability": "view",
      "type": "function"
    },
    {
      "constant": false,
      "inputs": [
        {
          "name": "registry",
          "type": "address"
        },
        {
          "name": "implementation",
          "type": "address"
        },
        {
          "name": "data",
          "type": "bytes"
        }
      ],
      "name": "initOnce",
      "outputs": [],
      "payable": false,
      "stateMutability": "nonpayable",
      "type": "function"
    },
    {
      "constant": true,
      "inputs": [],
      "name": "GAS_PRICE_TYPE",
      "outputs": [
        {
          "name": "",
          "type": "uint256"
        }
      ],
      "payable": false,
      "stateMutability": "view",
      "type": "function"
    },
    {
      "constant": true,
      "inputs": [],
      "name": "REWARD_POOL_NAME",
      "outputs": [
        {
          "name": "",
          "type": "bytes32"
        }
      ],
      "payable": false,
      "stateMutability": "view",
      "type": "function"
    },
    {
      "constant": true,
      "inputs": [],
      "name": "BLOCKS_PER_NAME",
      "outputs": [
        {
          "name": "",
          "type": "bytes32"
        }
      ],
      "payable": false,
      "stateMutability": "view",
      "type": "function"
    },
    {
      "constant": true,
      "inputs": [
        {
          "name": "idx",
          "type": "uint256"
        }
      ],
      "name": "getNode",
      "outputs": [
        {
          "name": "name",
          "type": "bytes"
        },
        {
          "name": "enode",
          "type": "bytes"
        },
        {
          "name": "ip",
          "type": "bytes"
        },
        {
          "name": "port",
          "type": "uint256"
        }
      ],
      "payable": false,
      "stateMutability": "view",
      "type": "function"
    },
    {
      "constant": true,
      "inputs": [],
      "name": "implementation",
      "outputs": [
        {
          "name": "impl",
          "type": "address"
        }
      ],
      "payable": false,
      "stateMutability": "view",
      "type": "function"
    },
    {
      "constant": true,
      "inputs": [],
      "name": "BALLOT_DURATION_MAX_TYPE",
      "outputs": [
        {
          "name": "",
          "type": "uint256"
        }
      ],
      "payable": false,
      "stateMutability": "view",
      "type": "function"
    },
    {
      "constant": true,
      "inputs": [],
      "name": "GOV_NAME",
      "outputs": [
        {
          "name": "",
          "type": "bytes32"
        }
      ],
      "payable": false,
      "stateMutability": "view",
      "type": "function"
    },
    {
      "constant": true,
      "inputs": [],
      "name": "BALLOT_DURATION_MIN_NAME",
      "outputs": [
        {
          "name": "",
          "type": "bytes32"
        }
      ],
      "payable": false,
      "stateMutability": "view",
      "type": "function"
    },
    {
      "constant": true,
      "inputs": [],
      "name": "STAKING_MIN_NAME",
      "outputs": [
        {
          "name": "",
          "type": "bytes32"
        }
      ],
      "payable": false,
      "stateMutability": "view",
      "type": "function"
    },
    {
      "constant": false,
      "inputs": [],
      "name": "renounceOwnership",
      "outputs": [],
      "payable": false,
      "stateMutability": "nonpayable",
      "type": "function"
    },
    {
      "constant": true,
      "inputs": [],
      "name": "getNodeLength",
      "outputs": [
        {
          "name": "",
          "type": "uint256"
        }
      ],
      "payable": false,
      "stateMutability": "view",
      "type": "function"
    },
    {
      "constant": true,
      "inputs": [],
      "name": "reg",
      "outputs": [
        {
          "name": "",
          "type": "address"
        }
      ],
      "payable": false,
      "stateMutability": "view",
      "type": "function"
    },
    {
      "constant": true,
      "inputs": [],
      "name": "ENV_STORAGE_NAME",
      "outputs": [
        {
          "name": "",
          "type": "bytes32"
        }
      ],
      "payable": false,
      "stateMutability": "view",
      "type": "function"
    },
    {
      "constant": true,
      "inputs": [],
      "name": "modifiedBlock",
      "outputs": [
        {
          "name": "",
          "type": "uint256"
        }
      ],
      "payable": false,
      "stateMutability": "view",
      "type": "function"
    },
    {
      "constant": true,
      "inputs": [],
      "name": "MAX_IDLE_BLOCK_INTERVAL_TYPE",
      "outputs": [
        {
          "name": "",
          "type": "uint256"
        }
      ],
      "payable": false,
      "stateMutability": "view",
      "type": "function"
    },
    {
      "constant": false,
      "inputs": [
        {
          "name": "registry",
          "type": "address"
        },
        {
          "name": "implementation",
          "type": "address"
        },
        {
          "name": "lockAmount",
          "type": "uint256"
        },
        {
          "name": "name",
          "type": "bytes"
        },
        {
          "name": "enode",
          "type": "bytes"
        },
        {
          "name": "ip",
          "type": "bytes"
        },
        {
          "name": "port",
          "type": "uint256"
        }
      ],
      "name": "init",
      "outputs": [],
      "payable": false,
      "stateMutability": "nonpayable",
      "type": "function"
    },
    {
      "constant": true,
      "inputs": [],
      "name": "owner",
      "outputs": [
        {
          "name": "",
          "type": "address"
        }
      ],
      "payable": false,
      "stateMutability": "view",
      "type": "function"
    },
    {
      "constant": true,
      "inputs": [],
      "name": "isOwner",
      "outputs": [
        {
          "name": "",
          "type": "bool"
        }
      ],
      "payable": false,
      "stateMutability": "view",
      "type": "function"
    },
    {
      "constant": true,
      "inputs": [],
      "name": "BALLOT_STORAGE_NAME",
      "outputs": [
        {
          "name": "",
          "type": "bytes32"
        }
      ],
      "payable": false,
      "stateMutability": "view",
      "type": "function"
    },
    {
      "constant": true,
      "inputs": [],
      "name": "STAKING_MAX_TYPE",
      "outputs": [
        {
          "name": "",
          "type": "uint256"
        }
      ],
      "payable": false,
      "stateMutability": "view",
      "type": "function"
    },
    {
      "constant": true,
      "inputs": [
        {
          "name": "addr",
          "type": "address"
        }
      ],
      "name": "isMember",
      "outputs": [
        {
          "name": "",
          "type": "bool"
        }
      ],
      "payable": false,
      "stateMutability": "view",
      "type": "function"
    },
    {
      "constant": false,
      "inputs": [
        {
          "name": "_addr",
          "type": "address"
        }
      ],
      "name": "setRegistry",
      "outputs": [],
      "payable": false,
      "stateMutability": "nonpayable",
      "type": "function"
    },
    {
      "constant": true,
      "inputs": [
        {
          "name": "idx",
          "type": "uint256"
        }
      ],
      "name": "getMember",
      "outputs": [
        {
          "name": "",
          "type": "address"
        }
      ],
      "payable": false,
      "stateMutability": "view",
      "type": "function"
    },
    {
      "constant": true,
      "inputs": [],
      "name": "BALLOT_DURATION_MIN_TYPE",
      "outputs": [
        {
          "name": "",
          "type": "uint256"
        }
      ],
      "payable": false,
      "stateMutability": "view",
      "type": "function"
    },
    {
      "constant": true,
      "inputs": [],
      "name": "MAX_IDLE_BLOCK_INTERVAL_NAME",
      "outputs": [
        {
          "name": "",
          "type": "bytes32"
        }
      ],
      "payable": false,
      "stateMutability": "view",
      "type": "function"
    },
    {
      "constant": true,
      "inputs": [],
      "name": "STAKING_MAX_NAME",
      "outputs": [
        {
          "name": "",
          "type": "bytes32"
        }
      ],
      "payable": false,
      "stateMutability": "view",
      "type": "function"
    },
    {
      "constant": true,
      "inputs": [
        {
          "name": "addr",
          "type": "address"
        }
      ],
      "name": "getNodeIdxFromMember",
      "outputs": [
        {
          "name": "",
          "type": "uint256"
        }
      ],
      "payable": false,
      "stateMutability": "view",
      "type": "function"
    },
    {
      "constant": true,
      "inputs": [],
      "name": "ballotLength",
      "outputs": [
        {
          "name": "",
          "type": "uint256"
        }
      ],
      "payable": false,
      "stateMutability": "view",
      "type": "function"
    },
    {
      "constant": true,
      "inputs": [],
      "name": "getMemberLength",
      "outputs": [
        {
          "name": "",
          "type": "uint256"
        }
      ],
      "payable": false,
      "stateMutability": "view",
      "type": "function"
    },
    {
      "constant": true,
      "inputs": [],
      "name": "getBallotInVoting",
      "outputs": [
        {
          "name": "",
          "type": "uint256"
        }
      ],
      "payable": false,
      "stateMutability": "view",
      "type": "function"
    },
    {
      "constant": true,
      "inputs": [],
      "name": "voteLength",
      "outputs": [
        {
          "name": "",
          "type": "uint256"
        }
      ],
      "payable": false,
      "stateMutability": "view",
      "type": "function"
    },
    {
      "constant": false,
      "inputs": [
        {
          "name": "newOwner",
          "type": "address"
        }
      ],
      "name": "transferOwnership",
      "outputs": [],
      "payable": false,
      "stateMutability": "nonpayable",
      "type": "function"
    },
    {
      "payable": true,
      "stateMutability": "payable",
      "type": "fallback"
    },
    {
      "anonymous": false,
      "inputs": [
        {
          "indexed": true,
          "name": "addr",
          "type": "address"
        }
      ],
      "name": "MemberAdded",
      "type": "event"
    },
    {
      "anonymous": false,
      "inputs": [
        {
          "indexed": true,
          "name": "addr",
          "type": "address"
        }
      ],
      "name": "MemberRemoved",
      "type": "event"
    },
    {
      "anonymous": false,
      "inputs": [
        {
          "indexed": true,
          "name": "oldAddr",
          "type": "address"
        },
        {
          "indexed": true,
          "name": "newAddr",
          "type": "address"
        }
      ],
      "name": "MemberChanged",
      "type": "event"
    },
    {
      "anonymous": false,
      "inputs": [
        {
          "indexed": false,
          "name": "envName",
          "type": "bytes32"
        },
        {
          "indexed": false,
          "name": "envType",
          "type": "uint256"
        },
        {
          "indexed": false,
          "name": "envVal",
          "type": "bytes"
        }
      ],
      "name": "EnvChanged",
      "type": "event"
    },
    {
      "anonymous": false,
      "inputs": [
        {
          "indexed": true,
          "name": "addr",
          "type": "address"
        }
      ],
      "name": "MemberUpdated",
      "type": "event"
    },
    {
      "anonymous": false,
      "inputs": [
        {
          "indexed": true,
          "name": "previousOwner",
          "type": "address"
        },
        {
          "indexed": true,
          "name": "newOwner",
          "type": "address"
        }
      ],
      "name": "OwnershipTransferred",
      "type": "event"
    },
    {
      "anonymous": false,
      "inputs": [
        {
          "indexed": true,
          "name": "implementation",
          "type": "address"
        }
      ],
      "name": "Upgraded",
      "type": "event"
    },
    {
      "constant": false,
      "inputs": [
        {
          "name": "member",
          "type": "address"
        },
        {
          "name": "name",
          "type": "bytes"
        },
        {
          "name": "enode",
          "type": "bytes"
        },
        {
          "name": "ip",
          "type": "bytes"
        },
        {
          "name": "port_lockAmount",
          "type": "uint256[2]"
        },
        {
          "name": "memo",
          "type": "bytes"
        }
      ],
      "name": "addProposalToAddMember",
      "outputs": [
        {
          "name": "ballotIdx",
          "type": "uint256"
        }
      ],
      "payable": false,
      "stateMutability": "nonpayable",
      "type": "function"
    },
    {
      "constant": false,
      "inputs": [
        {
          "name": "member",
          "type": "address"
        },
        {
          "name": "lockAmount",
          "type": "uint256"
        },
        {
          "name": "memo",
          "type": "bytes"
        }
      ],
      "name": "addProposalToRemoveMember",
      "outputs": [
        {
          "name": "ballotIdx",
          "type": "uint256"
        }
      ],
      "payable": false,
      "stateMutability": "nonpayable",
      "type": "function"
    },
    {
      "constant": false,
      "inputs": [
        {
          "name": "target_nMember",
          "type": "address[2]"
        },
        {
          "name": "nName",
          "type": "bytes"
        },
        {
          "name": "nEnode",
          "type": "bytes"
        },
        {
          "name": "nIp",
          "type": "bytes"
        },
        {
          "name": "port_lockAmount",
          "type": "uint256[2]"
        },
        {
          "name": "memo",
          "type": "bytes"
        }
      ],
      "name": "addProposalToChangeMember",
      "outputs": [
        {
          "name": "ballotIdx",
          "type": "uint256"
        }
      ],
      "payable": false,
      "stateMutability": "nonpayable",
      "type": "function"
    },
    {
      "constant": false,
      "inputs": [
        {
          "name": "newGovAddr",
          "type": "address"
        },
        {
          "name": "memo",
          "type": "bytes"
        }
      ],
      "name": "addProposalToChangeGov",
      "outputs": [
        {
          "name": "ballotIdx",
          "type": "uint256"
        }
      ],
      "payable": false,
      "stateMutability": "nonpayable",
      "type": "function"
    },
    {
      "constant": false,
      "inputs": [
        {
          "name": "envName",
          "type": "bytes32"
        },
        {
          "name": "envType",
          "type": "uint256"
        },
        {
          "name": "envVal",
          "type": "bytes"
        },
        {
          "name": "memo",
          "type": "bytes"
        }
      ],
      "name": "addProposalToChangeEnv",
      "outputs": [
        {
          "name": "ballotIdx",
          "type": "uint256"
        }
      ],
      "payable": false,
      "stateMutability": "nonpayable",
      "type": "function"
    },
    {
      "constant": false,
      "inputs": [
        {
          "name": "ballotIdx",
          "type": "uint256"
        },
        {
          "name": "approval",
          "type": "bool"
        }
      ],
      "name": "vote",
      "outputs": [],
      "payable": false,
      "stateMutability": "nonpayable",
      "type": "function"
    },
    {
      "constant": true,
      "inputs": [],
      "name": "getMinStaking",
      "outputs": [
        {
          "name": "",
          "type": "uint256"
        }
      ],
      "payable": false,
      "stateMutability": "view",
      "type": "function"
    },
    {
      "constant": true,
      "inputs": [],
      "name": "getMaxStaking",
      "outputs": [
        {
          "name": "",
          "type": "uint256"
        }
      ],
      "payable": false,
      "stateMutability": "view",
      "type": "function"
    },
    {
      "constant": true,
      "inputs": [],
      "name": "getMinVotingDuration",
      "outputs": [
        {
          "name": "",
          "type": "uint256"
        }
      ],
      "payable": false,
      "stateMutability": "view",
      "type": "function"
    },
    {
      "constant": true,
      "inputs": [],
      "name": "getMaxVotingDuration",
      "outputs": [
        {
          "name": "",
          "type": "uint256"
        }
      ],
      "payable": false,
      "stateMutability": "view",
      "type": "function"
    },
    {
      "constant": true,
      "inputs": [],
      "name": "getThreshould",
      "outputs": [
        {
          "name": "",
          "type": "uint256"
        }
      ],
      "payable": false,
      "stateMutability": "pure",
      "type": "function"
    }
  ],
  "bytecode": "0x6080604052724d6574616469756d20476f7665726e616e6365600255336000806101000a81548173ffffffffffffffffffffffffffffffffffffffff021916908373ffffffffffffffffffffffffffffffffffffffff1602179055506000809054906101000a900473ffffffffffffffffffffffffffffffffffffffff1673ffffffffffffffffffffffffffffffffffffffff16600073ffffffffffffffffffffffffffffffffffffffff167f8be0079c531659141344cd1fd0a4f28419497f9722a3daafe3b4186f6b6457e060405160405180910390a36000600460006101000a81548160ff02191690831515021790555060006007819055506000600d819055506000600e819055506000600f819055506000601081905550600160118190555061735a806101316000396000f300608060405260043610610271576000357c0100000000000000000000000000000000000000000000000000000000900463ffffffff16806215a73b146102e05780630d854646146103135780630ea0a8c61461033e5780630f36c0a81461036957806314b8bc631461039c57806315bf6b4d146103c757806319ce5417146104345780631aee05e9146104f55780631c150171146105205780631c4b774b1461054b5780631e0cba0d146105b85780631fb85d91146105eb5780632118b782146106945780632f40992e146106bf5780633f35c8fe146106f25780634e2218dd146107255780634f0f4aa9146107d05780635aaa4040146109555780635c60da1b146109805780635f53e21d146109d75780636c78d2cf14610a025780636d583ca714610a355780636fde207a14610a68578063715018a614610a9b57806372016f7514610ab2578063738fdd1a14610add5780637bf4653014610b345780637d10dd1b14610b6757806388f9aade14610b925780638c38bdf514610bbd5780638da5cb5b14610d065780638f32d59b14610d5d57806398a66b3d14610d8c5780639986e4b914610e055780639f3ab54a14610e38578063a230c52414610e63578063a91ee0dc14610ebe578063ab3545e514610f01578063aed31e7b14610f6e578063af6af2ff14610f99578063b128f88014610fc4578063b454321414610ff7578063c00ace6c14611066578063c9d27afe14611099578063ce04b9d4146110d2578063ce6a54ff146110fd578063d6f9cfce14611154578063d965ea001461117f578063de09b377146111aa578063e9523fb5146111d5578063f2fde38b14611200578063f69041c314611243575b600061027b6112c2565b9050600073ffffffffffffffffffffffffffffffffffffffff168173ffffffffffffffffffffffffffffffffffffffff16141515156102b957600080fd5b60405136600082376000803683855af43d806000843e81600081146102dc578184f35b8184fd5b3480156102ec57600080fd5b506102f561132b565b60405180826000191660001916815260200191505060405180910390f35b34801561031f57600080fd5b50610328611364565b6040518082815260200191505060405180910390f35b34801561034a57600080fd5b5061035361136a565b6040518082815260200191505060405180910390f35b34801561037557600080fd5b5061037e61137a565b60405180826000191660001916815260200191505060405180910390f35b3480156103a857600080fd5b506103b16113b3565b6040518082815260200191505060405180910390f35b3480156103d357600080fd5b506103f2600480360381019080803590602001909291905050506113c3565b604051808273ffffffffffffffffffffffffffffffffffffffff1673ffffffffffffffffffffffffffffffffffffffff16815260200191505060405180910390f35b34801561044057600080fd5b506104df600480360381019080803573ffffffffffffffffffffffffffffffffffffffff16906020019092919080359060200190820180359060200191909192939192939080359060200190820180359060200191909192939192939080359060200190820180359060200191909192939192939080604001909192919290803590602001908201803590602001919091929391929390505050611400565b6040518082815260200191505060405180910390f35b34801561050157600080fd5b5061050a6117c2565b6040518082815260200191505060405180910390f35b34801561052c57600080fd5b506105356117cc565b6040518082815260200191505060405180910390f35b34801561055757600080fd5b5061057660048036038101908080359060200190929190505050611879565b604051808273ffffffffffffffffffffffffffffffffffffffff1673ffffffffffffffffffffffffffffffffffffffff16815260200191505060405180910390f35b3480156105c457600080fd5b506105cd6118b6565b60405180826000191660001916815260200191505060405180910390f35b3480156105f757600080fd5b50610692600480360381019080803573ffffffffffffffffffffffffffffffffffffffff169060200190929190803573ffffffffffffffffffffffffffffffffffffffff169060200190929190803590602001908201803590602001908080601f01602080910402602001604051908101604052809392919081815260200183838082843782019150505050505091929192905050506118da565b005b3480156106a057600080fd5b506106a9611c99565b6040518082815260200191505060405180910390f35b3480156106cb57600080fd5b506106d4611ca9565b60405180826000191660001916815260200191505060405180910390f35b3480156106fe57600080fd5b50610707611ccd565b60405180826000191660001916815260200191505060405180910390f35b34801561073157600080fd5b506107ba6004803603810190808060400190919291929080359060200190820180359060200191909192939192939080359060200190820180359060200191909192939192939080359060200190820180359060200191909192939192939080604001909192919290803590602001908201803590602001919091929391929390505050611d06565b6040518082815260200191505060405180910390f35b3480156107dc57600080fd5b506107fb6004803603810190808035906020019092919050505061209d565b60405180806020018060200180602001858152602001848103845288818151815260200191508051906020019080838360005b8381101561084957808201518184015260208101905061082e565b50505050905090810190601f1680156108765780820380516001836020036101000a031916815260200191505b50848103835287818151815260200191508051906020019080838360005b838110156108af578082015181840152602081019050610894565b50505050905090810190601f1680156108dc5780820380516001836020036101000a031916815260200191505b50848103825286818151815260200191508051906020019080838360005b838110156109155780820151818401526020810190506108fa565b50505050905090810190601f1680156109425780820380516001836020036101000a031916815260200191505b5097505050505050505060405180910390f35b34801561096157600080fd5b5061096a6122e0565b6040518082815260200191505060405180910390f35b34801561098c57600080fd5b506109956112c2565b604051808273ffffffffffffffffffffffffffffffffffffffff1673ffffffffffffffffffffffffffffffffffffffff16815260200191505060405180910390f35b3480156109e357600080fd5b506109ec61238d565b6040518082815260200191505060405180910390f35b348015610a0e57600080fd5b50610a1761239d565b60405180826000191660001916815260200191505060405180910390f35b348015610a4157600080fd5b50610a4a6123c1565b60405180826000191660001916815260200191505060405180910390f35b348015610a7457600080fd5b50610a7d6123fa565b60405180826000191660001916815260200191505060405180910390f35b348015610aa757600080fd5b50610ab0612433565b005b348015610abe57600080fd5b50610ac7612505565b6040518082815260200191505060405180910390f35b348015610ae957600080fd5b50610af261250f565b604051808273ffffffffffffffffffffffffffffffffffffffff1673ffffffffffffffffffffffffffffffffffffffff16815260200191505060405180910390f35b348015610b4057600080fd5b50610b49612535565b60405180826000191660001916815260200191505060405180910390f35b348015610b7357600080fd5b50610b7c612559565b6040518082815260200191505060405180910390f35b348015610b9e57600080fd5b50610ba761255f565b6040518082815260200191505060405180910390f35b348015610bc957600080fd5b50610d04600480360381019080803573ffffffffffffffffffffffffffffffffffffffff169060200190929190803573ffffffffffffffffffffffffffffffffffffffff16906020019092919080359060200190929190803590602001908201803590602001908080601f0160208091040260200160405190810160405280939291908181526020018383808284378201915050505050509192919290803590602001908201803590602001908080601f0160208091040260200160405190810160405280939291908181526020018383808284378201915050505050509192919290803590602001908201803590602001908080601f01602080910402602001604051908101604052809392919081815260200183838082843782019150505050505091929192908035906020019092919050505061256f565b005b348015610d1257600080fd5b50610d1b612aaa565b604051808273ffffffffffffffffffffffffffffffffffffffff1673ffffffffffffffffffffffffffffffffffffffff16815260200191505060405180910390f35b348015610d6957600080fd5b50610d72612ad3565b604051808215151515815260200191505060405180910390f35b348015610d9857600080fd5b50610def600480360381019080803573ffffffffffffffffffffffffffffffffffffffff16906020019092919080359060200190929190803590602001908201803590602001919091929391929390505050612b2a565b6040518082815260200191505060405180910390f35b348015610e1157600080fd5b50610e1a612ea0565b60405180826000191660001916815260200191505060405180910390f35b348015610e4457600080fd5b50610e4d612ec4565b6040518082815260200191505060405180910390f35b348015610e6f57600080fd5b50610ea4600480360381019080803573ffffffffffffffffffffffffffffffffffffffff169060200190929190505050612ed4565b604051808215151515815260200191505060405180910390f35b348015610eca57600080fd5b50610eff600480360381019080803573ffffffffffffffffffffffffffffffffffffffff169060200190929190505050612f20565b005b348015610f0d57600080fd5b50610f2c60048036038101908080359060200190929190505050612f77565b604051808273ffffffffffffffffffffffffffffffffffffffff1673ffffffffffffffffffffffffffffffffffffffff16815260200191505060405180910390f35b348015610f7a57600080fd5b50610f83612fb4565b6040518082815260200191505060405180910390f35b348015610fa557600080fd5b50610fae612fc4565b6040518082815260200191505060405180910390f35b348015610fd057600080fd5b50610fd9613071565b60405180826000191660001916815260200191505060405180910390f35b34801561100357600080fd5b50611050600480360381019080803573ffffffffffffffffffffffffffffffffffffffff1690602001909291908035906020019082018035906020019190919293919293905050506130aa565b6040518082815260200191505060405180910390f35b34801561107257600080fd5b5061107b6134f2565b60405180826000191660001916815260200191505060405180910390f35b3480156110a557600080fd5b506110d06004803603810190808035906020019092919080351515906020019092919050505061352b565b005b3480156110de57600080fd5b506110e7613711565b6040518082815260200191505060405180910390f35b34801561110957600080fd5b5061113e600480360381019080803573ffffffffffffffffffffffffffffffffffffffff1690602001909291905050506137be565b6040518082815260200191505060405180910390f35b34801561116057600080fd5b50611169613807565b6040518082815260200191505060405180910390f35b34801561118b57600080fd5b5061119461380d565b6040518082815260200191505060405180910390f35b3480156111b657600080fd5b506111bf613817565b6040518082815260200191505060405180910390f35b3480156111e157600080fd5b506111ea613821565b6040518082815260200191505060405180910390f35b34801561120c57600080fd5b50611241600480360381019080803573ffffffffffffffffffffffffffffffffffffffff169060200190929190505050613827565b005b34801561124f57600080fd5b506112ac600480360381019080803560001916906020019092919080359060200190929190803590602001908201803590602001919091929391929390803590602001908201803590602001919091929391929390505050613846565b6040518082815260200191505060405180910390f35b60008060405180807f6f72672e6d6574616469756d2e70726f78792e696d706c656d656e746174696f81526020017f6e00000000000000000000000000000000000000000000000000000000000000815250602101905060405180910390209050805491505090565b60405180807f62616c6c6f744475726174696f6e4d61780000000000000000000000000000008152506011019050604051809103902081565b60025481565b6002600681111561137757fe5b81565b60405180807f67617350726963650000000000000000000000000000000000000000000000008152506008019050604051809103902081565b600260068111156113c057fe5b81565b6000600c600083815260200190815260200160002060009054906101000a900473ffffffffffffffffffffffffffffffffffffffff169050919050565b600061140a613bcc565b73ffffffffffffffffffffffffffffffffffffffff1663a230c524336040518263ffffffff167c0100000000000000000000000000000000000000000000000000000000028152600401808273ffffffffffffffffffffffffffffffffffffffff1673ffffffffffffffffffffffffffffffffffffffff168152602001915050602060405180830381600087803b1580156114a457600080fd5b505af11580156114b8573d6000803e3d6000fd5b505050506040513d60208110156114ce57600080fd5b81019080805190602001909291905050501515611553576040517f08c379a000000000000000000000000000000000000000000000000000000000815260040180806020018281038252600d8152602001807f4e6f205065726d697373696f6e0000000000000000000000000000000000000081525060200191505060405180910390fd5b8a73ffffffffffffffffffffffffffffffffffffffff163373ffffffffffffffffffffffffffffffffffffffff16141515156115f7576040517f08c379a000000000000000000000000000000000000000000000000000000000815260040180806020018281038252600f8152602001807f43616e6e6f74206164642073656c66000000000000000000000000000000000081525060200191505060405180910390fd5b6116008b612ed4565b151515611675576040517f08c379a000000000000000000000000000000000000000000000000000000000815260040180806020018281038252600e8152602001807f416c7265616479206d656d62657200000000000000000000000000000000000081525060200191505060405180910390fd5b61168b6001600e54613bfc90919063ffffffff16565b9050611754816001600581111561169e57fe5b3360008f8f8f8080601f0160208091040260200160405190810160405280939291908181526020018383808284378201915050505050508e8e8080601f0160208091040260200160405190810160405280939291908181526020018383808284378201915050505050508d8d8080601f0160208091040260200160405190810160405280939291908181526020018383808284378201915050505050508c600060028110151561174a57fe5b6020020135613c1d565b6117718185600160028110151561176757fe5b6020020135613ea9565b6117ad8184848080601f016020809104026020016040519081016040528093929190818152602001838380828437820191505050505050613f43565b80600e819055509a9950505050505050505050565b60006113ec905090565b60006117d6614042565b73ffffffffffffffffffffffffffffffffffffffff166333be496e6040518163ffffffff167c0100000000000000000000000000000000000000000000000000000000028152600401602060405180830381600087803b15801561183957600080fd5b505af115801561184d573d6000803e3d6000fd5b505050506040513d602081101561186357600080fd5b8101908080519060200190929190505050905090565b60006008600083815260200190815260200160002060009054906101000a900473ffffffffffffffffffffffffffffffffffffffff169050919050565b7f5374616b696e670000000000000000000000000000000000000000000000000081565b6000606080606060008060008060006118f1612ad3565b15156118fc57600080fd5b60001515600460009054906101000a900460ff161515141515611987576040517f08c379a00000000000000000000000000000000000000000000000000000000081526004018080602001828103825260138152602001807f416c726561647920696e697469616c697a65640000000000000000000000000081525060200191505060405180910390fd5b6119908c612f20565b6119998b614072565b6001600460006101000a81548160ff021916908315150217905550436003819055506000935060208a0192508951830191505b81831015611c7d578251945084985060208301925081831015156119ef57600080fd5b8297508751602001830192508183101515611a0957600080fd5b8296508651602001830192508183101515611a2357600080fd5b8295508551602001830192508183101515611a3d57600080fd5b82519450602083019250600184019350886005600086815260200190815260200160002060006101000a81548173ffffffffffffffffffffffffffffffffffffffff021916908373ffffffffffffffffffffffffffffffffffffffff16021790555083600660008b73ffffffffffffffffffffffffffffffffffffffff1673ffffffffffffffffffffffffffffffffffffffff16815260200190815260200160002081905550886008600086815260200190815260200160002060006101000a81548173ffffffffffffffffffffffffffffffffffffffff021916908373ffffffffffffffffffffffffffffffffffffffff16021790555083600960008b73ffffffffffffffffffffffffffffffffffffffff1673ffffffffffffffffffffffffffffffffffffffff16815260200190815260200160002081905550600a6000858152602001908152602001600020905087816000019080519060200190611ba6929190617202565b5086816001019080519060200190611bbf929190617202565b5085816002019080519060200190611bd8929190617202565b5084816003018190555088600c600086815260200190815260200160002060006101000a81548173ffffffffffffffffffffffffffffffffffffffff021916908373ffffffffffffffffffffffffffffffffffffffff16021790555083600b60008b73ffffffffffffffffffffffffffffffffffffffff1673ffffffffffffffffffffffffffffffffffffffff168152602001908152602001600020819055506119cc565b8360078190555083600d81905550505050505050505050505050565b60026006811115611ca657fe5b81565b7f526577617264506f6f6c0000000000000000000000000000000000000000000081565b60405180807f626c6f636b7350657200000000000000000000000000000000000000000000008152506009019050604051809103902081565b6000611d10613bcc565b73ffffffffffffffffffffffffffffffffffffffff1663a230c524336040518263ffffffff167c0100000000000000000000000000000000000000000000000000000000028152600401808273ffffffffffffffffffffffffffffffffffffffff1673ffffffffffffffffffffffffffffffffffffffff168152602001915050602060405180830381600087803b158015611daa57600080fd5b505af1158015611dbe573d6000803e3d6000fd5b505050506040513d6020811015611dd457600080fd5b81019080805190602001909291905050501515611e59576040517f08c379a000000000000000000000000000000000000000000000000000000000815260040180806020018281038252600d8152602001807f4e6f205065726d697373696f6e0000000000000000000000000000000000000081525060200191505060405180910390fd5b611e8b8b6000600281101515611e6b57fe5b602002013573ffffffffffffffffffffffffffffffffffffffff16612ed4565b1515611eff576040517f08c379a000000000000000000000000000000000000000000000000000000000815260040180806020018281038252600a8152602001807f4e6f6e2d6d656d6265720000000000000000000000000000000000000000000081525060200191505060405180910390fd5b611f156001600e54613bfc90919063ffffffff16565b905061202f8160036005811115611f2857fe5b338e6000600281101515611f3857fe5b602002013573ffffffffffffffffffffffffffffffffffffffff168f6001600281101515611f6257fe5b602002013573ffffffffffffffffffffffffffffffffffffffff168f8f8080601f0160208091040260200160405190810160405280939291908181526020018383808284378201915050505050508e8e8080601f0160208091040260200160405190810160405280939291908181526020018383808284378201915050505050508d8d8080601f0160208091040260200160405190810160405280939291908181526020018383808284378201915050505050508c600060028110151561202557fe5b6020020135613c1d565b61204c8185600160028110151561204257fe5b6020020135613ea9565b6120888184848080601f016020809104026020016040519081016040528093929190818152602001838380828437820191505050505050613f43565b80600e819055509a9950505050505050505050565b60608060606000600a6000868152602001908152602001600020600001600a6000878152602001908152602001600020600101600a6000888152602001908152602001600020600201600a600089815260200190815260200160002060030154838054600181600116156101000203166002900480601f0160208091040260200160405190810160405280929190818152602001828054600181600116156101000203166002900480156121925780601f1061216757610100808354040283529160200191612192565b820191906000526020600020905b81548152906001019060200180831161217557829003601f168201915b50505050509350828054600181600116156101000203166002900480601f01602080910402602001604051908101604052809291908181526020018280546001816001161561010002031660029004801561222e5780601f106122035761010080835404028352916020019161222e565b820191906000526020600020905b81548152906001019060200180831161221157829003601f168201915b50505050509250818054600181600116156101000203166002900480601f0160208091040260200160405190810160405280929190818152602001828054600181600116156101000203166002900480156122ca5780601f1061229f576101008083540402835291602001916122ca565b820191906000526020600020905b8154815290600101906020018083116122ad57829003601f168201915b5050505050915093509350935093509193509193565b60006122ea614042565b73ffffffffffffffffffffffffffffffffffffffff1663737c59b86040518163ffffffff167c0100000000000000000000000000000000000000000000000000000000028152600401602060405180830381600087803b15801561234d57600080fd5b505af1158015612361573d6000803e3d6000fd5b505050506040513d602081101561237757600080fd5b8101908080519060200190929190505050905090565b6002600681111561239a57fe5b81565b7f476f7665726e616e6365436f6e7472616374000000000000000000000000000081565b60405180807f62616c6c6f744475726174696f6e4d696e0000000000000000000000000000008152506011019050604051809103902081565b60405180807f7374616b696e674d696e00000000000000000000000000000000000000000000815250600a019050604051809103902081565b61243b612ad3565b151561244657600080fd5b600073ffffffffffffffffffffffffffffffffffffffff166000809054906101000a900473ffffffffffffffffffffffffffffffffffffffff1673ffffffffffffffffffffffffffffffffffffffff167f8be0079c531659141344cd1fd0a4f28419497f9722a3daafe3b4186f6b6457e060405160405180910390a360008060006101000a81548173ffffffffffffffffffffffffffffffffffffffff021916908373ffffffffffffffffffffffffffffffffffffffff160217905550565b6000600d54905090565b600160009054906101000a900473ffffffffffffffffffffffffffffffffffffffff1681565b7f456e7653746f726167650000000000000000000000000000000000000000000081565b60035481565b6002600681111561256c57fe5b81565b60008061257a612ad3565b151561258557600080fd5b60001515600460009054906101000a900460ff161515141515612610576040517f08c379a00000000000000000000000000000000000000000000000000000000081526004018080602001828103825260138152602001807f416c726561647920696e697469616c697a65640000000000000000000000000081525060200191505060405180910390fd5b61261989612f20565b61262288614072565b61262a6140d9565b9150868273ffffffffffffffffffffffffffffffffffffffff166325d998bb336040518263ffffffff167c0100000000000000000000000000000000000000000000000000000000028152600401808273ffffffffffffffffffffffffffffffffffffffff1673ffffffffffffffffffffffffffffffffffffffff168152602001915050602060405180830381600087803b1580156126c857600080fd5b505af11580156126dc573d6000803e3d6000fd5b505050506040513d60208110156126f257600080fd5b810190808051906020019092919050505010151515612779576040517f08c379a00000000000000000000000000000000000000000000000000000000081526004018080602001828103825260148152602001807f496e73756666696369656e74207374616b696e6700000000000000000000000081525060200191505060405180910390fd5b8173ffffffffffffffffffffffffffffffffffffffff1663282d3fdf33896040518363ffffffff167c0100000000000000000000000000000000000000000000000000000000028152600401808373ffffffffffffffffffffffffffffffffffffffff1673ffffffffffffffffffffffffffffffffffffffff16815260200182815260200192505050600060405180830381600087803b15801561281c57600080fd5b505af1158015612830573d6000803e3d6000fd5b5050505060016007819055503360056000600754815260200190815260200160002060006101000a81548173ffffffffffffffffffffffffffffffffffffffff021916908373ffffffffffffffffffffffffffffffffffffffff160217905550600754600660003373ffffffffffffffffffffffffffffffffffffffff1673ffffffffffffffffffffffffffffffffffffffff168152602001908152602001600020819055503360086000600754815260200190815260200160002060006101000a81548173ffffffffffffffffffffffffffffffffffffffff021916908373ffffffffffffffffffffffffffffffffffffffff160217905550600754600960003373ffffffffffffffffffffffffffffffffffffffff1673ffffffffffffffffffffffffffffffffffffffff168152602001908152602001600020819055506001600d81905550600a6000600d5481526020019081526020016000209050858160000190805190602001906129a7929190617202565b50848160010190805190602001906129c0929190617202565b50838160020190805190602001906129d9929190617202565b50828160030181905550600d54600b60003373ffffffffffffffffffffffffffffffffffffffff1673ffffffffffffffffffffffffffffffffffffffff1681526020019081526020016000208190555033600c6000600d54815260200190815260200160002060006101000a81548173ffffffffffffffffffffffffffffffffffffffff021916908373ffffffffffffffffffffffffffffffffffffffff1602179055506001600460006101000a81548160ff02191690831515021790555043600381905550505050505050505050565b60008060009054906101000a900473ffffffffffffffffffffffffffffffffffffffff16905090565b60008060009054906101000a900473ffffffffffffffffffffffffffffffffffffffff1673ffffffffffffffffffffffffffffffffffffffff163373ffffffffffffffffffffffffffffffffffffffff1614905090565b6000612b34613bcc565b73ffffffffffffffffffffffffffffffffffffffff1663a230c524336040518263ffffffff167c0100000000000000000000000000000000000000000000000000000000028152600401808273ffffffffffffffffffffffffffffffffffffffff1673ffffffffffffffffffffffffffffffffffffffff168152602001915050602060405180830381600087803b158015612bce57600080fd5b505af1158015612be2573d6000803e3d6000fd5b505050506040513d6020811015612bf857600080fd5b81019080805190602001909291905050501515612c7d576040517f08c379a000000000000000000000000000000000000000000000000000000000815260040180806020018281038252600d8152602001807f4e6f205065726d697373696f6e0000000000000000000000000000000000000081525060200191505060405180910390fd5b612c8685612ed4565b1515612cfa576040517f08c379a000000000000000000000000000000000000000000000000000000000815260040180806020018281038252600a8152602001807f4e6f6e2d6d656d6265720000000000000000000000000000000000000000000081525060200191505060405180910390fd5b6001612d0461380d565b111515612d79576040517f08c379a000000000000000000000000000000000000000000000000000000000815260040180806020018281038252601b8152602001807f43616e6e6f742072656d6f7665206120736f6c65206d656d626572000000000081525060200191505060405180910390fd5b612d8f6001600e54613bfc90919063ffffffff16565b9050612e4b8160026005811115612da257fe5b33886000806040519080825280601f01601f191660200182016040528015612dd95781602001602082028038833980820191505090505b5060006040519080825280601f01601f191660200182016040528015612e0e5781602001602082028038833980820191505090505b5060006040519080825280601f01601f191660200182016040528015612e435781602001602082028038833980820191505090505b506000613c1d565b612e558185613ea9565b612e918184848080601f016020809104026020016040519081016040528093929190818152602001838380828437820191505050505050613f43565b80600e81905550949350505050565b7f42616c6c6f7453746f726167650000000000000000000000000000000000000081565b60026006811115612ed157fe5b81565b600080600660008473ffffffffffffffffffffffffffffffffffffffff1673ffffffffffffffffffffffffffffffffffffffff1681526020019081526020016000205414159050919050565b612f28612ad3565b1515612f3357600080fd5b80600160006101000a81548173ffffffffffffffffffffffffffffffffffffffff021916908373ffffffffffffffffffffffffffffffffffffffff16021790555050565b60006005600083815260200190815260200160002060009054906101000a900473ffffffffffffffffffffffffffffffffffffffff169050919050565b60026006811115612fc157fe5b81565b6000612fce614042565b73ffffffffffffffffffffffffffffffffffffffff1663076cd77f6040518163ffffffff167c0100000000000000000000000000000000000000000000000000000000028152600401602060405180830381600087803b15801561303157600080fd5b505af1158015613045573d6000803e3d6000fd5b505050506040513d602081101561305b57600080fd5b8101908080519060200190929190505050905090565b60405180807f4d617849646c65426c6f636b496e74657276616c0000000000000000000000008152506014019050604051809103902081565b60006130b4613bcc565b73ffffffffffffffffffffffffffffffffffffffff1663a230c524336040518263ffffffff167c0100000000000000000000000000000000000000000000000000000000028152600401808273ffffffffffffffffffffffffffffffffffffffff1673ffffffffffffffffffffffffffffffffffffffff168152602001915050602060405180830381600087803b15801561314e57600080fd5b505af1158015613162573d6000803e3d6000fd5b505050506040513d602081101561317857600080fd5b810190808051906020019092919050505015156131fd576040517f08c379a000000000000000000000000000000000000000000000000000000000815260040180806020018281038252600d8152602001807f4e6f205065726d697373696f6e0000000000000000000000000000000000000081525060200191505060405180910390fd5b600073ffffffffffffffffffffffffffffffffffffffff168473ffffffffffffffffffffffffffffffffffffffff16141515156132a2576040517f08c379a000000000000000000000000000000000000000000000000000000000815260040180806020018281038252601d8152602001807f496d706c656d656e746174696f6e2063616e6e6f74206265207a65726f00000081525060200191505060405180910390fd5b6132aa6112c2565b73ffffffffffffffffffffffffffffffffffffffff168473ffffffffffffffffffffffffffffffffffffffff161415151561334d576040517f08c379a00000000000000000000000000000000000000000000000000000000081526004018080602001828103825260158152602001807f53616d6520636f6e74726163742061646472657373000000000000000000000081525060200191505060405180910390fd5b6133636001600e54613bfc90919063ffffffff16565b905061336d614109565b73ffffffffffffffffffffffffffffffffffffffff16634a4af01361339e6001600e54613bfc90919063ffffffff16565b600460058111156133ab57fe5b33886040518563ffffffff167c0100000000000000000000000000000000000000000000000000000000028152600401808581526020018481526020018373ffffffffffffffffffffffffffffffffffffffff1673ffffffffffffffffffffffffffffffffffffffff1681526020018273ffffffffffffffffffffffffffffffffffffffff1673ffffffffffffffffffffffffffffffffffffffff168152602001945050505050602060405180830381600087803b15801561346c57600080fd5b505af1158015613480573d6000803e3d6000fd5b505050506040513d602081101561349657600080fd5b8101908080519060200190929190505050506134e48184848080601f016020809104026020016040519081016040528093929190818152602001838380828437820191505050505050613f43565b80600e819055509392505050565b60405180807f7374616b696e674d617800000000000000000000000000000000000000000000815250600a019050604051809103902081565b6000806000613538613bcc565b73ffffffffffffffffffffffffffffffffffffffff1663a230c524336040518263ffffffff167c0100000000000000000000000000000000000000000000000000000000028152600401808273ffffffffffffffffffffffffffffffffffffffff1673ffffffffffffffffffffffffffffffffffffffff168152602001915050602060405180830381600087803b1580156135d257600080fd5b505af11580156135e6573d6000803e3d6000fd5b505050506040513d60208110156135fc57600080fd5b81019080805190602001909291905050501515613681576040517f08c379a000000000000000000000000000000000000000000000000000000000815260040180806020018281038252600d8152602001807f4e6f205065726d697373696f6e0000000000000000000000000000000000000081525060200191505060405180910390fd5b6000600160116000828254019250508190555060115490506136a286614139565b6136ab8661425e565b93506136b78686614391565b6136c0866146c7565b93509350506136cd6117c2565b831080156136e157506136de6117c2565b82105b156136eb576136f9565b6136f8868584861161479e565b5b6011548114151561370957600080fd5b505050505050565b600061371b614042565b73ffffffffffffffffffffffffffffffffffffffff16631b27e01b6040518163ffffffff167c0100000000000000000000000000000000000000000000000000000000028152600401602060405180830381600087803b15801561377e57600080fd5b505af1158015613792573d6000803e3d6000fd5b505050506040513d60208110156137a857600080fd5b8101908080519060200190929190505050905090565b6000600b60008373ffffffffffffffffffffffffffffffffffffffff1673ffffffffffffffffffffffffffffffffffffffff168152602001908152602001600020549050919050565b600e5481565b6000600754905090565b6000601054905090565b600f5481565b61382f612ad3565b151561383a57600080fd5b61384381614886565b50565b6000613850613bcc565b73ffffffffffffffffffffffffffffffffffffffff1663a230c524336040518263ffffffff167c0100000000000000000000000000000000000000000000000000000000028152600401808273ffffffffffffffffffffffffffffffffffffffff1673ffffffffffffffffffffffffffffffffffffffff168152602001915050602060405180830381600087803b1580156138ea57600080fd5b505af11580156138fe573d6000803e3d6000fd5b505050506040513d602081101561391457600080fd5b81019080805190602001909291905050501515613999576040517f08c379a000000000000000000000000000000000000000000000000000000000815260040180806020018281038252600d8152602001807f4e6f205065726d697373696f6e0000000000000000000000000000000000000081525060200191505060405180910390fd5b85600160068111156139a757fe5b111580156139c057506006808111156139bc57fe5b8611155b1515613a34576040517f08c379a000000000000000000000000000000000000000000000000000000000815260040180806020018281038252600c8152602001807f496e76616c69642074797065000000000000000000000000000000000000000081525060200191505060405180910390fd5b613a4a6001600e54613bfc90919063ffffffff16565b9050613a54614109565b73ffffffffffffffffffffffffffffffffffffffff16637f5b7ab382600580811115613a7c57fe5b338b8b8b8b6040518863ffffffff167c0100000000000000000000000000000000000000000000000000000000028152600401808881526020018781526020018673ffffffffffffffffffffffffffffffffffffffff1673ffffffffffffffffffffffffffffffffffffffff1681526020018560001916600019168152602001848152602001806020018281038252848482818152602001925080828437820191505098505050505050505050602060405180830381600087803b158015613b4357600080fd5b505af1158015613b57573d6000803e3d6000fd5b505050506040513d6020811015613b6d57600080fd5b810190808051906020019092919050505050613bbb8184848080601f016020809104026020016040519081016040528093929190818152602001838380828437820191505050505050613f43565b80600e819055509695505050505050565b6000613bf77f476f7665726e616e6365436f6e74726163740000000000000000000000000000614980565b905090565b6000808284019050838110151515613c1357600080fd5b8091505092915050565b613c25614109565b73ffffffffffffffffffffffffffffffffffffffff1663977eb03e8a8a8a8a8a8a8a8a8a6040518a63ffffffff167c0100000000000000000000000000000000000000000000000000000000028152600401808a81526020018981526020018873ffffffffffffffffffffffffffffffffffffffff1673ffffffffffffffffffffffffffffffffffffffff1681526020018773ffffffffffffffffffffffffffffffffffffffff1673ffffffffffffffffffffffffffffffffffffffff1681526020018673ffffffffffffffffffffffffffffffffffffffff1673ffffffffffffffffffffffffffffffffffffffff168152602001806020018060200180602001858152602001848103845288818151815260200191508051906020019080838360005b83811015613d64578082015181840152602081019050613d49565b50505050905090810190601f168015613d915780820380516001836020036101000a031916815260200191505b50848103835287818151815260200191508051906020019080838360005b83811015613dca578082015181840152602081019050613daf565b50505050905090810190601f168015613df75780820380516001836020036101000a031916815260200191505b50848103825286818151815260200191508051906020019080838360005b83811015613e30578082015181840152602081019050613e15565b50505050905090810190601f168015613e5d5780820380516001836020036101000a031916815260200191505b509c50505050505050505050505050600060405180830381600087803b158015613e8657600080fd5b505af1158015613e9a573d6000803e3d6000fd5b50505050505050505050505050565b613eb1614109565b73ffffffffffffffffffffffffffffffffffffffff166372d0ec9283836040518363ffffffff167c01000000000000000000000000000000000000000000000000000000000281526004018083815260200182815260200192505050600060405180830381600087803b158015613f2757600080fd5b505af1158015613f3b573d6000803e3d6000fd5b505050505050565b613f4b614109565b73ffffffffffffffffffffffffffffffffffffffff1663bce0dbc183836040518363ffffffff167c01000000000000000000000000000000000000000000000000000000000281526004018083815260200180602001828103825283818151815260200191508051906020019080838360005b83811015613fd9578082015181840152602081019050613fbe565b50505050905090810190601f1680156140065780820380516001836020036101000a031916815260200191505b509350505050600060405180830381600087803b15801561402657600080fd5b505af115801561403a573d6000803e3d6000fd5b505050505050565b600061406d7f456e7653746f7261676500000000000000000000000000000000000000000000614980565b905090565b600060405180807f6f72672e6d6574616469756d2e70726f78792e696d706c656d656e746174696f81526020017f6e000000000000000000000000000000000000000000000000000000000000008152506021019050604051809103902090508181555050565b60006141047f5374616b696e6700000000000000000000000000000000000000000000000000614980565b905090565b60006141347f42616c6c6f7453746f7261676500000000000000000000000000000000000000614980565b905090565b600080600060105414151561425857614153601054614a5d565b50925050614162601054614b34565b509150506002600581111561417357fe5b82141561425757428110156141b65761419a6010546004600581111561419557fe5b614c0b565b60006010819055506010548314156141b157614259565b614256565b60105483141515614255576040517f08c379a00000000000000000000000000000000000000000000000000000000081526004018080602001828103825260238152602001807f4e6f7720696e20766f74696e67207769746820646966666572656e742062616c81526020017f6c6f74000000000000000000000000000000000000000000000000000000000081525060400191505060405180910390fd5b5b5b5b5b505050565b60008060008061426d85614a5d565b50925092506001600581111561427f57fe5b8214156142fe5761428f85614b34565b9250505061429b6117cc565b8110156142bb576142b685426142af6117cc565b4201614ca5565b6142f2565b806142c4613711565b10156142e3576142de85426142d7613711565b4201614ca5565b6142f1565b6142f08542834201614ca5565b5b5b84601081905550614386565b6002600581111561430b57fe5b82141561431757614385565b6040517f08c379a00000000000000000000000000000000000000000000000000000000081526004018080602001828103825260078152602001807f457870697265640000000000000000000000000000000000000000000000000081525060200191505060405180910390fd5b5b829350505050919050565b6000806143aa6001600f54613bfc90919063ffffffff16565b91506143b46140d9565b73ffffffffffffffffffffffffffffffffffffffff16637d77a0eb336127106040518363ffffffff167c0100000000000000000000000000000000000000000000000000000000028152600401808373ffffffffffffffffffffffffffffffffffffffff1673ffffffffffffffffffffffffffffffffffffffff1681526020018263ffffffff16815260200192505050602060405180830381600087803b15801561445e57600080fd5b505af1158015614472573d6000803e3d6000fd5b505050506040513d602081101561448857600080fd5b8101908080519060200190929190505050905082156145b0576144a9614109565b73ffffffffffffffffffffffffffffffffffffffff166396462b9c838633600160028111156144d457fe5b866040518663ffffffff167c0100000000000000000000000000000000000000000000000000000000028152600401808681526020018581526020018473ffffffffffffffffffffffffffffffffffffffff1673ffffffffffffffffffffffffffffffffffffffff16815260200183815260200182815260200195505050505050602060405180830381600087803b15801561456f57600080fd5b505af1158015614583573d6000803e3d6000fd5b505050506040513d602081101561459957600080fd5b8101908080519060200190929190505050506146ba565b6145b8614109565b73ffffffffffffffffffffffffffffffffffffffff166396462b9c8386336002808111156145e257fe5b866040518663ffffffff167c0100000000000000000000000000000000000000000000000000000000028152600401808681526020018581526020018473ffffffffffffffffffffffffffffffffffffffff1673ffffffffffffffffffffffffffffffffffffffff16815260200183815260200182815260200195505050505050602060405180830381600087803b15801561467d57600080fd5b505af1158015614691573d6000803e3d6000fd5b505050506040513d60208110156146a757600080fd5b8101908080519060200190929190505050505b81600f8190555050505050565b60008060006146d4614109565b73ffffffffffffffffffffffffffffffffffffffff166356ba988e856040518263ffffffff167c010000000000000000000000000000000000000000000000000000000002815260040180828152602001915050606060405180830381600087803b15801561474257600080fd5b505af1158015614756573d6000803e3d6000fd5b505050506040513d606081101561476c57600080fd5b810190808051906020019092919080519060200190929190805190602001909291905050509250925092509193909250565b6000600460058111156147ad57fe5b9050811561486e57600160058111156147c257fe5b8314156147d7576147d284614d48565b61485e565b600260058111156147e457fe5b8314156147f9576147f4846150f2565b61485d565b6003600581111561480657fe5b83141561481b57614816846158b0565b61485c565b6004600581111561482857fe5b83141561483d5761483884615eba565b61485b565b60058081111561484957fe5b83141561485a5761485984615fd0565b5b5b5b5b5b6003600581111561486b57fe5b90505b6148788482614c0b565b600060108190555050505050565b600073ffffffffffffffffffffffffffffffffffffffff168173ffffffffffffffffffffffffffffffffffffffff16141515156148c257600080fd5b8073ffffffffffffffffffffffffffffffffffffffff166000809054906101000a900473ffffffffffffffffffffffffffffffffffffffff1673ffffffffffffffffffffffffffffffffffffffff167f8be0079c531659141344cd1fd0a4f28419497f9722a3daafe3b4186f6b6457e060405160405180910390a3806000806101000a81548173ffffffffffffffffffffffffffffffffffffffff021916908373ffffffffffffffffffffffffffffffffffffffff16021790555050565b6000600160009054906101000a900473ffffffffffffffffffffffffffffffffffffffff1673ffffffffffffffffffffffffffffffffffffffff16630d2020dd836040518263ffffffff167c0100000000000000000000000000000000000000000000000000000000028152600401808260001916600019168152602001915050602060405180830381600087803b158015614a1b57600080fd5b505af1158015614a2f573d6000803e3d6000fd5b505050506040513d6020811015614a4557600080fd5b81019080805190602001909291905050509050919050565b6000806000614a6a614109565b73ffffffffffffffffffffffffffffffffffffffff1663688ca5b2856040518263ffffffff167c010000000000000000000000000000000000000000000000000000000002815260040180828152602001915050606060405180830381600087803b158015614ad857600080fd5b505af1158015614aec573d6000803e3d6000fd5b505050506040513d6060811015614b0257600080fd5b810190808051906020019092919080519060200190929190805190602001909291905050509250925092509193909250565b6000806000614b41614109565b73ffffffffffffffffffffffffffffffffffffffff166309970688856040518263ffffffff167c010000000000000000000000000000000000000000000000000000000002815260040180828152602001915050606060405180830381600087803b158015614baf57600080fd5b505af1158015614bc3573d6000803e3d6000fd5b505050506040513d6060811015614bd957600080fd5b810190808051906020019092919080519060200190929190805190602001909291905050509250925092509193909250565b614c13614109565b73ffffffffffffffffffffffffffffffffffffffff1663a91e59ba83836040518363ffffffff167c01000000000000000000000000000000000000000000000000000000000281526004018083815260200182815260200192505050600060405180830381600087803b158015614c8957600080fd5b505af1158015614c9d573d6000803e3d6000fd5b505050505050565b614cad614109565b73ffffffffffffffffffffffffffffffffffffffff1663c0b6f1868484846040518463ffffffff167c0100000000000000000000000000000000000000000000000000000000028152600401808481526020018381526020018281526020019350505050600060405180830381600087803b158015614d2b57600080fd5b505af1158015614d3f573d6000803e3d6000fd5b50505050505050565b600060608060606000806000806000614d6d8a60016005811115614d6857fe5b616af6565b614d768a616cab565b99509950995099509950995050614d8c89612ed4565b15614d96576150e6565b83614d9f612fc4565b11158015614db45750614db06122e0565b8411155b1515614e28576040517f08c379a00000000000000000000000000000000000000000000000000000000081526004018080602001828103825260138152602001807f496e76616c6964206c6f636b20616d6f756e740000000000000000000000000081525060200191505060405180910390fd5b614e328985616e9f565b614e486001600754613bfc90919063ffffffff16565b9250886005600085815260200190815260200160002060006101000a81548173ffffffffffffffffffffffffffffffffffffffff021916908373ffffffffffffffffffffffffffffffffffffffff16021790555082600660008b73ffffffffffffffffffffffffffffffffffffffff1673ffffffffffffffffffffffffffffffffffffffff16815260200190815260200160002081905550886008600085815260200190815260200160002060006101000a81548173ffffffffffffffffffffffffffffffffffffffff021916908373ffffffffffffffffffffffffffffffffffffffff16021790555082600960008b73ffffffffffffffffffffffffffffffffffffffff1673ffffffffffffffffffffffffffffffffffffffff16815260200190815260200160002081905550614f8c6001600d54613bfc90919063ffffffff16565b9150600a6000838152602001908152602001600020905086816001019080519060200190614fbb929190617202565b5085816002019080519060200190614fd4929190617202565b5084816003018190555088600c600084815260200190815260200160002060006101000a81548173ffffffffffffffffffffffffffffffffffffffff021916908373ffffffffffffffffffffffffffffffffffffffff16021790555081600b60008b73ffffffffffffffffffffffffffffffffffffffff1673ffffffffffffffffffffffffffffffffffffffff168152602001908152602001600020819055508781600001908051906020019061508c929190617202565b508260078190555081600d81905550436003819055508873ffffffffffffffffffffffffffffffffffffffff167fb251eb052afc73ffd02ffe85ad79990a8b3fed60d76dbc2fa2fdd7123dffd91460405160405180910390a25b50505050505050505050565b600080600061510d846002600581111561510857fe5b616af6565b61511684616cab565b97505050505050925061512883612ed4565b1515615133576158aa565b600754600660008573ffffffffffffffffffffffffffffffffffffffff1673ffffffffffffffffffffffffffffffffffffffff168152602001908152602001600020541415156154a65760056000600754815260200190815260200160002060009054906101000a900473ffffffffffffffffffffffffffffffffffffffff1660056000600660008773ffffffffffffffffffffffffffffffffffffffff1673ffffffffffffffffffffffffffffffffffffffff16815260200190815260200160002054815260200190815260200160002060009054906101000a900473ffffffffffffffffffffffffffffffffffffffff1660056000600660008873ffffffffffffffffffffffffffffffffffffffff1673ffffffffffffffffffffffffffffffffffffffff168152602001908152602001600020548152602001908152602001600020600060056000600754815260200190815260200160002060008491906101000a81548173ffffffffffffffffffffffffffffffffffffffff021916908373ffffffffffffffffffffffffffffffffffffffff1602179055508391906101000a81548173ffffffffffffffffffffffffffffffffffffffff021916908373ffffffffffffffffffffffffffffffffffffffff160217905550505060086000600754815260200190815260200160002060009054906101000a900473ffffffffffffffffffffffffffffffffffffffff1660086000600660008773ffffffffffffffffffffffffffffffffffffffff1673ffffffffffffffffffffffffffffffffffffffff16815260200190815260200160002054815260200190815260200160002060009054906101000a900473ffffffffffffffffffffffffffffffffffffffff1660086000600660008873ffffffffffffffffffffffffffffffffffffffff1673ffffffffffffffffffffffffffffffffffffffff168152602001908152602001600020548152602001908152602001600020600060086000600754815260200190815260200160002060008491906101000a81548173ffffffffffffffffffffffffffffffffffffffff021916908373ffffffffffffffffffffffffffffffffffffffff1602179055508391906101000a81548173ffffffffffffffffffffffffffffffffffffffff021916908373ffffffffffffffffffffffffffffffffffffffff16021790555050505b600060056000600754815260200190815260200160002060006101000a81548173ffffffffffffffffffffffffffffffffffffffff021916908373ffffffffffffffffffffffffffffffffffffffff1602179055506000600660008573ffffffffffffffffffffffffffffffffffffffff1673ffffffffffffffffffffffffffffffffffffffff16815260200190815260200160002081905550600060086000600754815260200190815260200160002060006101000a81548173ffffffffffffffffffffffffffffffffffffffff021916908373ffffffffffffffffffffffffffffffffffffffff16021790555060006009600060086000600754815260200190815260200160002060009054906101000a900473ffffffffffffffffffffffffffffffffffffffff1673ffffffffffffffffffffffffffffffffffffffff1673ffffffffffffffffffffffffffffffffffffffff168152602001908152602001600020819055506156256001600754616f6590919063ffffffff16565b600781905550600d54600b60008573ffffffffffffffffffffffffffffffffffffffff1673ffffffffffffffffffffffffffffffffffffffff1681526020019081526020016000205414151561579f57600a6000600b60008673ffffffffffffffffffffffffffffffffffffffff1673ffffffffffffffffffffffffffffffffffffffff1681526020019081526020016000205481526020019081526020016000209050600a6000600d548152602001908152602001600020600001816000019080546001816001161561010002031660029004615704929190617282565b50600a6000600d548152602001908152602001600020600101816001019080546001816001161561010002031660029004615740929190617282565b50600a6000600d54815260200190815260200160002060020181600201908054600181600116156101000203166002900461577c929190617282565b50600a6000600d5481526020019081526020016000206003015481600301819055505b6000600c6000600d54815260200190815260200160002060006101000a81548173ffffffffffffffffffffffffffffffffffffffff021916908373ffffffffffffffffffffffffffffffffffffffff1602179055506000600b60008573ffffffffffffffffffffffffffffffffffffffff1673ffffffffffffffffffffffffffffffffffffffff1681526020019081526020016000208190555061584f6001600d54616f6590919063ffffffff16565b600d81905550436003819055506158668383616f86565b8273ffffffffffffffffffffffffffffffffffffffff167f6e76fb4c77256006d9c38ec7d82b45a8c8f3c27b1d6766fffc42dfb8de68449260405160405180910390a25b50505050565b60008060608060606000806000806158d48a600360058111156158cf57fe5b616af6565b6158dd8a616cab565b98509850985098509850985098506158f489612ed4565b15156158ff57615eae565b8773ffffffffffffffffffffffffffffffffffffffff168973ffffffffffffffffffffffffffffffffffffffff16141515615c3e578261593d612fc4565b11158015615952575061594e6122e0565b8311155b15156159c6576040517f08c379a00000000000000000000000000000000000000000000000000000000081526004018080602001828103825260138152602001807f496e76616c6964206c6f636b20616d6f756e740000000000000000000000000081525060200191505060405180910390fd5b6159d08884616e9f565b8760056000600660008d73ffffffffffffffffffffffffffffffffffffffff1673ffffffffffffffffffffffffffffffffffffffff16815260200190815260200160002054815260200190815260200160002060006101000a81548173ffffffffffffffffffffffffffffffffffffffff021916908373ffffffffffffffffffffffffffffffffffffffff160217905550600660008a73ffffffffffffffffffffffffffffffffffffffff1673ffffffffffffffffffffffffffffffffffffffff16815260200190815260200160002054600660008a73ffffffffffffffffffffffffffffffffffffffff1673ffffffffffffffffffffffffffffffffffffffff168152602001908152602001600020819055508760086000600660008d73ffffffffffffffffffffffffffffffffffffffff1673ffffffffffffffffffffffffffffffffffffffff16815260200190815260200160002054815260200190815260200160002060006101000a81548173ffffffffffffffffffffffffffffffffffffffff021916908373ffffffffffffffffffffffffffffffffffffffff160217905550600960008a73ffffffffffffffffffffffffffffffffffffffff1673ffffffffffffffffffffffffffffffffffffffff16815260200190815260200160002054600960008a73ffffffffffffffffffffffffffffffffffffffff1673ffffffffffffffffffffffffffffffffffffffff168152602001908152602001600020819055506000600660008b73ffffffffffffffffffffffffffffffffffffffff1673ffffffffffffffffffffffffffffffffffffffff168152602001908152602001600020819055505b600b60008a73ffffffffffffffffffffffffffffffffffffffff1673ffffffffffffffffffffffffffffffffffffffff168152602001908152602001600020549150600a6000838152602001908152602001600020905086816000019080519060200190615cad929190617202565b5085816001019080519060200190615cc6929190617202565b5084816002019080519060200190615cdf929190617202565b50838160030181905550436003819055508773ffffffffffffffffffffffffffffffffffffffff168973ffffffffffffffffffffffffffffffffffffffff16141515615e695787600c600084815260200190815260200160002060006101000a81548173ffffffffffffffffffffffffffffffffffffffff021916908373ffffffffffffffffffffffffffffffffffffffff16021790555081600b60008a73ffffffffffffffffffffffffffffffffffffffff1673ffffffffffffffffffffffffffffffffffffffff168152602001908152602001600020819055506000600b60008b73ffffffffffffffffffffffffffffffffffffffff1673ffffffffffffffffffffffffffffffffffffffff16815260200190815260200160002081905550615e0a8984616f86565b8773ffffffffffffffffffffffffffffffffffffffff168973ffffffffffffffffffffffffffffffffffffffff167f05d866cd9c6000815d031b7ce30f30f643766eba16be13cff25924dc8ad8209260405160405180910390a3615ead565b8873ffffffffffffffffffffffffffffffffffffffff167fc849ff69d29483b688b050076f9d03b1a618c93ea052a712bfd3224eb71da8e260405160405180910390a25b5b50505050505050505050565b6000615ed28260046005811115615ecd57fe5b616af6565b615eda614109565b73ffffffffffffffffffffffffffffffffffffffff16637efa9ae3836040518263ffffffff167c010000000000000000000000000000000000000000000000000000000002815260040180828152602001915050602060405180830381600087803b158015615f4857600080fd5b505af1158015615f5c573d6000803e3d6000fd5b505050506040513d6020811015615f7257600080fd5b81019080805190602001909291905050509050600073ffffffffffffffffffffffffffffffffffffffff168173ffffffffffffffffffffffffffffffffffffffff16141515615fcc57615fc481614072565b436003819055505b5050565b60008060606000615fec85600580811115615fe757fe5b616af6565b615ff4614109565b73ffffffffffffffffffffffffffffffffffffffff16631d940da2866040518263ffffffff167c010000000000000000000000000000000000000000000000000000000002815260040180828152602001915050600060405180830381600087803b15801561606257600080fd5b505af1158015616076573d6000803e3d6000fd5b505050506040513d6000823e3d601f19601f8201168201806040525060608110156160a057600080fd5b81019080805190602001909291908051906020019092919080516401000000008111156160cc57600080fd5b828101905060208101848111156160e257600080fd5b81518560018202830111640100000000821117156160ff57600080fd5b5050929190505050935093509350616115614042565b905060405180807f626c6f636b7350657200000000000000000000000000000000000000000000008152506009019050604051809103902060001916846000191614801561616e57506002600681111561616b57fe5b83145b15616264578073ffffffffffffffffffffffffffffffffffffffff16633e8daafe836040518263ffffffff167c01000000000000000000000000000000000000000000000000000000000281526004018080602001828103825283818151815260200191508051906020019080838360005b838110156161fb5780820151818401526020810190506161e0565b50505050905090810190601f1680156162285780820380516001836020036101000a031916815260200191505b5092505050600060405180830381600087803b15801561624757600080fd5b505af115801561625b573d6000803e3d6000fd5b50505050616a34565b60405180807f62616c6c6f744475726174696f6e4d696e000000000000000000000000000000815250601101905060405180910390206000191684600019161480156162bb5750600260068111156162b857fe5b83145b156163b1578073ffffffffffffffffffffffffffffffffffffffff1663124cea37836040518263ffffffff167c01000000000000000000000000000000000000000000000000000000000281526004018080602001828103825283818151815260200191508051906020019080838360005b8381101561634857808201518184015260208101905061632d565b50505050905090810190601f1680156163755780820380516001836020036101000a031916815260200191505b5092505050600060405180830381600087803b15801561639457600080fd5b505af11580156163a8573d6000803e3d6000fd5b50505050616a33565b60405180807f62616c6c6f744475726174696f6e4d61780000000000000000000000000000008152506011019050604051809103902060001916846000191614801561640857506002600681111561640557fe5b83145b156164fe578073ffffffffffffffffffffffffffffffffffffffff1663a5d6a581836040518263ffffffff167c01000000000000000000000000000000000000000000000000000000000281526004018080602001828103825283818151815260200191508051906020019080838360005b8381101561649557808201518184015260208101905061647a565b50505050905090810190601f1680156164c25780820380516001836020036101000a031916815260200191505b5092505050600060405180830381600087803b1580156164e157600080fd5b505af11580156164f5573d6000803e3d6000fd5b50505050616a32565b60405180807f7374616b696e674d696e00000000000000000000000000000000000000000000815250600a019050604051809103902060001916846000191614801561655557506002600681111561655257fe5b83145b1561664b578073ffffffffffffffffffffffffffffffffffffffff166371c6960d836040518263ffffffff167c01000000000000000000000000000000000000000000000000000000000281526004018080602001828103825283818151815260200191508051906020019080838360005b838110156165e25780820151818401526020810190506165c7565b50505050905090810190601f16801561660f5780820380516001836020036101000a031916815260200191505b5092505050600060405180830381600087803b15801561662e57600080fd5b505af1158015616642573d6000803e3d6000fd5b50505050616a31565b60405180807f7374616b696e674d617800000000000000000000000000000000000000000000815250600a01905060405180910390206000191684600019161480156166a257506002600681111561669f57fe5b83145b15616798578073ffffffffffffffffffffffffffffffffffffffff16632eccd832836040518263ffffffff167c01000000000000000000000000000000000000000000000000000000000281526004018080602001828103825283818151815260200191508051906020019080838360005b8381101561672f578082015181840152602081019050616714565b50505050905090810190601f16801561675c5780820380516001836020036101000a031916815260200191505b5092505050600060405180830381600087803b15801561677b57600080fd5b505af115801561678f573d6000803e3d6000fd5b50505050616a30565b60405180807f6761735072696365000000000000000000000000000000000000000000000000815250600801905060405180910390206000191684600019161480156167ef5750600260068111156167ec57fe5b83145b156168e5578073ffffffffffffffffffffffffffffffffffffffff16636e801878836040518263ffffffff167c01000000000000000000000000000000000000000000000000000000000281526004018080602001828103825283818151815260200191508051906020019080838360005b8381101561687c578082015181840152602081019050616861565b50505050905090810190601f1680156168a95780820380516001836020036101000a031916815260200191505b5092505050600060405180830381600087803b1580156168c857600080fd5b505af11580156168dc573d6000803e3d6000fd5b50505050616a2f565b60405180807f4d617849646c65426c6f636b496e74657276616c0000000000000000000000008152506014019050604051809103902060001916846000191614801561693c57506002600681111561693957fe5b83145b15616a2e578073ffffffffffffffffffffffffffffffffffffffff16630b90a39a836040518263ffffffff167c01000000000000000000000000000000000000000000000000000000000281526004018080602001828103825283818151815260200191508051906020019080838360005b838110156169c95780820151818401526020810190506169ae565b50505050905090810190601f1680156169f65780820380516001836020036101000a031916815260200191505b5092505050600060405180830381600087803b158015616a1557600080fd5b505af1158015616a29573d6000803e3d6000fd5b505050505b5b5b5b5b5b5b436003819055507f701c16c2519cdb79aaac423a84733590e3510d9552055b6ad6908f0ab12b6c2984848460405180846000191660001916815260200183815260200180602001828103825283818151815260200191508051906020019080838360005b83811015616ab3578082015181840152602081019050616a98565b50505050905090810190601f168015616ae05780820380516001836020036101000a031916815260200191505b5094505050505060405180910390a15050505050565b600080600080616b0586614a5d565b50935093508484141515616b81576040517f08c379a00000000000000000000000000000000000000000000000000000000081526004018080602001828103825260138152602001807f496e76616c696420766f74696e6720747970650000000000000000000000000081525060200191505060405180910390fd5b60026005811115616b8e57fe5b83141515616c04576040517f08c379a00000000000000000000000000000000000000000000000000000000081526004018080602001828103825260148152602001807f496e76616c696420766f74696e6720737461746500000000000000000000000081525060200191505060405180910390fd5b616c0d866146c7565b9250925050616c1a6117c2565b82101580616c2f5750616c2b6117c2565b8110155b1515616ca3576040517f08c379a00000000000000000000000000000000000000000000000000000000081526004018080602001828103825260118152602001807f4e6f74207965742066696e616c697a656400000000000000000000000000000081525060200191505060405180910390fd5b505050505050565b6000806060806060600080616cbe614109565b73ffffffffffffffffffffffffffffffffffffffff166373df4e01896040518263ffffffff167c010000000000000000000000000000000000000000000000000000000002815260040180828152602001915050600060405180830381600087803b158015616d2c57600080fd5b505af1158015616d40573d6000803e3d6000fd5b505050506040513d6000823e3d601f19601f8201168201806040525060e0811015616d6a57600080fd5b8101908080519060200190929190805190602001909291908051640100000000811115616d9657600080fd5b82810190506020810184811115616dac57600080fd5b8151856001820283011164010000000082111715616dc957600080fd5b50509291906020018051640100000000811115616de557600080fd5b82810190506020810184811115616dfb57600080fd5b8151856001820283011164010000000082111715616e1857600080fd5b50509291906020018051640100000000811115616e3457600080fd5b82810190506020810184811115616e4a57600080fd5b8151856001820283011164010000000082111715616e6757600080fd5b505092919060200180519060200190929190805190602001909291905050509650965096509650965096509650919395979092949650565b616ea76140d9565b73ffffffffffffffffffffffffffffffffffffffff1663282d3fdf83836040518363ffffffff167c0100000000000000000000000000000000000000000000000000000000028152600401808373ffffffffffffffffffffffffffffffffffffffff1673ffffffffffffffffffffffffffffffffffffffff16815260200182815260200192505050600060405180830381600087803b158015616f4957600080fd5b505af1158015616f5d573d6000803e3d6000fd5b505050505050565b600080838311151515616f7757600080fd5b82840390508091505092915050565b600080616f916140d9565b91508173ffffffffffffffffffffffffffffffffffffffff166359355736856040518263ffffffff167c0100000000000000000000000000000000000000000000000000000000028152600401808273ffffffffffffffffffffffffffffffffffffffff1673ffffffffffffffffffffffffffffffffffffffff168152602001915050602060405180830381600087803b15801561702e57600080fd5b505af1158015617042573d6000803e3d6000fd5b505050506040513d602081101561705857600080fd5b8101908080519060200190929190505050905082811115617141578173ffffffffffffffffffffffffffffffffffffffff16637756c908856170a38685616f6590919063ffffffff16565b6040518363ffffffff167c0100000000000000000000000000000000000000000000000000000000028152600401808373ffffffffffffffffffffffffffffffffffffffff1673ffffffffffffffffffffffffffffffffffffffff16815260200182815260200192505050600060405180830381600087803b15801561712857600080fd5b505af115801561713c573d6000803e3d6000fd5b505050505b8173ffffffffffffffffffffffffffffffffffffffff16637eee288d85856040518363ffffffff167c0100000000000000000000000000000000000000000000000000000000028152600401808373ffffffffffffffffffffffffffffffffffffffff1673ffffffffffffffffffffffffffffffffffffffff16815260200182815260200192505050600060405180830381600087803b1580156171e457600080fd5b505af11580156171f8573d6000803e3d6000fd5b5050505050505050565b828054600181600116156101000203166002900490600052602060002090601f016020900481019282601f1061724357805160ff1916838001178555617271565b82800160010185558215617271579182015b82811115617270578251825591602001919060010190617255565b5b50905061727e9190617309565b5090565b828054600181600116156101000203166002900490600052602060002090601f016020900481019282601f106172bb57805485556172f8565b828001600101855582156172f857600052602060002091601f016020900482015b828111156172f75782548255916001019190600101906172dc565b5b5090506173059190617309565b5090565b61732b91905b8082111561732757600081600090555060010161730f565b5090565b905600a165627a7a7230582021ae438270d132d50aae6565cbb010f9ed357d3c921e0ec614f9e461547dfa2e0029",
  "source": "pragma solidity ^0.4.24;\n\nimport \"openzeppelin-solidity/contracts/utils/ReentrancyGuard.sol\";\nimport \"./abstract/BallotEnums.sol\";\nimport \"./abstract/EnvConstants.sol\";\nimport \"./interface/IBallotStorage.sol\";\nimport \"./interface/IEnvStorage.sol\";\nimport \"./interface/IStaking.sol\";\nimport \"./Gov.sol\";\n\n\ncontract GovImp is Gov, ReentrancyGuard, BallotEnums, EnvConstants {\n    using SafeMath for uint256;\n\n    event MemberAdded(address indexed addr);\n    event MemberRemoved(address indexed addr);\n    event MemberChanged(address indexed oldAddr, address indexed newAddr);\n    event EnvChanged(bytes32 envName, uint256 envType, bytes envVal);\n    event MemberUpdated(address indexed addr);\n    \n    function addProposalToAddMember(\n        address member,\n        bytes name,\n        bytes enode,\n        bytes ip,\n        uint256[2] port_lockAmount,\n        bytes memo\n    )\n        external\n        onlyGovMem\n        returns (uint256 ballotIdx)\n    {\n        require(msg.sender != member, \"Cannot add self\");\n        require(!isMember(member), \"Already member\");\n\n        ballotIdx = ballotLength.add(1);\n        createBallotForMember(\n            ballotIdx, // ballot id\n            uint256(BallotTypes.MemberAdd), // ballot type\n            msg.sender, // creator\n            address(0), // old member address\n            member, // new member address\n            name,\n            enode, // new enode\n            ip, // new ip\n            port_lockAmount[0] // new port\n        );\n        updateBallotLock(ballotIdx, port_lockAmount[1]);\n        updateBallotMemo(ballotIdx, memo);\n        ballotLength = ballotIdx;\n    }\n\n    function addProposalToRemoveMember(\n        address member,\n        uint256 lockAmount,\n        bytes memo\n    )\n        external\n        onlyGovMem\n        returns (uint256 ballotIdx)\n    {\n        require(isMember(member), \"Non-member\");\n        require(getMemberLength() > 1, \"Cannot remove a sole member\");\n\n        ballotIdx = ballotLength.add(1);\n        createBallotForMember(\n            ballotIdx, // ballot id\n            uint256(BallotTypes.MemberRemoval), // ballot type\n            msg.sender, // creator\n            member, // old member address\n            address(0), // new member address\n            new bytes(0), // new name\n            new bytes(0), // new enode\n            new bytes(0), // new ip\n            0 // new port\n        );\n        updateBallotLock(ballotIdx, lockAmount);\n        updateBallotMemo(ballotIdx, memo);\n        ballotLength = ballotIdx;\n    }\n\n    function addProposalToChangeMember(\n        address[2] target_nMember,\n        bytes nName,\n        bytes nEnode,\n        bytes nIp,\n        uint256[2] port_lockAmount,\n        bytes memo\n    )\n        external\n        onlyGovMem\n        returns (uint256 ballotIdx)\n    {\n        require(isMember(target_nMember[0]), \"Non-member\");\n\n        ballotIdx = ballotLength.add(1);\n        createBallotForMember(\n            ballotIdx, // ballot id\n            uint256(BallotTypes.MemberChange), // ballot type\n            msg.sender, // creator\n            target_nMember[0], // old member address\n            target_nMember[1], // new member address\n            nName, //new Name\n            nEnode, // new enode\n            nIp, // new ip\n            port_lockAmount[0] // new port\n        );\n        updateBallotLock(ballotIdx, port_lockAmount[1]);\n        updateBallotMemo(ballotIdx, memo);\n        ballotLength = ballotIdx;\n    }\n\n    function addProposalToChangeGov(\n        address newGovAddr,\n        bytes memo\n    )\n        external\n        onlyGovMem\n        returns (uint256 ballotIdx)\n    {\n        require(newGovAddr != address(0), \"Implementation cannot be zero\");\n        require(newGovAddr != implementation(), \"Same contract address\");\n\n        ballotIdx = ballotLength.add(1);\n        IBallotStorage(getBallotStorageAddress()).createBallotForAddress(\n            ballotLength.add(1), // ballot id\n            uint256(BallotTypes.GovernanceChange), // ballot type\n            msg.sender, // creator\n            newGovAddr // new governance address\n        );\n        updateBallotMemo(ballotIdx, memo);\n        ballotLength = ballotIdx;\n    }\n\n    function addProposalToChangeEnv(\n        bytes32 envName,\n        uint256 envType,\n        bytes envVal,\n        bytes memo\n    )\n        external\n        onlyGovMem\n        returns (uint256 ballotIdx)\n    {\n        require(uint256(VariableTypes.Int) <= envType && envType <= uint256(VariableTypes.String), \"Invalid type\");\n\n        ballotIdx = ballotLength.add(1);\n        IBallotStorage(getBallotStorageAddress()).createBallotForVariable(\n            ballotIdx, // ballot id\n            uint256(BallotTypes.EnvValChange), // ballot type\n            msg.sender, // creator\n            envName, // env name\n            envType, // env type\n            envVal // env value\n        );\n        updateBallotMemo(ballotIdx, memo);\n        ballotLength = ballotIdx;\n    }\n\n    function vote(uint256 ballotIdx, bool approval) external onlyGovMem nonReentrant {\n        // Check if some ballot is in progress\n        checkUnfinalized(ballotIdx);\n\n        // Check if the ballot can be voted\n        uint256 ballotType = checkVotable(ballotIdx);\n\n        // Vote\n        createVote(ballotIdx, approval);\n\n        // Finalize\n        (, uint256 accept, uint256 reject) = getBallotVotingInfo(ballotIdx);\n        if (accept < getThreshould() && reject < getThreshould()) {\n            return;\n        }\n        finalizeVote(ballotIdx, ballotType, accept > reject);\n    }\n\n    function getMinStaking() public view returns (uint256) {\n        return IEnvStorage(getEnvStorageAddress()).getStakingMin();\n    }\n\n    function getMaxStaking() public view returns (uint256) {\n        return IEnvStorage(getEnvStorageAddress()).getStakingMax();\n    }\n\n    function getMinVotingDuration() public view returns (uint256) {\n        return IEnvStorage(getEnvStorageAddress()).getBallotDurationMin();\n    }\n    \n    function getMaxVotingDuration() public view returns (uint256) {\n        return IEnvStorage(getEnvStorageAddress()).getBallotDurationMax();\n    }\n\n    function getThreshould() public pure returns (uint256) { return 5100; } // 51% from 5100 of 10000\n\n    function checkUnfinalized(uint256 ballotIdx) private {\n        if (ballotInVoting != 0) {\n            (, uint256 state, ) = getBallotState(ballotInVoting);\n            (, uint256 endTime, ) = getBallotPeriod(ballotInVoting);\n            if (state == uint256(BallotStates.InProgress)) {\n                if (endTime < block.timestamp) {\n                    finalizeBallot(ballotInVoting, uint256(BallotStates.Rejected));\n                    ballotInVoting = 0;\n                    if (ballotIdx == ballotInVoting) {\n                        return;\n                    }\n                } else if (ballotIdx != ballotInVoting) {\n                    revert(\"Now in voting with different ballot\");\n                }\n            }\n        }\n    }\n\n    function checkVotable(uint256 ballotIdx) private returns (uint256) {\n        (uint256 ballotType, uint256 state, ) = getBallotState(ballotIdx);\n        if (state == uint256(BallotStates.Ready)) {\n            (, , uint256 duration) = getBallotPeriod(ballotIdx);\n            if (duration < getMinVotingDuration()) {\n                startBallot(ballotIdx, block.timestamp, block.timestamp + getMinVotingDuration());\n            } else if (getMaxVotingDuration() < duration) {\n                startBallot(ballotIdx, block.timestamp, block.timestamp + getMaxVotingDuration());\n            } else {\n                startBallot(ballotIdx, block.timestamp, block.timestamp + duration);\n            }\n            ballotInVoting = ballotIdx;\n        } else if (state == uint256(BallotStates.InProgress)) {\n            // Nothing to do\n        } else {\n            revert(\"Expired\");\n        }\n        return ballotType;\n    }\n\n    function createVote(uint256 ballotIdx, bool approval) private {\n        uint256 voteIdx = voteLength.add(1);\n        uint256 weight = IStaking(getStakingAddress()).calcVotingWeightWithScaleFactor(msg.sender, 1e4);\n        if (approval) {\n            IBallotStorage(getBallotStorageAddress()).createVote(\n                voteIdx,\n                ballotIdx,\n                msg.sender,\n                uint256(DecisionTypes.Accept),\n                weight\n            );\n        } else {\n            IBallotStorage(getBallotStorageAddress()).createVote(\n                voteIdx,\n                ballotIdx,\n                msg.sender,\n                uint256(DecisionTypes.Reject),\n                weight\n            );\n        }\n        voteLength = voteIdx;\n    }\n\n    function finalizeVote(uint256 ballotIdx, uint256 ballotType, bool isAccepted) private {\n        uint256 ballotState = uint256(BallotStates.Rejected);\n        if (isAccepted) {\n            if (ballotType == uint256(BallotTypes.MemberAdd)) {\n                addMember(ballotIdx);\n            } else if (ballotType == uint256(BallotTypes.MemberRemoval)) {\n                removeMember(ballotIdx);\n            } else if (ballotType == uint256(BallotTypes.MemberChange)) {\n                changeMember(ballotIdx);\n            } else if (ballotType == uint256(BallotTypes.GovernanceChange)) {\n                changeGov(ballotIdx);\n            } else if (ballotType == uint256(BallotTypes.EnvValChange)) {\n                applyEnv(ballotIdx);\n            }\n            ballotState = uint256(BallotStates.Accepted);\n        }\n        finalizeBallot(ballotIdx, ballotState);\n        ballotInVoting = 0;\n    }\n\n    function fromValidBallot(uint256 ballotIdx, uint256 targetType) private view {\n        (uint256 ballotType, uint256 state, ) = getBallotState(ballotIdx);\n        require(ballotType == targetType, \"Invalid voting type\");\n        require(state == uint(BallotStates.InProgress), \"Invalid voting state\");\n        (, uint256 accept, uint256 reject) = getBallotVotingInfo(ballotIdx);\n        require(accept >= getThreshould() || reject >= getThreshould(), \"Not yet finalized\");\n    }\n\n    function addMember(uint256 ballotIdx) private {\n        fromValidBallot(ballotIdx, uint256(BallotTypes.MemberAdd));\n\n        (\n            , address addr,\n            bytes memory name,\n            bytes memory enode,\n            bytes memory ip,\n            uint port,\n            uint256 lockAmount\n        ) = getBallotMember(ballotIdx);\n        if (isMember(addr)) {\n            return; // Already member. it is abnormal case\n        }\n\n        // Lock\n        require(getMinStaking() <= lockAmount && lockAmount <= getMaxStaking(), \"Invalid lock amount\");\n        lock(addr, lockAmount);\n\n        // Add voting and reward member\n        uint256 nMemIdx = memberLength.add(1);\n        members[nMemIdx] = addr;\n        memberIdx[addr] = nMemIdx;\n        rewards[nMemIdx] = addr;\n        rewardIdx[addr] = nMemIdx;\n\n        // Add node\n        uint256 nNodeIdx = nodeLength.add(1);\n        Node storage node = nodes[nNodeIdx];\n\n        node.enode = enode;\n        node.ip = ip;\n        node.port = port;\n        nodeToMember[nNodeIdx] = addr;\n        nodeIdxFromMember[addr] = nNodeIdx;\n        node.name = name;\n        memberLength = nMemIdx;\n        nodeLength = nNodeIdx;\n        modifiedBlock = block.number;\n        emit MemberAdded(addr);\n    }\n\n    function removeMember(uint256 ballotIdx) private {\n        fromValidBallot(ballotIdx, uint256(BallotTypes.MemberRemoval));\n\n        (address addr, , , , , , uint256 unlockAmount) = getBallotMember(ballotIdx);\n        if (!isMember(addr)) {\n            return; // Non-member. it is abnormal case\n        }\n\n        // Remove voting and reward member\n        if (memberIdx[addr] != memberLength) {\n            (members[memberIdx[addr]], members[memberLength]) = (members[memberLength], members[memberIdx[addr]]);\n            (rewards[memberIdx[addr]], rewards[memberLength]) = (rewards[memberLength], rewards[memberIdx[addr]]);\n        }\n        members[memberLength] = address(0);\n        memberIdx[addr] = 0;\n        rewards[memberLength] = address(0);\n        rewardIdx[rewards[memberLength]] = 0;\n        memberLength = memberLength.sub(1);\n\n        // Remove node\n        if (nodeIdxFromMember[addr] != nodeLength) {\n            Node storage node = nodes[nodeIdxFromMember[addr]];\n            node.name = nodes[nodeLength].name;\n            node.enode = nodes[nodeLength].enode;\n            node.ip = nodes[nodeLength].ip;\n            node.port = nodes[nodeLength].port;\n        }\n        nodeToMember[nodeLength] = address(0);\n        nodeIdxFromMember[addr] = 0;\n        nodeLength = nodeLength.sub(1);\n        modifiedBlock = block.number;\n        // Unlock and transfer remained to governance\n        transferLockedAndUnlock(addr, unlockAmount);\n\n        emit MemberRemoved(addr);\n    }\n\n    function changeMember(uint256 ballotIdx) private {\n        fromValidBallot(ballotIdx, uint256(BallotTypes.MemberChange));\n        \n        (\n            address addr,\n            address nAddr,\n            bytes memory name,\n            bytes memory enode,\n            bytes memory ip,\n            uint port,\n            uint256 lockAmount\n        ) = getBallotMember(ballotIdx);\n        if (!isMember(addr)) {\n            return; // Non-member. it is abnormal case\n        }\n\n        if (addr != nAddr) {\n            // Lock\n            require(getMinStaking() <= lockAmount && lockAmount <= getMaxStaking(), \"Invalid lock amount\");\n            lock(nAddr, lockAmount);\n\n            // Change member\n            members[memberIdx[addr]] = nAddr;\n            memberIdx[nAddr] = memberIdx[addr];\n            rewards[memberIdx[addr]] = nAddr;\n            rewardIdx[nAddr] = rewardIdx[addr];\n            memberIdx[addr] = 0;\n        }\n\n        // Change node\n        uint256 nodeIdx = nodeIdxFromMember[addr];\n        Node storage node = nodes[nodeIdx];\n        node.name = name;\n        node.enode = enode;\n        node.ip = ip;\n        node.port = port;\n        modifiedBlock = block.number;\n        if (addr != nAddr) {\n            nodeToMember[nodeIdx] = nAddr;\n            nodeIdxFromMember[nAddr] = nodeIdx;\n            nodeIdxFromMember[addr] = 0;\n\n            // Unlock and transfer remained to governance\n            transferLockedAndUnlock(addr, lockAmount);\n\n            emit MemberChanged(addr, nAddr);\n        }else{\n            emit MemberUpdated(addr);\n        }\n    }\n\n    function changeGov(uint256 ballotIdx) private {\n        fromValidBallot(ballotIdx, uint256(BallotTypes.GovernanceChange));\n\n        address newImp = IBallotStorage(getBallotStorageAddress()).getBallotAddress(ballotIdx);\n        if (newImp != address(0)) {\n            setImplementation(newImp);\n            modifiedBlock = block.number;\n        }\n    }\n\n    function applyEnv(uint256 ballotIdx) private {\n        fromValidBallot(ballotIdx, uint256(BallotTypes.EnvValChange));\n\n        (\n            bytes32 envKey,\n            uint256 envType,\n            bytes memory envVal\n        ) = IBallotStorage(getBallotStorageAddress()).getBallotVariable(ballotIdx);\n\n        IEnvStorage envStorage = IEnvStorage(getEnvStorageAddress());\n        if (envKey == BLOCKS_PER_NAME && envType == BLOCKS_PER_TYPE) {\n            envStorage.setBlocksPerByBytes(envVal);\n        } else if (envKey == BALLOT_DURATION_MIN_NAME && envType == BALLOT_DURATION_MIN_TYPE) {\n            envStorage.setBallotDurationMinByBytes(envVal);\n        } else if (envKey == BALLOT_DURATION_MAX_NAME && envType == BALLOT_DURATION_MAX_TYPE) {\n            envStorage.setBallotDurationMaxByBytes(envVal);\n        } else if (envKey == STAKING_MIN_NAME && envType == STAKING_MIN_TYPE) {\n            envStorage.setStakingMinByBytes(envVal);\n        } else if (envKey == STAKING_MAX_NAME && envType == STAKING_MAX_TYPE) {\n            envStorage.setStakingMaxByBytes(envVal);\n        } else if (envKey == GAS_PRICE_NAME && envType == GAS_PRICE_TYPE) {\n            envStorage.setGasPriceByBytes(envVal);\n        } else if (envKey == MAX_IDLE_BLOCK_INTERVAL_NAME && envType == MAX_IDLE_BLOCK_INTERVAL_TYPE) {\n            envStorage.setMaxIdleBlockIntervalByBytes(envVal);\n        }\n\n        modifiedBlock = block.number;\n        emit EnvChanged(envKey, envType, envVal);\n    }\n\n    //------------------ Code reduction for creation gas\n    function createBallotForMember(\n        uint256 id,\n        uint256 bType,\n        address creator,\n        address oAddr,\n        address nAddr,\n        bytes name,\n        bytes enode,\n        bytes ip,\n        uint port\n    )\n        private\n    {\n        IBallotStorage(getBallotStorageAddress()).createBallotForMember(\n            id, // ballot id\n            bType, // ballot type\n            creator, // creator\n            oAddr, // old member address\n            nAddr, // new member address\n            name, // new name\n            enode, // new enode\n            ip, // new ip\n            port // new port\n        );\n    }\n\n    function updateBallotLock(uint256 id, uint256 amount) private {\n        IBallotStorage(getBallotStorageAddress()).updateBallotMemberLockAmount(id, amount);\n    }\n\n    function updateBallotMemo(uint256 id, bytes memo) private {\n        IBallotStorage(getBallotStorageAddress()).updateBallotMemo(id, memo);\n    }\n\n    function startBallot(uint256 id, uint256 s, uint256 e) private {\n        IBallotStorage(getBallotStorageAddress()).startBallot(id, s, e);\n    }\n\n    function finalizeBallot(uint256 id, uint256 state) private {\n        IBallotStorage(getBallotStorageAddress()).finalizeBallot(id, state);\n    }\n\n    function getBallotState(uint256 id) private view returns (uint256, uint256, bool) {\n        return IBallotStorage(getBallotStorageAddress()).getBallotState(id);\n    }\n\n    function getBallotPeriod(uint256 id) private view returns (uint256, uint256, uint256) {\n        return IBallotStorage(getBallotStorageAddress()).getBallotPeriod(id);\n    }\n\n    function getBallotVotingInfo(uint256 id) private view returns (uint256, uint256, uint256) {\n        return IBallotStorage(getBallotStorageAddress()).getBallotVotingInfo(id);\n    }\n\n    function getBallotMember(uint256 id) private view returns (address, address, bytes, bytes, bytes, uint256, uint256) {\n        return IBallotStorage(getBallotStorageAddress()).getBallotMember(id);\n    }\n\n    function lock(address addr, uint256 amount) private {\n        IStaking(getStakingAddress()).lock(addr, amount);\n    }\n\n    function unlock(address addr, uint256 amount) private {\n        IStaking(getStakingAddress()).unlock(addr, amount);\n    }\n\n    function transferLockedAndUnlock(address addr, uint256 unlockAmount) private {\n        IStaking staking = IStaking(getStakingAddress());\n        uint256 locked = staking.lockedBalanceOf(addr);\n        if (locked > unlockAmount) {\n            staking.transferLocked(addr, locked.sub(unlockAmount));\n        }\n        staking.unlock(addr, unlockAmount);\n    }\n    //------------------ Code reduction end\n}",
  "sourcePath": "/Users/ywshin/Documents/WS/truffle/governance-contract-blueisle/contracts/GovImp.sol",
  "compiler": {
    "name": "solc",
    "version": "0.4.24+commit.e67f0147.Emscripten.clang"
  },
  "schemaVersion": "2.0.1",
  "updatedAt": "2019-03-13T10:51:18.667Z"
}