{
  "_format": "hh-sol-artifact-1",
  "contractName": "GovImp",
  "sourceName": "contracts/GovImp.sol",
  "abi": [
    {
      "anonymous": false,
      "inputs": [
        {
          "indexed": false,
          "internalType": "address",
          "name": "previousAdmin",
          "type": "address"
        },
        {
          "indexed": false,
          "internalType": "address",
          "name": "newAdmin",
          "type": "address"
        }
      ],
      "name": "AdminChanged",
      "type": "event"
    },
    {
      "anonymous": false,
      "inputs": [
        {
          "indexed": true,
          "internalType": "address",
          "name": "beacon",
          "type": "address"
        }
      ],
      "name": "BeaconUpgraded",
      "type": "event"
    },
    {
      "anonymous": false,
      "inputs": [
        {
          "indexed": false,
          "internalType": "bytes32",
          "name": "envName",
          "type": "bytes32"
        },
        {
          "indexed": false,
          "internalType": "uint256",
          "name": "envType",
          "type": "uint256"
        },
        {
          "indexed": false,
          "internalType": "bytes",
          "name": "envVal",
          "type": "bytes"
        }
      ],
      "name": "EnvChanged",
      "type": "event"
    },
    {
      "anonymous": false,
      "inputs": [
        {
          "indexed": true,
          "internalType": "address",
          "name": "addr",
          "type": "address"
        },
        {
          "indexed": true,
          "internalType": "address",
          "name": "voter",
          "type": "address"
        }
      ],
      "name": "MemberAdded",
      "type": "event"
    },
    {
      "anonymous": false,
      "inputs": [
        {
          "indexed": true,
          "internalType": "address",
          "name": "oldAddr",
          "type": "address"
        },
        {
          "indexed": true,
          "internalType": "address",
          "name": "newAddr",
          "type": "address"
        },
        {
          "indexed": true,
          "internalType": "address",
          "name": "newVoter",
          "type": "address"
        }
      ],
      "name": "MemberChanged",
      "type": "event"
    },
    {
      "anonymous": false,
      "inputs": [
        {
          "indexed": true,
          "internalType": "address",
          "name": "addr",
          "type": "address"
        },
        {
          "indexed": true,
          "internalType": "address",
          "name": "voter",
          "type": "address"
        }
      ],
      "name": "MemberRemoved",
      "type": "event"
    },
    {
      "anonymous": false,
      "inputs": [
        {
          "indexed": true,
          "internalType": "address",
          "name": "addr",
          "type": "address"
        },
        {
          "indexed": true,
          "internalType": "address",
          "name": "voter",
          "type": "address"
        }
      ],
      "name": "MemberUpdated",
      "type": "event"
    },
    {
      "anonymous": false,
      "inputs": [
        {
          "indexed": true,
          "internalType": "uint256",
          "name": "ballotId",
          "type": "uint256"
        },
        {
          "indexed": false,
          "internalType": "string",
          "name": "reason",
          "type": "string"
        }
      ],
      "name": "NotApplicable",
      "type": "event"
    },
    {
      "anonymous": false,
      "inputs": [
        {
          "indexed": true,
          "internalType": "address",
          "name": "previousOwner",
          "type": "address"
        },
        {
          "indexed": true,
          "internalType": "address",
          "name": "newOwner",
          "type": "address"
        }
      ],
      "name": "OwnershipTransferred",
      "type": "event"
    },
    {
      "anonymous": false,
      "inputs": [
        {
          "indexed": true,
          "internalType": "address",
          "name": "implementation",
          "type": "address"
        }
      ],
      "name": "Upgraded",
      "type": "event"
    },
    {
      "inputs": [],
      "name": "BALLOT_DURATION_MAX_NAME",
      "outputs": [
        {
          "internalType": "bytes32",
          "name": "",
          "type": "bytes32"
        }
      ],
      "stateMutability": "view",
      "type": "function"
    },
    {
      "inputs": [],
      "name": "BALLOT_DURATION_MIN_MAX_NAME",
      "outputs": [
        {
          "internalType": "bytes32",
          "name": "",
          "type": "bytes32"
        }
      ],
      "stateMutability": "view",
      "type": "function"
    },
    {
      "inputs": [],
      "name": "BALLOT_DURATION_MIN_NAME",
      "outputs": [
        {
          "internalType": "bytes32",
          "name": "",
          "type": "bytes32"
        }
      ],
      "stateMutability": "view",
      "type": "function"
    },
    {
      "inputs": [],
      "name": "BALLOT_STORAGE_NAME",
      "outputs": [
        {
          "internalType": "bytes32",
          "name": "",
          "type": "bytes32"
        }
      ],
      "stateMutability": "view",
      "type": "function"
    },
    {
      "inputs": [],
      "name": "BASE_FEE_MAX_CHANGE_DENOMINATOR_NAME",
      "outputs": [
        {
          "internalType": "bytes32",
          "name": "",
          "type": "bytes32"
        }
      ],
      "stateMutability": "view",
      "type": "function"
    },
    {
      "inputs": [],
      "name": "BLOCKS_PER_NAME",
      "outputs": [
        {
          "internalType": "bytes32",
          "name": "",
          "type": "bytes32"
        }
      ],
      "stateMutability": "view",
      "type": "function"
    },
    {
      "inputs": [],
      "name": "BLOCK_CREATION_TIME_NAME",
      "outputs": [
        {
          "internalType": "bytes32",
          "name": "",
          "type": "bytes32"
        }
      ],
      "stateMutability": "view",
      "type": "function"
    },
    {
      "inputs": [],
      "name": "BLOCK_GASLIMIT_NAME",
      "outputs": [
        {
          "internalType": "bytes32",
          "name": "",
          "type": "bytes32"
        }
      ],
      "stateMutability": "view",
      "type": "function"
    },
    {
      "inputs": [],
      "name": "BLOCK_REWARD_AMOUNT_NAME",
      "outputs": [
        {
          "internalType": "bytes32",
          "name": "",
          "type": "bytes32"
        }
      ],
      "stateMutability": "view",
      "type": "function"
    },
    {
      "inputs": [],
      "name": "BLOCK_REWARD_DISTRIBUTION_BLOCK_PRODUCER_NAME",
      "outputs": [
        {
          "internalType": "bytes32",
          "name": "",
          "type": "bytes32"
        }
      ],
      "stateMutability": "view",
      "type": "function"
    },
    {
      "inputs": [],
      "name": "BLOCK_REWARD_DISTRIBUTION_ECOSYSTEM_NAME",
      "outputs": [
        {
          "internalType": "bytes32",
          "name": "",
          "type": "bytes32"
        }
      ],
      "stateMutability": "view",
      "type": "function"
    },
    {
      "inputs": [],
      "name": "BLOCK_REWARD_DISTRIBUTION_MAINTANANCE_NAME",
      "outputs": [
        {
          "internalType": "bytes32",
          "name": "",
          "type": "bytes32"
        }
      ],
      "stateMutability": "view",
      "type": "function"
    },
    {
      "inputs": [],
      "name": "BLOCK_REWARD_DISTRIBUTION_METHOD_NAME",
      "outputs": [
        {
          "internalType": "bytes32",
          "name": "",
          "type": "bytes32"
        }
      ],
      "stateMutability": "view",
      "type": "function"
    },
    {
      "inputs": [],
      "name": "BLOCK_REWARD_DISTRIBUTION_STAKING_REWARD_NAME",
      "outputs": [
        {
          "internalType": "bytes32",
          "name": "",
          "type": "bytes32"
        }
      ],
      "stateMutability": "view",
      "type": "function"
    },
    {
      "inputs": [],
      "name": "DENOMINATOR",
      "outputs": [
        {
          "internalType": "uint256",
          "name": "",
          "type": "uint256"
        }
      ],
      "stateMutability": "view",
      "type": "function"
    },
    {
      "inputs": [],
      "name": "ELASTICITY_MULTIPLIER_NAME",
      "outputs": [
        {
          "internalType": "bytes32",
          "name": "",
          "type": "bytes32"
        }
      ],
      "stateMutability": "view",
      "type": "function"
    },
    {
      "inputs": [],
      "name": "ENV_STORAGE_NAME",
      "outputs": [
        {
          "internalType": "bytes32",
          "name": "",
          "type": "bytes32"
        }
      ],
      "stateMutability": "view",
      "type": "function"
    },
    {
      "inputs": [],
      "name": "GASLIMIT_AND_BASE_FEE_NAME",
      "outputs": [
        {
          "internalType": "bytes32",
          "name": "",
          "type": "bytes32"
        }
      ],
      "stateMutability": "view",
      "type": "function"
    },
    {
      "inputs": [],
      "name": "GAS_PRICE_NAME",
      "outputs": [
        {
          "internalType": "bytes32",
          "name": "",
          "type": "bytes32"
        }
      ],
      "stateMutability": "view",
      "type": "function"
    },
    {
      "inputs": [],
      "name": "GOV_NAME",
      "outputs": [
        {
          "internalType": "bytes32",
          "name": "",
          "type": "bytes32"
        }
      ],
      "stateMutability": "view",
      "type": "function"
    },
    {
      "inputs": [],
      "name": "MAINTENANCE_NAME",
      "outputs": [
        {
          "internalType": "bytes32",
          "name": "",
          "type": "bytes32"
        }
      ],
      "stateMutability": "view",
      "type": "function"
    },
    {
      "inputs": [],
      "name": "MAX_IDLE_BLOCK_INTERVAL_NAME",
      "outputs": [
        {
          "internalType": "bytes32",
          "name": "",
          "type": "bytes32"
        }
      ],
      "stateMutability": "view",
      "type": "function"
    },
    {
      "inputs": [],
      "name": "MAX_PRIORITY_FEE_PER_GAS_NAME",
      "outputs": [
        {
          "internalType": "bytes32",
          "name": "",
          "type": "bytes32"
        }
      ],
      "stateMutability": "view",
      "type": "function"
    },
    {
      "inputs": [],
      "name": "REWARD_POOL_NAME",
      "outputs": [
        {
          "internalType": "bytes32",
          "name": "",
          "type": "bytes32"
        }
      ],
      "stateMutability": "view",
      "type": "function"
    },
    {
      "inputs": [],
      "name": "STAKING_MAX_NAME",
      "outputs": [
        {
          "internalType": "bytes32",
          "name": "",
          "type": "bytes32"
        }
      ],
      "stateMutability": "view",
      "type": "function"
    },
    {
      "inputs": [],
      "name": "STAKING_MIN_MAX_NAME",
      "outputs": [
        {
          "internalType": "bytes32",
          "name": "",
          "type": "bytes32"
        }
      ],
      "stateMutability": "view",
      "type": "function"
    },
    {
      "inputs": [],
      "name": "STAKING_MIN_NAME",
      "outputs": [
        {
          "internalType": "bytes32",
          "name": "",
          "type": "bytes32"
        }
      ],
      "stateMutability": "view",
      "type": "function"
    },
    {
      "inputs": [],
      "name": "STAKING_NAME",
      "outputs": [
        {
          "internalType": "bytes32",
          "name": "",
          "type": "bytes32"
        }
      ],
      "stateMutability": "view",
      "type": "function"
    },
    {
      "inputs": [
        {
          "components": [
            {
              "internalType": "address",
              "name": "staker",
              "type": "address"
            },
            {
              "internalType": "address",
              "name": "voter",
              "type": "address"
            },
            {
              "internalType": "address",
              "name": "reward",
              "type": "address"
            },
            {
              "internalType": "bytes",
              "name": "name",
              "type": "bytes"
            },
            {
              "internalType": "bytes",
              "name": "enode",
              "type": "bytes"
            },
            {
              "internalType": "bytes",
              "name": "ip",
              "type": "bytes"
            },
            {
              "internalType": "uint256",
              "name": "port",
              "type": "uint256"
            },
            {
              "internalType": "uint256",
              "name": "lockAmount",
              "type": "uint256"
            },
            {
              "internalType": "bytes",
              "name": "memo",
              "type": "bytes"
            },
            {
              "internalType": "uint256",
              "name": "duration",
              "type": "uint256"
            }
          ],
          "internalType": "struct GovImp.MemberInfo",
          "name": "info",
          "type": "tuple"
        }
      ],
      "name": "addProposalToAddMember",
      "outputs": [
        {
          "internalType": "uint256",
          "name": "ballotIdx",
          "type": "uint256"
        }
      ],
      "stateMutability": "nonpayable",
      "type": "function"
    },
    {
      "inputs": [
        {
          "internalType": "bytes32",
          "name": "envName",
          "type": "bytes32"
        },
        {
          "internalType": "uint256",
          "name": "envType",
          "type": "uint256"
        },
        {
          "internalType": "bytes",
          "name": "envVal",
          "type": "bytes"
        },
        {
          "internalType": "bytes",
          "name": "memo",
          "type": "bytes"
        },
        {
          "internalType": "uint256",
          "name": "duration",
          "type": "uint256"
        }
      ],
      "name": "addProposalToChangeEnv",
      "outputs": [
        {
          "internalType": "uint256",
          "name": "ballotIdx",
          "type": "uint256"
        }
      ],
      "stateMutability": "nonpayable",
      "type": "function"
    },
    {
      "inputs": [
        {
          "internalType": "address",
          "name": "newGovAddr",
          "type": "address"
        },
        {
          "internalType": "bytes",
          "name": "memo",
          "type": "bytes"
        },
        {
          "internalType": "uint256",
          "name": "duration",
          "type": "uint256"
        }
      ],
      "name": "addProposalToChangeGov",
      "outputs": [
        {
          "internalType": "uint256",
          "name": "ballotIdx",
          "type": "uint256"
        }
      ],
      "stateMutability": "nonpayable",
      "type": "function"
    },
    {
      "inputs": [
        {
          "components": [
            {
              "internalType": "address",
              "name": "staker",
              "type": "address"
            },
            {
              "internalType": "address",
              "name": "voter",
              "type": "address"
            },
            {
              "internalType": "address",
              "name": "reward",
              "type": "address"
            },
            {
              "internalType": "bytes",
              "name": "name",
              "type": "bytes"
            },
            {
              "internalType": "bytes",
              "name": "enode",
              "type": "bytes"
            },
            {
              "internalType": "bytes",
              "name": "ip",
              "type": "bytes"
            },
            {
              "internalType": "uint256",
              "name": "port",
              "type": "uint256"
            },
            {
              "internalType": "uint256",
              "name": "lockAmount",
              "type": "uint256"
            },
            {
              "internalType": "bytes",
              "name": "memo",
              "type": "bytes"
            },
            {
              "internalType": "uint256",
              "name": "duration",
              "type": "uint256"
            }
          ],
          "internalType": "struct GovImp.MemberInfo",
          "name": "newInfo",
          "type": "tuple"
        },
        {
          "internalType": "address",
          "name": "oldStaker",
          "type": "address"
        }
      ],
      "name": "addProposalToChangeMember",
      "outputs": [
        {
          "internalType": "uint256",
          "name": "ballotIdx",
          "type": "uint256"
        }
      ],
      "stateMutability": "nonpayable",
      "type": "function"
    },
    {
      "inputs": [
        {
          "internalType": "address",
          "name": "staker",
          "type": "address"
        },
        {
          "internalType": "uint256",
          "name": "lockAmount",
          "type": "uint256"
        },
        {
          "internalType": "bytes",
          "name": "memo",
          "type": "bytes"
        },
        {
          "internalType": "uint256",
          "name": "duration",
          "type": "uint256"
        }
      ],
      "name": "addProposalToRemoveMember",
      "outputs": [
        {
          "internalType": "uint256",
          "name": "ballotIdx",
          "type": "uint256"
        }
      ],
      "stateMutability": "nonpayable",
      "type": "function"
    },
    {
      "inputs": [],
      "name": "ballotLength",
      "outputs": [
        {
          "internalType": "uint256",
          "name": "",
          "type": "uint256"
        }
      ],
      "stateMutability": "view",
      "type": "function"
    },
    {
      "inputs": [],
      "name": "getBallotInVoting",
      "outputs": [
        {
          "internalType": "uint256",
          "name": "",
          "type": "uint256"
        }
      ],
      "stateMutability": "view",
      "type": "function"
    },
    {
      "inputs": [],
      "name": "getMaxStaking",
      "outputs": [
        {
          "internalType": "uint256",
          "name": "",
          "type": "uint256"
        }
      ],
      "stateMutability": "view",
      "type": "function"
    },
    {
      "inputs": [],
      "name": "getMaxVotingDuration",
      "outputs": [
        {
          "internalType": "uint256",
          "name": "",
          "type": "uint256"
        }
      ],
      "stateMutability": "view",
      "type": "function"
    },
    {
      "inputs": [
        {
          "internalType": "uint256",
          "name": "idx",
          "type": "uint256"
        }
      ],
      "name": "getMember",
      "outputs": [
        {
          "internalType": "address",
          "name": "",
          "type": "address"
        }
      ],
      "stateMutability": "view",
      "type": "function"
    },
    {
      "inputs": [
        {
          "internalType": "uint256",
          "name": "idx",
          "type": "uint256"
        }
      ],
      "name": "getMemberFromNodeIdx",
      "outputs": [
        {
          "internalType": "address",
          "name": "",
          "type": "address"
        }
      ],
      "stateMutability": "view",
      "type": "function"
    },
    {
      "inputs": [],
      "name": "getMemberLength",
      "outputs": [
        {
          "internalType": "uint256",
          "name": "",
          "type": "uint256"
        }
      ],
      "stateMutability": "view",
      "type": "function"
    },
    {
      "inputs": [],
      "name": "getMinStaking",
      "outputs": [
        {
          "internalType": "uint256",
          "name": "",
          "type": "uint256"
        }
      ],
      "stateMutability": "view",
      "type": "function"
    },
    {
      "inputs": [],
      "name": "getMinVotingDuration",
      "outputs": [
        {
          "internalType": "uint256",
          "name": "",
          "type": "uint256"
        }
      ],
      "stateMutability": "view",
      "type": "function"
    },
    {
      "inputs": [
        {
          "internalType": "uint256",
          "name": "idx",
          "type": "uint256"
        }
      ],
      "name": "getNode",
      "outputs": [
        {
          "internalType": "bytes",
          "name": "name",
          "type": "bytes"
        },
        {
          "internalType": "bytes",
          "name": "enode",
          "type": "bytes"
        },
        {
          "internalType": "bytes",
          "name": "ip",
          "type": "bytes"
        },
        {
          "internalType": "uint256",
          "name": "port",
          "type": "uint256"
        }
      ],
      "stateMutability": "view",
      "type": "function"
    },
    {
      "inputs": [
        {
          "internalType": "address",
          "name": "addr",
          "type": "address"
        }
      ],
      "name": "getNodeIdxFromMember",
      "outputs": [
        {
          "internalType": "uint256",
          "name": "",
          "type": "uint256"
        }
      ],
      "stateMutability": "view",
      "type": "function"
    },
    {
      "inputs": [],
      "name": "getNodeLength",
      "outputs": [
        {
          "internalType": "uint256",
          "name": "",
          "type": "uint256"
        }
      ],
      "stateMutability": "view",
      "type": "function"
    },
    {
      "inputs": [
        {
          "internalType": "uint256",
          "name": "idx",
          "type": "uint256"
        }
      ],
      "name": "getReward",
      "outputs": [
        {
          "internalType": "address",
          "name": "",
          "type": "address"
        }
      ],
      "stateMutability": "view",
      "type": "function"
    },
    {
      "inputs": [],
      "name": "getThreshold",
      "outputs": [
        {
          "internalType": "uint256",
          "name": "",
          "type": "uint256"
        }
      ],
      "stateMutability": "pure",
      "type": "function"
    },
    {
      "inputs": [
        {
          "internalType": "uint256",
          "name": "idx",
          "type": "uint256"
        }
      ],
      "name": "getVoter",
      "outputs": [
        {
          "internalType": "address",
          "name": "",
          "type": "address"
        }
      ],
      "stateMutability": "view",
      "type": "function"
    },
    {
      "inputs": [
        {
          "internalType": "address",
          "name": "addr",
          "type": "address"
        }
      ],
      "name": "isMember",
      "outputs": [
        {
          "internalType": "bool",
          "name": "",
          "type": "bool"
        }
      ],
      "stateMutability": "view",
      "type": "function"
    },
    {
      "inputs": [
        {
          "internalType": "address",
          "name": "addr",
          "type": "address"
        }
      ],
      "name": "isStaker",
      "outputs": [
        {
          "internalType": "bool",
          "name": "",
          "type": "bool"
        }
      ],
      "stateMutability": "view",
      "type": "function"
    },
    {
      "inputs": [
        {
          "internalType": "address",
          "name": "addr",
          "type": "address"
        }
      ],
      "name": "isVoter",
      "outputs": [
        {
          "internalType": "bool",
          "name": "",
          "type": "bool"
        }
      ],
      "stateMutability": "view",
      "type": "function"
    },
    {
      "inputs": [],
      "name": "modifiedBlock",
      "outputs": [
        {
          "internalType": "uint256",
          "name": "",
          "type": "uint256"
        }
      ],
      "stateMutability": "view",
      "type": "function"
    },
    {
      "inputs": [],
      "name": "owner",
      "outputs": [
        {
          "internalType": "address",
          "name": "",
          "type": "address"
        }
      ],
      "stateMutability": "view",
      "type": "function"
    },
    {
      "inputs": [],
      "name": "proxiableUUID",
      "outputs": [
        {
          "internalType": "bytes32",
          "name": "",
          "type": "bytes32"
        }
      ],
      "stateMutability": "view",
      "type": "function"
    },
    {
      "inputs": [],
      "name": "reg",
      "outputs": [
        {
          "internalType": "contract IRegistry",
          "name": "",
          "type": "address"
        }
      ],
      "stateMutability": "view",
      "type": "function"
    },
    {
      "inputs": [],
      "name": "renounceOwnership",
      "outputs": [],
      "stateMutability": "nonpayable",
      "type": "function"
    },
    {
      "inputs": [
        {
          "internalType": "address",
          "name": "_addr",
          "type": "address"
        }
      ],
      "name": "setRegistry",
      "outputs": [],
      "stateMutability": "nonpayable",
      "type": "function"
    },
    {
      "inputs": [
        {
          "internalType": "address",
          "name": "newOwner",
          "type": "address"
        }
      ],
      "name": "transferOwnership",
      "outputs": [],
      "stateMutability": "nonpayable",
      "type": "function"
    },
    {
      "inputs": [
        {
          "internalType": "address",
          "name": "newImplementation",
          "type": "address"
        }
      ],
      "name": "upgradeTo",
      "outputs": [],
      "stateMutability": "nonpayable",
      "type": "function"
    },
    {
      "inputs": [
        {
          "internalType": "address",
          "name": "newImplementation",
          "type": "address"
        },
        {
          "internalType": "bytes",
          "name": "data",
          "type": "bytes"
        }
      ],
      "name": "upgradeToAndCall",
      "outputs": [],
      "stateMutability": "payable",
      "type": "function"
    },
    {
      "inputs": [
        {
          "internalType": "uint256",
          "name": "ballotIdx",
          "type": "uint256"
        },
        {
          "internalType": "bool",
          "name": "approval",
          "type": "bool"
        }
      ],
      "name": "vote",
      "outputs": [],
      "stateMutability": "nonpayable",
      "type": "function"
    },
    {
      "inputs": [],
      "name": "voteLength",
      "outputs": [
        {
          "internalType": "uint256",
          "name": "",
          "type": "uint256"
        }
      ],
      "stateMutability": "view",
      "type": "function"
    }
  ],
  "bytecode": "0x60a06040523060601b6080523480156200001857600080fd5b5062000024336200002f565b60016011556200007f565b600080546001600160a01b038381166001600160a01b0319831681178455604051919092169283917f8be0079c531659141344cd1fd0a4f28419497f9722a3daafe3b4186f6b6457e09190a35050565b60805160601c615325620000ba600039600081816110ed0152818161112d015281816118df0152818161191f015261199b01526153256000f3fe6080604052600436106103ac5760003560e01c80637b2bfb01116101e7578063c0b4fe151161010d578063d13a1744116100a0578063de09b3771161006f578063de09b37714610d0a578063e75235b814610d1f578063e9523fb514610d34578063f2fde38b14610d4a57600080fd5b8063d13a174414610c8b578063d6f9cfce14610cab578063d965ea0014610cc1578063dd65d3f914610cd657600080fd5b8063ce04b9d4116100dc578063ce04b9d414610bea578063ce6a54ff14610bff578063ce93a23614610c35578063d07bff0c14610c5557600080fd5b8063c0b4fe1514610b2e578063c6713baf14610b62578063c7d3da3414610b96578063c9d27afe14610bca57600080fd5b8063a6868b7d11610185578063ab3545e511610154578063ab3545e514610a7b578063af6af2ff14610ab1578063b128f88014610ac6578063c00ace6c14610afa57600080fd5b8063a6868b7d146109bb578063a7771ee3146109ef578063a91ee0dc14610a27578063a9b629b214610a4757600080fd5b80638da5cb5b116101c15780638da5cb5b14610943578063918f8674146109615780639986e4b914610977578063a230c5241461099b57600080fd5b80637b2bfb01146108d85780637bf465301461090c5780637d10dd1b1461092d57600080fd5b80633f35c8fe116102d7578063656e30521161026a5780636fde207a116102395780636fde207a1461085a578063715018a61461088e57806372016f75146108a3578063738fdd1a146108b857600080fd5b8063656e3052146107815780636c78d2cf146107b55780636d583ca7146107de5780636f1e85331461081257600080fd5b80634f1ef286116102a65780634f1ef2861461071057806352d1902d146107235780635aaa4040146107385780636167eb451461074d57600080fd5b80633f35c8fe1461066a578063406903531461069e5780634bd1ed76146106be5780634f0f4aa9146106e057600080fd5b80631daad67b1161034f5780632f40992e1161031e5780632f40992e146105d35780633659cfe6146105f457806336e83d8314610616578063382944191461063657600080fd5b80631daad67b146105195780631e0cba0d1461054d578063238737b61461056b578063278bb12a1461059f57600080fd5b80630f36c0a81161038b5780630f36c0a81461044c57806315bf6b4d146104805780631c150171146104ce5780631c4b774b146104e357600080fd5b806215a73b146103b15780630b1d39b8146103f85780630efa49091461042c575b600080fd5b3480156103bd57600080fd5b506103e57f0c4fbe9dc9de15dd7c0d064975ee1a2f2f9b954fa0e65d4f6cddba94884bdc3e81565b6040519081526020015b60405180910390f35b34801561040457600080fd5b506103e57f9251c159f02011bbf45dee7be257fcbb2aecba050ea7ce7c9f8561b82858d6e081565b34801561043857600080fd5b506103e5610447366004614a93565b610d6a565b34801561045857600080fd5b506103e57f55b3774520b5993024893d303890baa4e84b1244a43c60034d1ced2d3cf2b04b81565b34801561048c57600080fd5b506104b661049b366004614cd9565b6000908152600c60205260409020546001600160a01b031690565b6040516001600160a01b0390911681526020016103ef565b3480156104da57600080fd5b506103e5611063565b3480156104ef57600080fd5b506104b66104fe366004614cd9565b6000908152600660205260409020546001600160a01b031690565b34801561052557600080fd5b506103e57f6d0d53fb98dc9bce1459687cbe14a4d9d9314793382025604e41d0832dabfab281565b34801561055957600080fd5b506103e5665374616b696e6760c81b81565b34801561057757600080fd5b506103e57f1d36f8ce53f59e624857e1d8dc7932d19981a2ea1b8faa4eb8ff843fc3e5a27881565b3480156105ab57600080fd5b506103e57f3a9129cf69b4fa0fbe5d48e0d50863014e21ae09ffabcd72cebe10b1835251b981565b3480156105df57600080fd5b506103e56914995dd85c99141bdbdb60b21b81565b34801561060057600080fd5b5061061461060f36600461492a565b6110e2565b005b34801561062257600080fd5b506103e5610631366004614c52565b6111c8565b34801561064257600080fd5b506103e57fbe90e461bbdb9a95a694f7796912ea04244caf7f5b60ad7ded17e16821d3e44c81565b34801561067657600080fd5b506103e57f2a268972a70c8c688b62366bdfdd9bb09cf19d3e5b6e7e7bb158e671ffdcedd281565b3480156106aa57600080fd5b506103e56106b9366004614bd3565b61150a565b3480156106ca57600080fd5b506103e56a4d61696e74656e616e636560a81b81565b3480156106ec57600080fd5b506107006106fb366004614cd9565b6116f7565b6040516103ef9493929190614e07565b61061461071e366004614a43565b6118d4565b34801561072f57600080fd5b506103e561198e565b34801561074457600080fd5b506103e5611a41565b34801561075957600080fd5b506103e57f8e6c2112cf42a3c3439bb3778561081e8f613478ae194d83342262c47476aa6381565b34801561078d57600080fd5b506103e57fe10074dceffb75f13bf0ce50145afd35182d63796823f1280ce40e01c19109e781565b3480156107c157600080fd5b506103e57111dbdd995c9b985b98d950dbdb9d1c9858dd60721b81565b3480156107ea57600080fd5b506103e57fc69fc6b7d0efc934fd5a3581c7253a7107a952526bb6dbcd814ef8d8dae1f44a81565b34801561081e57600080fd5b5061084a61082d36600461492a565b6001600160a01b0316600090815260096020526040902054151590565b60405190151581526020016103ef565b34801561086657600080fd5b506103e57f0b09c9badbbeb6c813a598ee910770a39ccda797a1940439bb6e47fc6c87548b81565b34801561089a57600080fd5b50610614611a83565b3480156108af57600080fd5b50600d546103e5565b3480156108c457600080fd5b506001546104b6906001600160a01b031681565b3480156108e457600080fd5b506103e57f9c50bf546a3eb3ddc62018a4800f49d81aad4ea32c0be59072d1ad5ca5cacaad81565b34801561091857600080fd5b506103e569456e7653746f7261676560b01b81565b34801561093957600080fd5b506103e560025481565b34801561094f57600080fd5b506000546001600160a01b03166104b6565b34801561096d57600080fd5b506103e561271081565b34801561098357600080fd5b506103e56c42616c6c6f7453746f7261676560981b81565b3480156109a757600080fd5b5061084a6109b636600461492a565b611ab9565b3480156109c757600080fd5b506103e57f6c6f69f426081752a5d3e73746599acd2a4cb145d5de4203ca1e3473b281680b81565b3480156109fb57600080fd5b5061084a610a0a36600461492a565b6001600160a01b0316600090815260046020526040902054151590565b348015610a3357600080fd5b50610614610a4236600461492a565b611afc565b348015610a5357600080fd5b506103e57f89dd490ecaf395283ed4ff2fd9557ca767fc425dce063451a9b0da6d72f600c381565b348015610a8757600080fd5b506104b6610a96366004614cd9565b6000908152600860205260409020546001600160a01b031690565b348015610abd57600080fd5b506103e5611b9e565b348015610ad257600080fd5b506103e57f829561ab7af084b7efc6600518d2df79b8d95f3f4c3a550f54f8f7ec7d2b805781565b348015610b0657600080fd5b506103e57f18ad4415ef4a621ce1a136395c51ab6c3712bb2e24b79d526059925cea58dcb881565b348015610b3a57600080fd5b506103e57f8086da5becff4dfac91a3105821b361078d2d4abba0ccc2401b974cf0dcf05c181565b348015610b6e57600080fd5b506103e57fa5495b55db4a16d67920c831291cb521e7d2e42866df23674e9d512cbe24d91581565b348015610ba257600080fd5b506103e57f04f7b94450bbcad85f37ea47cd1062728f884bb2040e357738f8fd53056134bc81565b348015610bd657600080fd5b50610614610be5366004614cf2565b611be0565b348015610bf657600080fd5b506103e5611d43565b348015610c0b57600080fd5b506103e5610c1a36600461492a565b6001600160a01b03166000908152600b602052604090205490565b348015610c4157600080fd5b506103e5610c50366004614c87565b611d85565b348015610c6157600080fd5b506104b6610c70366004614cd9565b6000908152600360205260409020546001600160a01b031690565b348015610c9757600080fd5b506103e5610ca6366004614aec565b61210d565b348015610cb757600080fd5b506103e5600e5481565b348015610ccd57600080fd5b506005546103e5565b348015610ce257600080fd5b506103e57fdefa546c11b044f1166f68848d05922f56215584ecaaf1f134abd7253991e49c81565b348015610d1657600080fd5b506010546103e5565b348015610d2b57600080fd5b506113ec6103e5565b348015610d4057600080fd5b506103e5600f5481565b348015610d5657600080fd5b50610614610d6536600461492a565b612381565b6000610d74612419565b60405163288c314960e21b81523360048201526001600160a01b03919091169063a230c5249060240160206040518083038186803b158015610db557600080fd5b505afa158015610dc9573d6000803e3d6000fd5b505050506040513d601f19601f82011682018060405250810190610ded9190614b4d565b610e125760405162461bcd60e51b8152600401610e0990614f8d565b60405180910390fd5b6001600160a01b038416610e685760405162461bcd60e51b815260206004820152601d60248201527f496d706c656d656e746174696f6e2063616e6e6f74206265207a65726f0000006044820152606401610e09565b610e70612439565b6001600160a01b0316846001600160a01b03161415610ec95760405162461bcd60e51b815260206004820152601560248201527453616d6520636f6e7472616374206164647265737360581b6044820152606401610e09565b836001600160a01b03166352d1902d6040518163ffffffff1660e01b815260040160206040518083038186803b158015610f0257600080fd5b505afa925050508015610f32575060408051601f3d908101601f19168201909252610f2f91810190614b6a565b60015b610f4e5760405162461bcd60e51b8152600401610e0990614fb4565b6000805160206152898339815191528114610f7b5760405162461bcd60e51b8152600401610e0990614f44565b50600e54610f8a906001612455565b9050610f94612468565b6001600160a01b0316630a3a63fe610fb86001600e5461245590919063ffffffff16565b60046040516001600160e01b031960e085901b16815260048101929092526024820152604481018590523360648201526001600160a01b038716608482015260a401602060405180830381600087803b15801561101457600080fd5b505af1158015611028573d6000803e3d6000fd5b505050506040513d601f19601f8201168201806040525081019061104c9190614b6a565b506110578184612483565b600e8190559392505050565b600061106d6124ee565b6001600160a01b03166333be496e6040518163ffffffff1660e01b815260040160206040518083038186803b1580156110a557600080fd5b505afa1580156110b9573d6000803e3d6000fd5b505050506040513d601f19601f820116820180604052508101906110dd9190614b6a565b905090565b306001600160a01b037f000000000000000000000000000000000000000000000000000000000000000016141561112b5760405162461bcd60e51b8152600401610e0990614e65565b7f00000000000000000000000000000000000000000000000000000000000000006001600160a01b031661115d612439565b6001600160a01b0316146111835760405162461bcd60e51b8152600401610e0990614ef8565b61118c81612506565b6111c58160005b6040519080825280601f01601f1916602001820160405280156111bd576020820181803683370190505b5060006125a3565b50565b60006111d2612419565b60405163288c314960e21b81523360048201526001600160a01b03919091169063a230c5249060240160206040518083038186803b15801561121357600080fd5b505afa158015611227573d6000803e3d6000fd5b505050506040513d601f19601f8201168201806040525081019061124b9190614b4d565b6112675760405162461bcd60e51b8152600401610e0990614f8d565b60208201516001600160a01b03166112b35760405162461bcd60e51b815260206004820152600f60248201526e496e76616c6964206164647265737360881b6044820152606401610e09565b6000826060015151116112fc5760405162461bcd60e51b8152602060048201526011602482015270496e76616c6964206e6f6465206e616d6560781b6044820152606401610e09565b60008260a0015151116113435760405162461bcd60e51b815260206004820152600f60248201526e0496e76616c6964206e6f646520495608c1b6044820152606401610e09565b60008260c001511161138b5760405162461bcd60e51b8152602060048201526011602482015270125b9d985b1a59081b9bd919481c1bdc9d607a1b6044820152606401610e09565b815161139690611ab9565b156113d45760405162461bcd60e51b815260206004820152600e60248201526d20b63932b0b23c9036b2b6b132b960911b6044820152606401610e09565b6113dc611b9e565b8260e00151101580156113fa57506113f2611a41565b8260e0015111155b61143d5760405162461bcd60e51b815260206004820152601460248201527324b73b30b634b2103637b1b59020b6b7bab73a1760611b6044820152606401610e09565b81602001516001600160a01b031682600001516001600160a01b03161461149c5760405162461bcd60e51b815260206004820152601360248201527229ba30b5b2b91034b9903737ba103b37ba32b960691b6044820152606401610e09565b600e546114aa906001612455565b90506114e38160018461012001513360008760000151886020015189604001518a606001518b608001518c60a001518d60c00151612699565b6114f1818360e00151612722565b61150081836101000151612483565b600e819055919050565b6000611514612419565b60405163288c314960e21b81523360048201526001600160a01b03919091169063a230c5249060240160206040518083038186803b15801561155557600080fd5b505afa158015611569573d6000803e3d6000fd5b505050506040513d601f19601f8201168201806040525081019061158d9190614b4d565b6115a95760405162461bcd60e51b8152600401610e0990614f8d565b846001111580156115bb575060098511155b6115f65760405162461bcd60e51b815260206004820152600c60248201526b496e76616c6964207479706560a01b6044820152606401610e09565b6116008685612760565b61163c5760405162461bcd60e51b815260206004820152600d60248201526c496e76616c69642076616c756560981b6044820152606401610e09565b600e5461164a906001612455565b9050611654612468565b6001600160a01b0316634a57823e82600585338b8b8b6040518863ffffffff1660e01b815260040161168c97969594939291906150d4565b602060405180830381600087803b1580156116a657600080fd5b505af11580156116ba573d6000803e3d6000fd5b505050506040513d601f19601f820116820180604052508101906116de9190614b6a565b506116e98184612483565b600e81905595945050505050565b6000818152600a602052604081206003810154815460609384938493919290916001830191600284019190849061172d906151fe565b80601f0160208091040260200160405190810160405280929190818152602001828054611759906151fe565b80156117a65780601f1061177b576101008083540402835291602001916117a6565b820191906000526020600020905b81548152906001019060200180831161178957829003601f168201915b505050505093508280546117b9906151fe565b80601f01602080910402602001604051908101604052809291908181526020018280546117e5906151fe565b80156118325780601f1061180757610100808354040283529160200191611832565b820191906000526020600020905b81548152906001019060200180831161181557829003601f168201915b50505050509250818054611845906151fe565b80601f0160208091040260200160405190810160405280929190818152602001828054611871906151fe565b80156118be5780601f10611893576101008083540402835291602001916118be565b820191906000526020600020905b8154815290600101906020018083116118a157829003601f168201915b5050505050915093509350935093509193509193565b306001600160a01b037f000000000000000000000000000000000000000000000000000000000000000016141561191d5760405162461bcd60e51b8152600401610e0990614e65565b7f00000000000000000000000000000000000000000000000000000000000000006001600160a01b031661194f612439565b6001600160a01b0316146119755760405162461bcd60e51b8152600401610e0990614ef8565b61197e82612506565b61198a828260016125a3565b5050565b6000306001600160a01b037f00000000000000000000000000000000000000000000000000000000000000001614611a2e5760405162461bcd60e51b815260206004820152603860248201527f555550535570677261646561626c653a206d757374206e6f742062652063616c60448201527f6c6564207468726f7567682064656c656761746563616c6c00000000000000006064820152608401610e09565b5060008051602061528983398151915290565b6000611a4b6124ee565b6001600160a01b031663737c59b86040518163ffffffff1660e01b815260040160206040518083038186803b1580156110a557600080fd5b6000546001600160a01b03163314611aad5760405162461bcd60e51b8152600401610e0990615002565b611ab760006127e7565b565b6001600160a01b038116600090815260096020526040812054151580611af657506001600160a01b03821660009081526004602052604090205415155b92915050565b6000546001600160a01b03163314611b265760405162461bcd60e51b8152600401610e0990615002565b6001600160a01b038116611b7c5760405162461bcd60e51b815260206004820152601a60248201527f416464726573732073686f756c64206265206e6f6e2d7a65726f0000000000006044820152606401610e09565b600180546001600160a01b0319166001600160a01b0392909216919091179055565b6000611ba86124ee565b6001600160a01b031663076cd77f6040518163ffffffff1660e01b815260040160206040518083038186803b1580156110a557600080fd5b611be8612419565b60405163288c314960e21b81523360048201526001600160a01b03919091169063a230c5249060240160206040518083038186803b158015611c2957600080fd5b505afa158015611c3d573d6000803e3d6000fd5b505050506040513d601f19601f82011682018060405250810190611c619190614b4d565b611c7d5760405162461bcd60e51b8152600401610e0990614f8d565b60026011541415611cd05760405162461bcd60e51b815260206004820152601f60248201527f5265656e7472616e637947756172643a207265656e7472616e742063616c6c006044820152606401610e09565b6002601155611cde82612837565b6000611ce9836128e7565b9050611cf583836129b7565b600080611d0185612bc7565b92509250506000611d116113ec90565b90508083101580611d225750808210155b15611d3657611d3686858486116000612c5e565b5050600160115550505050565b6000611d4d6124ee565b6001600160a01b0316631b27e01b6040518163ffffffff1660e01b815260040160206040518083038186803b1580156110a557600080fd5b6000611d8f612419565b60405163288c314960e21b81523360048201526001600160a01b03919091169063a230c5249060240160206040518083038186803b158015611dd057600080fd5b505afa158015611de4573d6000803e3d6000fd5b505050506040513d601f19601f82011682018060405250810190611e089190614b4d565b611e245760405162461bcd60e51b8152600401610e0990614f8d565b6001600160a01b038216611e705760405162461bcd60e51b8152602060048201526013602482015272496e76616c6964206f6c64204164647265737360681b6044820152606401610e09565b60208301516001600160a01b0316611ec05760405162461bcd60e51b8152602060048201526013602482015272496e76616c6964206e6577204164647265737360681b6044820152606401610e09565b600083606001515111611f095760405162461bcd60e51b8152602060048201526011602482015270496e76616c6964206e6f6465206e616d6560781b6044820152606401610e09565b60008360a001515111611f505760405162461bcd60e51b815260206004820152600f60248201526e0496e76616c6964206e6f646520495608c1b6044820152606401610e09565b60008360c0015111611f985760405162461bcd60e51b8152602060048201526011602482015270125b9d985b1a59081b9bd919481c1bdc9d607a1b6044820152606401610e09565b611fa182611ab9565b611fda5760405162461bcd60e51b815260206004820152600a6024820152692737b716b6b2b6b132b960b11b6044820152606401610e09565b611fe2611b9e565b8360e00151101580156120005750611ff8611a41565b8360e0015111155b6120425760405162461bcd60e51b8152602060048201526013602482015272125b9d985b1a59081b1bd8dac8105b5bdd5b9d606a1b6044820152606401610e09565b600e54612050906001612455565b90506120888160038561012001513386886000015189602001518a604001518b606001518c608001518d60a001518e60c00151612699565b612096818460e00151612722565b6120a581846101000151612483565b600e819055336001600160a01b0383161480156120ce575082516001600160a01b038381169116145b15611af65760006120de82612ce7565b92506120f89150839050426120f38185612455565b612d21565b612106826003600180612c5e565b5092915050565b6000612117612419565b60405163288c314960e21b81523360048201526001600160a01b03919091169063a230c5249060240160206040518083038186803b15801561215857600080fd5b505afa15801561216c573d6000803e3d6000fd5b505050506040513d601f19601f820116820180604052508101906121909190614b4d565b6121ac5760405162461bcd60e51b8152600401610e0990614f8d565b6001600160a01b0385166121f45760405162461bcd60e51b815260206004820152600f60248201526e496e76616c6964206164647265737360881b6044820152606401610e09565b6121fd85611ab9565b6122365760405162461bcd60e51b815260206004820152600a6024820152692737b716b6b2b6b132b960b11b6044820152606401610e09565b600161224160055490565b1161228e5760405162461bcd60e51b815260206004820152601b60248201527f43616e6e6f742072656d6f7665206120736f6c65206d656d62657200000000006044820152606401610e09565b8361229886612d98565b10156122f95760405162461bcd60e51b815260206004820152602a60248201527f496e73756666696369656e742062616c616e636520746861742063616e206265604482015269103ab73637b1b5b2b21760b11b6064820152608401610e09565b600e54612307906001612455565b905061236081600284338960008080806040519080825280601f01601f191660200182016040528015612341576020820181803683370190505b5060408051600080825260208201818152828401909352909190612699565b61236a8185612722565b6123748184612483565b600e819055949350505050565b6000546001600160a01b031633146123ab5760405162461bcd60e51b8152600401610e0990615002565b6001600160a01b0381166124105760405162461bcd60e51b815260206004820152602660248201527f4f776e61626c653a206e6577206f776e657220697320746865207a65726f206160448201526564647265737360d01b6064820152608401610e09565b6111c5816127e7565b60006110dd7111dbdd995c9b985b98d950dbdb9d1c9858dd60721b612e1e565b600080516020615289833981519152546001600160a01b031690565b600061246182846151a3565b9392505050565b60006110dd6c42616c6c6f7453746f7261676560981b612e1e565b61248b612468565b6001600160a01b031663bce0dbc183836040518363ffffffff1660e01b81526004016124b8929190614dc6565b600060405180830381600087803b1580156124d257600080fd5b505af11580156124e6573d6000803e3d6000fd5b505050505050565b60006110dd69456e7653746f7261676560b01b612e1e565b61250e612419565b60405163288c314960e21b81523360048201526001600160a01b03919091169063a230c5249060240160206040518083038186803b15801561254f57600080fd5b505afa158015612563573d6000803e3d6000fd5b505050506040513d601f19601f820116820180604052508101906125879190614b4d565b6111c55760405162461bcd60e51b8152600401610e0990614f8d565b7f4910fdfa16fed3260ed0e7147f7cc6da11a60208b5b9406d12a635614ffd91435460ff16156125db576125d683612e9b565b505050565b826001600160a01b03166352d1902d6040518163ffffffff1660e01b815260040160206040518083038186803b15801561261457600080fd5b505afa925050508015612644575060408051601f3d908101601f1916820190925261264191810190614b6a565b60015b6126605760405162461bcd60e51b8152600401610e0990614fb4565b600080516020615289833981519152811461268d5760405162461bcd60e51b8152600401610e0990614f44565b506125d6838383612f37565b6126a1612468565b6001600160a01b031663daacbb958d8d8d8d8d8d8d8d8d8d8d8d6040518d63ffffffff1660e01b81526004016126e29c9b9a99989796959493929190615037565b600060405180830381600087803b1580156126fc57600080fd5b505af1158015612710573d6000803e3d6000fd5b50505050505050505050505050505050565b61272a612468565b604051633968764960e11b815260048101849052602481018390526001600160a01b0391909116906372d0ec92906044016124b8565b600061276a6124ee565b6001600160a01b0316639801bff984846040518363ffffffff1660e01b8152600401612797929190614dc6565b60206040518083038186803b1580156127af57600080fd5b505afa1580156127c3573d6000803e3d6000fd5b505050506040513d601f19601f820116820180604052508101906124619190614b4d565b600080546001600160a01b038381166001600160a01b0319831681178455604051919092169283917f8be0079c531659141344cd1fd0a4f28419497f9722a3daafe3b4186f6b6457e09190a35050565b601054156111c557600061284c601054612f62565b50915050600061285d601054612ce7565b5091505060028214156125d6574281101561288a57601054612880906004612fec565b6000601055505050565b60105483146125d65760405162461bcd60e51b815260206004820152602360248201527f4e6f7720696e20766f74696e67207769746820646966666572656e742062616c6044820152621b1bdd60ea1b6064820152608401610e09565b60008060006128f584612f62565b509092509050600181141561297757600061290f85612ce7565b9250505061291b611063565b81101561293e5761293985426120f3612932611063565b4290612455565b61296c565b80612947611d43565b101561295d5761293985426120f3612932611d43565b61296c85426120f38185612455565b506010849055612106565b600281141561298557612106565b60405162461bcd60e51b8152602060048201526007602482015266115e1c1a5c995960ca1b6044820152606401610e09565b600f546000906129c8906001612455565b3360009081526009602052604081205491925090156129e8575033612a25565b3360009081526004602052604090205415612a25575033600090815260046020908152604080832054835260089091529020546001600160a01b03165b6000612a2f61302a565b604051637d77a0eb60e01b81526001600160a01b03848116600483015261271060248301529190911690637d77a0eb9060440160206040518083038186803b158015612a7a57600080fd5b505afa158015612a8e573d6000803e3d6000fd5b505050506040513d601f19601f82011682018060405250810190612ab29190614b6a565b90508315612b3e57612ac2612468565b6040516325918ae760e21b8152600481018590526024810187905233604482015260016064820152608481018390526001600160a01b0391909116906396462b9c9060a401600060405180830381600087803b158015612b2157600080fd5b505af1158015612b35573d6000803e3d6000fd5b50505050612bbe565b612b46612468565b6040516325918ae760e21b8152600481018590526024810187905233604482015260026064820152608481018390526001600160a01b0391909116906396462b9c9060a401600060405180830381600087803b158015612ba557600080fd5b505af1158015612bb9573d6000803e3d6000fd5b505050505b5050600f555050565b6000806000612bd4612468565b6001600160a01b03166356ba988e856040518263ffffffff1660e01b8152600401612c0191815260200190565b60606040518083038186803b158015612c1957600080fd5b505afa158015612c2d573d6000803e3d6000fd5b505050506040513d601f19601f82011682018060405250810190612c519190614d50565b9250925092509193909250565b60048215612cd1575060036001841415612c8857612c7b8561303f565b612c83575060045b612cd1565b6002841415612c9a57612c838561347a565b6003841415612cad57612c7b8583613901565b6004841415612cbf57612c8385613ee1565b6005841415612cd157612cd185613fa0565b612cdb8582612fec565b50506000601055505050565b6000806000612cf4612468565b6001600160a01b03166309970688856040518263ffffffff1660e01b8152600401612c0191815260200190565b612d29612468565b60405163605b78c360e11b81526004810185905260248101849052604481018390526001600160a01b03919091169063c0b6f18690606401600060405180830381600087803b158015612d7b57600080fd5b505af1158015612d8f573d6000803e3d6000fd5b50505050505050565b6000612da261302a565b604051632c9aab9b60e11b81526001600160a01b03848116600483015291909116906359355736906024015b60206040518083038186803b158015612de657600080fd5b505afa158015612dfa573d6000803e3d6000fd5b505050506040513d601f19601f82011682018060405250810190611af69190614b6a565b600154604051630d2020dd60e01b8152600481018390526000916001600160a01b031690630d2020dd9060240160206040518083038186803b158015612e6357600080fd5b505afa158015612e77573d6000803e3d6000fd5b505050506040513d601f19601f82011682018060405250810190611af69190614947565b6001600160a01b0381163b612f085760405162461bcd60e51b815260206004820152602d60248201527f455243313936373a206e657720696d706c656d656e746174696f6e206973206e60448201526c1bdd08184818dbdb9d1c9858dd609a1b6064820152608401610e09565b60008051602061528983398151915280546001600160a01b0319166001600160a01b0392909216919091179055565b612f40836140f3565b600082511180612f4d5750805b156125d657612f5c8383614133565b50505050565b6000806000612f6f612468565b6001600160a01b031663688ca5b2856040518263ffffffff1660e01b8152600401612f9c91815260200190565b60606040518083038186803b158015612fb457600080fd5b505afa158015612fc8573d6000803e3d6000fd5b505050506040513d601f19601f82011682018060405250810190612c519190614d17565b612ff4612468565b60405163548f2cdd60e11b815260048101849052602481018390526001600160a01b03919091169063a91e59ba906044016124b8565b60006110dd665374616b696e6760c81b612e1e565b600061304c826001614158565b6000806000806000806000806130618a61425f565b985098509850985098509850985098505061307b88611ab9565b156130d957896000805160206152a98339815191526040516130c19060208082526010908201526f20b63932b0b23c90309036b2b6b132b960811b604082015260600190565b60405180910390a25060019998505050505050505050565b6130e1611b9e565b8110806130f45750806130f2611a41565b105b1561315557896000805160206152a983398151915260405161313d90602080825260139082015272125b9d985b1a59081b1bd8dac8185b5bdd5b9d606a1b604082015260600190565b60405180910390a25060009998505050505050505050565b8061315f89614315565b101561318157896000805160206152a983398151915260405161313d90614eb1565b866001600160a01b0316886001600160a01b0316141580156131b55750856001600160a01b0316886001600160a01b031614155b1561320157896000805160206152a983398151915260405161313d90602080825260169082015275496e76616c6964206d656d626572206164647265737360501b604082015260600190565b61320b888261434f565b60055460009061321c906001612455565b9050876003600083815260200190815260200160002060006101000a8154816001600160a01b0302191690836001600160a01b0316021790555080600460008a6001600160a01b03166001600160a01b0316815260200190815260200160002081905550866006600083815260200190815260200160002060006101000a8154816001600160a01b0302191690836001600160a01b031602179055508060076000896001600160a01b03166001600160a01b0316815260200190815260200160002081905550886008600083815260200190815260200160002060006101000a8154816001600160a01b0302191690836001600160a01b0316021790555080600960008b6001600160a01b03166001600160a01b0316815260200190815260200160002081905550600061335c6001600d5461245590919063ffffffff16565b6000818152600a60209081526040909120885192935091613385916001840191908a0190614613565b50855161339b9060028301906020890190614613565b508481600301819055508a600c600084815260200190815260200160002060006101000a8154816001600160a01b0302191690836001600160a01b0316021790555081600b60008d6001600160a01b03166001600160a01b03168152602001908152602001600020819055508781600001908051906020019061341f929190614613565b506005839055600d829055436002556040516001600160a01b03808c1691908d16907f6a2af11b2d73f347f9d5840aea46899e17609730b5cd91bd9c312098038acba690600090a35060019c9b505050505050505050505050565b613485816002614158565b6000806134918361425f565b98505050505050505091506134a582611ab9565b6134fb57826000805160206152a98339815191526040516134ee906020808252601490820152732737ba1030b63932b0b23c90309036b2b6b132b960611b604082015260600190565b60405180910390a2505050565b6001600160a01b03808316600081815260096020818152604080842054600554808652600884528286205482875260038552838720546006865293872054979096529390925290949283169390831692169084146136635760058054600090815260086020818152604080842080546001600160a01b038d8116808852600980875285892080549e8a529787528589209087529b821688528488209c909c559486905581546001600160a01b0319908116909255895482169085161790985588845260078083528185205486548652600680855283872080548a881689528487528589208054948a529287528589209487528716808952858920939093559087905580548b16905581548a16179055978352600480825288842054945484526003808352898520805489861687528385528b872080548989529386528c88209490955290941680865299852055929055805486169055805490941685179093559192916136e0565b60058054600090815260086020908152604080832080546001600160a01b03199081169091556001600160a01b038b81168552600984528285208590558554855260068452828520805483169055868116855260078452828520859055945484526003835281842080549091169055928516825260049052908120555b6005546136ee90600161438e565b600555600d546001600160a01b0387166000908152600b602052604090205414613824576001600160a01b038087166000908152600b6020908152604080832054600d54808552600c845282852054828652600a9094528285209085529190932080549398509190931695508291613765906151fe565b613770929190614697565b50600d546000908152600a602052604090206001908101805491830191613796906151fe565b6137a1929190614697565b50600d546000908152600a6020526040902060029081018054918301916137c7906151fe565b6137d2929190614697565b50600d546000908152600a60209081526040808320600390810154940193909355868252600c815282822080546001600160a01b0319166001600160a01b0388169081179091558252600b9052208490555b600d80546000908152600c6020908152604080832080546001600160a01b03191690556001600160a01b038a168352600b825280832083905592548252600a9052908120906138738282614712565b613881600183016000614712565b61388f600283016000614712565b50600060039190910155600d546138a790600161438e565b600d55436002556138b8868661439a565b816001600160a01b0316866001600160a01b03167faa91016c21c52c58ac64f23f71bbe75becc9ada603e18ee671d09ff15492d1c160405160405180910390a350505050505050565b60008161391357613913836003614158565b600080600080600080600080600061392a8c61425f565b98509850985098509850985098509850985061394589611ab9565b6139b1578b6000805160206152a9833981519152604051613997906020808252601b908201527f4f6c642061646472657373206973206e6f742061206d656d6265720000000000604082015260600190565b60405180910390a260009950505050505050505050611af6565b6001600160a01b03808a16600081815260096020526040902054918a1614613ba6576139dc89611ab9565b15613a4a578c6000805160206152a9833981519152604051613a2f906020808252601f908201527f6e6577206164647265737320697320616c72656164792061206d656d62657200604082015260600190565b60405180910390a260009a5050505050505050505050611af6565b876001600160a01b0316896001600160a01b031614158015613a7e5750866001600160a01b0316896001600160a01b031614155b15613ac9578c6000805160206152a9833981519152604051613a2f90602080825260159082015274496e76616c696420766f746572206164647265737360581b604082015260600190565b600081815260086020908152604080832080546001600160a01b0319166001600160a01b038e811691821790925584526009909252808320849055908c168252812055613b14611b9e565b821080613b27575081613b25611a41565b105b15613b70578c6000805160206152a9833981519152604051613a2f90602080825260139082015272125b9d985b1a59081b1bd8dac8185b5bdd5b9d606a1b604082015260600190565b81613b7a8a614315565b1015613b9c578c6000805160206152a9833981519152604051613a2f90614eb1565b613ba6898361434f565b6001600160a01b038a166000908152600b6020908152604080832054808452600a8352922088519091613bdd9183918b0190614613565b508651613bf390600183019060208a0190614613565b508551613c099060028301906020890190614613565b508481600301819055504360028190555060006006600085815260200190815260200160002060009054906101000a90046001600160a01b03169050896006600086815260200190815260200160002060006101000a8154816001600160a01b0302191690836001600160a01b0316021790555083600760008c6001600160a01b03166001600160a01b0316815260200190815260200160002081905550600060076000836001600160a01b03166001600160a01b03168152602001908152602001600020819055505060006003600085815260200190815260200160002060009054906101000a90046001600160a01b031690508a6003600086815260200190815260200160002060006101000a8154816001600160a01b0302191690836001600160a01b0316021790555083600460008d6001600160a01b03166001600160a01b0316815260200190815260200160002081905550600060046000836001600160a01b03166001600160a01b0316815260200190815260200160002081905550508a6001600160a01b03168c6001600160a01b031614613e8b578a600c600084815260200190815260200160002060006101000a8154816001600160a01b0302191690836001600160a01b0316021790555081600b60008d6001600160a01b03166001600160a01b03168152602001908152602001600020819055506000600b60008e6001600160a01b03166001600160a01b0316815260200190815260200160002081905550613e3c8c8561439a565b896001600160a01b03168b6001600160a01b03168d6001600160a01b03167f15f4d750630db473a85edd9d47c500527a2648cc5e676f39645e52790cf07be060405160405180910390a4613ecc565b8a6001600160a01b03168c6001600160a01b03167f1feee1b4fcb797c62645da41c5c6edd5f91d4291de0054da625c42b823594c1f60405160405180910390a35b5060019e9d5050505050505050505050505050565b613eec816004614158565b6000613ef6612468565b6001600160a01b0316637efa9ae3836040518263ffffffff1660e01b8152600401613f2391815260200190565b60206040518083038186803b158015613f3b57600080fd5b505afa158015613f4f573d6000803e3d6000fd5b505050506040513d601f19601f82011682018060405250810190613f739190614947565b90506001600160a01b0381161561198a57613f8d81612506565b613f98816000611193565b436002555050565b613fab816005614158565b6000806000613fb8612468565b6001600160a01b0316631d940da2856040518263ffffffff1660e01b8152600401613fe591815260200190565b60006040518083038186803b158015613ffd57600080fd5b505afa158015614011573d6000803e3d6000fd5b505050506040513d6000823e601f3d908101601f191682016040526140399190810190614b83565b92509250925060006140496124ee565b6040516388c2801960e01b81529091506001600160a01b038216906388c280199061407a9087908690600401614dc6565b600060405180830381600087803b15801561409457600080fd5b505af11580156140a8573d6000803e3d6000fd5b50504360025550506040517f701c16c2519cdb79aaac423a84733590e3510d9552055b6ad6908f0ab12b6c29906140e490869086908690614ddf565b60405180910390a15050505050565b6140fc81612e9b565b6040516001600160a01b038216907fbc7cd75a20ee27fd9adebab32041f755214dbc6bffa90cc0225b39da2e5c2d3b90600090a250565b606061246183836040518060600160405280602781526020016152c9602791396144be565b60008061416484612f62565b50915091508282146141ae5760405162461bcd60e51b8152602060048201526013602482015272496e76616c696420766f74696e67207479706560681b6044820152606401610e09565b600281146141f55760405162461bcd60e51b8152602060048201526014602482015273496e76616c696420766f74696e6720737461746560601b6044820152606401610e09565b60008061420186612bc7565b925092505061420f6113ec90565b8210158061421f57506113ec8110155b6124e65760405162461bcd60e51b8152602060048201526011602482015270139bdd081e595d08199a5b985b1a5e9959607a1b6044820152606401610e09565b6000806000806060806060600080614275612468565b6001600160a01b03166373df4e018b6040518263ffffffff1660e01b81526004016142a291815260200190565b60006040518083038186803b1580156142ba57600080fd5b505afa1580156142ce573d6000803e3d6000fd5b505050506040513d6000823e601f3d908101601f191682016040526142f69190810190614964565b9850985098509850985098509850985098509193959799909294969850565b600061431f61302a565b6040516325d998bb60e01b81526001600160a01b03848116600483015291909116906325d998bb90602401612dce565b61435761302a565b60405163282d3fdf60e01b81526001600160a01b03848116600483015260248201849052919091169063282d3fdf906044016124b8565b600061246182846151bb565b60006143a461302a565b604051632c9aab9b60e11b81526001600160a01b03858116600483015291925060009183169063593557369060240160206040518083038186803b1580156143eb57600080fd5b505afa1580156143ff573d6000803e3d6000fd5b505050506040513d601f19601f820116820180604052508101906144239190614b6a565b9050828111156144b4576001600160a01b038216637756c90885614447848761438e565b6040516001600160e01b031960e085901b1681526001600160a01b0390921660048301526024820152604401600060405180830381600087803b15801561448d57600080fd5b505af11580156144a1573d6000803e3d6000fd5b505050506144af848461459b565b612f5c565b612f5c848261459b565b60606001600160a01b0384163b6145265760405162461bcd60e51b815260206004820152602660248201527f416464726573733a2064656c65676174652063616c6c20746f206e6f6e2d636f6044820152651b9d1c9858dd60d21b6064820152608401610e09565b600080856001600160a01b0316856040516145419190614daa565b600060405180830381855af49150503d806000811461457c576040519150601f19603f3d011682016040523d82523d6000602084013e614581565b606091505b50915091506145918282866145da565b9695505050505050565b6145a361302a565b604051637eee288d60e01b81526001600160a01b038481166004830152602482018490529190911690637eee288d906044016124b8565b606083156145e9575081612461565b8251156145f95782518084602001fd5b8160405162461bcd60e51b8152600401610e099190614e52565b82805461461f906151fe565b90600052602060002090601f0160209004810192826146415760008555614687565b82601f1061465a57805160ff1916838001178555614687565b82800160010185558215614687579182015b8281111561468757825182559160200191906001019061466c565b50614693929150614748565b5090565b8280546146a3906151fe565b90600052602060002090601f0160209004810192826146c55760008555614687565b82601f106146d65780548555614687565b8280016001018555821561468757600052602060002091601f016020900482015b828111156146875782548255916001019190600101906146f7565b50805461471e906151fe565b6000825580601f1061472e575050565b601f0160209004906000526020600020908101906111c591905b5b808211156146935760008155600101614749565b803561476881615265565b919050565b805161476881615265565b600082601f83011261478957600080fd5b813561479c6147978261517b565b61514a565b8181528460208386010111156147b157600080fd5b816020850160208301376000918101602001919091529392505050565b600082601f8301126147df57600080fd5b81516147ed6147978261517b565b81815284602083860101111561480257600080fd5b6148138260208301602087016151d2565b949350505050565b6000610140828403121561482e57600080fd5b614836615120565b90506148418261475d565b815261484f6020830161475d565b60208201526148606040830161475d565b6040820152606082013567ffffffffffffffff8082111561488057600080fd5b61488c85838601614778565b606084015260808401359150808211156148a557600080fd5b6148b185838601614778565b608084015260a08401359150808211156148ca57600080fd5b6148d685838601614778565b60a084015260c084013560c084015260e084013560e08401526101009150818401358181111561490557600080fd5b61491186828701614778565b8385015250505061012080830135818301525092915050565b60006020828403121561493c57600080fd5b813561246181615265565b60006020828403121561495957600080fd5b815161246181615265565b60008060008060008060008060006101208a8c03121561498357600080fd5b61498c8a61476d565b985061499a60208b0161476d565b97506149a860408b0161476d565b96506149b660608b0161476d565b955060808a015167ffffffffffffffff808211156149d357600080fd5b6149df8d838e016147ce565b965060a08c01519150808211156149f557600080fd5b614a018d838e016147ce565b955060c08c0151915080821115614a1757600080fd5b50614a248c828d016147ce565b93505060e08a015191506101008a015190509295985092959850929598565b60008060408385031215614a5657600080fd5b8235614a6181615265565b9150602083013567ffffffffffffffff811115614a7d57600080fd5b614a8985828601614778565b9150509250929050565b600080600060608486031215614aa857600080fd5b8335614ab381615265565b9250602084013567ffffffffffffffff811115614acf57600080fd5b614adb86828701614778565b925050604084013590509250925092565b60008060008060808587031215614b0257600080fd5b8435614b0d81615265565b935060208501359250604085013567ffffffffffffffff811115614b3057600080fd5b614b3c87828801614778565b949793965093946060013593505050565b600060208284031215614b5f57600080fd5b81516124618161527a565b600060208284031215614b7c57600080fd5b5051919050565b600080600060608486031215614b9857600080fd5b8351925060208401519150604084015167ffffffffffffffff811115614bbd57600080fd5b614bc9868287016147ce565b9150509250925092565b600080600080600060a08688031215614beb57600080fd5b8535945060208601359350604086013567ffffffffffffffff80821115614c1157600080fd5b614c1d89838a01614778565b94506060880135915080821115614c3357600080fd5b50614c4088828901614778565b95989497509295608001359392505050565b600060208284031215614c6457600080fd5b813567ffffffffffffffff811115614c7b57600080fd5b6148138482850161481b565b60008060408385031215614c9a57600080fd5b823567ffffffffffffffff811115614cb157600080fd5b614cbd8582860161481b565b9250506020830135614cce81615265565b809150509250929050565b600060208284031215614ceb57600080fd5b5035919050565b60008060408385031215614d0557600080fd5b823591506020830135614cce8161527a565b600080600060608486031215614d2c57600080fd5b83519250602084015191506040840151614d458161527a565b809150509250925092565b600080600060608486031215614d6557600080fd5b8351925060208401519150604084015190509250925092565b60008151808452614d968160208601602086016151d2565b601f01601f19169290920160200192915050565b60008251614dbc8184602087016151d2565b9190910192915050565b8281526040602082015260006148136040830184614d7e565b838152826020820152606060408201526000614dfe6060830184614d7e565b95945050505050565b608081526000614e1a6080830187614d7e565b8281036020840152614e2c8187614d7e565b90508281036040840152614e408186614d7e565b91505082606083015295945050505050565b6020815260006124616020830184614d7e565b6020808252602c908201527f46756e6374696f6e206d7573742062652063616c6c6564207468726f7567682060408201526b19195b1959d85d1958d85b1b60a21b606082015260800190565b60208082526027908201527f496e73756666696369656e742062616c616e636520746861742063616e206265604082015266081b1bd8dad95960ca1b606082015260800190565b6020808252602c908201527f46756e6374696f6e206d7573742062652063616c6c6564207468726f7567682060408201526b6163746976652070726f787960a01b606082015260800190565b60208082526029908201527f45524331393637557067726164653a20756e737570706f727465642070726f786040820152681a58589b195555525160ba1b606082015260800190565b6020808252600d908201526c2737902832b936b4b9b9b4b7b760991b604082015260600190565b6020808252602e908201527f45524331393637557067726164653a206e657720696d706c656d656e7461746960408201526d6f6e206973206e6f74205555505360901b606082015260800190565b6020808252818101527f4f776e61626c653a2063616c6c6572206973206e6f7420746865206f776e6572604082015260600190565b8c8152602081018c9052604081018b90526001600160a01b038a81166060830152898116608083015288811660a083015287811660c0830152861660e082015260006101808061010084015261508f81840188614d7e565b90508281036101208401526150a48187614d7e565b90508281036101408401526150b98186614d7e565b915050826101608301529d9c50505050505050505050505050565b87815286602082015285604082015260018060a01b03851660608201528360808201528260a082015260e060c0820152600061511360e0830184614d7e565b9998505050505050505050565b604051610140810167ffffffffffffffff811182821017156151445761514461524f565b60405290565b604051601f8201601f1916810167ffffffffffffffff811182821017156151735761517361524f565b604052919050565b600067ffffffffffffffff8211156151955761519561524f565b50601f01601f191660200190565b600082198211156151b6576151b6615239565b500190565b6000828210156151cd576151cd615239565b500390565b60005b838110156151ed5781810151838201526020016151d5565b83811115612f5c5750506000910152565b600181811c9082168061521257607f821691505b6020821081141561523357634e487b7160e01b600052602260045260246000fd5b50919050565b634e487b7160e01b600052601160045260246000fd5b634e487b7160e01b600052604160045260246000fd5b6001600160a01b03811681146111c557600080fd5b80151581146111c557600080fdfe360894a13ba1a3210667c828492db98dca3e2076cc3735a920a3ca505d382bbc85e7f4987c0698db47045ad8cea110b51138f0eecbd94915842328cf6c3dc97d416464726573733a206c6f772d6c6576656c2064656c65676174652063616c6c206661696c6564a264697066735822122037dd7378a2fb5f7fce9418d638a8f34e082e01305e98f31d2b8c3a98e03fe2be64736f6c63430008060033",
  "linkReferences": {},
  "deployedLinkReferences": {}
}