{
  "contractName": "Registry",
  "abi": [
    {
      "constant": true,
      "inputs": [],
      "name": "magic",
      "outputs": [
        {
          "name": "",
          "type": "uint256"
        }
      ],
      "payable": false,
      "stateMutability": "view",
      "type": "function"
    },
    {
      "constant": true,
      "inputs": [
        {
          "name": "",
          "type": "bytes32"
        },
        {
          "name": "",
          "type": "address"
        }
      ],
      "name": "permissions",
      "outputs": [
        {
          "name": "",
          "type": "bool"
        }
      ],
      "payable": false,
      "stateMutability": "view",
      "type": "function"
    },
    {
      "constant": false,
      "inputs": [],
      "name": "renounceOwnership",
      "outputs": [],
      "payable": false,
      "stateMutability": "nonpayable",
      "type": "function"
    },
    {
      "constant": true,
      "inputs": [],
      "name": "modifiedBlock",
      "outputs": [
        {
          "name": "",
          "type": "uint256"
        }
      ],
      "payable": false,
      "stateMutability": "view",
      "type": "function"
    },
    {
      "constant": true,
      "inputs": [],
      "name": "owner",
      "outputs": [
        {
          "name": "",
          "type": "address"
        }
      ],
      "payable": false,
      "stateMutability": "view",
      "type": "function"
    },
    {
      "constant": true,
      "inputs": [],
      "name": "isOwner",
      "outputs": [
        {
          "name": "",
          "type": "bool"
        }
      ],
      "payable": false,
      "stateMutability": "view",
      "type": "function"
    },
    {
      "constant": true,
      "inputs": [
        {
          "name": "",
          "type": "bytes32"
        }
      ],
      "name": "contracts",
      "outputs": [
        {
          "name": "",
          "type": "address"
        }
      ],
      "payable": false,
      "stateMutability": "view",
      "type": "function"
    },
    {
      "constant": false,
      "inputs": [
        {
          "name": "newOwner",
          "type": "address"
        }
      ],
      "name": "transferOwnership",
      "outputs": [],
      "payable": false,
      "stateMutability": "nonpayable",
      "type": "function"
    },
    {
      "anonymous": false,
      "inputs": [
        {
          "indexed": false,
          "name": "setter",
          "type": "address"
        },
        {
          "indexed": true,
          "name": "name",
          "type": "bytes32"
        },
        {
          "indexed": true,
          "name": "addr",
          "type": "address"
        }
      ],
      "name": "SetContractDomain",
      "type": "event"
    },
    {
      "anonymous": false,
      "inputs": [
        {
          "indexed": true,
          "name": "_contract",
          "type": "bytes32"
        },
        {
          "indexed": true,
          "name": "granted",
          "type": "address"
        },
        {
          "indexed": false,
          "name": "status",
          "type": "bool"
        }
      ],
      "name": "SetPermission",
      "type": "event"
    },
    {
      "anonymous": false,
      "inputs": [
        {
          "indexed": true,
          "name": "previousOwner",
          "type": "address"
        },
        {
          "indexed": true,
          "name": "newOwner",
          "type": "address"
        }
      ],
      "name": "OwnershipTransferred",
      "type": "event"
    },
    {
      "constant": false,
      "inputs": [
        {
          "name": "_name",
          "type": "bytes32"
        },
        {
          "name": "_addr",
          "type": "address"
        }
      ],
      "name": "setContractDomain",
      "outputs": [
        {
          "name": "success",
          "type": "bool"
        }
      ],
      "payable": false,
      "stateMutability": "nonpayable",
      "type": "function"
    },
    {
      "constant": true,
      "inputs": [
        {
          "name": "_name",
          "type": "bytes32"
        }
      ],
      "name": "getContractAddress",
      "outputs": [
        {
          "name": "addr",
          "type": "address"
        }
      ],
      "payable": false,
      "stateMutability": "view",
      "type": "function"
    },
    {
      "constant": false,
      "inputs": [
        {
          "name": "_contract",
          "type": "bytes32"
        },
        {
          "name": "_granted",
          "type": "address"
        },
        {
          "name": "_status",
          "type": "bool"
        }
      ],
      "name": "setPermission",
      "outputs": [
        {
          "name": "success",
          "type": "bool"
        }
      ],
      "payable": false,
      "stateMutability": "nonpayable",
      "type": "function"
    },
    {
      "constant": true,
      "inputs": [
        {
          "name": "_contract",
          "type": "bytes32"
        },
        {
          "name": "_granted",
          "type": "address"
        }
      ],
      "name": "getPermission",
      "outputs": [
        {
          "name": "found",
          "type": "bool"
        }
      ],
      "payable": false,
      "stateMutability": "view",
      "type": "function"
    }
  ],
  "bytecode": "0x6080604052704d6574616469756d205265676973747279600155336000806101000a81548173ffffffffffffffffffffffffffffffffffffffff021916908373ffffffffffffffffffffffffffffffffffffffff1602179055506000809054906101000a900473ffffffffffffffffffffffffffffffffffffffff1673ffffffffffffffffffffffffffffffffffffffff16600073ffffffffffffffffffffffffffffffffffffffff167f8be0079c531659141344cd1fd0a4f28419497f9722a3daafe3b4186f6b6457e060405160405180910390a3610c57806100e46000396000f3006080604052600436106100ba576000357c0100000000000000000000000000000000000000000000000000000000900463ffffffff16806304af66ad146100bf5780630d2020dd146101285780630d854646146101995780633ec50c6c146101c4578063599e4c701461022d57806360d6c7cf146102a2578063715018a61461030b5780637d10dd1b146103225780638da5cb5b1461034d5780638f32d59b146103a4578063ec56a373146103d3578063f2fde38b14610444575b600080fd5b3480156100cb57600080fd5b5061010e6004803603810190808035600019169060200190929190803573ffffffffffffffffffffffffffffffffffffffff169060200190929190505050610487565b604051808215151515815260200191505060405180910390f35b34801561013457600080fd5b50610157600480360381019080803560001916906020019092919050505061062b565b604051808273ffffffffffffffffffffffffffffffffffffffff1673ffffffffffffffffffffffffffffffffffffffff16815260200191505060405180910390f35b3480156101a557600080fd5b506101ae61074f565b6040518082815260200191505060405180910390f35b3480156101d057600080fd5b506102136004803603810190808035600019169060200190929190803573ffffffffffffffffffffffffffffffffffffffff169060200190929190505050610755565b604051808215151515815260200191505060405180910390f35b34801561023957600080fd5b506102886004803603810190808035600019169060200190929190803573ffffffffffffffffffffffffffffffffffffffff169060200190929190803515159060200190929190505050610784565b604051808215151515815260200191505060405180910390f35b3480156102ae57600080fd5b506102f16004803603810190808035600019169060200190929190803573ffffffffffffffffffffffffffffffffffffffff169060200190929190505050610917565b604051808215151515815260200191505060405180910390f35b34801561031757600080fd5b50610320610987565b005b34801561032e57600080fd5b50610337610a59565b6040518082815260200191505060405180910390f35b34801561035957600080fd5b50610362610a5f565b604051808273ffffffffffffffffffffffffffffffffffffffff1673ffffffffffffffffffffffffffffffffffffffff16815260200191505060405180910390f35b3480156103b057600080fd5b506103b9610a88565b604051808215151515815260200191505060405180910390f35b3480156103df57600080fd5b506104026004803603810190808035600019169060200190929190505050610adf565b604051808273ffffffffffffffffffffffffffffffffffffffff1673ffffffffffffffffffffffffffffffffffffffff16815260200191505060405180910390f35b34801561045057600080fd5b50610485600480360381019080803573ffffffffffffffffffffffffffffffffffffffff169060200190929190505050610b12565b005b6000610491610a88565b151561049c57600080fd5b600073ffffffffffffffffffffffffffffffffffffffff168273ffffffffffffffffffffffffffffffffffffffff1614151515610541576040517f08c379a000000000000000000000000000000000000000000000000000000000815260040180806020018281038252601a8152602001807f616464726573732073686f756c64206265206e6f6e2d7a65726f00000000000081525060200191505060405180910390fd5b8160036000856000191660001916815260200190815260200160002060006101000a81548173ffffffffffffffffffffffffffffffffffffffff021916908373ffffffffffffffffffffffffffffffffffffffff160217905550436002819055508173ffffffffffffffffffffffffffffffffffffffff1683600019167f37724a4a9968ac9654e6ee52f3d0c93e5ef8863e057254ee2e36e8ad3e8429db33604051808273ffffffffffffffffffffffffffffffffffffffff1673ffffffffffffffffffffffffffffffffffffffff16815260200191505060405180910390a36001905092915050565b60008073ffffffffffffffffffffffffffffffffffffffff1660036000846000191660001916815260200190815260200160002060009054906101000a900473ffffffffffffffffffffffffffffffffffffffff1673ffffffffffffffffffffffffffffffffffffffff161415151561070c576040517f08c379a000000000000000000000000000000000000000000000000000000000815260040180806020018281038252601a8152602001807f616464726573732073686f756c64206265206e6f6e2d7a65726f00000000000081525060200191505060405180910390fd5b60036000836000191660001916815260200190815260200160002060009054906101000a900473ffffffffffffffffffffffffffffffffffffffff169050919050565b60015481565b60046020528160005260406000206020528060005260406000206000915091509054906101000a900460ff1681565b600061078e610a88565b151561079957600080fd5b600073ffffffffffffffffffffffffffffffffffffffff168373ffffffffffffffffffffffffffffffffffffffff161415151561083e576040517f08c379a000000000000000000000000000000000000000000000000000000000815260040180806020018281038252601a8152602001807f616464726573732073686f756c64206265206e6f6e2d7a65726f00000000000081525060200191505060405180910390fd5b8160046000866000191660001916815260200190815260200160002060008573ffffffffffffffffffffffffffffffffffffffff1673ffffffffffffffffffffffffffffffffffffffff16815260200190815260200160002060006101000a81548160ff021916908315150217905550436002819055508273ffffffffffffffffffffffffffffffffffffffff1684600019167fe9f5231bbfb4b32867755b94562215cff6c8998489de8ba20926f8d0980e781884604051808215151515815260200191505060405180910390a3600190509392505050565b600060046000846000191660001916815260200190815260200160002060008373ffffffffffffffffffffffffffffffffffffffff1673ffffffffffffffffffffffffffffffffffffffff16815260200190815260200160002060009054906101000a900460ff16905092915050565b61098f610a88565b151561099a57600080fd5b600073ffffffffffffffffffffffffffffffffffffffff166000809054906101000a900473ffffffffffffffffffffffffffffffffffffffff1673ffffffffffffffffffffffffffffffffffffffff167f8be0079c531659141344cd1fd0a4f28419497f9722a3daafe3b4186f6b6457e060405160405180910390a360008060006101000a81548173ffffffffffffffffffffffffffffffffffffffff021916908373ffffffffffffffffffffffffffffffffffffffff160217905550565b60025481565b60008060009054906101000a900473ffffffffffffffffffffffffffffffffffffffff16905090565b60008060009054906101000a900473ffffffffffffffffffffffffffffffffffffffff1673ffffffffffffffffffffffffffffffffffffffff163373ffffffffffffffffffffffffffffffffffffffff1614905090565b60036020528060005260406000206000915054906101000a900473ffffffffffffffffffffffffffffffffffffffff1681565b610b1a610a88565b1515610b2557600080fd5b610b2e81610b31565b50565b600073ffffffffffffffffffffffffffffffffffffffff168173ffffffffffffffffffffffffffffffffffffffff1614151515610b6d57600080fd5b8073ffffffffffffffffffffffffffffffffffffffff166000809054906101000a900473ffffffffffffffffffffffffffffffffffffffff1673ffffffffffffffffffffffffffffffffffffffff167f8be0079c531659141344cd1fd0a4f28419497f9722a3daafe3b4186f6b6457e060405160405180910390a3806000806101000a81548173ffffffffffffffffffffffffffffffffffffffff021916908373ffffffffffffffffffffffffffffffffffffffff160217905550505600a165627a7a72305820a4865410cb846dad8d2f36cb3c4f37461e872ec0928886acc0e7d277fb66fcc60029",
  "source": "pragma solidity ^0.4.24;\n\nimport \"openzeppelin-solidity/contracts/ownership/Ownable.sol\";\n\n\n/**\n * @title Registry\n * @dev Registry Contract used to set domain and permission\n * The contracts used by the permissioned user in ShowMe references permission in this contract.\n * Not only contract address but also general address can be set in this contract.\n * Owner should set domain and permission.\n */\ncontract Registry is Ownable {\n    // \"Metadium Registry\"\n    uint public magic = 0x4d6574616469756d205265676973747279;\n    uint public modifiedBlock;\n\n    mapping(bytes32=>address) public contracts;\n    mapping(bytes32=>mapping(address=>bool)) public permissions;\n\n    event SetContractDomain(address setter, bytes32 indexed name, address indexed addr);\n    event SetPermission(bytes32 indexed _contract, address indexed granted, bool status);\n\n    /**\n    * @dev Function to set contract(can be general address) domain\n    * Only owner can use this function\n    * @param _name name\n    * @param _addr address\n    * @return A boolean that indicates if the operation was successful.\n    */\n    function setContractDomain(bytes32 _name, address _addr) public onlyOwner returns (bool success) {\n        require(_addr != address(0x0), \"address should be non-zero\");\n        contracts[_name] = _addr;\n        modifiedBlock = block.number;\n        emit SetContractDomain(msg.sender, _name, _addr);\n\n        return true;\n    }\n\n    /**\n    * @dev Function to get contract(can be general address) address\n    * Anyone can use this function\n    * @param _name _name\n    * @return An address of the _name\n    */\n    function getContractAddress(bytes32 _name) public view returns (address addr) {\n        require(contracts[_name] != address(0x0), \"address should be non-zero\");\n        return contracts[_name];\n    }\n    \n    /**\n    * @dev Function to set permission on contract\n    * contract using modifier 'permissioned' references mapping variable 'permissions'\n    * Only owner can use this function\n    * @param _contract contract name\n    * @param _granted granted address\n    * @param _status true = can use, false = cannot use. default is false\n    * @return A boolean that indicates if the operation was successful.\n    */\n    function setPermission(bytes32 _contract, address _granted, bool _status) public onlyOwner returns (bool success) {\n        require(_granted != address(0x0), \"address should be non-zero\");\n        permissions[_contract][_granted] = _status;\n        modifiedBlock = block.number;\n        emit SetPermission(_contract, _granted, _status);\n        \n        return true;\n    }\n\n    /**\n    * @dev Function to get permission on contract\n    * contract using modifier 'permissioned' references mapping variable 'permissions'\n    * @param _contract contract name\n    * @param _granted granted address\n    * @return permission result\n    */\n    function getPermission(bytes32 _contract, address _granted) public view returns (bool found) {\n        return permissions[_contract][_granted];\n    }\n    \n}\n",
  "sourcePath": "/Users/ywshin/Documents/WS/truffle/governance-contract-blueisle/contracts/Registry.sol",
  "compiler": {
    "name": "solc",
    "version": "0.4.24+commit.e67f0147.Emscripten.clang"
  },
  "schemaVersion": "2.0.1",
  "updatedAt": "2019-03-13T10:51:18.598Z"
}