{
  "_format": "hh-sol-artifact-1",
  "contractName": "Staking",
  "sourceName": "contracts/Staking.sol",
  "abi": [
    {
      "inputs": [
        {
          "internalType": "address",
          "name": "registry",
          "type": "address"
        }
      ],
      "stateMutability": "nonpayable",
      "type": "constructor"
    },
    {
      "anonymous": false,
      "inputs": [
        {
          "indexed": true,
          "internalType": "address",
          "name": "payee",
          "type": "address"
        },
        {
          "indexed": false,
          "internalType": "uint256",
          "name": "amount",
          "type": "uint256"
        },
        {
          "indexed": false,
          "internalType": "uint256",
          "name": "total",
          "type": "uint256"
        },
        {
          "indexed": false,
          "internalType": "uint256",
          "name": "available",
          "type": "uint256"
        }
      ],
      "name": "Locked",
      "type": "event"
    },
    {
      "anonymous": false,
      "inputs": [
        {
          "indexed": true,
          "internalType": "address",
          "name": "previousOwner",
          "type": "address"
        },
        {
          "indexed": true,
          "internalType": "address",
          "name": "newOwner",
          "type": "address"
        }
      ],
      "name": "OwnershipTransferred",
      "type": "event"
    },
    {
      "anonymous": false,
      "inputs": [
        {
          "indexed": true,
          "internalType": "address",
          "name": "owner",
          "type": "address"
        },
        {
          "indexed": false,
          "internalType": "uint256",
          "name": "amount",
          "type": "uint256"
        }
      ],
      "name": "Revoked",
      "type": "event"
    },
    {
      "anonymous": false,
      "inputs": [
        {
          "indexed": true,
          "internalType": "address",
          "name": "payee",
          "type": "address"
        },
        {
          "indexed": false,
          "internalType": "uint256",
          "name": "amount",
          "type": "uint256"
        },
        {
          "indexed": false,
          "internalType": "uint256",
          "name": "total",
          "type": "uint256"
        },
        {
          "indexed": false,
          "internalType": "uint256",
          "name": "available",
          "type": "uint256"
        }
      ],
      "name": "Staked",
      "type": "event"
    },
    {
      "anonymous": false,
      "inputs": [
        {
          "indexed": true,
          "internalType": "address",
          "name": "payee",
          "type": "address"
        },
        {
          "indexed": false,
          "internalType": "uint256",
          "name": "amount",
          "type": "uint256"
        },
        {
          "indexed": false,
          "internalType": "uint256",
          "name": "total",
          "type": "uint256"
        },
        {
          "indexed": false,
          "internalType": "uint256",
          "name": "available",
          "type": "uint256"
        }
      ],
      "name": "TransferLocked",
      "type": "event"
    },
    {
      "anonymous": false,
      "inputs": [
        {
          "indexed": true,
          "internalType": "address",
          "name": "payee",
          "type": "address"
        },
        {
          "indexed": false,
          "internalType": "uint256",
          "name": "amount",
          "type": "uint256"
        },
        {
          "indexed": false,
          "internalType": "uint256",
          "name": "total",
          "type": "uint256"
        },
        {
          "indexed": false,
          "internalType": "uint256",
          "name": "available",
          "type": "uint256"
        }
      ],
      "name": "Unlocked",
      "type": "event"
    },
    {
      "anonymous": false,
      "inputs": [
        {
          "indexed": true,
          "internalType": "address",
          "name": "payee",
          "type": "address"
        },
        {
          "indexed": false,
          "internalType": "uint256",
          "name": "amount",
          "type": "uint256"
        },
        {
          "indexed": false,
          "internalType": "uint256",
          "name": "total",
          "type": "uint256"
        },
        {
          "indexed": false,
          "internalType": "uint256",
          "name": "available",
          "type": "uint256"
        }
      ],
      "name": "Unstaked",
      "type": "event"
    },
    {
      "inputs": [],
      "name": "BALLOT_STORAGE_NAME",
      "outputs": [
        {
          "internalType": "bytes32",
          "name": "",
          "type": "bytes32"
        }
      ],
      "stateMutability": "view",
      "type": "function"
    },
    {
      "inputs": [],
      "name": "ENV_STORAGE_NAME",
      "outputs": [
        {
          "internalType": "bytes32",
          "name": "",
          "type": "bytes32"
        }
      ],
      "stateMutability": "view",
      "type": "function"
    },
    {
      "inputs": [],
      "name": "GOV_NAME",
      "outputs": [
        {
          "internalType": "bytes32",
          "name": "",
          "type": "bytes32"
        }
      ],
      "stateMutability": "view",
      "type": "function"
    },
    {
      "inputs": [],
      "name": "MAINTENANCE_NAME",
      "outputs": [
        {
          "internalType": "bytes32",
          "name": "",
          "type": "bytes32"
        }
      ],
      "stateMutability": "view",
      "type": "function"
    },
    {
      "inputs": [],
      "name": "REWARD_POOL_NAME",
      "outputs": [
        {
          "internalType": "bytes32",
          "name": "",
          "type": "bytes32"
        }
      ],
      "stateMutability": "view",
      "type": "function"
    },
    {
      "inputs": [],
      "name": "STAKING_NAME",
      "outputs": [
        {
          "internalType": "bytes32",
          "name": "",
          "type": "bytes32"
        }
      ],
      "stateMutability": "view",
      "type": "function"
    },
    {
      "inputs": [
        {
          "internalType": "address",
          "name": "voter",
          "type": "address"
        }
      ],
      "name": "addDeposit",
      "outputs": [],
      "stateMutability": "payable",
      "type": "function"
    },
    {
      "inputs": [
        {
          "internalType": "address",
          "name": "payee",
          "type": "address"
        }
      ],
      "name": "availableBalanceOf",
      "outputs": [
        {
          "internalType": "uint256",
          "name": "",
          "type": "uint256"
        }
      ],
      "stateMutability": "view",
      "type": "function"
    },
    {
      "inputs": [
        {
          "internalType": "address",
          "name": "payee",
          "type": "address"
        }
      ],
      "name": "balanceOf",
      "outputs": [
        {
          "internalType": "uint256",
          "name": "",
          "type": "uint256"
        }
      ],
      "stateMutability": "view",
      "type": "function"
    },
    {
      "inputs": [
        {
          "internalType": "address",
          "name": "payee",
          "type": "address"
        }
      ],
      "name": "calcVotingWeight",
      "outputs": [
        {
          "internalType": "uint256",
          "name": "",
          "type": "uint256"
        }
      ],
      "stateMutability": "view",
      "type": "function"
    },
    {
      "inputs": [
        {
          "internalType": "address",
          "name": "payee",
          "type": "address"
        },
        {
          "internalType": "uint32",
          "name": "factor",
          "type": "uint32"
        }
      ],
      "name": "calcVotingWeightWithScaleFactor",
      "outputs": [
        {
          "internalType": "uint256",
          "name": "",
          "type": "uint256"
        }
      ],
      "stateMutability": "view",
      "type": "function"
    },
    {
      "inputs": [],
      "name": "deposit",
      "outputs": [],
      "stateMutability": "payable",
      "type": "function"
    },
    {
      "inputs": [],
      "name": "isRevoked",
      "outputs": [
        {
          "internalType": "bool",
          "name": "",
          "type": "bool"
        }
      ],
      "stateMutability": "view",
      "type": "function"
    },
    {
      "inputs": [
        {
          "internalType": "address",
          "name": "payee",
          "type": "address"
        },
        {
          "internalType": "uint256",
          "name": "lockAmount",
          "type": "uint256"
        }
      ],
      "name": "lock",
      "outputs": [],
      "stateMutability": "nonpayable",
      "type": "function"
    },
    {
      "inputs": [
        {
          "internalType": "address",
          "name": "payee",
          "type": "address"
        }
      ],
      "name": "lockedBalanceOf",
      "outputs": [
        {
          "internalType": "uint256",
          "name": "",
          "type": "uint256"
        }
      ],
      "stateMutability": "view",
      "type": "function"
    },
    {
      "inputs": [],
      "name": "owner",
      "outputs": [
        {
          "internalType": "address",
          "name": "",
          "type": "address"
        }
      ],
      "stateMutability": "view",
      "type": "function"
    },
    {
      "inputs": [],
      "name": "reg",
      "outputs": [
        {
          "internalType": "contract IRegistry",
          "name": "",
          "type": "address"
        }
      ],
      "stateMutability": "view",
      "type": "function"
    },
    {
      "inputs": [],
      "name": "renounceOwnership",
      "outputs": [],
      "stateMutability": "nonpayable",
      "type": "function"
    },
    {
      "inputs": [],
      "name": "revoke",
      "outputs": [],
      "stateMutability": "nonpayable",
      "type": "function"
    },
    {
      "inputs": [
        {
          "internalType": "address",
          "name": "_addr",
          "type": "address"
        }
      ],
      "name": "setRegistry",
      "outputs": [],
      "stateMutability": "nonpayable",
      "type": "function"
    },
    {
      "inputs": [
        {
          "internalType": "address",
          "name": "from",
          "type": "address"
        },
        {
          "internalType": "uint256",
          "name": "amount",
          "type": "uint256"
        }
      ],
      "name": "transferLocked",
      "outputs": [],
      "stateMutability": "nonpayable",
      "type": "function"
    },
    {
      "inputs": [
        {
          "internalType": "address",
          "name": "newOwner",
          "type": "address"
        }
      ],
      "name": "transferOwnership",
      "outputs": [],
      "stateMutability": "nonpayable",
      "type": "function"
    },
    {
      "inputs": [
        {
          "internalType": "address",
          "name": "payee",
          "type": "address"
        },
        {
          "internalType": "uint256",
          "name": "unlockAmount",
          "type": "uint256"
        }
      ],
      "name": "unlock",
      "outputs": [],
      "stateMutability": "nonpayable",
      "type": "function"
    },
    {
      "inputs": [
        {
          "internalType": "uint256",
          "name": "amount",
          "type": "uint256"
        }
      ],
      "name": "withdraw",
      "outputs": [],
      "stateMutability": "nonpayable",
      "type": "function"
    },
    {
      "stateMutability": "payable",
      "type": "receive"
    }
  ],
  "bytecode": "0x60806040526006805460ff191690553480156200001b57600080fd5b5060405162001633380380620016338339810160408190526200003e916200018f565b620000493362000065565b600160025560006005556200005e81620000b5565b50620001c1565b600080546001600160a01b038381166001600160a01b0319831681178455604051919092169283917f8be0079c531659141344cd1fd0a4f28419497f9722a3daafe3b4186f6b6457e09190a35050565b6000546001600160a01b03163314620001155760405162461bcd60e51b815260206004820181905260248201527f4f776e61626c653a2063616c6c6572206973206e6f7420746865206f776e657260448201526064015b60405180910390fd5b6001600160a01b0381166200016d5760405162461bcd60e51b815260206004820152601a60248201527f416464726573732073686f756c64206265206e6f6e2d7a65726f00000000000060448201526064016200010c565b600180546001600160a01b0319166001600160a01b0392909216919091179055565b600060208284031215620001a257600080fd5b81516001600160a01b0381168114620001ba57600080fd5b9392505050565b61146280620001d16000396000f3fe60806040526004361061014f5760003560e01c80637756c908116100b65780639986e4b91161006f5780639986e4b9146103f8578063a91ee0dc1461041c578063b6549f751461043c578063d0e30db014610451578063dea0289214610459578063f2fde38b1461046c57600080fd5b80637756c908146103395780637bf46530146103595780637d77a0eb1461037a5780637eee288d1461039a578063884d97a7146103ba5780638da5cb5b146103da57600080fd5b80634bd1ed76116101085780634bd1ed761461023557806359355736146102575780636c78d2cf1461028d57806370a08231146102b6578063715018a6146102ec578063738fdd1a1461030157600080fd5b80631e0cba0d1461015e57806325d998bb1461018f578063282d3fdf146101af5780632bc9ed02146101d15780632e1a7d4d146101f45780632f40992e1461021457600080fd5b3661015957600080fd5b600080fd5b34801561016a57600080fd5b5061017c665374616b696e6760c81b81565b6040519081526020015b60405180910390f35b34801561019b57600080fd5b5061017c6101aa3660046111de565b61048c565b3480156101bb57600080fd5b506101cf6101ca366004611218565b6104bf565b005b3480156101dd57600080fd5b5060065460ff166040519015158152602001610186565b34801561020057600080fd5b506101cf61020f3660046112a8565b610505565b34801561022057600080fd5b5061017c6914995dd85c99141bdbdb60b21b81565b34801561024157600080fd5b5061017c6a4d61696e74656e616e636560a81b81565b34801561026357600080fd5b5061017c6102723660046111de565b6001600160a01b031660009081526004602052604090205490565b34801561029957600080fd5b5061017c7111dbdd995c9b985b98d950dbdb9d1c9858dd60721b81565b3480156102c257600080fd5b5061017c6102d13660046111de565b6001600160a01b031660009081526003602052604090205490565b3480156102f857600080fd5b506101cf6106d9565b34801561030d57600080fd5b50600154610321906001600160a01b031681565b6040516001600160a01b039091168152602001610186565b34801561034557600080fd5b506101cf610354366004611218565b61070f565b34801561036557600080fd5b5061017c69456e7653746f7261676560b01b81565b34801561038657600080fd5b5061017c610395366004611244565b610836565b3480156103a657600080fd5b506101cf6103b5366004611218565b6108ad565b3480156103c657600080fd5b5061017c6103d53660046111de565b61099a565b3480156103e657600080fd5b506000546001600160a01b0316610321565b34801561040457600080fd5b5061017c6c42616c6c6f7453746f7261676560981b81565b34801561042857600080fd5b506101cf6104373660046111de565b6109a7565b34801561044857600080fd5b506101cf610a49565b6101cf610b2e565b6101cf6104673660046111de565b610d83565b34801561047857600080fd5b506101cf6104873660046111de565b610e71565b6001600160a01b03811660009081526004602090815260408083205460039092528220546104b991610f0c565b92915050565b336104c8610f18565b6001600160a01b0316146104f75760405162461bcd60e51b81526004016104ee906112da565b60405180910390fd5b6105018282610f3d565b5050565b6002805414156105275760405162461bcd60e51b81526004016104ee9061135a565b6002805560065460ff161561054e5760405162461bcd60e51b81526004016104ee90611336565b600081116105a85760405162461bcd60e51b815260206004820152602160248201527f416d6f756e742073686f756c6420626520626967676572207468616e207a65726044820152606f60f81b60648201526084016104ee565b6105b13361048c565b81111561061d5760405162461bcd60e51b815260206004820152603460248201527f576974686472617720616d6f756e742073686f756c6420626520657175616c206044820152736f72206c657373207468616e2062616c616e636560601b60648201526084016104ee565b336000908152600360205260409020546106379082610f0c565b33600081815260036020526040808220939093559151909183156108fc02918491818181858888f19350505050158015610675573d6000803e3d6000fd5b50336000818152600360205260409020547f204fccf0d92ed8d48f204adb39b2e81e92bad0dedb93f5716ca9478cfb57de009083906106b38461048c565b6040805193845260208401929092529082015260600160405180910390a2506001600255565b6000546001600160a01b031633146107035760405162461bcd60e51b81526004016104ee90611301565b61070d60006110c1565b565b33610718610f18565b6001600160a01b03161461073e5760405162461bcd60e51b81526004016104ee906112da565b80610747575050565b61075182826108ad565b6001600160a01b0382166000908152600360205260409020546107749082610f0c565b6001600160a01b038316600090815260036020526040812091909155610798611111565b6001600160a01b0381166000908152600360205260409020549091506107be9083611129565b6001600160a01b0380831660009081526003602052604080822093909355908516808252919020547f2caed32a519a1fd89486d3ffe06202febb5ed51534d571dbab93058545a29e249084906108138761048c565b6040805193845260208401929092529082015260600160405180910390a2505050565b6001600160a01b038216600090815260046020526040812054158061085f575063ffffffff8216155b1561086c575060006104b9565b6005546001600160a01b0384166000908152600460205260409020546108a691906108a09063ffffffff8087169061113516565b90611141565b9392505050565b336108b6610f18565b6001600160a01b0316146108dc5760405162461bcd60e51b81526004016104ee906112da565b806108e5575050565b6001600160a01b0382166000908152600460205260409020546109089082610f0c565b6001600160a01b03831660009081526004602052604090205560055461092e9082610f0c565b6005556001600160a01b0382166000818152600360205260409020547f5245d528087a96a64f4589a764f00061e4671eab90cb1e019b1a5b24b2e4c2a89083906109778661048c565b604080519384526020840192909252908201526060015b60405180910390a25050565b60006104b9826064610836565b6000546001600160a01b031633146109d15760405162461bcd60e51b81526004016104ee90611301565b6001600160a01b038116610a275760405162461bcd60e51b815260206004820152601a60248201527f416464726573732073686f756c64206265206e6f6e2d7a65726f00000000000060448201526064016104ee565b600180546001600160a01b0319166001600160a01b0392909216919091179055565b6000546001600160a01b03163314610a735760405162461bcd60e51b81526004016104ee90611301565b60065460ff1615610a965760405162461bcd60e51b81526004016104ee90611336565b6000546001600160a01b03164780610aad57600080fd5b6040516001600160a01b0383169082156108fc029083906000818181858888f19350505050158015610ae3573d6000803e3d6000fd5b506006805460ff191660011790556040516001600160a01b038316907f713b90881ad62c4fa8ab6bd9197fa86481fc0c11b2edba60026514281b2dbac49061098e9084815260200190565b600280541415610b505760405162461bcd60e51b81526004016104ee9061135a565b6002805560065460ff1615610b775760405162461bcd60e51b81526004016104ee90611336565b60003411610bda5760405162461bcd60e51b815260206004820152602a60248201527f4465706f73697420616d6f756e742073686f756c642062652067726561746572604482015269207468616e207a65726f60b01b60648201526084016104ee565b33600090815260036020526040902054610bf49034611129565b33600090815260036020526040902055610c0c610f18565b60405163288c314960e21b81523360048201526001600160a01b03919091169063a230c5249060240160206040518083038186803b158015610c4d57600080fd5b505afa158015610c61573d6000803e3d6000fd5b505050506040513d601f19601f82011682018060405250810190610c859190611286565b15610d21576000610c9461114d565b6001600160a01b031663076cd77f6040518163ffffffff1660e01b815260040160206040518083038186803b158015610ccc57600080fd5b505afa158015610ce0573d6000803e3d6000fd5b505050506040513d601f19601f82011682018060405250810190610d0491906112c1565b905080610d103361048c565b10610d1f57610d1f3382610f3d565b505b336000818152600360205260409020547fb4caaf29adda3eefee3ad552a8e85058589bf834c7466cae4ee58787f70589ed903490610d5e8461048c565b6040805193845260208401929092529082015260600160405180910390a26001600255565b600280541415610da55760405162461bcd60e51b81526004016104ee9061135a565b6002805560065460ff1615610dcc5760405162461bcd60e51b81526004016104ee90611336565b610dd4610f18565b60405163288c314960e21b81523360048201526001600160a01b03919091169063a230c5249060240160206040518083038186803b158015610e1557600080fd5b505afa158015610e29573d6000803e3d6000fd5b505050506040513d601f19601f82011682018060405250810190610e4d9190611286565b610e695760405162461bcd60e51b81526004016104ee906112da565b506001600255565b6000546001600160a01b03163314610e9b5760405162461bcd60e51b81526004016104ee90611301565b6001600160a01b038116610f005760405162461bcd60e51b815260206004820152602660248201527f4f776e61626c653a206e6577206f776e657220697320746865207a65726f206160448201526564647265737360d01b60648201526084016104ee565b610f09816110c1565b50565b60006108a682846113ea565b6000610f387111dbdd995c9b985b98d950dbdb9d1c9858dd60721b611161565b905090565b80610f46575050565b6001600160a01b038216600090815260036020526040902054811115610fc75760405162461bcd60e51b815260206004820152603060248201527f4c6f636b20616d6f756e742073686f756c6420626520657175616c206f72206c60448201526f657373207468616e2062616c616e636560801b60648201526084016104ee565b80610fd18361048c565b101561102f5760405162461bcd60e51b815260206004820152602760248201527f496e73756666696369656e742062616c616e636520746861742063616e206265604482015266081b1bd8dad95960ca1b60648201526084016104ee565b6001600160a01b0382166000908152600460205260409020546110529082611129565b6001600160a01b0383166000908152600460205260409020556005546110789082611129565b6005556001600160a01b0382166000818152600360205260409020547f44cebfefa4561bee5b61d675ccfd8dc9969fff9cc15e7a4eccccd62af94f9c119083906109778661048c565b600080546001600160a01b038381166001600160a01b0319831681178455604051919092169283917f8be0079c531659141344cd1fd0a4f28419497f9722a3daafe3b4186f6b6457e09190a35050565b6000610f386914995dd85c99141bdbdb60b21b611161565b60006108a68284611391565b60006108a682846113cb565b60006108a682846113a9565b6000610f3869456e7653746f7261676560b01b5b600154604051630d2020dd60e01b8152600481018390526000916001600160a01b031690630d2020dd9060240160206040518083038186803b1580156111a657600080fd5b505afa1580156111ba573d6000803e3d6000fd5b505050506040513d601f19601f820116820180604052508101906104b991906111fb565b6000602082840312156111f057600080fd5b81356108a681611417565b60006020828403121561120d57600080fd5b81516108a681611417565b6000806040838503121561122b57600080fd5b823561123681611417565b946020939093013593505050565b6000806040838503121561125757600080fd5b823561126281611417565b9150602083013563ffffffff8116811461127b57600080fd5b809150509250929050565b60006020828403121561129857600080fd5b815180151581146108a657600080fd5b6000602082840312156112ba57600080fd5b5035919050565b6000602082840312156112d357600080fd5b5051919050565b6020808252600d908201526c2737902832b936b4b9b9b4b7b760991b604082015260600190565b6020808252818101527f4f776e61626c653a2063616c6c6572206973206e6f7420746865206f776e6572604082015260600190565b6020808252600a9082015269125cc81c995d9bdad95960b21b604082015260600190565b6020808252601f908201527f5265656e7472616e637947756172643a207265656e7472616e742063616c6c00604082015260600190565b600082198211156113a4576113a4611401565b500190565b6000826113c657634e487b7160e01b600052601260045260246000fd5b500490565b60008160001904831182151516156113e5576113e5611401565b500290565b6000828210156113fc576113fc611401565b500390565b634e487b7160e01b600052601160045260246000fd5b6001600160a01b0381168114610f0957600080fdfea26469706673582212203b94583adbd9759b3fae746b0662b37922833083ab7ca43f58b1fb509216656964736f6c63430008060033",
  "linkReferences": {},
  "deployedLinkReferences": {}
}