{
  "_format": "hh-sol-artifact-1",
  "contractName": "Staking",
  "sourceName": "contracts/Staking.sol",
  "abi": [
    {
      "inputs": [
        {
          "internalType": "address",
          "name": "registry",
          "type": "address"
        },
        {
          "components": [
            {
              "internalType": "address",
              "name": "addr",
              "type": "address"
            },
            {
              "internalType": "uint256",
              "name": "amount",
              "type": "uint256"
            }
          ],
          "internalType": "struct Staking.ConstractorInfo[]",
          "name": "infos",
          "type": "tuple[]"
        }
      ],
      "stateMutability": "nonpayable",
      "type": "constructor"
    },
    {
      "anonymous": false,
      "inputs": [
        {
          "indexed": true,
          "internalType": "address",
          "name": "payee",
          "type": "address"
        },
        {
          "indexed": false,
          "internalType": "uint256",
          "name": "amount",
          "type": "uint256"
        },
        {
          "indexed": false,
          "internalType": "uint256",
          "name": "total",
          "type": "uint256"
        },
        {
          "indexed": false,
          "internalType": "uint256",
          "name": "available",
          "type": "uint256"
        }
      ],
      "name": "Locked",
      "type": "event"
    },
    {
      "anonymous": false,
      "inputs": [
        {
          "indexed": true,
          "internalType": "address",
          "name": "previousOwner",
          "type": "address"
        },
        {
          "indexed": true,
          "internalType": "address",
          "name": "newOwner",
          "type": "address"
        }
      ],
      "name": "OwnershipTransferred",
      "type": "event"
    },
    {
      "anonymous": false,
      "inputs": [
        {
          "indexed": true,
          "internalType": "address",
          "name": "owner",
          "type": "address"
        },
        {
          "indexed": false,
          "internalType": "uint256",
          "name": "amount",
          "type": "uint256"
        }
      ],
      "name": "Revoked",
      "type": "event"
    },
    {
      "anonymous": false,
      "inputs": [
        {
          "indexed": true,
          "internalType": "address",
          "name": "payee",
          "type": "address"
        },
        {
          "indexed": false,
          "internalType": "uint256",
          "name": "amount",
          "type": "uint256"
        },
        {
          "indexed": false,
          "internalType": "uint256",
          "name": "total",
          "type": "uint256"
        },
        {
          "indexed": false,
          "internalType": "uint256",
          "name": "available",
          "type": "uint256"
        }
      ],
      "name": "Staked",
      "type": "event"
    },
    {
      "anonymous": false,
      "inputs": [
        {
          "indexed": true,
          "internalType": "address",
          "name": "payee",
          "type": "address"
        },
        {
          "indexed": false,
          "internalType": "uint256",
          "name": "amount",
          "type": "uint256"
        },
        {
          "indexed": false,
          "internalType": "uint256",
          "name": "total",
          "type": "uint256"
        },
        {
          "indexed": false,
          "internalType": "uint256",
          "name": "available",
          "type": "uint256"
        }
      ],
      "name": "TransferLocked",
      "type": "event"
    },
    {
      "anonymous": false,
      "inputs": [
        {
          "indexed": true,
          "internalType": "address",
          "name": "payee",
          "type": "address"
        },
        {
          "indexed": false,
          "internalType": "uint256",
          "name": "amount",
          "type": "uint256"
        },
        {
          "indexed": false,
          "internalType": "uint256",
          "name": "total",
          "type": "uint256"
        },
        {
          "indexed": false,
          "internalType": "uint256",
          "name": "available",
          "type": "uint256"
        }
      ],
      "name": "Unlocked",
      "type": "event"
    },
    {
      "anonymous": false,
      "inputs": [
        {
          "indexed": true,
          "internalType": "address",
          "name": "payee",
          "type": "address"
        },
        {
          "indexed": false,
          "internalType": "uint256",
          "name": "amount",
          "type": "uint256"
        },
        {
          "indexed": false,
          "internalType": "uint256",
          "name": "total",
          "type": "uint256"
        },
        {
          "indexed": false,
          "internalType": "uint256",
          "name": "available",
          "type": "uint256"
        }
      ],
      "name": "Unstaked",
      "type": "event"
    },
    {
      "inputs": [],
      "name": "BALLOT_STORAGE_NAME",
      "outputs": [
        {
          "internalType": "bytes32",
          "name": "",
          "type": "bytes32"
        }
      ],
      "stateMutability": "view",
      "type": "function"
    },
    {
      "inputs": [],
      "name": "ENV_STORAGE_NAME",
      "outputs": [
        {
          "internalType": "bytes32",
          "name": "",
          "type": "bytes32"
        }
      ],
      "stateMutability": "view",
      "type": "function"
    },
    {
      "inputs": [],
      "name": "GOV_NAME",
      "outputs": [
        {
          "internalType": "bytes32",
          "name": "",
          "type": "bytes32"
        }
      ],
      "stateMutability": "view",
      "type": "function"
    },
    {
      "inputs": [],
      "name": "MAINTENANCE_NAME",
      "outputs": [
        {
          "internalType": "bytes32",
          "name": "",
          "type": "bytes32"
        }
      ],
      "stateMutability": "view",
      "type": "function"
    },
    {
      "inputs": [],
      "name": "REWARD_POOL_NAME",
      "outputs": [
        {
          "internalType": "bytes32",
          "name": "",
          "type": "bytes32"
        }
      ],
      "stateMutability": "view",
      "type": "function"
    },
    {
      "inputs": [],
      "name": "STAKING_NAME",
      "outputs": [
        {
          "internalType": "bytes32",
          "name": "",
          "type": "bytes32"
        }
      ],
      "stateMutability": "view",
      "type": "function"
    },
    {
      "inputs": [
        {
          "internalType": "address",
          "name": "payee",
          "type": "address"
        }
      ],
      "name": "availableBalanceOf",
      "outputs": [
        {
          "internalType": "uint256",
          "name": "",
          "type": "uint256"
        }
      ],
      "stateMutability": "view",
      "type": "function"
    },
    {
      "inputs": [
        {
          "internalType": "address",
          "name": "payee",
          "type": "address"
        }
      ],
      "name": "balanceOf",
      "outputs": [
        {
          "internalType": "uint256",
          "name": "",
          "type": "uint256"
        }
      ],
      "stateMutability": "view",
      "type": "function"
    },
    {
      "inputs": [
        {
          "internalType": "address",
          "name": "payee",
          "type": "address"
        }
      ],
      "name": "calcVotingWeight",
      "outputs": [
        {
          "internalType": "uint256",
          "name": "",
          "type": "uint256"
        }
      ],
      "stateMutability": "view",
      "type": "function"
    },
    {
      "inputs": [
        {
          "internalType": "address",
          "name": "payee",
          "type": "address"
        },
        {
          "internalType": "uint32",
          "name": "factor",
          "type": "uint32"
        }
      ],
      "name": "calcVotingWeightWithScaleFactor",
      "outputs": [
        {
          "internalType": "uint256",
          "name": "",
          "type": "uint256"
        }
      ],
      "stateMutability": "view",
      "type": "function"
    },
    {
      "inputs": [
        {
          "internalType": "address",
          "name": "newVoter",
          "type": "address"
        }
      ],
      "name": "changeVoter",
      "outputs": [],
      "stateMutability": "nonpayable",
      "type": "function"
    },
    {
      "inputs": [
        {
          "internalType": "address",
          "name": "voter",
          "type": "address"
        }
      ],
      "name": "deposit",
      "outputs": [],
      "stateMutability": "payable",
      "type": "function"
    },
    {
      "inputs": [
        {
          "internalType": "address",
          "name": "voter",
          "type": "address"
        },
        {
          "internalType": "address",
          "name": "staker",
          "type": "address"
        }
      ],
      "name": "isAllowed",
      "outputs": [
        {
          "internalType": "bool",
          "name": "",
          "type": "bool"
        }
      ],
      "stateMutability": "view",
      "type": "function"
    },
    {
      "inputs": [],
      "name": "isRevoked",
      "outputs": [
        {
          "internalType": "bool",
          "name": "",
          "type": "bool"
        }
      ],
      "stateMutability": "view",
      "type": "function"
    },
    {
      "inputs": [
        {
          "internalType": "address",
          "name": "payee",
          "type": "address"
        },
        {
          "internalType": "uint256",
          "name": "lockAmount",
          "type": "uint256"
        }
      ],
      "name": "lock",
      "outputs": [],
      "stateMutability": "nonpayable",
      "type": "function"
    },
    {
      "inputs": [
        {
          "internalType": "address",
          "name": "payee",
          "type": "address"
        }
      ],
      "name": "lockedBalanceOf",
      "outputs": [
        {
          "internalType": "uint256",
          "name": "",
          "type": "uint256"
        }
      ],
      "stateMutability": "view",
      "type": "function"
    },
    {
      "inputs": [],
      "name": "owner",
      "outputs": [
        {
          "internalType": "address",
          "name": "",
          "type": "address"
        }
      ],
      "stateMutability": "view",
      "type": "function"
    },
    {
      "inputs": [],
      "name": "reg",
      "outputs": [
        {
          "internalType": "contract IRegistry",
          "name": "",
          "type": "address"
        }
      ],
      "stateMutability": "view",
      "type": "function"
    },
    {
      "inputs": [],
      "name": "renounceOwnership",
      "outputs": [],
      "stateMutability": "nonpayable",
      "type": "function"
    },
    {
      "inputs": [],
      "name": "revoke",
      "outputs": [],
      "stateMutability": "nonpayable",
      "type": "function"
    },
    {
      "inputs": [
        {
          "internalType": "address",
          "name": "_addr",
          "type": "address"
        }
      ],
      "name": "setRegistry",
      "outputs": [],
      "stateMutability": "nonpayable",
      "type": "function"
    },
    {
      "inputs": [
        {
          "internalType": "address",
          "name": "from",
          "type": "address"
        },
        {
          "internalType": "uint256",
          "name": "amount",
          "type": "uint256"
        }
      ],
      "name": "transferLocked",
      "outputs": [],
      "stateMutability": "nonpayable",
      "type": "function"
    },
    {
      "inputs": [
        {
          "internalType": "address",
          "name": "newOwner",
          "type": "address"
        }
      ],
      "name": "transferOwnership",
      "outputs": [],
      "stateMutability": "nonpayable",
      "type": "function"
    },
    {
      "inputs": [
        {
          "internalType": "address",
          "name": "payee",
          "type": "address"
        },
        {
          "internalType": "uint256",
          "name": "unlockAmount",
          "type": "uint256"
        }
      ],
      "name": "unlock",
      "outputs": [],
      "stateMutability": "nonpayable",
      "type": "function"
    },
    {
      "inputs": [
        {
          "internalType": "uint256",
          "name": "amount",
          "type": "uint256"
        }
      ],
      "name": "withdraw",
      "outputs": [],
      "stateMutability": "nonpayable",
      "type": "function"
    },
    {
      "stateMutability": "payable",
      "type": "receive"
    }
  ],
  "bytecode": "0x60806040526006805460ff191690553480156200001b57600080fd5b5060405162001747380380620017478339810160408190526200003e91620002a7565b620000493362000160565b600160025560006005556200005e82620001b0565b80516200006b5762000158565b60005b815181101562000156578181815181106200008d576200008d6200042b565b60200260200101516020015160036000848481518110620000b257620000b26200042b565b6020026020010151600001516001600160a01b03166001600160a01b0316815260200190815260200160002081905550818181518110620000f757620000f76200042b565b602002602001015160200151600460008484815181106200011c576200011c6200042b565b602090810291909101810151516001600160a01b0316825281019190915260400160002055806200014d8162000401565b9150506200006e565b505b505062000457565b600080546001600160a01b038381166001600160a01b0319831681178455604051919092169283917f8be0079c531659141344cd1fd0a4f28419497f9722a3daafe3b4186f6b6457e09190a35050565b6000546001600160a01b03163314620002105760405162461bcd60e51b815260206004820181905260248201527f4f776e61626c653a2063616c6c6572206973206e6f7420746865206f776e657260448201526064015b60405180910390fd5b6001600160a01b038116620002685760405162461bcd60e51b815260206004820152601a60248201527f416464726573732073686f756c64206265206e6f6e2d7a65726f000000000000604482015260640162000207565b600180546001600160a01b0319166001600160a01b0392909216919091179055565b80516001600160a01b0381168114620002a257600080fd5b919050565b6000806040808486031215620002bc57600080fd5b620002c7846200028a565b602085810151919450906001600160401b0380821115620002e757600080fd5b818701915087601f830112620002fc57600080fd5b81518181111562000311576200031162000441565b62000321848260051b01620003ce565b8181528481019250838501600683901b850186018b10156200034257600080fd5b60009450845b83811015620003925787828d03121562000360578586fd5b6200036a620003a3565b62000375836200028a565b815282880151888201528552938601939087019060010162000348565b50979a909950975050505050505050565b604080519081016001600160401b0381118282101715620003c857620003c862000441565b60405290565b604051601f8201601f191681016001600160401b0381118282101715620003f957620003f962000441565b604052919050565b60006000198214156200042457634e487b7160e01b600052601160045260246000fd5b5060010190565b634e487b7160e01b600052603260045260246000fd5b634e487b7160e01b600052604160045260246000fd5b6112e080620004676000396000f3fe60806040526004361061016a5760003560e01c80637756c908116100d15780638da5cb5b1161008a578063a91ee0dc11610064578063a91ee0dc146104bf578063b6549f75146104df578063f2fde38b146104f4578063f340fa011461051457600080fd5b80638da5cb5b146104405780639986e4b91461045e578063a16543791461048257600080fd5b80637756c908146103555780637bf46530146103755780637d77a0eb146103965780637eee288d146103b657806386043126146103d6578063884d97a71461042057600080fd5b80634bd1ed76116101235780634bd1ed761461025157806359355736146102735780636c78d2cf146102a957806370a08231146102d2578063715018a614610308578063738fdd1a1461031d57600080fd5b80631e0cba0d1461017957806325d998bb146101aa578063282d3fdf146101ca5780632bc9ed02146101ec5780632e1a7d4d146102105780632f40992e1461023057600080fd5b3661017457600080fd5b600080fd5b34801561018557600080fd5b50610197665374616b696e6760c81b81565b6040519081526020015b60405180910390f35b3480156101b657600080fd5b506101976101c53660046110a0565b610527565b3480156101d657600080fd5b506101ea6101e5366004611113565b61055a565b005b3480156101f857600080fd5b5060065460ff165b60405190151581526020016101a1565b34801561021c57600080fd5b506101ea61022b366004611176565b610739565b34801561023c57600080fd5b506101976914995dd85c99141bdbdb60b21b81565b34801561025d57600080fd5b506101976a4d61696e74656e616e636560a81b81565b34801561027f57600080fd5b5061019761028e3660046110a0565b6001600160a01b031660009081526004602052604090205490565b3480156102b557600080fd5b506101977111dbdd995c9b985b98d950dbdb9d1c9858dd60721b81565b3480156102de57600080fd5b506101976102ed3660046110a0565b6001600160a01b031660009081526003602052604090205490565b34801561031457600080fd5b506101ea61093d565b34801561032957600080fd5b5060015461033d906001600160a01b031681565b6040516001600160a01b0390911681526020016101a1565b34801561036157600080fd5b506101ea610370366004611113565b610973565b34801561038157600080fd5b5061019769456e7653746f7261676560b01b81565b3480156103a257600080fd5b506101976103b136600461113f565b610a9a565b3480156103c257600080fd5b506101ea6103d1366004611113565b610b11565b3480156103e257600080fd5b506101ea6103f13660046110a0565b33600090815260076020526040902080546001600160a01b0319166001600160a01b0392909216919091179055565b34801561042c57600080fd5b5061019761043b3660046110a0565b610bdb565b34801561044c57600080fd5b506000546001600160a01b031661033d565b34801561046a57600080fd5b506101976c42616c6c6f7453746f7261676560981b81565b34801561048e57600080fd5b5061020061049d3660046110da565b6001600160a01b03908116600090815260076020526040902054811691161490565b3480156104cb57600080fd5b506101ea6104da3660046110a0565b610be8565b3480156104eb57600080fd5b506101ea610c8a565b34801561050057600080fd5b506101ea61050f3660046110a0565b610d6f565b6101ea6105223660046110a0565b610e0a565b6001600160a01b038116600090815260046020908152604080832054600390925282205461055491610f66565b92915050565b33610563610f72565b6001600160a01b0316146105925760405162461bcd60e51b81526004016105899061118f565b60405180910390fd5b8061059b575050565b6001600160a01b03821660009081526003602052604090205481111561061c5760405162461bcd60e51b815260206004820152603060248201527f4c6f636b20616d6f756e742073686f756c6420626520657175616c206f72206c60448201526f657373207468616e2062616c616e636560801b6064820152608401610589565b8061062683610527565b10156106845760405162461bcd60e51b815260206004820152602760248201527f496e73756666696369656e742062616c616e636520746861742063616e206265604482015266081b1bd8dad95960ca1b6064820152608401610589565b6001600160a01b0382166000908152600460205260409020546106a79082610f97565b6001600160a01b0383166000908152600460205260409020556005546106cd9082610f97565b6005556001600160a01b0382166000818152600360205260409020547f44cebfefa4561bee5b61d675ccfd8dc9969fff9cc15e7a4eccccd62af94f9c1190839061071686610527565b604080519384526020840192909252908201526060015b60405180910390a25050565b60028054141561078b5760405162461bcd60e51b815260206004820152601f60248201527f5265656e7472616e637947756172643a207265656e7472616e742063616c6c006044820152606401610589565b6002805560065460ff16156107b25760405162461bcd60e51b8152600401610589906111eb565b6000811161080c5760405162461bcd60e51b815260206004820152602160248201527f416d6f756e742073686f756c6420626520626967676572207468616e207a65726044820152606f60f81b6064820152608401610589565b61081533610527565b8111156108815760405162461bcd60e51b815260206004820152603460248201527f576974686472617720616d6f756e742073686f756c6420626520657175616c206044820152736f72206c657373207468616e2062616c616e636560601b6064820152608401610589565b3360009081526003602052604090205461089b9082610f66565b33600081815260036020526040808220939093559151909183156108fc02918491818181858888f193505050501580156108d9573d6000803e3d6000fd5b50336000818152600360205260409020547f204fccf0d92ed8d48f204adb39b2e81e92bad0dedb93f5716ca9478cfb57de0090839061091784610527565b6040805193845260208401929092529082015260600160405180910390a2506001600255565b6000546001600160a01b031633146109675760405162461bcd60e51b8152600401610589906111b6565b6109716000610fa3565b565b3361097c610f72565b6001600160a01b0316146109a25760405162461bcd60e51b81526004016105899061118f565b806109ab575050565b6109b58282610b11565b6001600160a01b0382166000908152600360205260409020546109d89082610f66565b6001600160a01b0383166000908152600360205260408120919091556109fc610ff3565b6001600160a01b038116600090815260036020526040902054909150610a229083610f97565b6001600160a01b0380831660009081526003602052604080822093909355908516808252919020547f2caed32a519a1fd89486d3ffe06202febb5ed51534d571dbab93058545a29e24908490610a7787610527565b6040805193845260208401929092529082015260600160405180910390a2505050565b6001600160a01b0382166000908152600460205260408120541580610ac3575063ffffffff8216155b15610ad057506000610554565b6005546001600160a01b038416600090815260046020526040902054610b0a9190610b049063ffffffff8087169061100b16565b90611017565b9392505050565b33610b1a610f72565b6001600160a01b031614610b405760405162461bcd60e51b81526004016105899061118f565b80610b49575050565b6001600160a01b038216600090815260046020526040902054610b6c9082610f66565b6001600160a01b038316600090815260046020526040902055600554610b929082610f66565b6005556001600160a01b0382166000818152600360205260409020547f5245d528087a96a64f4589a764f00061e4671eab90cb1e019b1a5b24b2e4c2a890839061071686610527565b6000610554826064610a9a565b6000546001600160a01b03163314610c125760405162461bcd60e51b8152600401610589906111b6565b6001600160a01b038116610c685760405162461bcd60e51b815260206004820152601a60248201527f416464726573732073686f756c64206265206e6f6e2d7a65726f0000000000006044820152606401610589565b600180546001600160a01b0319166001600160a01b0392909216919091179055565b6000546001600160a01b03163314610cb45760405162461bcd60e51b8152600401610589906111b6565b60065460ff1615610cd75760405162461bcd60e51b8152600401610589906111eb565b6000546001600160a01b03164780610cee57600080fd5b6040516001600160a01b0383169082156108fc029083906000818181858888f19350505050158015610d24573d6000803e3d6000fd5b506006805460ff191660011790556040516001600160a01b038316907f713b90881ad62c4fa8ab6bd9197fa86481fc0c11b2edba60026514281b2dbac49061072d9084815260200190565b6000546001600160a01b03163314610d995760405162461bcd60e51b8152600401610589906111b6565b6001600160a01b038116610dfe5760405162461bcd60e51b815260206004820152602660248201527f4f776e61626c653a206e6577206f776e657220697320746865207a65726f206160448201526564647265737360d01b6064820152608401610589565b610e0781610fa3565b50565b600280541415610e5c5760405162461bcd60e51b815260206004820152601f60248201527f5265656e7472616e637947756172643a207265656e7472616e742063616c6c006044820152606401610589565b6002805560065460ff1615610e835760405162461bcd60e51b8152600401610589906111eb565b60003411610ee65760405162461bcd60e51b815260206004820152602a60248201527f4465706f73697420616d6f756e742073686f756c642062652067726561746572604482015269207468616e207a65726f60b01b6064820152608401610589565b33600090815260036020526040902054610f009034610f97565b3360008181526003602081815260408084209586556007825290922080546001600160a01b0319166001600160a01b038716179055905290547fb4caaf29adda3eefee3ad552a8e85058589bf834c7466cae4ee58787f70589ed90349061091784610527565b6000610b0a8284611268565b6000610f927111dbdd995c9b985b98d950dbdb9d1c9858dd60721b611023565b905090565b6000610b0a828461120f565b600080546001600160a01b038381166001600160a01b0319831681178455604051919092169283917f8be0079c531659141344cd1fd0a4f28419497f9722a3daafe3b4186f6b6457e09190a35050565b6000610f926914995dd85c99141bdbdb60b21b611023565b6000610b0a8284611249565b6000610b0a8284611227565b600154604051630d2020dd60e01b8152600481018390526000916001600160a01b031690630d2020dd9060240160206040518083038186803b15801561106857600080fd5b505afa15801561107c573d6000803e3d6000fd5b505050506040513d601f19601f8201168201806040525081019061055491906110bd565b6000602082840312156110b257600080fd5b8135610b0a81611295565b6000602082840312156110cf57600080fd5b8151610b0a81611295565b600080604083850312156110ed57600080fd5b82356110f881611295565b9150602083013561110881611295565b809150509250929050565b6000806040838503121561112657600080fd5b823561113181611295565b946020939093013593505050565b6000806040838503121561115257600080fd5b823561115d81611295565b9150602083013563ffffffff8116811461110857600080fd5b60006020828403121561118857600080fd5b5035919050565b6020808252600d908201526c2737902832b936b4b9b9b4b7b760991b604082015260600190565b6020808252818101527f4f776e61626c653a2063616c6c6572206973206e6f7420746865206f776e6572604082015260600190565b6020808252600a9082015269125cc81c995d9bdad95960b21b604082015260600190565b600082198211156112225761122261127f565b500190565b60008261124457634e487b7160e01b600052601260045260246000fd5b500490565b60008160001904831182151516156112635761126361127f565b500290565b60008282101561127a5761127a61127f565b500390565b634e487b7160e01b600052601160045260246000fd5b6001600160a01b0381168114610e0757600080fdfea2646970667358221220d5af404d52d53ec76130016d28665486c99bd63c9214f6e95c13075b32c88e5864736f6c63430008060033",
  "linkReferences": {},
  "deployedLinkReferences": {}
}